:100000000C9456020C949F200C949D020C949D021B
:100010000C949D020C949D020C949D020C949D02E4
:100020000C949D020C949D020C9414280C94E628C8
:100030000C942E230C949D020C949D020C949D0212
:100040000C949D020C949D020C949D020C949D02B4
:100050000C949D020C94A3230C949D020C949D027D
:100060000C949D020C949D020C949D020C949D0294
:100070000C949D020C949D020C949D020C949D0284
:100080000C949D020C949D020C949D020C949D0274
:100090000C949D020C949D020C949D020C949D0264
:1000A0000C949D020C949D020C949D024C054C05F1
:1000B00078057805E005FE052307230709069E0657
:1000C000AF06AF061307230723071C07C707C70799
:1000D000D907D907D007D907D907D907C707C7074D
:1000E000D507D907D907D50753297A29722A7A293A
:1000F000722AC629E929722A402A4F2A29001400A7
:100100001A00090013000A002D002A00040015003F
:100110001600170007002F002B001D001B00060013
:10012000190005000258E000E200E3002A00E100A7
:1001300001510000350033001C0018000F000D00B5
:100140002E00280012000C00080011000B003000E7
:10015000340238003700360010000E002C004F002B
:1001600051005200500002512C00000035001E02C8
:100170001F022002210222022302000000000000D0
:100180000000000000002602000000000000000047
:10019000000000000000000000000000000000005F
:1001A00001000000000000000000270226022502D6
:1001B00024023100000000000000000000002702BF
:1001C000000000000000000000000000000000002F
:1001D00000000000000000000000000000005F00C0
:1001E0006000610000000000000000005C005D0095
:1001F0005E00000000000000000059005A005B0093
:10020000000000000100000062000000000000008B
:100210000000000000004500440043000000000012
:10022000005C0000420041004000000000000000AF
:1002300000003F003E003D00000000000000000004
:100240003C003B003A0001000000000000010101F9
:100250000101010101010202020202020202020383
:100260000303030303030304040404040404050553
:100270000505050606060606070707070708080816
:1002800008090909090A0A0A0B0B0B0C0C0C0D0DC5
:100290000D0E0E0E0F0F0F1010111111121213135D
:1002A0001414151516161717181819191A1A1B1BD6
:1002B0001C1D1D1E1E1F2020212222232424252632
:1002C00026272829292A2B2C2D2D2E2F303132326A
:1002D000333435363738393A3B3C3D3E3F40414276
:1002E000434445464748494A4C4D4E4F505153545C
:1002F000555658595A5B5D5E5F6162646566686910
:100300006B6C6D6F7072737577787A7B7D7E80828F
:10031000838587888A8C8E8F91939596989A9C9ED8
:10032000A0A2A3A5A7A9ABADAFB1B3B5B7BABCBEE8
:10033000C0C2C4C6C9CBCDCFD1D4D6D8DBDDDFE2B5
:10034000E4E7E9EBEEF0F3F5F8FAFDFF28034500EA
:10035000720067006F005400720061007600650053
:100360006C0020004B006500790062006F006100A6
:1003700072006400000028034A00500043006F0030
:100380006E007300740061006E00740069006E00FE
:100390006500610075002E0063006F006D000000B5
:1003A0000403090409023B00020100A0FA09040049
:1003B0000001030101000921110100012240000791
:1003C00005810308000A0904010001030000000977
:1003D0002111010001227B000705820320000A127F
:1003E00001000200000008504A54450001010200CB
:1003F0000105010902A10185020901A100050919F0
:1004000001290815002501950875018102050109DA
:100410003009311581257F95027508810609381547
:1004200081257F950175088106050C0A3802158122
:10043000257F950175088106C0C005010980A101CD
:10044000850319012AB700150126B700950175101B
:100450008100C0050C0901A101850419012AA0022F
:10046000150126A002950175108100C0050109063D
:10047000A101050719E029E7150025019508750177
:1004800081029501750881010507190029FF1500F2
:1004900026FF0095067508810005081901290595B4
:1004A0000575019102950175039101C011241FBECC
:1004B000CFEFDAE0DEBFCDBF04B603FE27C08091E8
:1004C000D9029091DA02A091DB02B091DC02873070
:1004D000904BA740B04BD1F41092D9021092DA029F
:1004E0001092DB021092DC0214BE84B7877F84BFB7
:1004F0000FB6F894A89580916000886180936000A1
:10050000109260000FBEE0E0F8E3099511E0A0E072
:10051000B1E0ECE8F6E502C005900D92A23BB10710
:10052000D9F722E0A2EBB1E001C01D92A93DB207CC
:10053000E1F70E9490160C94442B0C94000081E08B
:10054000089581E008950C94A10208950C94A502E9
:100550001F93CF93DF9300D000D01F92CDB7DEB7AB
:1005600049835A836B833091B40189819A81311117
:1005700014C0662359F0222349F00E946B09182FFA
:10058000682F89819A810E94140903C00E943F0943
:10059000182F69817A81812F04C00E946B096981BB
:1005A0007A810F900F900F900F900F90DF91CF9165
:1005B0001F910C940510FC01262F4081518162810E
:1005C000738184810C94A80281E00895CF93DF9316
:1005D000EC0160E00E94DB02BE01DF91CF910C9440
:1005E000A6020E945C120E9476030C9496120C9450
:1005F000921280E00C94770308950C94FC020E9400
:10060000B5070E94FD022FEF84E39CE0215080405B
:100610009040E1F700C000000C94C9230F931F9392
:10062000CF93DF938C0161E00E94DB02EC01B80103
:100630000E94A302882309F444C0B801CE010E949D
:10064000AC1F8823F1F1B801CE010E945F1C882302
:10065000C1F1B801CE010E94081F882391F1B801B1
:10066000CE010E94A51B882361F1F80182818823B5
:1006700009F1CB358DE5D807C1F050F4C115FCE583
:10068000DF0781F0CF3DDC45A9F40E94190F19C0A6
:10069000CC35EDE5DE0761F0CD35DD4559F40E943E
:1006A000620E08C00E94FF020CC00E946B0E02C0C6
:1006B0000E946E0EC801DF91CF911F910F910C9493
:1006C0009F0280E0DF91CF911F910F9108950C94CC
:1006D000FC020E9428220E9477030C94670308956D
:1006E0000C946F0381E008950C9472030895CF93E6
:1006F000C82F0E9470038C2F0E947403CF9108951D
:10070000CF93DF93CDB7DEB72B970FB6F894DEBF4C
:100710000FBECDBF4F83588769877A878B8761115A
:100720000E94AE0D9E012F5F3F4F86E0F9011192AE
:100730008A95E9F785E0FE013796D90101900D927F
:100740008A95E1F789819A814C815D81452B31F051
:100750009F3F31F491E08F3F19F403C091E001C055
:1007600090E090FF09C049815A816B817C818D8125
:100770009E810E94CF0C05C0C9010E94E402811134
:10078000F2CF2B960FB6F894DEBF0FBECDBFDF9130
:10079000CF910895FC01808191810E94AD09089557
:1007A000CF93882309F4A9C0C82F8238C1F40E94CE
:1007B000282281FDA2C069E380910201909103018A
:1007C0000E94C2220E94E00D2FEF81EE94E02150A2
:1007D00080409040E1F700C0000069E319C0833811
:1007E00001F50E94282280FD88C063E58091020106
:1007F000909103010E94C2220E94E00D2FEF81EE32
:1008000094E0215080409040E1F700C0000063E593
:1008100080910201909103010E94C422CF910C9417
:10082000E00D8438C1F40E94282282FD66C067E48E
:1008300080910201909103010E94C2220E94E00D6A
:100840002FEF81EE94E0215080409040E1F700C00E
:10085000000067E4DDCF8CEF8C0F813AF8F48C2F29
:100860000E94BF1E811149C06C2F8091020190919E
:1008700003010E948C22882349F06C2F8091020191
:10088000909103010E94C4220E94E00D6C2F809180
:100890000201909103010E94C222C0CF80E28C0F1E
:1008A000883048F4C77081E001C0880FCA95EAF724
:1008B0000E94910DB3CFEBE5EC0FE33040F4F0E094
:1008C000E559FE4F808190E0CF910C945422E8E5E9
:1008D000EC0FE73150F4F0E0EE0FFF1FE35CFE4F4A
:1008E00080819181CF910C946A22CD3E30F08C2F83
:1008F0000E941F17CF910C94F117CF910895882370
:1009000009F464C0823879F40E94282281FF5EC015
:1009100069E380910201909103010E94C2220E942A
:10092000E00D69E310C08338B1F40E94282280FFF3
:100930004DC063E580910201909103010E94C222A3
:100940000E94E00D63E580910201909103010E94F5
:10095000C4220C94E00D843879F40E94282282FF8E
:1009600035C067E480910201909103010E94C22288
:100970000E94E00D67E4E7CF9CEF980F913A10F4E6
:10098000682FE1CF90E2980F983050F4877091E093
:1009900001C0990F8A95EAF7892F0E94970DD9CF48
:1009A0009BE5980F933020F480E090E00C94542263
:1009B00098E5980F973120F480E090E00C946A223B
:1009C0008D3E20F00E947A170C94F11708951F9322
:1009D000CF93DF93182FEB010E94D003209741F0B3
:1009E0008FE99FE00197F1F700C000002197F6CF53
:1009F000812FDF91CF911F910C947F04893319F0DF
:100A000060E070E002C060E570E00C94E7048823C9
:100A100021F00E94910D0C94E00D0895882321F09F
:100A20000E94970D0C94E00D0895CF92DF92EF9203
:100A3000FF920F931F93CF93DF937C01162FC72F45
:100A4000FC01D281058102950F700E94870D8823D9
:100A5000B9F0DD23A9F08C2F807F803421F080E273
:100A6000810F883068F080918B0282FD09C082E09E
:100A70000E94300E0E94870D91E0D82ED92601C029
:100A8000D12CCC2EC2948FE0C8228C2D90E0FC019A
:100A9000EA5AFF4F0C94E02A8C2F807FCF70882376
:100AA00011F0C295C07FDD2399F0CC2309F4A6C1D3
:100AB00080E2810F883010F0111104C08C2F0E9449
:100AC000910D03C08C2F0E94A10D0E94E00D96C1D4
:100AD000812F0E947F04CC2309F4B5C180E2810FED
:100AE000883038F1112329F18C2F0E94A70D24C0E2
:100AF0008C2F807FCF70803211F0C295C07F112380
:100B000019F01130A1F13DC080918B0282FF17C016
:100B1000DD2349F0CC2329F08C2F0E94910D0E94F7
:100B2000E00D80E06CC180E00E947F04CC2309F4DA
:100B30008AC18C2F0E94970D0E94E00D84C1DD2395
:100B400071F0002341F0013031F40E94C10D8C2B73
:100B50000E94C90D78C10E94C10D8C2B1DC00023BD
:100B600019F0013009F46FC10E94D60D25C0DD23B4
:100B700021F0063008F067C10EC0053008F063C1EF
:100B80001BC0DD2361F0002331F0F701858180FF78
:100B900035C18F7085838C2F0E94070554C10023B7
:100BA00059F0193309F03BC1FFEF27EE83E0F15014
:100BB00020408040E1F731C18C2F0E940E0543C1D7
:100BC0008C2F86958695837019F0813061F03BC13A
:100BD000DD2321F0812F9C2F937002C080E090E0F4
:100BE0000E94542238C1DD2321F0812F9C2F937065
:100BF00002C080E090E00E946A222DC1812FDD2397
:100C000019F00E941F1702C00E947A170E94F11764
:100C100022C18C2F837009F045C0D11118C1412F1A
:100C2000429546954770440F440F612F6F70862F91
:100C300090E0A0E0B0E0042E04C0880F991FAA1F26
:100C4000BB1F0A94D2F714FF10C00FE010E020E0A1
:100C500030E004C0000F111F221F331F4A95D2F746
:100C6000009510952095309503C000E010E09801A4
:100C7000C695C695C370BC01CD01602B712B822B2C
:100C8000932BC23049F058F4C13019F00E942A0861
:100C9000DEC00E941808DBC00E943C08D8C00E9439
:100CA0001608D5C0DD2319F08C2F817001C0869500
:100CB000882309F4CCC0412F429546954770440FD4
:100CC000440F612F6F70862F90E0A0E0B0E0042EFB
:100CD00004C0880F991FAA1FBB1F0A94D2F714FFE4
:100CE00010C00FE010E020E030E004C0000F111F42
:100CF000221F331F4A95D2F7009510952095309505
:100D000003C000E010E09801C695C695C370BC0111
:100D1000CD01602B712B822B932BC23049F058F4FC
:100D2000C13019F00E94EF0892C00E94DD088FC008
:100D30000E9401098CC00E94500889C0CF70DD2339
:100D400039F08C2F0E947608812F0E9407057FC002
:100D5000812F0E940E058C2F0E94970878C0123FA9
:100D600021F128F4103F41F0113FC1F043C0133F7F
:100D700019F1143F79F03EC0DD2341F0053008F051
:100D800062C08C2F8F710E94BC085DC0063008F0D5
:100D90005AC0F7CF80918B0282FF18C0DD2339F053
:100DA0008C2F8F710E9476084EC0DD23C9F38C2FE3
:100DB0008F710E94970847C0DD2329F08C2F8F7117
:100DC0000E94610840C00E945C083DC0DD2349F0DC
:100DD000CF718C2F0E94760863E08C2F0E94150E35
:100DE00032C081E00E94300E023068F182E00E9441
:100DF000300E29C0DD2331F0002391F2812F0E94B3
:100E0000D00321C0002399F2193349F49FEFE7EE94
:100E1000F3E09150E040F040E1F700C00000812F86
:100E20000E947F0410C04C2F4F70612FC7010E9499
:100E300001100E94DB090FC04C2F4F70612FC701BA
:100E40000E94041008C088EF8C0D843020F40E94AA
:100E500028220E947703DD20C9F00E94830D80FDC7
:100E600015C0F70112820E947D0D0E947608C7010D
:100E70000E9467070E947D0DDF91CF911F910F9116
:100E8000FF90EF90DF90CF900C949708DF91CF9177
:100E90001F910F91FF90EF90DF90CF9008950F93E7
:100EA0001F93CF93DF93EC01688179818A810E943F
:100EB000B8098C010E9413090E940408B801CE01F0
:100EC0000E941505DF91CF911F910F910895CF9347
:100ED000DF93EC01988189812B813C81232B31F0B8
:100EE0008F3F31F481E09F3F19F403C081E001C0DE
:100EF00080E080FD1DC0CE010E940E03811110C054
:100F00000E94870D8823A1F08A81882389F080912F
:100F10008B0282FD0DC082E0DF91CF910C94300EE8
:100F2000CE010E944F07CE01DF91CF910C94E602D3
:100F3000DF91CF91089580E090E00E94542280E0FC
:100F400090E00E946A220E94AE0D0E94BE0D0E9497
:100F5000E00D0E9422190C94F117809102019091EA
:100F600003010E94C6220C949B070E949E0D0C94C4
:100F7000AD07E92FE295EF704E2F50E0FA0132975E
:100F8000EE30F105B0F4EA59FF4F0C94E02A803FAF
:100F900091F018F4883E68F40EC0843F51F40BC001
:100FA000883E48F0813F29F406C093FB882780F9EA
:100FB000089580E0089581E00895FC018081918189
:100FC0000E94AD090E94B9070895CF93DF9300D026
:100FD00000D01F92CDB7DEB70F900F900F900F90FB
:100FE0000F90DF91CF910895CF93DF9300D000D081
:100FF00000D0CDB7DEB726960FB6F894DEBF0FBE91
:10100000CDBFDF91CF910895089508950C94050800
:101010000C9406080E9408086093DC017093DD01BF
:101020008093DE019093DF010C949B070C940A08D7
:101030000F931F930091DC011091DD012091DE01DF
:101040003091DF01602B712B822B932B1F910F911D
:101050000C940A080F931F930091DC011091DD019D
:101060002091DE013091DF016023712382239323DD
:101070001F910F910C940A080F931F930091DC01AC
:101080001091DD012091DE013091DF016027712791
:10109000822793271F910F910C940A080C9405083E
:1010A0000E944E086093D8017093D9018093DA01B1
:1010B0009093DB010C949B0760E070E0CB010C94F3
:1010C00050080F931F9341E050E060E070E08A0108
:1010D0009B0104C0000F111F221F331F8A95D2F7F6
:1010E000C901B8011F910F910C9450080F931F93E1
:1010F00041E050E060E070E004C0440F551F661FFF
:10110000771F8A95D2F78091D8019091D901A0914B
:10111000DA01B091DB018A019B01082B192B2A2BE4
:101120003B2BC901B8011F910F910C9450080F93EC
:101130001F9341E050E060E070E004C0440F551F91
:10114000661F771F8A95D2F74095509560957095E8
:101150008091D8019091D901A091DA01B091DB0181
:101160008A019B01082319232A233B23C901B801C3
:101170001F910F910C9450080F931F9341E050E082
:1011800060E070E004C0440F551F661F771F8A950A
:10119000D2F78091D8019091D901A091DA01B09154
:1011A000DB018A019B01082719272A273B27C90150
:1011B000B8011F910F910C9450080F931F93009149
:1011C000D8011091D9012091DA013091DB01602B17
:1011D000712B822B932B1F910F910C9450080F931E
:1011E0001F930091D8011091D9012091DA0130911B
:1011F000DB0160237123822393231F910F910C94B1
:1012000050080F931F930091D8011091D90120919C
:10121000DA013091DB0160277127822793271F9124
:101220000F910C945008089527E0929F800D11248F
:10123000E82FE695E695E695877051E001C0550FD9
:101240008A95EAF785E0E89FF0011124EB54FE4F00
:1012500020E030E070E04081CB01022E02C0969584
:1012600087950A94E2F781708195842785238427E6
:1012700081932F5F3F4F2530310569F7089527E0AF
:10128000929F800D1124682F669566956695982F1C
:10129000977085E0689FB001112440E050E080E045
:1012A000FB01E40FF51FEB54FE4F208130E0092EC7
:1012B00002C0369527950A94E2F721703327042E51
:1012C00001C0220F0A94EAF7822B4F5F5F4F45302F
:1012D000510531F70895BF92CF92DF92EF92FF92BE
:1012E0000F931F93CF93DF938C01C090D801D090C0
:1012F000D901E090DA01F090DB018091DC0190915E
:10130000DD01A091DE01B091DF01C82AD92AEA2AC5
:10131000FB2ACFE1D0E0D701C6010C2E04C0B69560
:10132000A795979587950A94D2F780FD04C02197D9
:1013300090F7B12C07C0BC2EB8018C2F0E943C1135
:101340000197A9F38B2DDF91CF911F910F91FF9002
:10135000EF90DF90CF90BF900895CF93DF93EC0193
:101360000E946B09BE010E943C11DF91CF9108954C
:101370001F93CF93DF93EB019091B401992321F058
:10138000CB010E94AD0913C0882349F0CB010E9414
:101390006B09182F682FCE010E94140904C0CB01DD
:1013A0000E943F09182FBE01812F0E943C11DF913E
:1013B000CF911F910895EF92FF920F931F93CF93B8
:1013C000DF938C01892B09F46CC0F12CEE24E3949B
:1013D000E8012196F8018491843740F4843008F0C4
:1013E00051C0813081F0823019F15BC0853709F43A
:1013F00044C0A8F19CE7980F903708F052C08F774F
:101400000E947F0441C00E5F1F4FFE01849190E255
:10141000980F983050F48770FE2D01C0FF0F8A9509
:10142000EAF78F2F0E94B10D14C00E94D0032DC087
:101430000E5F1F4FFE01849190E2980F983060F488
:101440008770FE2D01C0FF0F8A95EAF78F2F0E944B
:10145000B70D0E94E00D19C00E947F0416C00E5FF8
:101460001F4FFE01C491CC2381F08FE99FE00197CB
:10147000F1F700C00000C150F6CF0E5F1F4FFE0114
:10148000F49003C00E94D0038E018F2D882309F4AD
:101490009FCFEFE9FFE03197F1F700C000008150E6
:1014A000F5CFDF91CF911F910F91FF90EF900895AD
:1014B0001F93CF93DF93C091E00116E08091E1018B
:1014C000C81799F0D0E01C9FF0011D9FF00D11246A
:1014D000EE51FE4F408151816281738184819581FB
:1014E0000E94F4072196C770E9CFDF91CF911F9139
:1014F000089540911202509113026091140270916C
:10150000150280911602909117020C94F407EF9245
:10151000FF920F931F93CF93DF93809117028295D1
:101520008F7009F065C080911402882309F460C0AF
:101530008091E001F090E1011091120200911302FC
:10154000609115027091160291E01F3F09F090E042
:10155000C0910001D0910101292F96E0E92E8F154D
:1015600009F446C06115710521F00F3F21F030E00C
:1015700003C031E001C0322F90E030FD36C0E89E5C
:10158000F001E99EF00D1124DF01AE51BE4F11961E
:101590003C911197301329C03C91311326C012960B
:1015A0003C911297311121C013964D915C91149783
:1015B000461B570B4C175D07C0F4809117028F70C4
:1015C000806180931702E951FE4F80818F708061A6
:1015D000808382E192E00E946707DF91CF911F91A3
:1015E0000F91FF90EF900C94580A01968770B7CF37
:1015F000DF91CF911F910F91FF90EF9008959F92EF
:10160000AF92BF92CF92DF92EF92FF920F931F9310
:10161000CF93DF93CDB7DEB761970FB6F894DEBFF7
:101620000FBECDBF8C0185E0F801DE011D96019053
:101630000D928A95E1F7D8011296EC9090911202E2
:10164000E091130220911502309116022115310507
:1016500031F0EF3F31F481E09F3F19F403C081E0A6
:1016600001C080E0B82FB1709B2E80FD47C1D8012A
:101670004C9111965C9111971396AD90BC90149774
:1016800082E1C82E82E0D82EF0901402B501621BD0
:10169000730B2091000130910101FF2009F4D9C0A2
:1016A000809117026217730708F095C0282F207FDA
:1016B00009F052C05E1313C0491311C0FE2CE11093
:1016C0000EC08F708061809317020E94790AC60154
:1016D0000E94670780911702F80185834DC1AB28EE
:1016E00031F05F3F31F481E04F3F19F403C081E0F6
:1016F00001C080E080FD03C081E08E2502C080E053
:1017000090E0F82FF170FF2E80FF1CC08091E00167
:101710002091E10136E0821709F40BC190E0389F77
:10172000F001399FF00D1124EE51FE4F61815613E7
:1017300006C06081461303C06281E61203C00196B1
:101740008770E9CFFE2CEE2009F416C180911702B4
:1017500081608093170254C05E1306C0491304C011
:10176000E11002C0F80199C0C8010E94DD0788237A
:1017700061F1EE2051F120911702822F82958F7036
:1017800090E0029774F08091120290911302988772
:101790008F831986BB86AA862C87CE0107960E9466
:1017A000670786E0F801A2E1B2E001900D928A9508
:1017B000E1F70E94870A0E94790A0AC05E1711F1B8
:1017C000C8010E94DD0781112CC0C8010E94670773
:1017D000FF24F394D1C0282F207F81F77A2DB98A76
:1017E000A88A6E2D89890E94E50782E192E00E9415
:1017F000670786E0D6011D928A95E9F70E94790A6B
:10180000F12CBAC04913DCCFE110DACFF80185839F
:10181000C8010E94670786E0D6011D928A95E9F704
:10182000ABC0EE2091F220911702822F82958F702B
:1018300090E002970CF4B5CF8091120290911302C0
:101840009A8389831B82BD82AC822E83CE0101964E
:10185000A6CF6217730708F044C0FE2CEE2009F4EF
:10186000B4CF5E1330C049132EC02091170220FD63
:1018700021C0822F82958F70482F50E0411551056D
:10188000C9F0F80125834F30510541F08F5F982F43
:101890009295907F822F8F70892B8583C8010E943B
:1018A000670786E0F801A2E1B2E001900D928A9507
:1018B000E1F73CC086E0F801A2E1B2E001900D92B0
:1018C0008A95E1F759C0C8010E94DD07811169CFEF
:1018D00080911702816080931702C8010E946707F8
:1018E0004BC07A2DB98AA88A6E2D89890E94E50796
:1018F00086E0D6011D928A95E9F718C0EE2009F41A
:1019000064CFC8010E94DD07F82E882309F45DCF5B
:1019100086E0F801A2E1B2E001900D928A95E1F72C
:1019200082E192E00E94CA030E94870A0E94790A1B
:1019300023C04D875E878D859E850E94AD09292F26
:1019400022952F70223028F49F7039F0811105C044
:101950000BC0243028F49F7049F4805E883020F05A
:10196000C8010E9467079F2CF92C06C0D801159664
:101970009C91907F91F7F8CF8F2D61960FB6F894D8
:10198000DEBF0FBECDBFDF91CF911F910F91FF90B2
:10199000EF90DF90CF90BF90AF909F9008951F93EE
:1019A000CF93DF93CDB7DEB72C970FB6F894DEBF99
:1019B0000FBECDBF4F83588769877A878B879C87F7
:1019C000CE0107960E94FF0A8823D1F09F81888567
:1019D0002A853B85232B31F08F3F31F481E09F3FF7
:1019E00019F403C081E001C080E080FD47C04F8151
:1019F000588569857A858B859C850E94F4073EC051
:101A000086E0FE013796DE01119601900D928A95CF
:101A1000E1F7FF81E8856A857B856115710531F005
:101A2000EF3F31F481E0FF3F19F403C081E001C0D2
:101A300080E080FD23C02091E10130E0C9010196E2
:101A4000877099274091E00150E084179507F1F1E4
:101A5000F983EA837D836C8396E0929FD001939F04
:101A6000B00D1124AE51BE4FFE01319601900D9282
:101A70009A95E1F78093E1010E94580A16E080915F
:101A8000E0019091E101891771F1189FC0011124C3
:101A90008E519E4F0E94FF0A882329F1E091E001B8
:101AA0001E9FF0011124EE51FE4F40815181628151
:101AB0007381848195810E94F4078091E00190E018
:101AC0000196877099278093E001D9CF0E94B507CE
:101AD0001092E1011092E001E2E1F2E086E0DF0124
:101AE0001D928A95E9F72C960FB6F894DEBF0FBECB
:101AF000CDBFDF91CF911F910895809118028595F8
:101B00008595859508958091180287700895909124
:101B10001802977081E009F480E008958091240212
:101B2000089590912402892B809324020895809532
:101B30009091240289238093240208951092240214
:101B4000089590912302892B809323020895809514
:101B500090912302892380932302089510922302F7
:101B6000089590912202892B8093220208958095F6
:101B700090912202892380932202089510922202DA
:101B8000089580911902089508950C94C40D0C9441
:101B9000C50D90918B0292FD08C090911902981783
:101BA00021F0809319020C94C70D089580911902B9
:101BB000882329F01092190280E00C94C70D089533
:101BC000E0910201F0910301809124028083E09171
:101BD0000201F0910301908180912302892B80837F
:101BE000E0910201F0910301908180912202892B02
:101BF000808380911902882381F0E0910201F091A5
:101C000003019081892B80838091020190910301CF
:101C10000E94802281110E94D60D80910201909134
:101C200003010C943B220C94C40D90918B0292FD05
:101C300010C098E0899F90011124262B2093180250
:101C40000E947608809118028595859585950C945B
:101C5000130E0C9476081092180280E00C94130E68
:101C6000209118028095822380931802982F9770F4
:101C700099F430E0482F082E000C550B2417350737
:101C800059F090918B0292FD07C0859585958595B9
:101C90000E9497080C942B0E089590918B0292FB52
:101CA000222720F9281769F080FB92F990938B0284
:101CB00080918A0290918B020E94950E82E00C9492
:101CC000300E089580918B0282FB882780F991E085
:101CD00089270C944D0E81E00C944D0E80E00C94FD
:101CE0004D0E80E090E00E940A2B21E0893E9E4F3D
:101CF00009F020E0822F089582E090E00C94FC2A05
:101D000083E090E00C94FC2ACF9384E090E00E9462
:101D1000FC2AC82F82E290E00E94FC2A2C2F30E09F
:101D2000A901582BCA01CF910895CF93C92F682FCD
:101D300084E090E00E94102B6C2F82E290E0CF9123
:101D40000C94102BAB01BC018FE090E00C94222B83
:101D5000AB01BC0183E190E00C94222B60E070E0C9
:101D6000CB010C94A80E60E070E0CB010E94A20EA3
:101D70000C94AE0E69EE7EEF80E090E00E942E2B78
:101D800060E082E090E00E94102B60E083E090E051
:101D90000E94102B1092DC011092DD011092DE01E6
:101DA0001092DF0160E084E090E00E94102B60E080
:101DB00082E290E00E94102B60E085E090E00E94BB
:101DC000102B60E086E090E00E94102B6FEF87E020
:101DD00090E00E94102B40E050E0BA0188E090E0D3
:101DE0000E94222B60E08DE090E00E94102B40E0EA
:101DF00050E0BA0188E190E00E94222B60E087E188
:101E000090E00E94102B40E050E0BA018CE190E09D
:101E10000E94222B60E070E080E290E00E942E2B76
:101E200040E050E0BA0188E190E00E94222B0C943F
:101E3000B30E0C94BA0E682F8EE090E00C94102B29
:101E40000E946C23609332027093330280933402B9
:101E50009093350260932E0270932F02809330028C
:101E600090933102089585B7806885BF85B78068F3
:101E700085BF08950C944B1408950C943C0F0C945A
:101E80003C0F0C943F0F0C943C0F0C94430F0C949C
:101E90003C0F0E94330F89E592E10E941E220E94AE
:101EA000470F0C94450F0E943D0F0C943C0F0E946D
:101EB00057230E9418120E9436130E94471C0E944A
:101EC0006E1B0C94410F9F92AF92BF92CF92DF9204
:101ED000EF92FF920F931F93CF93DF93CDB7DEB7AF
:101EE0002A970FB6F894DEBF0FBECDBF0E94C01375
:101EF00081110E94200F86E2A82E82E0B82E00E019
:101F000010E0902E802F0E948012D82EF501C190F3
:101F10005F01C826B1F40F5F1F4F0830110589F724
:101F20008FEF89838A831B820E9460238160782FD0
:101F30009D838C8349815A816B818D810E948003AE
:101F40002FC08091360281FD0E948612E12CFF2471
:101F5000F3948C2D8F21F1F00E943A0F882399F091
:101F6000EE829F82DF2081E009F480E088870E9472
:101F700060238160782F9A8789874E815F81688589
:101F80008A850E948003F801EA5DFD4F8081F82672
:101F9000F08206C0E394FF0CF7E0EF12DACFBBCF7C
:101FA0000E940F180E942822909125028917B9F0EB
:101FB0000E942822809325022A960FB6F894DEBF4D
:101FC0000FBECDBFDF91CF911F910F91FF90EF908A
:101FD000DF90CF90BF90AF909F900C9477032A969C
:101FE0000FB6F894DEBF0FBECDBFDF91CF911F912A
:101FF0000F91FF90EF90DF90CF90BF90AF909F90A8
:10200000089580E090E00895089528E3829FC0013C
:102010001124FC0127E0729FE00DF11D1124E60F51
:10202000F11DEE0FFF1FE450FF4F8591949108952D
:10203000880F991FFC01E45BFD4F859194910895F1
:10204000CF93DF930E944111EC01811520E59207A7
:1020500008F03FC0811540E4940708F0D2C0883EE4
:10206000910500F5803E910508F002C1883A91057E
:1020700070F4853A910508F0A6C08130910509F405
:102080009FC008F4F2C0049708F0F2C0EEC08F3B86
:10209000910508F4A1C0803C910508F4E6C0805C7D
:1020A0009109A5C0811550E2950760F4C11581E042
:1020B000D80708F0DDC0CD3ED10508F4D6C0CE016A
:1020C0009065D7C0811520E3920708F093C09F70F8
:1020D0008EC0811545E5940708F046C0811554E58A
:1020E000950708F0A6C0C11582E5D80718F5C115F7
:1020F00021E5D20708F088C0CE01F4E096958795D7
:10210000FA95E1F7282F23703C2F337081E090E09F
:1021100002C0880F991F3A95E2F79C68922B2C2FEA
:102120002F702695269540E2249F90011124822B42
:10213000932B9FC09E01237033279C2F96959695D5
:10214000C115D34508F065C041E050E002C0440F1E
:10215000551F2A95E2F780E2989F90011124CA0149
:10216000822B932B9C6885C0811559E5950798F4BF
:10217000C11588E5D80708F061C0C11526E5D2076A
:1021800008F073C08C2F0E94D5118F7190E0982FAA
:10219000882790626EC081154AE5940708F453C001
:1021A00090568115904208F060C08D2F8F710E946B
:1021B000D5119E01332730628F71A901582B53C06E
:1021C00081E090E056C0855AC82FD0E0C456DE4F5B
:1021D000888190E090644DC0885AC82FD0E0CC0F21
:1021E000DD1FC259DE4F88819981946442C00E94EC
:1021F00018103FC09927D3FF02C0986C3AC0906C6A
:1022000038C09F70906A35C09C2F8827816F906A74
:1022100030C041E050E002C0440F551F2A95E2F75C
:1022200080E2989F90011124CA01822B932B9A6817
:1022300020C0982F8827846F906A1BC09C2F882706
:10224000806F906A16C08F700E94D5119E0194E035
:10225000369527959A95E1F72F7030E0322F222797
:102260003069A901482BCA0104C080E090E001C098
:10227000CE01DF91CF9108950E9405100E94201099
:1022800008958238910569F1B0F48133910509F41C
:102290006DC048F48932910509F463C08A32910512
:1022A00009F469C008958533910509F455C089334F
:1022B0009105B9F00895833E910569F138F4803EA7
:1022C0009105B1F0823E910509F10895863E910590
:1022D000A9F1873E9105B9F1843E910509F064C0EA
:1022E00023C020918A0220FD4FC021FD4DC00895DA
:1022F00080918A0280FD44C080918B0280FF44C09F
:1023000080918A0284FD42C083EE4DC080918A0292
:1023100082FF38C0F5CF80918A0282FD33C0809160
:102320008B0280FD31C0ECCF80918B0281FF32C0E7
:1023300080918A0284FD2AC087EE35C080918A028E
:1023400083FF26C0F5CF80918A0283FD21C0809152
:102350008B0281FD1FC0ECCF80918A0285FD1CC0DD
:102360001DC080918A0285FD19C016C080918A0225
:1023700086FD16C017C080918A0286FD13C010C06A
:1023800089E311C082EE0FC080EE0DC080E00BC06B
:1023900086EE09C084EE07C089E205C085E303C06C
:1023A0008AE201C081E390E0089590918A0292FF51
:1023B0000DC0282F2871283019F4877F846006C04B
:1023C000282F2471243011F48B7F886093FF0DC077
:1023D000282F2871283119F4877E846106C0282FA0
:1023E0002471243111F48B7E886120918B0220FFAF
:1023F0000DC0382F3871383019F4877F816006C0DE
:10240000382F3171313011F48E7F886021FF0DC07B
:10241000282F2871283119F4877E816106C0282F62
:102420002171213111F48E7E886194FD877E08959B
:1024300010928602109287021092880210928902EE
:102440000895CF92DF92EF92FF926B017C010E9480
:102450004B1481110EC00E946C23C61AD70AE80AD9
:10246000F90AC0928602D0928702E0928802F09226
:102470008902FF90EF90DF90CF9008950F931F9304
:102480000E944B14882321F01F910F910C946C2310
:102490000E946C230091860210918702209188028D
:1024A00030918902600F711F821F931F1F910F913E
:1024B000089580E0089508950E94710E811102C070
:1024C0000E94190F0E947C0E809336020E94840E97
:1024D00090938B0280938A020E945B120E94800E6E
:1024E000682F70E080E090E00E9416086091D801AB
:1024F0007091D9018091DA019091DB010C944E0822
:10250000E82FF0E0EC56FD4F80810895089580EAB1
:102510008A95F1F7089500C008950C9487120895E4
:102520000C948F120C9490120C948F120C949412A1
:10253000F894E82FE295EF70F0E031A1282F2F708A
:1025400081E090E001C0880F2A95EAF7982F9095D6
:10255000932391A392A1892B82A37894089508953F
:102560000C94AF120F931F93CF93DF93C6EAD1E081
:1025700089918F3F11F00E94981281E0CA3AD807E2
:10258000B9F7CFE9D1E006EA11E089918F3F11F068
:102590000E9498120C171D07C1F7DF91CF911F9170
:1025A0000F910895CF92DF92EF92FF920F931F93B6
:1025B000CF93DF938C01C62FD0E0CE018A559E4F7A
:1025C0007C01FC0190819F3F09F447C0D62EF8940E
:1025D000E92FE295EF70F0E081A19F7021E030E0FB
:1025E00001C0220F9A95EAF7822B81A382A1209540
:1025F000282322A378940E948B12EFE9F1E046EAA7
:1026000051E031E0C12C21912F3F89F0A22FA295FA
:10261000AF70B0E090968C9190E02F7002C09595CD
:1026200087952A95E2F780FD02C0832F01C080E0E4
:10263000C82A330F4E175F0731F7F70180818F3FAC
:1026400011F00E94981261E0C11001C060E08D2D70
:102650000E948D12C00FD11FC882DF91CF911F91B0
:102660000F91FF90EF90DF90CF9008950E94651436
:102670008091040180910401811102C094E001C0A5
:1026800090E090939D0284E0891B80939C020E94BD
:10269000B21288E0E4E9F2E0DF01982F1D929A95EA
:1026A000E9F7ECE8F2E0DF011D928A95E9F784E0B2
:1026B0000E9414140E94F1020C946F140F931F9344
:1026C000CF93DF9300D000D0CDB7DEB70E944B147C
:1026D00060919D028823E9F119821A821B821C8273
:1026E000862F90E08E010F5F1F4FB8018C569D4FD3
:1026F0000E947D14882389F080919C0290E044E040
:1027000050E0B8018C569D4F0E94E62A21E02093AC
:102710003702892B69F410E019C0809137028823B1
:10272000D1F384E0F80111928A95E9F7109237020B
:10273000E0919C02F0E0EC56FD4F89819A81AB81DB
:10274000BC8180839183A283B38311E00E94F7024E
:102750000DC070E06C567D4F80919C0290E08C56CD
:102760009D4F0E940D150E94B01210E0812F0F9016
:102770000F900F900F90DF91CF911F910F910895BF
:10278000EF92FF920F931F93CF93DF93CDB7DEB7F6
:1027900028970FB6F894DEBF0FBECDBF8E010F5F36
:1027A0001F4F88E0F80111928A95E9F7F12C6F2DFF
:1027B000C8010E94D212F394F4E0FF12F8CF48E06F
:1027C00050E0B8018CE892E00E94E62A7C0121E00A
:1027D000892B09F420E0E114F10441F088E0F801CC
:1027E000ACE8B2E001900D928A95E1F760919D020C
:1027F00070E06C567D4F44E08CE892E00E94151426
:10280000EF2819F40E945E1302C081E090E0289640
:102810000FB6F894DEBF0FBECDBFDF91CF911F91F1
:102820000F91FF90EF9008950895FF920F931F93DB
:10283000CF93DF938C01F62ED72FC42F222349F09C
:1028400081E080933A020E94602390933902809342
:10285000380280913A028823C1F080913802909129
:1028600039020E947823059780F0EF2DFD2FD801C3
:102870004C2F50E0CD01801B910B841795071CF461
:102880008D918193F7CF10923A02DF91CF911F91F2
:102890000F91FF90089580913D0281110DC00E941B
:1028A000AB2A811102C082E001C081E080933D0229
:1028B000823011F40E94A62A81E090913D0291306D
:1028C00009F080E008950C944B140E9463148093E7
:1028D00004010E944B1481110C94B51408950E94B8
:1028E0004B14811102C00C94B714089581E09091AB
:1028F0003E029A3008F080E008950F931F93CF9323
:10290000DF93EC018B0180913E028A3038F4B801EC
:10291000CE010E940B1581111DC00AC080913B029F
:1029200090913C020E947823843F914080F715C02B
:1029300080913E028F3F19F08F5F80933E0280911D
:102940003E028A3060F00E94602390933C028093A4
:102950003B0203C010923E0202C080E001C081E051
:10296000DF91CF911F910F9108950C9459200C94F1
:102970005C20EF92FF920F931F93CF93DF93790127
:10298000C82F880FDD0B41155105A9F08AE08C9FF7
:10299000F0018D9FF00D1124EB5FFE4F8381948138
:1029A000815C9D4F228130E04217530708F49A0161
:1029B000A9010E94F32ACE010E946621892B09F504
:1029C0000115110501F18AE08C9FF0018D9FF00D3A
:1029D0001124EB5FFE4F458150E00417150708F402
:1029E000A8018AE08C9FF0018D9FF00D1124EB5F10
:1029F000FE4F66817781615C7D4FC7010E94F32A9B
:102A000002C080E001C081E0DF91CF911F910F9162
:102A1000FF90EF9008950C942E160C944A160F9385
:102A20001F93CF93DF9300D000D0CDB7DEB7609176
:102A300054027091550280915602909157020E9463
:102A40008723643671058105910528F10E943E12A5
:102A5000DC01CB010296A11DB11D89839A83AB8352
:102A6000BC8300E010E020E030E044E050E0BE0134
:102A70006F5F7F4F82E00E94B914182F882361F0A6
:102A80000E946C2360935402709355028093560207
:102A90009093570201C011E0812F0F900F900F907B
:102AA0000F90DF91CF911F910F910895AF92BF9238
:102AB000CF92DF92EF92FF920F931F93CF93DF930A
:102AC0007C015B016A010E947614811103C001E060
:102AD00010E002C00AE010E0C1E0D0E0F894B501D7
:102AE000C701F60109957894811115C021960C173C
:102AF0001D0794F0CC9F9001CD9F300D300D112417
:102B000080E090E045E34A95F1F7000001968217D6
:102B10009307C1F7E3CF81E0DF91CF911F910F9130
:102B2000FF90EF90DF90CF90BF90AF900895AF925D
:102B3000BF92CF92DF92EF92FF920F931F93CF93AA
:102B4000DF9300D000D01F92CDB7DEB75B01E090DD
:102B5000AE01F090AF0101E010E09E012B5F3F4F0E
:102B600040E050E060E070E080E00E94B914182F6F
:102B7000882309F43EC067018FEFC81AD80A609114
:102B800050027091510280915202909153020E9422
:102B90008723643671058105910518F104E010E082
:102BA0009E012F5F3F4F40E050E060E070E081E029
:102BB0000E94B914182F64E070E0C6010E94481CFE
:102BC00091E02D81281390E0192351F10E946C238C
:102BD000609350027093510280935202909353027B
:102BE00011C064E070E0C6010E94481C9D818913F9
:102BF000D5CFF70181819281A381B48189839A83A2
:102C0000AB83BC83112361F089819A81AB81BC8144
:102C100080934C0290934D02A0934E02B0934F02CA
:102C200080914C0290914D02A0914E02B0914F02C2
:102C3000F50180839183A283B383812F0F900F903E
:102C40000F900F900F90DF91CF911F910F91FF90F8
:102C5000EF90DF90CF90BF90AF9008950F931F93A8
:102C6000CF93DF93EC018B0147E955E10E945615A4
:102C7000882351F04FE055E1B801CE01DF91CF91AB
:102C80001F910F910C94561580E0DF91CF911F9109
:102C90000F9108950F931F93CF93DF93F894C091F2
:102CA000AE01D091AF01CE01019624E0FB01DC0121
:102CB00001900D922A95E1F764E070E00E94481CB3
:102CC00088837894F8946D817E818F8198850091B6
:102CD00048021091490220914A0230914B0260173C
:102CE00071078207930751F060934802709349027D
:102CF00080934A0290934B020E9421127894DF91B4
:102D0000CF911F910F9108950E946C250E94570F3B
:102D10000C9478250E947C250E94630F0C949625C4
:102D20000E94E7220E9453250E94490F0E948416A8
:102D30000E948A160E94530FFBCF80915E0280FF93
:102D40000BC06091280185E0689FB0011124759542
:102D50006795759567952BC081FF09C06091280123
:102D600085E0689FB00111247595679520C082FFAA
:102D700007C06091280185E0689FB001112417C049
:102D800090915D029923D1F060912701961788F701
:102D90002091280185E0289F90011124929FA00195
:102DA000939F500D112470E0CA010E94CC2A603814
:102DB000710540F46115710519F406C065E070E015
:102DC000862F08958FE7089581E0089580915E022F
:102DD00080FF08C06091240170E075956795759536
:102DE000679521C081FF06C06091240170E0759550
:102DF000679519C082FF04C06091240170E010C083
:102E000090915C02992399F0609123019617A0F7A5
:102E100080912401899FC001112470E00E94CC2A76
:102E20006038710540F46115710519F406C061E060
:102E300070E0862F08958FE7089581E008958D3E14
:102E400021F40E949D16819504C08E3E29F40E94B3
:102E50009D168093620208958F3E21F40E949D1674
:102E6000819504C0803F29F40E949D1680936102E1
:102E70000895893F19F40E94E61605C08A3F31F48F
:102E80000E94E61681958093630208958B3F21F49A
:102E90000E94E616819504C08C3F29F40E94E61634
:102EA0008093640208959FE0980F983078F421E0B1
:102EB00030E0A90102C0440F551F9A95E2F7CA01FC
:102EC00090916002892B8093600208958D3F21F4D8
:102ED00080915E0281600BC08E3F21F480915E0282
:102EE000826005C08F3F29F480915E0284608093E8
:102EF0005E0208958D3E39F49091620297FF35C0CD
:102F00001092620259C08E3E29F490916202191605
:102F1000BCF32BC0909161028F3E29F497FF25C02E
:102F20001092610249C0803F19F41916CCF31DC0FC
:102F300090916302893F29F41916BCF41092630240
:102F40003BC08A3F19F497FF10C0F8CF8B3F39F48C
:102F50009091640297FF09C0109264022DC08C3FCB
:102F600021F4909164021916BCF39FE0980F9830F9
:102F700080F421E030E0A90102C0440F551F9A956A
:102F8000E2F7CA01809590916002892380936002E4
:102F900013C08D3F21F480915E028E7F0BC08E3F67
:102FA00021F480915E028D7F05C08F3F29F48091CE
:102FB0005E028B7F80935E0280916102811106C068
:102FC00080916202811102C010925D0280916302C1
:102FD000811106C080916402811102C010925C02CE
:102FE00008950E94602320916102211104C0209164
:102FF0006202222321F090935B0280935A02209177
:103000006302211104C020916402222321F09093D5
:103010005902809358028FE592E00C944622EF9279
:10302000FF920F931F93CF93DF9300D000D000D077
:10303000CDB7DEB786E0EFE5F2E0DE011196019054
:103040000D928A95E1F7E0906102F09062020091A2
:103050006302109164021092610210926202109257
:10306000630210926402E11003C0FF2009F45DC006
:1030700080915A0290915B020E947823AC0190915A
:103080005D02992339F02091290130E0241735079A
:1030900058F04BC020912A018AE0289F900111240A
:1030A0002417350718F041C09F3F19F09F5F909398
:1030B0005D02EE2061F00E949D161E1414F09FEF39
:1030C00001C091E0989F902D112490936102FF2000
:1030D00061F00E949D161F1414F09FEF01C091E053
:1030E000989F902D112490936202309161023323B6
:1030F000E1F0209162022223C1F045EB3403C001CC
:103100001124992319F09093610203C081E0809308
:10311000610235EB2303C0011124992319F0909328
:10312000620203C081E080936202011103C0112397
:1031300009F45DC080915802909159020E94782351
:10314000AC0190915C02992339F02091250130E087
:103150002417350758F04BC0209126018AE0289F9C
:10316000900111242417350718F041C09F3F19F032
:103170009F5F90935C02002361F00E94E616101698
:1031800014F09FEF01C091E0989F902D112490932F
:103190006302112361F00E94E616111614F09FEFEE
:1031A00001C091E0989F902D11249093640230917A
:1031B00063023323E1F0209164022223C1F045EB46
:1031C0003403C0011124992319F09093630203C0C2
:1031D00081E08093630235EB2303C001112499231E
:1031E00019F09093640203C081E08093640280919F
:1031F000610281110BC080916202811107C0809130
:103200006302811103C08091640281110E94F11751
:10321000EB82FC820D831E8386E0FE013196AFE5D2
:10322000B2E001900D928A95E1F726960FB6F894D8
:10323000DEBF0FBECDBFDF91CF911F910F91FF90E9
:10324000EF900895EFE5F2E086E0DF011D928A95A8
:10325000E9F710925D0210925C0210925E020895EE
:10326000EF92FF920F931F93CF93DF938B01682F01
:1032700011110AC0442329F0E82FF0E0E45BFD4F70
:103280006491762F862F75C0212F30E0E82FF0E073
:10329000442321F0E45BFD4FE491F0E046E0049F1D
:1032A000C0011124CFEFD0E0BE010E94B82A4BEA42
:1032B0004603C001479F900D1124800F911D800F80
:1032C000911D982F990F890FAE01421B530B4E9FF2
:1032D000D0014F9FB00D5E9FB00D11249B2F189F02
:1032E000A0011124452F55278E01041B150B0E9F9D
:1032F000A0010F9F500D1E9F500D11247E01E81A52
:10330000F108E29E8001E39E100DF29E100D112443
:10331000212F3327C21BD30BCE9F9001CF9F300D9F
:10332000DE9F300D112462307105A9F048F461155B
:10333000710569F061307105C9F48B2F752F0DC0CF
:103340006430710581F058F06630710579F47E2F94
:103350008B2F932F0DC0832F7B2F9E2F09C08E2F75
:103360007B2F952F05C08E2F732F02C07E2F852FA8
:10337000692FDF91CF911F910F91FF90EF900895EA
:1033800041E00E94301908950E94C0190895CF931A
:10339000DF93762FE901682F842F0E94C419798367
:1033A00068838A83DF91CF91089580919F02982F3F
:1033B0009695913021F08170826080939F020895EC
:1033C00088E090E00C94042BCF92DF92EF92FF9272
:1033D0006B017C010E94D519B701A60188E090E03D
:1033E000FF90EF90DF90CF900C94222BEFE9F2E06A
:1033F00083E0808311828FEF8283838314826081D4
:103400007181828193810C94E4199091A30293308D
:1034100018F49F5F9093A302882351F060919F025C
:103420007091A0028091A1029091A2020C94E419E3
:10343000089581E00C94051A9091A302992319F044
:1034400091509093A302882351F060919F02709154
:10345000A0028091A1029091A2020C94E419089517
:1034600081E00C941C1A70E00C941C1C60912C01DF
:1034700080919F0280FF0AC080912B0123E0829FF0
:10348000C00111248C559D4F0C94331A80912D014D
:1034900090912E01891780F7E82FF0E09F01220F0D
:1034A000331FE20FF31FEC55FD4F11821082128281
:1034B0008F5FF0CFEFE9F2E080818E7F80836081C3
:1034C0007181828193810E94E4192FEF80E792E05D
:1034D000215080409040E1F700C000000C94361A63
:1034E00090919F0290FF16C090912D0120912E0186
:1034F000921770F4E92FF0E0DF01AA0FBB1FEA0F6B
:10350000FB1FEC55FD4F8183608342839F5FF0CFAB
:103510000C94361A0895EF92FF920F931F93CF9356
:10352000DF9300D01F92CDB7DEB790919F0290FF3E
:103530002CC0E22E142F062FF82EE92FE695F0E08E
:10354000E055FE4F8081809366029E7F923059F451
:103550009E012F5F3F4F8F2D0E94C7194B816981BC
:103560008A810E94701AF092A0020093A102109327
:10357000A202EE2051F060919F027091A002809112
:10358000A1029091A2020E94E4190F900F900F9057
:10359000DF91CF911F910F91FF90EF900895EFE988
:1035A000F2E09181282F4381628188E0890F0C9499
:1035B0008B1A81E00C94CF1AEFE9F2E09181282F69
:1035C0004381628188EF890F0C948B1A81E00C94FF
:1035D000DC1AEFE9F2E0628121E1620F08F46FEF9B
:1035E000282F438181810C948B1A81E00C94E91A75
:1035F000EFE9F2E0628121E1621B08F460E0282F2C
:10360000438181810C948B1A81E00C94F81AEFE9C4
:10361000F2E0438121E1420F08F44FEF282F62814D
:1036200081810C948B1A81E00C94071BEFE9F2E086
:10363000438121E1421B08F440E0282F628181810F
:103640000C948B1A81E00C94161B20E00C948B1ABE
:1036500080919F0280FF18C08170826080939F02DA
:10366000662351F060919F027091A0028091A102A7
:103670009091A2020E94E4194091A2026091A102DD
:103680008091A0020C94251B0895682F81E00C9472
:10369000281B81E00C94451B682F90919F02969502
:1036A0008FEF890F09F481E00C94281B81E00C94C2
:1036B0004C1B61E00C94281BEFE9F2E080818160F3
:1036C000808386950C94591B80919F0280FD0C94F9
:1036D0005A1A0C945C1B60E00C94281B80916502C4
:1036E00081112CC00E94710E811104C00E94190F1B
:1036F0000E94F6190E94E01960939F027093A00245
:103700008093A1029093A2026E7F61F40E94F61949
:103710000E94E01960939F027093A0028093A1021F
:103720009093A2020E94D51980919F0280FF03C04E
:1037300086950E946B1B81E0809365020895882323
:1037400011F0FA0101C0FB0109941F93CF93DF939D
:10375000FB01128111116BC0EC010E948E0D82726F
:10376000CA3CFCE5DF0709F450C0C0F4C63CECE5F8
:10377000DE07E1F148F4C43C9CE5D90759F178F53E
:10378000C33CDC4521F121C0C83C9CE5D90799F137
:10379000B8F549ED5AE166EE7AE125C0CE3CFCE58C
:1037A000DF0709F441C050F4CC3CECE5DE0791F1B1
:1037B000B0F543E15BE162E27BE115C0C73D8CE51A
:1037C000D807A8F1CE35DD4591F111E030C00E9457
:1037D000641B2DC046E55BE169E47BE104C049E47C
:1037E0005BE166E57BE10E949F1B21C046EE5AE14A
:1037F00069ED7AE1F8CF44E05BE165EF7AE1F3CF80
:1038000045EF5AE164E07BE1EECF42E25BE163E148
:103810007BE1E9CF40E35AE169E17AE1E4CF49E1B4
:103820005AE160E37AE1DFCF81E00E94591B812FEA
:10383000DF91CF911F910895539A2BB1277F3BB110
:1038400038604FB7F894FC01CB01880F991F680FBF
:10385000791F6E0F7F1FE617F70789F0819198E0B7
:103860003BB9000000C087FF2BB9880F000000C0E3
:1038700000C000C02BB900C09A9591F7ECCF4FBFA4
:103880008FE594E00197F1F700C0000008950895D6
:10389000FC01680F791F8FEF91E3E617F70771F0CE
:1038A0002191822728E030E087FF03C0880F892715
:1038B00001C0880F21503109B9F7EFCF0895CF9398
:1038C000DF93EC01FB018281882309F426C1C43017
:1038D000FDE5DF0760F4CB3F9CE5D90768F49E0166
:1038E00022503C452431310508F018C105C0C236CC
:1038F000EDE5DE0709F012C10E94840E90938B0261
:1039000080938A02C031FCE5DF0709F4CAC008F0E1
:1039100041C0C8309CE5D90709F4A4C0F0F4C43014
:10392000FCE5DF0709F48CC068F4C2309CE5D907D8
:1039300009F482C0C330DC4509F0E5C080918A02F9
:103940008260DFC0C630FCE5DF0709F483C008F001
:1039500085C080918A028860D4C0CC309CE5D907AC
:1039600009F490C068F4CA30FCE5DF0709F47EC0B2
:1039700008F084C00E94B50780918A028068C1C0A7
:10398000CE309CE5D90709F481C008F086C080914B
:103990008A0294C0CD3FFCE5DF0709F47BC038F50F
:1039A000C4319CE5D90709F49AC058F4C231FCE54A
:1039B000DF0709F47AC008F07EC080918A028F7B0D
:1039C000A0C0CB3F9CE5D907F1F108F03FC0C5315D
:1039D000DC4509F098C080918A0282FB222720F9F9
:1039E00091E0922790FB82F990FB83F98AC0C13065
:1039F0008DE5D80709F467C050F480918B02CF3F62
:103A0000ECE5DE07C1F108F05BC08D7F65C0C33017
:103A10008DE5D80709F471C008F46DC0C236DD45E4
:103A200009F071C080918A0284FB222720F991E07D
:103A3000922790FB84F965C080918A02816061C001
:103A400080918A0216C080918B0216C080918B02F1
:103A5000826042C080918A02806153C080918A0254
:103A600080624FC080918A0280644BC080918A023C
:103A70008860846046C0826081602EC080918A0226
:103A80008E7F3FC080918A028D7F3BC080918A02E9
:103A9000877F37C080918B0214C080918A028F7E0D
:103AA00030C080918A028F7D2CC00E94B507809122
:103AB0008A028F7726C080918A02877F8B7F21C000
:103AC0008D7F8E7F09C080918B02982F9095917089
:103AD0008E7F892B90FB81F980938B0214C00E940A
:103AE000B50780918A0287FB222720F991E092276F
:103AF00090FB87F906C081E001C080E00E941B0FA7
:103B000002C080938A0280918A0290918B020E9467
:103B1000950E0E94B50780E001C081E0DF91CF9152
:103B20000895893289F1F0F4843171F1B0F487306D
:103B300009F077C08EE180932A0182E38093290106
:103B40008AE08093280184E18093270188E08093B4
:103B5000240188E28093230164C092EE980F9A308A
:103B6000F0F05FC0803509F444C028F48F3409F0C8
:103B700058C08AE03FC0813529F0823509F051C034
:103B800081E038C08FEF36C080916A02882379F1D6
:103B900010926A02109269021092680242C08D511E
:103BA00080936A02833099F038F4813069F0823072
:103BB000D9F489E291E00DC0853099F078F0863033
:103BC00099F483E291E005C08AE291E002C088E2C4
:103BD00091E0909369028093680223C087E291E0AC
:103BE000F8CF84E291E0F5CF10926A021AC080E02B
:103BF000089586EFE0916802F0916902309789F0AC
:103C00002081082E000C990B820F911D8F3F91058A
:103C100019F014F08FEF04C097FF02C0108201C0AA
:103C2000808381E008950F931F9341E050E060E0AE
:103C300070E08A019B0104C0000F111F221F331F77
:103C40008A95D2F7C901B8010E9416081F910F91F9
:103C50000C94B5078B3109F468C058F58B3009F422
:103C600086C078F4863009F445C020F4853009F424
:103C70004BC07FC0873009F44AC0883009F477C050
:103C800078C0803109F464C068F48E3009F071C0E6
:103C90008091360282FB222720F991E0922790FB47
:103CA00082F94CC0863109F462C0893109F45FC0E1
:103CB00060C08A32E1F060F4873209F455C028F41C
:103CC0008E3108F456C08D5150C08932E9F051C090
:103CD000833450F48A3308F045C0853309F444C076
:103CE000883309F444C045C08334F1F142C00E94D6
:103CF000190F3DC080913602817F8E7F80933602FE
:103D000081E080936B0208950E94FF0230C0809191
:103D10003602982F9095917090FB80F9809336022F
:103D2000911125C0897F877F10C08091360281FB69
:103D3000222720F991E0922790FB81F980933602A7
:103D40009923A9F0809136028160809336020FC0DA
:103D50008091360283FB222720F991E0922790FB85
:103D600083F9ECCF895301C080E00E94131E81E0EB
:103D7000089580E0089580E008950C94BB1ECF93D1
:103D8000C82F80916B02813069F038F08230C1F524
:103D90008C2F0E94911D81E039C00E948E0D8232CD
:103DA00089F504C00E948E0D823261F48C2F0E942E
:103DB000BD1E811104C08C2F0E942A1E1FC081E0ED
:103DC00090E01CC08C2F0E94BB1E811116C0C43114
:103DD00089F058F4CB3089F0C031B1F482E080939F
:103DE0006B0288E30E94911D08C0C93219F0C833E4
:103DF00021F00AC010926B0207C081E0817006C0FA
:103E000010926B0280E002C080E0F8CFCF9108955D
:103E1000CF93DF9386319C4541F5EB010E948E0DD7
:103E2000982F8A812091020130910301882379F033
:103E30009A7A81E009F480E080936C02911102C0CB
:103E400069E201C065E3C9010E94C2220AC08091F3
:103E50006C02811102C069E201C065E3C9010E94E0
:103E6000C4220E94E00D80E001C081E0DF91CF918B
:103E700008950F931F93CF93DF93C42FD22FFC018C
:103E800082818823C9F040936F020E94602390933F
:103E90006E0280936D0280E28C0F883008F057C06C
:103EA000C77081E001C0880FCA95EAF7DF91CF9112
:103EB0001F910F910C94070580916F02481330C039
:103EC00080916D0290916E020E947823883C91054A
:103ED00038F510E21D0FCD17B9F080E28C0F883055
:103EE00040F4C77081E001C0880FCA95EAF70E94CC
:103EF0000E05183028F581E09D2F977001C0880FBE
:103F00009A95EAF70E940705802F0E94FE04183058
:103F1000F0F4D77081E001C0880FDA95EAF70AC0A3
:103F200080E28C0F883098F4C77081E001C0880F60
:103F3000CA95EAF7DF91CF911F910F910C940E056E
:103F4000802FDF91CF911F910F910C94FE04DF9190
:103F5000CF911F910F9108950F939C01CB01243FA6
:103F60004CE5340731F188F4293DFCE53F07D9F0F1
:103F70002A3D4CE5340779F1283D3C45A9F506E298
:103F800021EE41EE68ED7CE52BC0263FFCE53F07C6
:103F9000E1F0A8F0273F3C4539F507E225EE46EE73
:103FA00067EF7CE51DC007E225EE45EE69ED7CE597
:103FB00017C006E221EE40EE64EF7CE511C007E297
:103FC00025EE44EE65EF7CE50BC006E221EE42EE05
:103FD00066EF7CE505C008E221E045EE6AED7CE590
:103FE0000E94391F80E008C0FC018281882319F0FB
:103FF00010926F0201C081E00F9108958EE1489BFD
:1040000002C08150E1F7489BFECF0895589880E2A6
:104010008A95F1F7589A0895FC012AE02A95F1F75C
:1040200028E090E080E031E040E14A95F1F7880F28
:10403000489B02C08160932700C0000040E14A9580
:10404000F1F7215089F720E12A95F1F729B100C055
:10405000000030E13A95F1F7217092272081920F0C
:1040600090830895EF92FF920F931F93CF93DF9366
:104070001F92CDB7DEB719828C017C01E60EF11CD0
:104080000E151F0551F00E94FE1FCE0101960E94E1
:104090000C20F80181938F01F3CF81E09981911178
:1040A00080E00F90DF91CF911F910F91FF90EF90E3
:1040B0000895509A589A08955098589AE89AE9E6BF
:1040C000F0E080818C7F80830895615091E001C091
:1040D000990F6A95EAF720E031E0992361F0492FC2
:1040E000482319F0589A232701C0589840E24A956E
:1040F000F1F79695F2CF222311F0589A01C0589803
:1041000080E28A95F1F758980895FF920F931F93D4
:10411000CF93DF93EC018C01060F111DC017D1075F
:1041200041F0F9900E94062068E08F2D0E946520E2
:10413000F5CFDF91CF911F910F91FF9008951F92BE
:104140000F920FB60F921124EF92FF920F931F93CD
:104150002F933F934F935F936F937F938F939F938F
:10416000AF93BF93EF93FF93CF93DF931F92CDB79E
:10417000DEB719820E94FE1FCE0101960E940C201C
:10418000A82FA695A695A6959A2F969595702A2F55
:104190002570920F292F237096959695920F877010
:1041A00089137CC08981811179C0A43008F076C060
:1041B00080E18A95F1F7589A509AB2E0BA95F1F7F2
:1041C00000C05898EA2EF12CEAE0AE9FD0011124ED
:1041D000AB5FBE4F1896ED91FC9119973097B1F0F7
:1041E0006091AE017091AF0116962D913C91179799
:1041F000260F371F13968D919C911497680F791F86
:1042000015964C91159712968C9109958AE08E9D82
:10421000F0018F9DF00D1124EB5FFE4F6581662349
:1042200051F08091AE019091AF0126813781820FCC
:10423000931F0E9485200E940620F0E1FA95F1F775
:1042400058985098589A80E18A95F1F78AE08E9DA7
:1042500080018F9D100D11240B5F1E4FD801129607
:104260006C911297662399F08091AE019091AF0105
:1042700013962D913C911497820F931F0E94322028
:10428000D801ED91FC91811105C082E004C0D801F4
:10429000ED91FC9188E080830E94FE1F0F90DF91DA
:1042A000CF91FF91EF91BF91AF919F918F917F91AE
:1042B0006F915F914F913F912F911F910F91FF90BF
:1042C000EF900F900FBE0F901F9018950F931F93B4
:1042D000CF93DF93843091050CF0A9C02AE0289F8A
:1042E000F001299FF00D1124EB5FFE4F20813181F9
:1042F000232B09F49CC0EC01F894509A589885E05F
:104300008A95F1F700008C2F869585709C2F95700B
:10431000890F982F9370869586958E0123E0000F64
:10432000111F2A95E1F7890F082B0E940620A4E0AF
:10433000AA95F1F700C068E0802F0E946520B0E1E7
:10434000BA95F1F75098589A489902C000C0FCCF2E
:1043500087E090E0489B17C0019799F4509A589ACB
:104360008AE08C9FF0018D9FF00D1124EB5FFE4FD2
:104370000190F081E02D81E08083789481E090E0ED
:1043800058C000C0E7CF8AE08C9F80018D9F100D40
:1043900011240B5F1E4FF80165816623B9F08091EF
:1043A000AE019091AF0126813781820F931F0E9449
:1043B000322081110BC0509A589AD801ED91FC918E
:1043C00082E08083789482E090E033C00E94FE1FF8
:1043D000B0E2BA95F1F75898509AE0E1EA95F1F712
:1043E0008AE08C9FF0018D9FF00D1124EB5FFE4F52
:1043F0006281662351F08091AE019091AF012381DB
:104400003481820F931F0E9485200E9406208AE03B
:104410008C9FF0018D9FF00D1124EB5FFE4F0190FA
:10442000F081E02D1082789480E090E002C084E07A
:1044300090E0DF91CF911F910F9108959093B30178
:104440008093B20108959093760280937502089547
:104450000E944B14811103C0809170020895E09175
:104460007502F0917602309721F00190F081E02DF5
:10447000099480E00895E0917502F09176023097FA
:1044800021F00280F381E02D09940895E0917502F6
:10449000F0917602309739F022E0DC012C93048011
:1044A000F581E02D099408952091730230917402F2
:1044B0002817390771F09093740280937302E0918A
:1044C0007502F0917602309721F00680F781E02D99
:1044D00009940895209171023091720228173907CA
:1044E00071F09093720280937102E0917502F091E5
:1044F0007602309721F00084F185E02D099408952B
:10450000FC01329697E080E0915029F0219122231E
:10451000D9F38F5FF9CF0895662349F0FC013296F5
:1045200008962191621729F0E817F907D1F780E082
:10453000089581E008959C01FC0132969FEF80E090
:104540004191461789F09F3F19F4411101C0982FFE
:104550008F5F8630A9F79F3F39F0F901E90FF11D10
:1045600097FDFA956283089508959C012A5F3F4F55
:10457000FC014281461301C0128201968217930703
:10458000B9F708950C949B220C94B522029626E06C
:10459000FC0111922A95E9F7089508950C94CD2213
:1045A00083E0809377020C94CE22811102C081E0D7
:1045B00001C082E0809377020C94CE220C94D52225
:1045C00081E0809377020C94CE220C94E02208952F
:1045D0008091D002843031F10E94F9021092780269
:1045E00020E488E190E00FB6F894A89580936000ED
:1045F0000FBE2093600083B7817F846083BF83B741
:10460000816083BF7894889583B78E7F83BF0FB610
:10461000F894A89580916000886180936000109262
:1046200060000FBE089508950C941323CF930E9449
:1046300014230E94C0130E941323C0E08C2F0E94F9
:104640008012811104C0CF5FC830C1F701C081E082
:10465000CF9108950E94B5070C9469031F920F92A1
:104660000FB60F9211248F939F93AF93BF938091B6
:104670007802811113C08091C8029091C902A09163
:10468000CA02B091CB024196A11DB11D8093C80210
:104690009093C902A093CA02B093CB02BF91AF918D
:1046A0009F918F910F900FBE0F901F90189582E0F1
:1046B00084BD93E095BD9AEF97BD80936E000895F9
:1046C0002FB7F8948091C8029091C902A091CA02B4
:1046D000B091CB022FBF08952FB7F8946091C80214
:1046E0007091C9028091CA029091CB022FBF0895A8
:1046F0009C014FB7F8948091C8029091C902A09193
:10470000CA02B091CB024FBF821B930B0895CF9288
:10471000DF92EF92FF922FB7F894C090C802D0902A
:10472000C902E090CA02F090CB022FBFA701960108
:10473000261B370B480B590BCA01B901FF90EF90AC
:10474000DF90CF90089578941F920F920FB60F923A
:1047500011248F939F93AF93BF938091C802909140
:10476000C902A091CA02B091CB020196A11DB11D50
:104770008093C8029093C902A093CA02B093CB025F
:10478000BF91AF919F918F910F900FBE0F901F908F
:10479000189587E797E790930108809300089AE0BF
:1047A00088E10FB6F894A895809360000FBE9093AF
:1047B0006000FFCF809184020895089522E0209345
:1047C000E9002FEF3091E800215035FD06C035EDAE
:1047D0003A95F1F700002111F5CF2091E80025FF6F
:1047E0000BC040E050E066E070E00E940826809137
:1047F000E8008E778093E8000895CF93DF9321E05F
:104800002093E9002FEF3091E800215035FD06C0DC
:1048100035ED3A95F1F700002111F5CF2091E80030
:1048200025FF14C0EC0140E050E068E070E00E9419
:1048300008268091E8008E778093E80088E0FE01EA
:10484000ACE7B2E001900D928A95E1F7DF91CF914C
:1048500008958093790270937B0260937A0280912D
:10486000D002843001F582E08093E9008FEF9091CF
:10487000E800815095FD06C095ED9A95F1F700008E
:104880008111F5CF8091E80085FF0DC040E050E038
:1048900063E070E089E792E00E9408268091E800DA
:1048A0008E778093E8000895BC0184E00C9429245D
:1048B000BC0183E00C9429248091CF02811109C0AE
:1048C0000E9499270E94F6278091E20084608093DD
:1048D000E20008951092CF0208950C94E5226091B1
:1048E000CC0281E0611101C080E00C94D022909153
:1048F000D00281E0943009F080E06091CC020C9409
:10490000D52242E061EC81E00E94122742E261EC94
:1049100082E00E9412279091D00281E0943009F049
:1049200080E06091CC020C94DE228091D202833030
:1049300009F461C030F4813071F0823009F49AC01A
:1049400008958A3009F486C08B3009F46CC0893030
:1049500009F0A8C020C08091D102813A09F0A2C01C
:104960008091E800877F8093E8008091D502909144
:10497000D602892B21F468E08CE792E003C060E066
:1049800080E090E070E00E9453268091E8008B77F1
:104990008093E80008958091D102813209F082C0AD
:1049A0008091D5029091D602029708F07BC0809149
:1049B000E800877F8093E8008091E80082FD05C0D1
:1049C0008091D0028111F8CF6DC02091F3008091C9
:1049D000F20090E0922B029731F48091F100813047
:1049E00011F0863021F48091F1008093840280914F
:1049F000E8008B7753C08091D102813A09F052C010
:104A00008091D5029091D602892B09F04BC08091FC
:104A1000E800877F8093E8008091E80080FFFCCF6A
:104A200080913C0136C08091D1028132D9F58091CC
:104A3000D5029091D602892BA9F58091E800877F55
:104A40008093E8000E9447278091D30280933C0125
:104A50000C94B5078091D102813221F58091E80054
:104A6000877F8093E8000E9447278091D40280933B
:104A7000850208958091D102813AA1F48091E800E5
:104A8000877F8093E8008091E80080FFFCCF8091D1
:104A900085028093F1008091E8008E778093E80092
:104AA0000C944727089584B7877F84BF0FB6F89486
:104AB000A8958091600088618093600010926000EA
:104AC0000FBE90E080E80FB6F89480936100909359
:104AD00061000FBE0C94E0220E9499270E94F627E5
:104AE000E2EEF0E080818460808378940C948B2ADD
:104AF00080E391E00C9423228091D0028530A9F4C8
:104B00008091D002853079F40E94E8228091CE0213
:104B10008823B1F30E941623882391F30E94F22583
:104B20000E94B507EDCF0C942A23089508950C94A4
:104B30009925292F332723303105C9F060F421301E
:104B4000310581F02230310509F044C08BE390E05B
:104B500024EA33E043C021323105E1F0223231054D
:104B600049F138C082E190E02FED33E037C099275A
:104B70008130910549F028F0029761F5ECE4F3E00B
:104B800005C0E0EAF3E002C0E6E7F3E0849190E0DC
:104B90009F0124C06115710541F061307105D1F4A8
:104BA00089E090E02FEC33E019C089E090E026EB3B
:104BB00033E014C06115710541F06130710551F4A5
:104BC0008BE790E021EF33E009C080E490E02CE631
:104BD00034E004C080E090E020E030E0FA0131836E
:104BE0002083089580E189BD82E189BD09B400FE7A
:104BF000FDCF8091D8008F7D8093D8008091E00018
:104C000082608093E0008091E00081FDFCCF0895F8
:104C1000CF92DF92EF92FF920F931F93CF93DF9388
:104C2000EC018B017A010E946627811133C0E114E7
:104C3000F10439F0F70180819181081B190BC80F2D
:104C4000D91FC12CD12C0115110519F18091E80053
:104C500085FD16C08091E8008E778093E800E1140E
:104C6000F10449F0F70180819181C80ED91ED182EB
:104C7000C08285E00FC00E946627882321F30AC006
:104C800089918093F10001501109FFEFCF1ADF0ADB
:104C9000DACF80E0DF91CF911F910F91FF90EF90DD
:104CA000DF90CF9008952091D7023091D802261737
:104CB000370748F06115710539F42091E8002E7727
:104CC0002093E80001C0B901FC0120E061157105E5
:104CD00079F18091D0028823F1F18530F1F1809152
:104CE000E80083FD3CC08091E80082FD2EC08091E9
:104CF000E80080FFEBCF2091F3008091F20090E07C
:104D0000922B6115710551F08830910538F421918D
:104D10002093F100615071090196F3CF21E00897CB
:104D200009F020E08091E8008E778093E800CECFF4
:104D30002111CFCF0AC08091D002882361F0853045
:104D400061F08091E80083FD0AC08091E80082FF55
:104D5000F2CF80E0089582E0089583E0089581E035
:104D600008952091D7023091D8022617370748F0CE
:104D70006115710539F42091E8002E772093E80041
:104D800001C0B901FC0120E06115710591F180912C
:104D9000D002882309F440C0853009F43FC08091D7
:104DA000E80083FD3DC08091E80082FD2FC0809126
:104DB000E80080FFE9CF2091F3008091F20090E0BD
:104DC000922B6115710559F08830910540F42491BA
:104DD0002093F1003196615071090196F2CF21E0E4
:104DE000089709F020E08091E8008E778093E80032
:104DF000CBCF2111CCCF0AC08091D002882361F0A3
:104E0000853061F08091E80083FD0AC08091E80060
:104E100082FFF2CF80E0089582E0089583E0089554
:104E200081E00895982F973068F59093E9009817DE
:104E300039F07091EC002091ED005091F00003C02A
:104E4000242F762F50E021FD02C09F5FECCF3091E0
:104E5000EB003E7F3093EB003091ED003D7F3093CF
:104E6000ED003091EB0031603093EB007093EC007B
:104E70002093ED005093F0002091EE0027FDE5CF48
:104E800080E008958F708093E90081E0089580911B
:104E9000D10287FF11C08091E80082FD05C080919A
:104EA000D0028111F8CF11C08091E8008B770BC040
:104EB0008091D002882349F08091E80080FFF8CFEC
:104EC0008091E8008E778093E80008952091E400B7
:104ED0003091E50095E64091EC00842F817040FF11
:104EE00023C08091E80080FD1DC08091D0028823FE
:104EF00099F0853099F08091EB0085FD11C04091CB
:104F0000E4005091E5002417350729F3915011F082
:104F10009A01E1CF84E0089582E0089583E0089546
:104F200081E0089580E008954091E80042FFDDCFE0
:104F300008950E9407280E940F28E0EEF0E080818B
:104F400081608083E8EDF0E080818F77808319BCF9
:104F5000A7EDB0E08C918E7F8C9380818F7E8083D3
:104F60001092CF0208950F931F93CF93DF930E9467
:104F700007280E940F28C8EDD0E088818F778883AA
:104F800088818068888388818F7D888319BC10928E
:104F9000D0021092CC021092CE021092CD0200EEFE
:104FA00010E0F80180818B7F808388818160888315
:104FB00042E060E080E00E941227E1EEF0E08081B4
:104FC0008E7F8083E2EEF0E080818160808380814B
:104FD00088608083F80180818E7F808388818061F2
:104FE0008883DF91CF911F910F910895E8EDF0E054
:104FF00080818F7E8083E7EDF0E080818160808317
:1050000084E082BF81E08093CF020C94B327E8ED67
:10501000F0E080818E7F80831092E20008951092EC
:10502000DA001092E10008951F920F920FB60F92CE
:1050300011242F933F934F935F936F937F938F939D
:105040009F93AF93BF93EF93FF938091E10082FF13
:105050000BC08091E20082FF07C08091E1008B7F4E
:105060008093E1000E948A2A8091DA0080FF1FC0AD
:105070008091D80080FF1BC08091DA008E7F8093E2
:10508000DA008091D90080FF0DC080E189BD82E106
:1050900089BD09B400FEFDCF81E08093D0020E945B
:1050A0005C2405C019BC1092D0020E946A24809131
:1050B000E10080FF19C08091E20080FF15C080915F
:1050C000E2008E7F8093E2008091E2008061809315
:1050D000E2008091D80080628093D80019BC85E0FE
:1050E0008093D0020E946F248091E10084FF30C041
:1050F0008091E20084FF2CC080E189BD82E189BDFE
:1051000009B400FEFDCF8091D8008F7D8093D80038
:105110008091E1008F7E8093E1008091E2008F7E9C
:105120008093E2008091E20081608093E2008091B0
:10513000CC02882311F084E007C08091E30087FD52
:1051400002C081E001C083E08093D0020E947724F6
:105150008091E10083FF29C08091E20083FF25C098
:105160008091E100877F8093E10082E08093D0020C
:105170001092CC028091E1008E7F8093E1008091BB
:10518000E2008E7F8093E2008091E2008061809354
:10519000E20042E060E080E00E9412278091F0008F
:1051A00088608093F0000E946D24FF91EF91BF9181
:1051B000AF919F918F917F916F915F914F913F91AF
:1051C0002F910F900FBE0F901F9018951F920F9266
:1051D0000FB60F9211242F933F934F935F936F93CA
:1051E0007F938F939F93AF93BF93CF93DF93EF936F
:1051F000FF93C091E900CF708091EC00D82FD1705F
:1052000080FDD0E81092E9008091F000877F8093C4
:10521000F00078940E942A291092E9008091F00011
:1052200088608093F000CD2BCF70C093E900FF9190
:10523000EF91DF91CF91BF91AF919F918F917F912E
:105240006F915F914F913F912F910F900FBE0F90F3
:105250001F9018951F93CF93DF93CDB7DEB7AA9712
:105260000FB6F894DEBF0FBECDBFE1EDF2E0809146
:10527000F100819322E0E93DF207C9F70E949524ED
:105280008091E80083FF2EC18091D1029091D202DB
:10529000492F50E04A30510508F024C1FA01EC587A
:1052A000FF4F0C94E02A803821F0823809F01AC1AF
:1052B00008C08091CD029091CE02992389F082603E
:1052C0000FC08091D5028F70873008F00BC180939A
:1052D000E9008091EB0085FB882780F91092E900B6
:1052E0009091E800977F9093E8008093F1001092EE
:1052F000F100D1C0282F2D7F09F0F4C0882319F0C8
:10530000823061F0EFC08091D302813009F0EAC0B1
:10531000933009F080E08093CE022EC08091D302BA
:1053200081112AC08091D5028F702FEF280F26306F
:1053300008F0D8C08093E9002091EB0020FF1CC04A
:10534000933021F48091EB00806214C09091EB00C7
:1053500090619093EB0021E030E0A90102C0440F7E
:10536000551F8A95E2F74093EA001092EA00809177
:10537000EB0088608093EB001092E9008091E800D8
:10538000877F8093E8000E944727ACC08111AAC0A4
:105390001091D3021F778091E3008078812B809356
:1053A000E3008091E800877F8093E8000E94472710
:1053B0008091E80080FFFCCF8091E30080688093BB
:1053C000E300111102C082E001C083E08093D002AB
:1053D00089C08058823008F085C08091D3029091B6
:1053E000D4028C3D53E0950779F583E08A838AE205
:1053F00089834FB7F894DE01139620E03EE051E236
:10540000E32FF0E050935700E49120FF03C0E295B2
:10541000EF703F5FEF708E2F90E0EA3010F0C7968C
:1054200001C0C0968D939D932F5F243149F74FBFE4
:105430008091E800877F8093E8006AE270E0CE0107
:1054400001960E94532616C06091D5027091D60233
:10545000AE014F5F5F4F0E949725BC01892B09F475
:1054600041C09091E800977F9093E80089819A81EC
:105470000E94B1268091E8008B778093E80032C0CB
:10548000803881F58091E800877F8093E8008091E3
:10549000CC028093F1008091E8008E7772CF811169
:1054A00021C08091D3029091D40299270297D4F41D
:1054B0008091E800877F8093E8008091D3028093F9
:1054C000CC020E9447278091CC02811106C08091B6
:1054D000E30087FD02C081E001C084E08093D00238
:1054E0000E9481248091E80083FF0AC08091E80037
:1054F000877F8093E8008091EB0080628093EB00CF
:10550000AA960FB6F894DEBF0FBECDBFDF91CF9144
:105510001F9108950895CF938091D0028823A1F020
:10552000C091E900CF709091EC00892F817090FDBF
:1055300080E8C82B1092E9008091E80083FD0E946A
:105540002A29CF70C093E900CF9108950E9499272E
:105550001092D0020895E8EDF0E0808180618083B0
:105560008AE18A95F1F700C08091D9008170089591
:10557000AA1BBB1B51E107C0AA1FBB1FA617B70779
:1055800010F0A61BB70B881F991F5A95A9F7809595
:105590009095BC01CD01089597FB072E16F4009459
:1055A00007D077FD09D00E94B82A07FC05D03EF449
:1055B000909581959F4F0895709561957F4F0895BF
:1055C000EE0FFF1F0590F491E02D0994FB01DC0123
:1055D00004C08D910190801921F441505040C8F7CA
:1055E000881B990B0895FB01DC0102C001900D920C
:1055F00041505040D8F70895F999FECF92BD81BD32
:10560000F89A992780B50895A6E1B0E044E050E00B
:105610000C94362BA8E1B0E042E050E00C94362B1D
:10562000262FF999FECF92BD81BDF89A019700B45B
:10563000021639F01FBA20BD0FB6F894FA9AF99AFB
:105640000FBE08950396272F0E94112B0E94102B46
:10565000252F0E94112B242F0C94112B0196272FFC
:105660000E94112B0C94102BDC01CB01FC01F99949
:10567000FECF06C0F2BDE1BDF89A319600B40D929E
:0C56800041505040B8F70895F894FFCF57
:10568C00C8001A02019E0200000001000000009EEA
:10569C000200000004010000009E0204050000004E
:1056AC000000002808641E140A321E000C000C0CAA
:1056BC00DA23FD23DE2358245424DD2301E200E900
:1056CC0000EA00B500B600B700CD008301CC008A1B
:1056DC0001920194012102230224022502260227B1
:1056EC00022A02B300B4006F007000818283E200D2
:1056FC00E900EA00B500B600B700CD008301CC008C
:10570C008A0192019401210223022402250226021D
:10571C0027022A02B300B4006F007000818283F567
:10572C00F6F7313332366697C634000000003F027C
:02573C0000016A
:00000001FF
