:100000000C941A030C9452030C9452030C94520354
:100010000C9452030C9452030C9452030C9452030C
:100020000C9452030C9452030C9452030C94A2258A
:100030000C9453260C94C2200C9452030C9452033B
:100040000C9452030C9452030C9452030C944921C7
:100050000C9452030C9452030C9452030C945203CC
:100060000C9452030C9452030C9452030C945203BC
:100070000C945203290014001A0009001300050013
:100080000D000F0018001C0033002D002A00040092
:100090001500160017000A001000110008000C00DF
:1000A000120028002B001D001B000600070019008D
:1000B0000E000B003600370038003400E000E3008B
:1000C000E200E10001582C000000025850005200EC
:1000D00051004F0000000000000000000000000080
:1000E00000000000000000000000000035001E02BB
:1000F0001F022002210222022302240225022602DC
:1001000027022E003A003B003C003D003E003F002D
:100110004000410042004300440045003900000017
:100120000000000000000000000000002F00300070
:1001300031000000E000E300E200E10000502C008C
:1001400000000050E100000000000000000000007E
:10015000000000000000000000000000000000009F
:10016000000000005F00600061000000000000006F
:100170000000000000000000000000005C005D00C6
:100180005E00000000000000000000000000000011
:100190000000000059005A005B0000000000000051
:1001A000000000000000000000000000620063008A
:1001B0005800000000500000000003500000000044
:1001C0000000005C000000000000000000000000D3
:1001D0000000000000000000000000003A003B00AA
:1001E0003C003D003E003F00400041004200430013
:1001F0004400450000000000000000000000000076
:1002000000000000000000000000000000000000EE
:1002100000000000000000000000000000000000DE
:10022000000000000000000000000000005000007E
:10023000000000500000000000000000000000006E
:1002400000000000000000000000000000000000AE
:100250000000000000047F3F1F64321464321478F1
:100260003C1E1E140A052223252628292A2C2D2F60
:100270003032333536383A3B3D3E404243454749BC
:100280004A4C4E5051535557595A5C5E60626466F1
:1002900068696B6D6F71737577797B7D7F818385FD
:1002A00087898A8C8E90929496989A9C9E9FA1A3FF
:1002B000A5A7A8AAACAEAFB1B3B4B6B8B9BBBCBE23
:1002C000BFC1C2C3C5C6C7C9CACBCCCDCED0D1D29F
:1002D000D2D3D4D5D6D7D7D8D9D9DADADBDBDBDCA1
:1002E000DCDCDCDCDDDDDDDDDCDCDCDCDCDBDBDB4D
:1002F000DADAD9D9D8D7D7D6D5D4D3D2D2D1D0CEAD
:10030000CDCCCBCAC9C7C6C5C3C2C1BFBEBCBBB9B1
:10031000B8B6B4B3B1AFAEACAAA8A7A5A3A19F9E2F
:100320009C9A98969492908E8C8A89878583817FF7
:100330007D7B79777573716F6D6B696866646260D8
:100340005E5C5A5957555351504E4C4A49474543A4
:1003500042403E3D3B3A3836353332302F2D2C2A41
:10036000292826252322FFAA7F55400001010101EB
:100370000101010101020202020202020202030360
:100380000303030303030404040404040405050530
:1003900005050606060606070707070708080808F2
:1003A000090909090A0A0A0B0B0B0C0C0C0D0D0D9F
:1003B0000E0E0E0F0F0F1010111111121213131435
:1003C00014151516161717181819191A1A1B1B1CAD
:1003D0001D1D1E1E1F202021222223242425262607
:1003E000272829292A2B2C2D2D2E2F30313232333C
:1003F0003435363738393A3B3C3D3E3F4041424345
:100400004445464748494A4C4D4E4F505153545528
:100410005658595A5B5D5E5F616264656668696BD8
:100420006C6D6F7072737577787A7B7D7E80828356
:100430008587888A8C8E8F91939596989A9C9EA09A
:10044000A2A3A5A7A9ABADAFB1B3B5B7BABCBEC0A7
:10045000C2C4C6C9CBCDCFD1D4D6D8DBDDDFE2E470
:10046000E7E9EBEEF0F3F5F8FAFDFF00000000001D
:100470000000002A2B2800000000000000000000FF
:1004800000000000000029000000002C1E34202184
:100490002224342627252E362D3738271E1F2021CB
:1004A00022232425263333362E37381F040506072A
:1004B00008090A0B0C0D0E0F101112131415161744
:1004C00018191A1B1C1D2F3130232D350405060762
:1004D00008090A0B0C0D0E0F101112131415161724
:1004E00018191A1B1C1D2F3130354C00000000005C
:1004F00000000000000000000000000000000000FC
:100500000000000000000000000000000000007E6D
:100510000F00D4FFFFFFC7000000780C0351005507
:1005200000410052004B0000000A034E00610073BE
:1005300000700000000403090409023B00020100EE
:10054000A0FA0904000001030101000921110100C2
:100550000122400007058103080001090401000190
:1005600003000000092111010001226D000705822E
:1005700003200001120100020000000870704053C7
:1005800001000102000105010980A1018503190193
:100590002AB700150126B700950175108100C00526
:1005A0000C0901A101850419012AA002150126A048
:1005B00002950175108100C005010906A10185069B
:1005C000050719E029E71500250195087501810245
:1005D0000507190029EF1500250195F07501810225
:1005E0000508190129059505750191029501750305
:1005F0009101C005010906A101050719E029E715C8
:100600000025019508750181029501750881010594
:1006100007190029FF150026FF00950675088100BF
:1006200005081901290595057501910295017503C4
:100630009101C00011241FBECFEFD4E0DEBFCDBFBB
:1006400004B603FE18C080912D0390912E03A09153
:100650002F03B09130038730904BA740B04B59F433
:1006600010922D0310922E0310922F03109230033C
:10067000E0E0F8E3099511E0A0E0B1E0E0E2F3E5A5
:1006800002C005900D92AA3CB107D9F723E0AAEC6D
:10069000B1E001C01D92AD32B207E1F70E944913EB
:1006A0000C9439290C9400001F93CF93DF93182FDB
:1006B000D62F0E945B1DC82F882351F0111108C04E
:1006C0006AE070E0DD2349F08AEA0E942306CD2F1C
:1006D0008C2FDF91CF911F91089589EA0E94230604
:1006E000F7CF9C013A9521153F4150F5FC01EE27CB
:1006F000F170BC0166277270AC01442754709C01F4
:100700002227387094FF0EC080E1EF2B09F480E0BF
:10071000672B09F08062452B09F08064232B89F058
:100720008068089581E0EF2B09F480E0672B09F0E1
:100730008260452B09F08460232B19F088600895AE
:1007400080E00895CF93DF93EB010E947103FE01D7
:100750000995DF91CF910895CF93DF93EC01805EEF
:100760009109089720F061E878E0209711F464E49B
:1007700076E0CE010E94A2038C2F0E944405DF91F7
:10078000CF910895CF93DF93EC010E94D205CE0163
:10079000805E9109089720F068E878E0209711F4CE
:1007A0006BE476E0CE010E94A203DF91CF91089521
:1007B0000F931F93CF93DF938C01EB010E94AC0347
:1007C000209741F4C8010E94C203DF91CF911F918D
:1007D0000F9108958FE99FE00197F1F700C00000A5
:1007E0002197EECF70E060E08933910511F460E568
:1007F00070E00E94D803089581E0089581E0089593
:100800000E94FE03089508950E9403040895A5E040
:10081000B0E0EDE0F4E00C949A2849835A833091DB
:10082000D10189819A81311119C0662399F022235F
:1008300089F00E94FF09182F682F89819A810E94F0
:10084000D60969817A81812F0E94A4102596E3E060
:100850000C94B6280E94EB09182FF3CF0E94FF09D1
:1008600069817A81F1CFFC01262F4081518162811B
:10087000738184810E940704089581E00895CF93D5
:10088000DF93EC0160E00E943304BE010E94040487
:10089000DF91CF9108950E94EA1108950E94EE1110
:1008A000089508950E94A1080E9451042FEF84E347
:1008B0009CE0215080409040E1F700C00000089586
:1008C0000E9452040E946D2108950E9452040E94C9
:1008D000912108950F931F93CF93DF938C0161E0D3
:1008E0000E943304EC01B8010E940004811106C08B
:1008F00080E0DF91CF911F910F910895B801CE0153
:100900000E94431B8823A1F3B801CE010E940E1F51
:10091000882371F3B801CE010E947E1B882341F326
:10092000B801CE010E94801E882311F3B801CE01C8
:100930000E9462198823E1F2F8018281882361F024
:10094000CB35FDE5DF0701F158F4C115ECE5DE0715
:1009500091F0CF3DDC4591F0C8010E94FC03C9CF66
:10096000CD358DE5D80769F090F0C83ADD45A1F79F
:100970000E946504BDCF0E946004BACF0E94C80ED9
:10098000F7CF0E94060EE8CF0E94100EE5CF0E941E
:10099000140EE2CF0E94A4200E94E70408950E9452
:1009A000EB040E94A920089508950E94D40408959C
:1009B00081E008950E94D80408950895CF93C82F28
:1009C0000E94D5048C2F0E94DA04CF91089580E014
:1009D0000E94DE0408950E946A1F0E94DE040895AA
:1009E000CF930E946A1FC82F8091CC018C1779F099
:1009F000C093CC010E942E216093CD017093CE0153
:100A00008093CF019093D0018C2F0E94DE04CF9170
:100A10000895ABE0B0E0EFE0F5E00C949B284F8345
:100A2000588769877A878B8761110E94510D1E82D2
:100A30001D8285E0FE013796DE01119601900D9230
:100A40008A95E1F78C819D81892B61F449815A81D6
:100A50006B817C818D819E810E94710C2B96E2E0DE
:100A60000C94B72889819A8189238F3F79F3CE012D
:100A700001960E943D048111E9CFF0CFFC018081F5
:100A800091810E94310A0895CF93C82F8823C9F01D
:100A90008238C9F40E946A1F81FD13C089E30E9455
:100AA000060D0E94720D2FEF87EE93E021508040DB
:100AB0009040E1F700C0000089E30E940E0D0E9403
:100AC000720DCF9108958338A1F40E946A1F80FDB2
:100AD000F8CF83E50E94060D0E94720D2FEF81EE84
:100AE00094E0215080409040E1F700C0000083E591
:100AF000E4CF8438A1F40E946A1F82FDE2CF87E42C
:100B00000E94060D0E94720D2FEF81EE94E021509D
:100B100080409040E1F700C0000087E4CECF8CEF2A
:100B20008C0F813AB8F48C2F0E94491E8111C9CFD5
:100B30006C2F80910001909101010E94D41F8823A5
:100B400029F08C2F0E940E0D0E94720D8C2F0E9496
:100B5000060DB5CF80E28C0F883048F4C77081E075
:100B600001C0880FCA95EAF70E94310DA8CFEBE5C6
:100B7000EC0FE33040F4F0E0E05BFE4F808190E06A
:100B80000E94941F9ECFC85AC73108F09ACFEC2F0D
:100B9000F0E0EE0FFF1FEE5DFE4F808191810E941D
:100BA000AA1F8FCF882309F44DC0823879F40E94A0
:100BB0006A1F81FF47C089E30E94060D0E94720DE3
:100BC00089E30E940E0D0E94720D0895833859F436
:100BD0000E946A1F80FF36C083E50E94060D0E94B6
:100BE000720D83E5EECF843859F40E946A1F82FFAC
:100BF00029C087E40E94060D0E94720D87E4E1CFB0
:100C00009CEF980F913AE8F290E2980F983050F4E8
:100C1000877091E001C0990F8A95EAF7892F0E94A9
:100C2000370DD1CF9BE5980F933028F490E080E00A
:100C30000E94941F0895885A873120F490E080E044
:100C40000E94AA1F08951F93CF93DF93182FEB01E3
:100C50000E944405209739F4812F0E94D205DF912C
:100C6000CF911F9108958FE99FE00197F1F700C0A0
:100C700000002197EFCF70E060E0893311F460E568
:100C800070E00E9423060895882321F00E94310D10
:100C90000E94720D0895882321F00E94370D0E9452
:100CA000720D0895B0E0A0E0E8E5F6E00C94942819
:100CB0006C01D62FC72FFC011281F580F2949FE0C2
:100CC000F9220E94270DE82E8823B9F0E12E112386
:100CD000A1F08C2F807F803421F080E28D0F88304E
:100CE000D0F08091D10282FF16C082E00E94D50D23
:100CF0000E94270D91E0E82EE926BC2EB2948FE0E9
:100D0000B822FBE0FB1508F468C0EB2DF0E0E55CD1
:100D1000F64D0C948528E12CF0CF0C2F0F70C07F7E
:100D200011F00295007F112399F0002359F080E221
:100D30008D0F883010F0D11107C0802F0E94310D27
:100D40000E94720D8D2F41C0802F0E94440DF8CF5C
:100D50008D2F0E94D205002309F43FC080E28D0F41
:100D6000883010F0D11104C0802F0E94370D03C0CD
:100D7000802F0E944A0D0E94720D2FC00C2F0F7001
:100D8000C07FC03211F00295007FDD2381F0D130A9
:100D900009F463C0112309F46DC0FF2009F463C096
:100DA000F601858180FFCECF8F7085835CC08091F6
:100DB000D10282FD33C0112359F0002329F0802F86
:100DC0000E94310D0E94720D80E00E94440505C012
:100DD00080E00E94D2050111C7CFEB2DE850FF0B38
:100DE000349720F40E946A1F0E94DE04EE2089F0EE
:100DF0000E94230D80FD0DC0F60112820E941D0D80
:100E00000E943409C6010E9457080E941D0D0E94CD
:100E10004409CDB7DEB7E9E00C94B028112389F07E
:100E2000F11006C00E94540D802B0E944406D5CFBD
:100E300021E0F212F7CF0E94540D802B0E945B0D2F
:100E4000CCCFF11006C00E94680D802F0E944B0687
:100E5000C4CF31E0F31609F2F6CF112331F085E06B
:100E60008F1508F4BACF802FE0CF94E09F1508F4D7
:100E7000B4CFEBCFFF2049F3D93349F4FFEF27EE8E
:100E800033E0F15020403040E1F700C000008D2FEA
:100E90000E94D205A2CF8C2F86958695837069F02B
:100EA000813009F09ACF8D2F9C2F9370111102C0C1
:100EB00090E080E00E94AA1F90CF8D2F9C2F93700E
:100EC000111102C090E080E00E94941F86CF8C2F09
:100ED0008370A1F5111181CF4D2F42954695477032
:100EE000440F440F2D2F2F7030E0042E02C0220F2C
:100EF000331F0A94E2F790E080E0D4FF09C08FE04E
:100F000090E002C0880F991F4A95E2F7809590956E
:100F1000C695C695C370822B932BC23049F058F406
:100F2000C13019F00E94020958CF0E94F90855CF2C
:100F30000E940B0952CF0E94F6084FCF86951123CD
:100F400011F08C2F8170882309F447CF4D2F4295E3
:100F500046954770440F440F2D2F2F7030E0042E1C
:100F600002C0220F331F0A94E2F790E080E0D4FF22
:100F700009C08FE090E002C0880F991F4A95E2F700
:100F800080959095C695C695C370822B932BC230E1
:100F900049F058F4C13019F00E946F091ECF0E9429
:100FA00066091BCF0E94780918CF0E941A0915CF35
:100FB000CF70112329F08C2F0E9434098D2F35CF4B
:100FC0008D2F0E944B068C2F0E94440906CFD23FE2
:100FD00051F160F4D03FB9F0D13F81F0112309F411
:100FE00049C0F110AFCE8C2F8F7121C0D33F11F1CA
:100FF000D43FA1F78091D10282FD26C08C2F8F7142
:10100000112311F314C0112349F084E08F1508F463
:10101000E4CE8C2F8F710E945609DFCE95E09F158C
:1010200008F4DBCEF6CF8C2F8F711111CDCF0E943B
:101030003409D3CE112329F08C2F8F710E942809F7
:10104000CCCE0E942309C9CE112349F0CF718C2F39
:101050000E94340963E08C2F0E94B70DBECE81E060
:101060000E94D50DE1E0EF1508F0B7CE82E00E94B6
:10107000D50DB3CEF11000CF8C2F8F71A5CF0F936C
:101080001F93CF93DF93EC01688179818A810E945D
:101090003C0A8C010E9481090E94F508B801CE012A
:1010A0000E945206DF91CF911F910F910895CF9327
:1010B000DF93EC018B819C81892B29F088819981B8
:1010C00089238F3F51F4DF91CF910895CE010E9483
:1010D0003F08CE010E943F04F6CFCE010E946A0471
:1010E0008111F4CF0E94270D882369F38A81882318
:1010F00051F38091D10282FFE6CF82E00E94D50DAC
:10110000E2CF882321F00E94440D0E94720D0895C1
:10111000882321F00E944A0D0E94720D089590E0EC
:1011200080E00E94941F90E080E00E94AA1F0E942D
:10113000510D0E94720D08950E94160D0E948F0895
:1011400008950E94410D0E949C08089592959F70F9
:10115000963091F058F4925F9F70923058F4803F2F
:1011600019F030F4883E30F481E008959A5FF4CFAE
:10117000843FD1F380E00895883EB0F3813FD1F7FA
:10118000F3CFFC0183819481892B29F080819181A7
:1011900089238F3F11F480E00895808191810E941E
:1011A000310A0E94A6080895A5E0B0E0EAEDF8E053
:1011B0000C949B282596E2E00C94B728A6E0B0E0BA
:1011C000E4EEF8E00C949B282696E2E00C94B72815
:1011D00008950E94E80808950E94E9089093F50197
:1011E0008093F4010E948F08089508950E94EC08EE
:1011F00008952091F4013091F501822B932B0E94E8
:10120000EC0808952091F4013091F5018223932395
:101210000E94EC0808952091F4013091F501822795
:1012200093270E94EC0808950E94E80808950E9400
:10123000140908950E9417099093F3018093F20115
:101240000E948F08089590E080E00E941A09089596
:1012500021E030E0A90102C0440F551F8A95E2F752
:10126000CA010E941A09089521E030E002C0220F4D
:10127000331F8A95E2F78091F2019091F301822B5E
:10128000932B0E941A09089521E030E002C0220F3A
:10129000331F8A95E2F7209530958091F201909165
:1012A000F301822393230E941A09089521E030E07C
:1012B00002C0220F331F8A95E2F78091F2019091CC
:1012C000F301822793270E941A0908952091F201C1
:1012D0003091F301822B932B0E941A0908952091DB
:1012E000F2013091F301822393230E941A09089599
:1012F0002091F2013091F301822793270E941A096D
:1013000008950895262F277091E001C0990F2A951E
:10131000EAF723E0769567952A95E1F7660F771F40
:10132000660F771FFA01E60FF71F50E040E0682FC5
:1013300070E08191DF0111979B01042E02C0369568
:1013400027950A94E2F72170219528272923282739
:101350002C934F5F5F4F4430510559F70895A82FE4
:10136000A77023E0969587952A95E1F7880F991F36
:10137000880F991FFB01E80FF91F50E040E080E063
:10138000219130E00A2E02C0369527950A94E2F7A3
:1013900021703327042E01C0220F0A94EAF7822B12
:1013A0004F5F5F4F4430510559F70895282F362F6E
:1013B000953080F48C3070F4892F90E06CE070E010
:1013C0000E940328BC01620F711D42ED51E0832F82
:1013D0000E9482090895282F953078F48C3068F4A3
:1013E000892F90E06CE070E00E94032862ED71E0CC
:1013F000820F911D0E94AF09089580E00895B0E02A
:10140000A0E0E5E0FAE00C9494287C010091F20160
:101410001091F3018091F4019091F501082B192BA3
:10142000CFE0D0E0CC24C394D12CBC2EC6010C2E2E
:1014300002C0880F991F0A94E2F780239123892B19
:1014400049F4219790F7B12C8B2DCDB7DEB7E9E0A9
:101450000C94B028B7018C2F0E94C510019789F316
:10146000F3CFCF93DF93EC010E94FF09BE010E94EE
:10147000C510DF91CF9108951F93CF93DF93EB01B8
:101480009091D101992339F0CB010E94310ADF916B
:10149000CF911F910895882369F0CB010E94FF0925
:1014A000182F682FCE010E94D609BE01812F0E94FD
:1014B000C510EDCFCB010E94EB09182FF6CFCF93CB
:1014C000DF93C091F6018091F7018C1303C0DF9187
:1014D000CF910895D0E0CE0166E070E00E9403282D
:1014E000FC01E850FE4F408151816281738184810B
:1014F00095810E94DE082196C770E5CF40912802B1
:101500005091290260912A0270912B0280912C0245
:1015100090912D020E94DE0808951F93CF93DF93D0
:1015200080912D02807F09F04EC080912A0288238D
:1015300009F449C02091F601B091F70140912802C9
:10154000A0912902C0912B02D0912C02142F1A23B2
:10155000B217C9F130E0209711F01F3F21F42F5F3F
:101560003F4F2770F5CFC90166E070E00E94032865
:10157000FC01E850FE4F81818A13F1CF80818413F2
:10158000EECF82818111EBCF838194818C1B9D0BE7
:10159000883C910520F780912D028F7080618093A7
:1015A0002D02C90166E070E00E940328FC01E350AF
:1015B000FE4F90819F709061908388E292E00E943C
:1015C00057080E945F0ADF91CF911F910895A1E112
:1015D000B0E0EDEEFAE00C9493288C0185E0F80180
:1015E000DE011D9601900D928A95E1F7F801E280E7
:1015F00088E2C82E82E0D82E60912B0270912C02D6
:101600006115710509F451C19091280230912902A8
:10161000892F83238F3F09F448C140812181A38012
:10162000B480F0902A02F501E61BF70BFF2009F4C5
:10163000ECC080912D02582F507FE83CF10508F056
:10164000A4C051116EC0FE2C321316C0941314C0E6
:10165000E11012C08F70806180932D020E947E0A7B
:10166000C6010E94570880912D02F80185838F2DB5
:101670006196EAE00C94AF28A114B10429F0842FFC
:1016800082238F3F09F02AC180E0F82FF170DF2E0E
:10169000E091F6013091F70180FD20C0EE2039F392
:1016A00080912D02816080932D02F12CE0CFF0E03B
:1016B000CF0166E070E00E940328DC01A850BE4F15
:1016C00011968C911197821307C08C91841304C0DA
:1016D00012968C91E812E2CF3196E770E313E7CFD0
:1016E0004D872E878D859E850E94310A292F229550
:1016F0002F70223050F0243078F49F7051F0F801B0
:101700009581907F31F4D12C0AC09F7011F088230D
:10171000D1F3805E8830B8F3C8010E945708FD2CD1
:10172000A6CF321306C0941304C0F801EE2009F4CA
:1017300088C0C8010E94C108882319F1EE2009F170
:1017400080912D02803270F0209128023091290280
:1017500038872F831986BB86AA868C87CE01079689
:101760000E94570886E0F801A8E2B2E001900D92CD
:101770008A95E1F70E948D0A0E947E0AFF24F39465
:1017800076CFC8010E945708F9CF511114C07A2DA5
:10179000B98AA88A522F6E2D89890E94D40888E2BE
:1017A00092E00E94570886E0F60111928A95E9F7C7
:1017B0000E947E0A7ACF32130FC094130DC0E1103D
:1017C0000BC0F8018583C8010E94570886E0F60126
:1017D00011928A95E9F74BCFC8010E94C10888236E
:1017E00081F2EE2071F280912D02803208F4BACF9E
:1017F00020912802309129023A8329831B82BD82DD
:10180000AC828E83CE010196ABCFE83CF10508F0A7
:101810003EC0FE2CEE2009F4B4CF32132AC094133C
:1018200028C080912D0280FD1BC0982F907FC1F0B1
:10183000F8018583903F31F0982F907F905F8F70F3
:10184000892B8583C8010E94570886E0F801A8E229
:10185000B2E001900D928A95E1F70E947E0A07CFCF
:1018600086E0F801A8E2B2E001900D928A95E1F7D6
:10187000FECEC8010E94C108811174CF80912D0253
:10188000816080932D02C8010E945708F0CE7A2D06
:10189000B98AA88A522F6E2D89890E94D40886E0C1
:1018A000F60111928A95E9F7D8CFEE2009F469CFB5
:1018B000C8010E94C108F82E882309F462CF86E08F
:1018C000F801A8E2B2E001900D928A95E1F788E272
:1018D00092E00E943E050E948D0ABFCF81E08E25D6
:1018E000D4CEACE0B0E0E7E7FCE00C949B284F835B
:1018F000588769877A878B879C87CE0107960E94D5
:10190000E70A8823A9F08A859B85892B39F04F81C6
:101910005885842F85238F3F09F071C08091F6018F
:101920009091F701891344C02C96E2E00C94B728FB
:1019300086E0FE013796DE01119601900D928A95A0
:10194000E1F78A859B85892B49F388859F818923C7
:101950008F3F21F38091F70190E09C012F5F3F4F73
:10196000277033274091F6014217130671F40E9445
:10197000A1081092F7011092F60186E0E8E2F2E089
:10198000DF011D928A95E9F7C9CF66E070E00E94F9
:101990000328DC01A850BE4F96E0FE01319601906D
:1019A0000D929A95E1F72093F7010E945F0AB6CF56
:1019B00090E066E070E00E94032888509E4F0E94ED
:1019C000E70A882309F4B0CF8091F60190E066E041
:1019D00070E00E940328FC01E850FE4F40815181D5
:1019E00062817381848195810E94DE088091F60175
:1019F00090E00196877099278093F6018FCF6985D3
:101A00007A858B859C850E94DE0888CF682F80911F
:101A10000001909101010E9454200895682F809147
:101A20000001909101010E946220089580910001BF
:101A3000909101010E947020089580914E02859539
:101A400085958595089580914E02877008959091AF
:101A50004E02977081E009F480E008958091710250
:101A6000089590917102892B809371020895809559
:101A7000909171029823909371020895809371025E
:101A8000089510927102089590917002892B8093AD
:101A9000700208958095909170029823909370023F
:101AA000089510927002089580914F02089508954C
:101AB0000E94570D08959091D10292FF08C0909115
:101AC0004F02981721F080934F020E94580D0895FD
:101AD00080914F02882329F010924F0280E00E94EB
:101AE000580D0895CF93DF93E0910001F09101012B
:101AF000809171028083E0910001F0910101808169
:101B000090917002892B808390914F02992381F0EC
:101B1000E0910001F09101018081892B8083809107
:101B20000001909101010E94C01F81110E94680D67
:101B3000C0910001D091010140E250E06EE272E0FC
:101B4000CE010E94DB28892B59F080E2FE01AEE233
:101B5000B2E001900D928A95E1F7CE010E947A1FC2
:101B6000DF91CF91089508950E94B30D089590914B
:101B7000D10292FF11C0982F990F990F990F962BB0
:101B800090934E020E94340980914E02859585956E
:101B900085950E94B40D08950E943409089510920D
:101BA0004E0280E00E94B40D089590914E028095FF
:101BB000892380934E02282F277091F4282F082E16
:101BC000000C330B9217130659F09091D10292FF3B
:101BD00007C08595859585950E9444090E94CF0D83
:101BE00008959091D10292FB222720F9281769F0DD
:101BF00080FB92F99093D1028091D0029091D10212
:101C00000E94420E82E00E94D50D08958091D1027B
:101C100082FB882780F991E089270E94F10D0895C1
:101C200081E00E94F10D089580E00E94F10D089579
:101C30006FEF7FEF90E080E00E942329089590E00D
:101C400080E00E94FF2821E0883E9E4F09F020E0BE
:101C5000822F089582E090E00E94F128089583E0A9
:101C600090E00E94F1280895CF9384E090E00E94D4
:101C7000F128C82F82E290E00E94F128982F8C2F43
:101C8000CF910895CF93C92F682F84E090E00E94F0
:101C900005296C2F82E290E00E940529CF910895DA
:101CA000AB01BC018FE090E00E9417290895AB01C1
:101CB000BC0183E190E00E941729089560E070E084
:101CC000CB010E94570E089560E070E0CB010E94A6
:101CD000500E0E945E0E089568EE7EEF90E080E068
:101CE0000E94232960E082E090E00E94052960E0E4
:101CF00083E090E00E9405291092F5011092F40112
:101D000060E084E090E00E94052964E082E290E0D7
:101D10000E94052960E085E090E00E94052960E0CE
:101D200086E090E00E9405296FEF87E090E00E9436
:101D3000052940E050E0BA0188E090E00E941729B0
:101D400060E08DE090E00E94052940E050E0BA019B
:101D500088E190E00E94172960E087E190E00E940E
:101D6000052940E050E0BA018CE190E00E9417297B
:101D700070E060E080E290E00E94232940E050E0C3
:101D8000BA0188E190E00E9417290E94640E08952C
:101D90000E946C0E0895682F8EE090E00E94052945
:101DA00008950E942E21609386027093870280938B
:101DB00088029093890260938202709383028093D9
:101DC00084029093850208950E942E2160938602DA
:101DD00070938702809388029093890260937E02B9
:101DE00070937F02809380029093810208950895FA
:101DF00008950E94F80E089508950E94FC0E08951B
:101E00008FEA91E10E94601F0E94F70E0E94F90E76
:101E1000089581E008950E94090F08950895089596
:101E20000E940E0F0E940F0F08950E94CB110E9476
:101E3000DD040E94811A08950E9419210E94AA12AD
:101E40000E94150F0E9486180E945D1D0E94FD0EC3
:101E50000895AAE0B0E0EFE2FFE00C9490280E9421
:101E6000C01224E7822E22E0922E640110E0F601D7
:101E7000E190F1906F01812F0E94F1111F5F1530E9
:101E800009F449C0E816F90691F380918A0281FDB0
:101E90000E94FA110E940B0F782E10E0812F0E94F1
:101EA000F1117C01F401A190B1904F018A159B05BD
:101EB00061F100E0CC24C394D12CAE24BF24C50131
:101EC0008C219D21892BC1F07720B1F00E831F83D7
:101ED00021E0C7018C219D21892B09F420E028876E
:101EE0000E9422218160782F9A8789874E815F81A5
:101EF00068858A850E9409050F5FCC0CDD1C0C30BB
:101F0000F1F6F4013297F182E0821F5F153031F66D
:101F10000E94D10E22C0E816F90609F0B6CF0E9441
:101F200022218C0180917202909173020817190787
:101F3000A1F08FEF89838A831B820E942221816016
:101F4000782F9D838C8349815A816B818D810E947A
:101F5000090510937302009372020E94B9180E943F
:101F60007A1D81110E94E40E0E94F0042A96EDE091
:101F70000C94AC28CF93DF930E94CA10EC0181151A
:101F800022E59207E8F5811531E5930708F0A8C02E
:101F9000883E910510F5803E910570F5883A9105CF
:101FA00070F4853A910508F07BC08130910521F1EC
:101FB000009711F1049700F5D0E0C0E01DC08F3B01
:101FC0009105D0F7C85AD0E0CC0FDD1FCD5ADE4FB7
:101FD0000990D881C02DD4640FC0811540E59407C5
:101FE00008F069C0C11580E4D80708F061C0CE01CF
:101FF0009A9581159F4100F7CE01DF91CF91089509
:10200000811536E5930730F5811545E5940708F00D
:1020100083C0C11584E5D80708F079C09E012370FC
:1020200033279C2F96959695C115D34508F45DC02E
:10203000C1E0D0E002C0CC0FDD1F2A95E2F7892F66
:1020400090E075E0880F991F7A95E1F7C82BD92B9E
:10205000DA68D2CFC1158AE5D80778F4C11529E529
:10206000D20708F063C0C11538E5D30708F4A4CF40
:10207000DC2FCC27C06FD06ABFCFCE019056811520
:10208000904208F099CF8D2F8F710E946C1190E0D3
:10209000982F882788279F719C012C2BE90144C029
:1020A000C55AD0E0CF57DE4FC881D0E0D064A4CF6E
:1020B000DF70D06AA1CF8370992721E030E002C0A1
:1020C000220F331F8A95E2F7C695C695D0E0A5E0AA
:1020D000CC0FDD1FAA95E1F7C22BD32BDD688CCF87
:1020E000D82FCC27C16FD06A87CFC1E0D0E002C023
:1020F000CC0FDD1F2A95E2F7892F90E0E5E0880FED
:10210000991FEA95E1F7C82BD92BDC6875CFDC2F36
:10211000CC27C46FD06A70CF0E946C11C82FD0E05A
:10212000DC2FCC27CC27DF71D06266CF8C2F8F704D
:102130000E946C1134E0D695C7953A95E1F7CF70BF
:102140009C2FEC01D06958CF282FE62F7530D0F4A2
:102150006C30C0F4872F90E06CE070E00E940328A0
:10216000E80FF92FF11D822F90E06CE370E00E94E0
:102170000328E80FF91FEE0FFF1FEC58FF4F859162
:102180009491089580E090E008950E94A4100E9428
:10219000BA0F089582389105B9F1B0F481339105F1
:1021A00009F47DC048F48932910509F46DC08A3282
:1021B000910509F47BC008958533910509F45FC04A
:1021C0008933910509F10895833E9105D9F138F4D9
:1021D000803E910529F1823E910579F10895863E70
:1021E0009105D9F1873E910509F43EC0843E9105E1
:1021F00041F52091D10221FF24C08091D00284FDBD
:1022000019C087EE90E008952091D002237009F064
:102210005AC02091D10223FF14C089E290E00895B2
:102220002091D00220FD38C03091D10230FF09C08A
:1022300024FF43C090E080E008952091D00222FD69
:10224000F7CF08952091D00222FD3AC03091D102FB
:1022500030FD39C024FFF5CFEDCF2091D00223FF10
:10226000F0CF24FDE7CFCDCF2091D00223FD2EC0AB
:102270003091D10231FFEECF84EE90E008952091AD
:10228000D00225FFDECFC9CF2091D00225FD21C08D
:102290002091D10223FFD5CF89E390E0D2CF2091C6
:1022A000D00226FFCECF8AE290E008952091D0029E
:1022B00026FFC7CF81E390E0089583EE90E0089574
:1022C00082EE90E0089580EE90E0089586EE90E032
:1022D000089585E390E008959091D00292FF06C0A2
:1022E000282F28712830F9F4877F846093FF06C077
:1022F000282F28712831F1F4877E84612091D10242
:1023000020FF06C0382F38713830D9F4877F8160BC
:1023100021FF06C0282F28712831D1F4877E8161E2
:1023200094FD877E0895282F24712430F9F68B7F41
:102330008860DCCF282F2471243101F78B7E8861DF
:10234000DDCF382F3171313019F78E7F8860E0CFC3
:10235000282F2171213121F78E7E8861E1CF80E025
:1023600008950E94180E08950E94C0128FE39CE900
:102370000197F1F700C000000E94C01280E00E94A7
:10238000F11180FF04C00E94B1110E946D210895D7
:102390000E94B41108950E941F0E811102C00E9474
:1023A000C80E0E942A0E80938A020E94340E9093D7
:1023B000D1028093D0020E94C8110E942F0E90E09B
:1023C0000E94F6088091F2019091F3010E94170992
:1023D000089508950E94E911089508950E94ED114D
:1023E0000895E82FF0E0EE0FFF1FE452FD4F8081CB
:1023F00091810895089580EA8A95F1F7089500C0C3
:1024000008950E94FB110895F894E82FE295EF706B
:10241000F0E031A1282F2F7081E090E001C0880FFB
:102420002A95EAF7982F9095932391A392A1892B4F
:1024300082A3789408950F931F93CF93DF93C0E9FD
:10244000D1E089918F3F11F00E94041281E0C539DB
:10245000D807B9F7C4E8D1E000E911E089918F3FCE
:1024600011F00E9404120C171D07C1F7DF91CF91E4
:102470001F910F910895AF92BF92DF92EF92FF925A
:102480000F931F93CF93DF938C01D62EC62FD0E0EE
:10249000CE0180579E4F7C01FC0120812F3F09F423
:1024A0004CC0F894E22FE295EF70F0E031A12F706C
:1024B00081E090E001C0880F2A95EAF7932F982BCE
:1024C00091A392A18095892382A378940E94FF1101
:1024D000E4E8F1E041E050E0B12CA12C21912F3F44
:1024E000B1F1A22FA295AF70B0E090968C9190E0E0
:1024F0002F7002C0959587952A95E2F780FD27C039
:10250000CA01A82AB92A440F551F81E0E039F8070B
:1025100029F7F70180818F3F11F00E94041261E0DA
:10252000A114B10409F460E08D2D0E940112CC0FBA
:10253000DD1FC00FD11FB982A882DF91CF911F91FB
:102540000F91FF90EF90DF90BF90AF90089590E0D3
:1025500080E0D7CF0E941B128AE0ECEDF2E0DF01B1
:10256000982F1D929A95E9F7E2EDF2E0DF011D92B6
:102570008A95E9F785E00E94FB120E944B040895BA
:10258000AAE0B0E0E6ECF2E10C9498288E010F5F2F
:102590001F4F8AE0F80111928A95E9F7F12C6F2D0F
:1025A000C8010E943B12F394F5E0FF12F8CF4AE015
:1025B00050E0B80182ED92E00E94DB2821E0009714
:1025C00009F420E0892B41F08AE0F801A2EDB2E0A5
:1025D00001900D928A95E1F745E06CED72E082ED95
:1025E00092E00E94FC12182F0E944E04812F2A961E
:1025F000E5E00C94B4280895CF92DF92EF92FF9219
:102600001F93CF93DF936C017B01C42F222349F0EA
:1026100081E080938D020E94222190938C0280930E
:102620008B0210918D0211110AC010E0812FDF91F1
:10263000CF911F91FF90EF90DF90CF900895809100
:102640008B0290918C020E943A21059770F3D0E0A2
:10265000CC0FDD1FAE01B601C7010E94DB28892B1C
:1026600041F0AE01B601C7010E94E82810928D0228
:10267000DDCF10E0FBCF0E9414230E941C0F0E94AC
:10268000212308950E9426230E94290F0E9440239F
:1026900008950E94C1200E94FA220E94000F0E9409
:1026A0003B130E9442130E94100FFBCFEF92FF9248
:1026B0000F931F93CF93DF93982F71110FC0442373
:1026C00029F0E82FF0E0E559FC4F9491692F792F1C
:1026D000892FCDB7DEB7E6E00C94B328262F30E083
:1026E000C72FD0E0E82FF0E0442321F0E559FC4F5C
:1026F000E491F0E0C90166E070E00E9403280FEF6A
:1027000010E0B8010E943B28DB01220F331FCB01F0
:1027100065E570E00E940328281B390BE22EEE0CC1
:10272000E20EC8018C1B9D0BBF010E940328292FBC
:10273000F12CC701BE010E940328492F50E0C801B7
:10274000841B950BBF010E940328392FC8018E19E5
:102750009F09BE010E940328492F50E0C801841B35
:10276000950BBF010E940328892F7E2FA230B1054F
:1027700089F038F4109759F0119781F0922F232F98
:1027800006C0A430B10569F080F01697B9F7692F3B
:10279000822F9FCF9E2F722F282FF9CF9E2F732F1E
:1027A000F6CF922F2E2F782FF2CF722F2E2F932F1E
:1027B000EECF41E00E945613089508950E94D91368
:1027C0000895CF93DF93762FE901682F842F0E941D
:1027D000DE13798368838A83DF91CF910895809196
:1027E000E602982F9E7F29F4817082608093E60232
:1027F00008958A34E8F381708864F8CF88E090E027
:102800000E94F9280895CF92DF92EF92FF926B0118
:102810007C010E94EF13B701A60188E090E00E94BE
:102820001729FF90EF90DF90CF900895E6EEF2E049
:1028300083E0808311828FEF82838383148260819F
:102840007181828193810E94031408958091E60230
:1028500080FF02C08695089580E008959091EA0275
:10286000933018F49F5F9093EA02882351F06091AF
:10287000E6027091E7028091E8029091E9020E94DD
:102880000314089581E00E942E1408959091EA02A5
:10289000992319F091509093EA02882351F06091A6
:1028A000E6027091E7028091E8029091E9020E94AD
:1028B0000314089581E00E944614089570E00E9478
:1028C0002A1A0895309106018091E60280FF0DC01A
:1028D0008091050190E063E070E00E940328632F7F
:1028E00085519D4F0E945E140895209107014091EB
:1028F0000801822F90E063E070E00E940328FC0151
:10290000E551FD4F241720F71182108212822F5FAC
:102910003396F8CFA82FB62F8091E60280FF11C022
:102920002091070130910801822F90E063E070E070
:102930000E940328FC01E551FD4F231718F00E9467
:1029400062140895A183B08342832F5F3396F5CF3D
:10295000A3E0B0E0EEEAF4E10C949B289091E6024B
:1029600090FF0AC09E012F5F3F4F0E94E1134B81F1
:1029700069818A810E948A142396E2E00C94B72828
:10298000CF93DF93EC01EC81F0E0EA59FD4F4491E5
:10299000E6EEF2E0628181810E94A8148C818F5F53
:1029A0008C83DF91CF910895CF93DF93EC01E6EE16
:1029B000F2E0438162818C810E94A8148C818F5F38
:1029C0008C83DF91CF910895A3E0B0E0EAEEF4E1CB
:1029D0000C9499288C0180918E0281110AC09E016D
:1029E0002F5F3F4F4FEF6FEF0E94E1138A8180937B
:1029F0008E02F8016481613069F080918E0240E0BE
:102A0000662361F040E0623011F440918E0280E074
:102A100060E004C060918E0240E080E00E948A1471
:102A2000F801848190E0019663E070E00E944F28F5
:102A300084832396E4E00C94B528A3E0B0E0E3E2BD
:102A4000F5E10C949328F82ED62EE42EC22E909108
:102A5000E60290FF29C0E92FE695AE2FB0E0AB5615
:102A6000BE4F8C91809398029E7F923009F59E0113
:102A70002F5F3F4F8F2D0E94E1134B8169818A8127
:102A80000E948A14F092E702D092E802E092E902F2
:102A9000CC2051F06091E6027091E7028091E8024B
:102AA0009091E9020E9403142396EAE00C94AF2867
:102AB000823019F4E090E902E5CF863019F4F09005
:102AC000E702E0CF8930D9F38931E1F6E9518E2F61
:102AD0008170B82EE695F0E0EA59FC4FE491A12C04
:102AE0000E2F10E040910901A41618F00E94621404
:102AF000C9CF2A2D30E0C901B8010E940328642FF4
:102B000070E00E943B28EF2DB11014C0E60F8091B9
:102B10000701820F932F911D63E070E00E9403284C
:102B20009C0125513D4F4E2D6D2D8E2F0E94E1139E
:102B3000A394D8CFE61BEBCFE6EEF2E09181282FED
:102B4000438162818CE0890F0E941D15089581E008
:102B50000E949C150895E6EEF2E09181282F4381B2
:102B6000628184EF890F0E941D15089581E00E9403
:102B7000AB150895E6EEF2E062812CE0620F08F4F6
:102B80006FEF282F438181810E941D15089581E0F8
:102B90000E94BA150895E6EEF2E062812CE0621B15
:102BA00008F460E0282F438181810E941D1508955B
:102BB00081E00E94CB150895E6EEF2E043812CE01F
:102BC000420F08F44FEF282F628181810E941D156A
:102BD000089581E00E94DC150895E6EEF2E043815D
:102BE0002CE0421B08F440E0282F628181810E9482
:102BF0001D15089581E00E94ED15089520E00E94C2
:102C00001D150895EF92FF921F93CF93DF93EC0170
:102C100010E0EE24EA94F12C30910901131770F0C2
:102C20000E9462149A818C8190FF27C08F5F8C83F1
:102C3000DF91CF911F91FF90EF9008958091070150
:102C4000810F9927991F63E070E00E940328FC011F
:102C5000E551FD4F632F70E0C7010E944F28812F7F
:102C60000E94FA279C819F014091E9026091E8024D
:102C7000890F0E94E1131F5FCFCF8150D8CFB0E002
:102C8000A0E0E5E4F6E10C949328FC018281DFEFFB
:102C900080FFD1E0C0E03EE0A32E80910901C8177B
:102CA00098F00E94621480919002D13009F04EC0D9
:102CB000811102C080910901815080939002CDB7AB
:102CC000DEB7EAE00C94AF2880910701CC2ED12C1E
:102CD0008C0D9D2D911D63E070E00E9403288551AD
:102CE0009D4F7C01FC0111821082128204E010E0F1
:102CF000B12C809190028B0D8F3014F16A2D0E94BF
:102D00002D28892F082E000C990BC816D90691F48E
:102D10008091E90290E0B8010E940328959587957B
:102D2000959587959701482F6091E8028091E70279
:102D30000E94E113BD0E01501109D9F6CF5FADCF4E
:102D400087FFE0CF90910901890FDCCF90E00196D9
:102D50006091090170E00E944F28AFCFCF9320917E
:102D6000070130910801822F90E063E070E00E943B
:102D70000328FC01E551FD4F231720F1C0E06091CD
:102D80000901C61728F10E94621420910301809165
:102D90008F02820F80938F0290910401920F909383
:102DA0000401191654F4082E000C990B40910901E6
:102DB0004150550B841795071CF021952093030172
:102DC000CF9108951182108212822F5F3396D4CF53
:102DD000EC2FF0E070E0CF010E944F2890910701A6
:102DE000890F90E020918F02022E000C330B63E0DC
:102DF00070E00E940328E217F307ACF02091040171
:102E0000022E000C330B2E173F076CF09C0125514E
:102E10003D4F4091E9026091E8028091E7020E94F3
:102E2000E113CF5FACCFFC01E551FD4F1182108261
:102E30001282F7CFB0E0A0E0E0E2F7E10C948D2839
:102E40008C01FC01C481CC2ED12CF12CE12CA701EA
:102E50009601C701B6010E941428A70196010E949D
:102E600014282B013C0130E2C32ED12CCC1AD108FE
:102E70000D2C000CEE08FF0825E530E040E050E0A6
:102E80000E9414284B015C01A7019601C701B601FD
:102E90000E941428A70196010E9414289B01AC01EE
:102EA000240D351D461D571DC501B4010E94632820
:102EB000D22F822F90E02A3240F563E070E00E942A
:102EC000032897FD019695958795C82FC095F12CFD
:102ED00085E5E82EED1A80910901F816E8F00E94C8
:102EE0006214F801948181E0992319F0903219F469
:102EF0008FEF8093020180910201890FF801848392
:102F0000CDB7DEB7E0E10C94A92825E530E0A901B2
:102F1000481B590BCA01D1CFEE2DF1FCED2F80914A
:102F200007018F0D9927991F63E070E00E94032825
:102F30009C0125513D4F4C2F6091E8028E2F0E943D
:102F4000E113F394C8CF0F931F93CF93DF938C01BA
:102F5000D0E0C0E0309109013C171D0609F074F47F
:102F60000E946214F801848190E001968170992793
:102F70008483DF91CF911F910F9108958091070174
:102F80008C0F9D2F911D63E070E00E940328AC011F
:102F900045515D4FF80194816091E8028091E7020C
:102FA00036953C171D0651F04CF0992349F09A01D3
:102FB0004091E9020E94E1132196CCCF9923B9F305
:102FC0009A0140E0F7CFE6EEF2E080818E7F8083C9
:102FD00060817181828193810E9403141092990211
:102FE0002FEF80E792E0215080409040E1F700C051
:102FF00000000E94621408956091E602669570E0F8
:103000004BE050E08AE091E00E94CE28892B19F431
:1030100081E0809399020E942221909392028093F2
:10302000910208959091E60290FF2BC0917081115A
:1030300029C092609093E602662351F06091E60207
:103040007091E7028091E8029091E9020E940314D6
:103050006091E602669570E04BE050E08AE091E016
:103060000E94CE28892BA9F01092990281E08093CA
:1030700094024091E9026091E8028091E7020E9487
:10308000FE150895853210F09864D4CF880F982BE0
:10309000D1CF0E94FC17EACF682F9091E602969557
:1030A00081E0890F853208F081E00E9412180895AE
:1030B00081E00E944C180895682F9091E602969541
:1030C0008FEF890F09F484E20E941218089581E0BD
:1030D0000E945C18089561E00E9412180895E6EEBF
:1030E000F2E080818160808386950E946B1808954C
:1030F0008091E60280FF03C00E94E31708950E94BA
:103100006F18089560E00E94121808958091970248
:1031100081112EC00E941F0E811104C00E94C80E92
:103120000E9416140E94FE136093E6027093E70259
:103130008093E8029093E9026E7F61F40E94161476
:103140000E94FE136093E6027093E7028093E80208
:103150009093E9020E94EF13109299028091E60287
:1031600080FF03C086950E94821881E080939702B9
:1031700008950F931F93CF93DF9380919902882333
:10318000B9F180919802E091E602E695E81BE093A0
:103190009302823091F5F0E0EE59FD4FE491CE2F8D
:1031A000D0E000EC14E180919402882361F0109249
:1031B00094020E9422219093920280939102109295
:1031C0009602109295020E942221E0919102F091C4
:1031D00092028E1B9F0B8F3F9F4750F4EC0FFD1FF9
:1031E000F0939202E093910281E992E0F80109954F
:1031F000DF91CF911F910F910895863049F4F0E04F
:10320000E15AFD4FE491CE2FD0E004ED14E1CBCF95
:10321000893051F4E695F0E0E45AFD4FE491CE2F69
:10322000D0E002E016E1BFCF8F3051F4E695F0E038
:10323000E75AFD4FE491CE2FD0E00FE316E1B3CF74
:10324000853149F4F0E0EA5AFD4FE491CE2FD0E009
:103250000EEA16E1A8CFC8E2D0E00AE117E1883112
:1032600009F4A1CF833239F4E4E5F2E0C591D491B9
:1032700004EE14E198CFC4EFD1E003EA17E1843201
:1032800009F491CFC0EDD7E00DED13E18CCFFA0139
:10329000811101C0FB0109950895CF93DF93C82FD9
:1032A000D62F0E9426148C1748F00E9426148D17E2
:1032B00028F40E945818DF91CF9108958C2F0E9416
:1032C0006B18F9CF1F93CF93DF93EC01FB011281B1
:1032D00011117EC00E942E0D8272CD3CFCE5DF07ED
:1032E00009F49CC008F041C0C73CECE5DE0709F4D6
:1032F00081C0D8F4C43C9CE5D90709F471C030F40E
:10330000C33CDC4509F469C011E062C0C53C9CE5E2
:10331000D90709F46AC046EB55E167EA75E1C63C96
:10332000DC4591F70E94471953C0CA3CFCE5DF0712
:1033300009F46AC068F4C83CECE5DE0709F45FC034
:1033400047EC55E168ED75E1C93CDC4559F3DCCF4C
:10335000CB3C9CE5D90709F45CC04AE554E162E442
:1033600074E1CC3CDC45F1F2CFCFC23DFCE5DF0798
:1033700009F465C098F4CF3C9CE5D90709F457C01F
:1033800008F451C0C03DFCE5DF0709F455C0C13D5C
:10339000DC4509F0B9CF6EE089E04BC0C53D9CE546
:1033A000D90709F452C058F4C33DFCE5DF0709F41E
:1033B00049C0C43DDC4509F0A7CF88E135C0C63D12
:1033C0009CE5D90709F444C0CE35DD4509F09CCF12
:1033D000812FDF91CF911F9108950E947818F8CF27
:1033E00047E658E168E578E19DCF48E558E167E6B2
:1033F00078E198CF47EA55E166EB75E193CF48ED68
:1034000055E167EC75E18ECF4AEF55E169EE75E164
:1034100089CF49EE55E16AEF75E184CF42E454E18A
:103420006AE574E17FCF81E00E946B18D1CF65E03F
:1034300082E00E944D19CCCF68E086E0FACF64E1CB
:103440008FE0F7CF67E185E1F4CF62E289E1F1CF68
:1034500083E2EACF9C01CB01509A4BB14E7FEBB196
:10346000E160FFB7F89463E070E00E940328820FE8
:10347000931F8217930741F4FFBF8FE594E00197F4
:10348000F1F700C000000895D9015D919D0168E049
:10349000EBB9000000C057FF4BB9550F000000C04A
:1034A00000C000C04BB900C06A9591F7E2CFCF933E
:1034B000DF93EC0197FF0CC0FB018281882341F070
:1034C0000E94981ACE019F770E94281B0E94F71A2B
:1034D00081E0DF91CF91089590911603923071F4BD
:1034E0008A3050F490E009966AE070E00E944F281C
:1034F000875A0E943B0608958650FBCF0E94491DC3
:1035000008958CE090E00E94F12890E0B0E0A0E007
:103510008093160390931703A0931803B093190395
:103520000895609116038CE090E00E9405290895AB
:103530000E94771F8695817080931B030E94771FDE
:1035400081708093150380911603813039F4809146
:103550001B03882319F089E30E943B060E942E0D6D
:1035600080931A030E94410D0E94510D8091160311
:10357000823021F158F48823C1F08130D1F08FE3FB
:103580009CE90197F1F700C000000895843051F1E3
:103590008530A9F78BE191E00E94F20385E290E08B
:1035A0000E94F20388E290E006C082EE0E94440589
:1035B000E6CF88E193E00E94F203E1CF809115030A
:1035C000811103C083E50E943B0682EE0E94440500
:1035D0008FE39CE90197F1F700C0000087E50E94A6
:1035E0003B06CDCF86EE0E943B0688E1F8CF809166
:1035F0001603823011F148F4882381F0813091F074
:1036000080911A030E943E0D08958430F9F08530B0
:10361000B9F788E290E00E94F203F2CF82EE0E94B6
:10362000D205EECF8CE20E943B0680911B038823DB
:1036300039F389E30E943B06E3CF82EE0E94D20574
:10364000809115038111DCCF83E5F4CF88E2F2CFBE
:103650000F931F93CF93DF938C01CCE0D0E0C80190
:103660000C2E02C0969587950A94E2F78F700E94FF
:103670006C1A2497CC3F8FEFD80789F7DF91CF9151
:103680001F910F9108950F931F93CF93DF93EC0138
:103690008B01FB018281882381F00E942E0DC43EA4
:1036A000FCE5DF0729F190F4C23EECE5DE07D9F036
:1036B00081E0C33EFCE5DF0799F0B801CE010E942E
:1036C000571ADF91CF911F910F910895C63E8CE557
:1036D000D80791F078F085E0C13BFDE5DF0769F799
:1036E0008093160302C0109216030E94911AE5CF30
:1036F00082E0F6CF83E0F4CF84E0F2CFCF93DF9384
:10370000EC01FB018281882309F464C1C430FDE52A
:10371000DF07E0F5CB3F9CE5D90730F49E0122504E
:103720003C4524313105D8F50E94340E9093D102E6
:103730008093D002C231ECE5DE0709F41FC108F026
:103740006EC0C9308CE5D80709F4F2C008F03FC05C
:10375000C530ECE5DE0709F4DBC058F5C3308CE575
:10376000D80709F4CDC008F0CFC08091D0028160A5
:10377000C230DC4509F4AEC08091D0029091D102F4
:103780000E94420E0E94A10880E009C0C63AEDE501
:10379000DE0751F238F4C2369DE5D90729F2DF91F0
:1037A000CF9108959E012E5A3D4523303105B8F73B
:1037B000BBCF8091D0028062C730FCE5DF0709F4FF
:1037C00089C008F4B1C08091D002806483C0CD303C
:1037D0009CE5D90709F4BAC070F48091D0028E7FBD
:1037E000CB30FCE5DF0709F475C008F4A7C0809171
:1037F000D0028D7F6FC0CF309CE5D90709F4B6C0E9
:1038000008F4A8C0C031FCE5DF0709F4B3C0C1313A
:10381000DC4509F0B1CF8091D0028F7B5BC0C11530
:103820009DE5D90709F4B4C098F5CB3FFCE5DF0767
:1038300009F472C0B8F4C4319CE5D90709F4B6C0E4
:1038400008F4A2C0C531DC4509F096CF8091D002C2
:1038500082FB992790F921E0922790FB82F990FB57
:1038600083F938C0CD3F8CE5D80709F477C008F458
:1038700057C0CE3FECE5DE0709F474C08091D10259
:103880008360CF3FDC4509F077CF8093D10274CFBE
:10389000C2368DE5D80709F496C068F4C230EDE56C
:1038A000DE0709F48CC008F477C0C330DD4509F0A9
:1038B00063CF80E085C0CE3A9DE5D907E9F068F492
:1038C0009091D002892F8E7F90FF8160C63ADD45AE
:1038D00009F052CF8093D0024FCFCF3A8DE5D80771
:1038E00089F1C03BDD4509F047CF9091D102892F86
:1038F000877F93FF8860C9CF8091D1028860C5CF50
:103900008091D0028260E6CF8091D0028460E2CFC5
:103910008091D0028860DECF8091D1028160B5CFE6
:103920008091D1028260B1CF8091D0028061D2CFEC
:103930000E94A1088091D0028068CCCF8091D002F3
:103940008C60C8CF8091D102877F9FCF8091D002B9
:103950008B7FC0CF8091D002877FBCCF8091D10276
:103960008E7F93CF8091D1028D7F8FCF8091D002B7
:103970008F7EB0CF8091D0028F7DACCF0E94A10806
:103980008091D0028F77A6CF8091D002837FA2CF83
:103990008091D1028C7F79CF8091D102982F909520
:1039A00091708E7F892B90FB81F96FCF0E94A108C7
:1039B0009091D002892F97FB87F980588BCF81E0B7
:1039C0000E94CB0ED9CE9091D002892F8F7E94FF8A
:1039D000806180CF81E0E3CEB0E0A0E0E2EFFCE1E7
:1039E0000C949628E82FF0E0E559FB4FD490282F4F
:1039F00026952695269530E0F901E55FFA4F04916A
:103A0000877010E0082E02C0159507950A94E2F71A
:103A100001701127F901E550FB4FE490F12C082EBD
:103A200002C0F594E7940A94E2F791E0E922FF24BA
:103A3000F901E551FB4FC491D0E002C0D595C7957F
:103A40008A95E2F7C170DD270115110519F081EEA5
:103A50000E944405E114F10419F086EE0E94440529
:103A60008D2D0E943B06E114F10419F086EE0E94B0
:103A7000D2050115110519F081EE0E94D205CD2B5A
:103A800019F08CE20E943B06CDB7DEB7E7E00C945C
:103A9000B228982F9F709A50963020F0805D0E9437
:103AA000EC1C0895895AFBCF8FE891E00197F1F75C
:103AB00000C00000089581E0089581E080939B029A
:103AC0002098289A5198599A0E94541D20919B023F
:103AD0004DE952E0FA018E2F841B821708F00895F9
:103AE00083B18170499904C090E0892B8193F3CF11
:103AF00092E0FBCFB0E0A0E0E0E8FDE10C94952877
:103B0000F12CE12C84E0C82ED12C80919B02F81678
:103B100030F08E2DCDB7DEB7E8E00C94B1280F2D34
:103B200010E0E3B1E170499940C080E08E2BD801EC
:103B3000A356BD4FEC919E2F93709817A1F1EE0FF5
:103B4000EE0FE82BEC93EF70F0E0E654FE4FE80147
:103B5000C456DD4F80819881890F888320E08430AE
:103B60005CF0F801E656FD4F80818F5F808360E056
:103B70008F2D0E94540321E088818D3F5CF4F80171
:103B8000E656FD4F80818150808361E08F2D0E9439
:103B9000540321E08881082E000C990BB6010E9485
:103BA0004F288883E22AF394B0CF82E0BFCFEBEFB7
:103BB000E80FEF3308F066C0F0E0E95BF64D0C94D7
:103BC00085280E94C80E81E0089580918A02807F36
:103BD00080938A0281E080939E0208950E9460048F
:103BE000F2CF90918A02892F8E7F90FF816080931F
:103BF0008A0280FDE8CF817F80938A02E4CF909192
:103C00008A02892F8D7F91FF826080938A0281FFD3
:103C1000DACF80918A028160EFCF90918A02892F5A
:103C20008B7F92FF846080938A0282FDF2CFCBCF9C
:103C300090918A02892F877F93FF886080938A0200
:103C400083FDE7CFC0CF0E94A1089091D002892FB9
:103C500097FB87F980588093D002B5CF81E090E040
:103C60000E94F6080E94A108AECF895321E030E0FF
:103C7000A90102C0440F551F8A95E2F7CA01F0CF8F
:103C80008D51F4CF80E0089580E008950E94441E95
:103C90000895CF93C82F80919E02882331F0813000
:103CA00099F010929E0280E00DC00E942E0D82328B
:103CB000D1F78C2F0E94441E811116C08C2F0E94B8
:103CC000D71D8170CF9108950E942E0D823289F305
:103CD0008C2F0E94461E811105C0C43171F038F44A
:103CE000CB3079F781E0EDCF81E090E0EACFC932C7
:103CF00021F0C833B9F380E0E4CF10929E02FBCFED
:103D0000CF93DF93EB0186319C4511F50E942E0D78
:103D10009A81992399F08A7A91E009F490E090933E
:103D20009F02811109C089E20E94060D0E94720D56
:103D300080E0DF91CF91089585E3F6CF80919F02D7
:103D4000811104C089E20E940E0DF0CF85E3FBCF04
:103D500081E0EFCF0F931F93CF93DF93C42FD22F28
:103D6000FC0182818823C9F04093A2020E94222193
:103D70009093A1028093A00280E28C0F883040F4DF
:103D8000C77081E001C0880FCA95EAF70E94440617
:103D9000DF91CF911F910F9108951091A2021413FA
:103DA00032C08091A0029091A1020E943A21883CE9
:103DB000910548F5C0E2CD0F1D17B9F080E2810FE3
:103DC000883040F4177081E001C0880F1A95EAF737
:103DD0000E944B06C83048F481E09D2F977001C0C7
:103DE000880F9A95EAF70E944406802F0E943B06AE
:103DF000C83070F6D77081E001C0880FDA95EAF715
:103E00000E944B06C5CF80E28C0F883008F6C77041
:103E100081E001C0880FCA95EAF7F2CF0F939C01A9
:103E2000CB01243F4CE5340759F1A8F4293DFCE5CA
:103E30003F0701F12A3D4CE53407D1F1283D3C45CF
:103E400091F406E221EE41EE68ED7CE50E94AA1EA7
:103E500080E00F910895263FFCE53F07E9F0B0F0C0
:103E6000273F3C45F9F0FC018281882339F110920B
:103E7000A202EFCF07E225EE45EE69ED7CE5E6CF45
:103E800006E221EE40EE64EF7CE5E0CF07E225EEAE
:103E900044EE65EF7CE5DACF06E221EE42EE66EF16
:103EA0007CE5D4CF07E225EE46EE67EF7CE5CECF8A
:103EB00008E221E045EE6AED7CE5C8CF81E0C9CF9C
:103EC0009093CB018093CA0108959093A8028093A8
:103ED000A7020895E091A702F091A802309729F077
:103EE0000190F081E02D0995089580E008950E94E9
:103EF0006A1F0895E091A702F091A802309799F007
:103F000020912101222359F02091D00227FF07C0E0
:103F1000DC012C9111962C93119726E02C930280B2
:103F2000F381E02D099508952091A5023091A60214
:103F30002817390771F09093A6028093A502E091AB
:103F4000A702F091A802309721F00680F781E02DBA
:103F5000099508952091A3023091A40228173907EA
:103F600071F09093A4028093A302E091A702F091D4
:103F7000A802309721F00084F185E02D099508957D
:103F8000FC01329680912101882321F08091D0029A
:103F90009EE187FF96E080E0915008F4089521911A
:103FA0002223D1F38F5FF8CF662301F12091210105
:103FB0002223F1F02091D00227FF1AC0462F469508
:103FC000469546954E3190F4677021E030E002C08E
:103FD000220F331F6A95E2F7840F911DFC01828145
:103FE00090E02823392381E0232B69F480E00895B1
:103FF000FC01329608962191261721F0E817F9075F
:10400000D1F7F4CF81E008959C01FC0132969FEF37
:1040100080E04191461751F09F3F19F4411101C0D2
:10402000982F8F5F8630A9F79F3F09F40895290FD5
:10403000311D97FD3A95F90162830895FC0132968E
:1040400008962191261303C0DF0111971C92E817EF
:10405000F907B9F70895E62FE695E695E695EE316E
:1040600068F4E80FF92FF11D677021E030E001C01E
:10407000220F6A95EAF78281822B82830895E62FC8
:10408000E695E695E695EE3170F4E80FF92FF11D0F
:10409000677021E030E001C0220F6A95EAF72095B1
:1040A000828128232283089520912101222339F03F
:1040B0002091D00227FF03C00E942B2008950E9468
:1040C0000420089520912101222339F02091D0026B
:1040D00027FF03C00E943F2008950E941E200895DC
:1040E000FC01329680912101882351F08091D00209
:1040F00087FF06C08EE1DF011D928A95E9F70895DA
:1041000086E0F9CF08950E9482200895811106C0AB
:1041100081E08093A9020E948320089582E0F9CF74
:1041200083E08093A9020E94832008950E94862044
:10413000089581E08093A9020E94832008950E943F
:1041400099200895089508950E94A3200895089540
:1041500008950E94A2200895CF930E94A7200E9454
:10416000C0120E94A820C0E08C2F0E94F111892B60
:1041700031F4CF5FC530C1F780E0CF91089581E081
:10418000FCCF08951F921FB61F9211248F939F9307
:10419000AF93BF938091AA02811113C080911C0339
:1041A00090911D03A0911E03B0911F034196A11D84
:1041B000B11D80931C0390931D03A0931E03B09325
:1041C0001F03BF91AF919F918F911F901FBE1F90B2
:1041D000189580912403843031F10E94CA04109212
:1041E000AA0288E190E020E40FB6F894A8958093A5
:1041F00060000FBE2093600083B7817F846083BF1F
:1042000083B7816083BF7894889583B78E7F83BF9F
:104210000FB6F894A8958091600088618093600043
:10422000109260000FBE08950E94A1080E94CF0462
:10423000089582E084BD93E095BD9AEF97BD809389
:104240006E0008952FB7F89480911C0390911D0380
:10425000A0911E03B0911F032FBF08952FB7F894AC
:1042600060911C0370911D0380911E0390911F03A8
:104270002FBF08959C014FB7F89480911C03909133
:104280001D03A0911E03B0911F034FBF821B930B10
:10429000089578941F921FB61F9211248F939F93B5
:1042A000AF93BF9380911C0390911D03A0911E03B7
:1042B000B0911F030196A11DB11D80931C03909323
:1042C0001D03A0931E03B0931F03BF91AF919F9155
:1042D0008F911F901FBE1F90189581E08093E00082
:1042E00080E28093D8001092C9008FE19EE401978C
:1042F000F1F700C0000087E090EBDC0180932D0314
:1043000090932E03A0932F03B093300388E19CE099
:104310000FB6F894A895809360000FBE909360004C
:10432000FFCF88E19CE00FB6F894A89580936000D9
:104330000FBE90936000FFCF8091CE020895089544
:10434000CF93DF93EC01809121018823B1F180911B
:10435000D00287FF32C060E282E08093E9008FEFF5
:104360009091E800815095FD06C095ED9A95F1F782
:1043700000008111F5CF8091E80085FF1BC080917E
:10438000210170E050E040E0811104C050E040E0C5
:1043900068E070E0CE010E94B2238091E8008E7741
:1043A0008093E80080E2FE01AEEAB2E001900D9257
:1043B0008A95E1F7DF91CF91089568E081E0CDCF54
:1043C0008093AB027093AD026093AC0280912403A2
:1043D000843001F582E08093E9008FEF9091E8004E
:1043E000815095FD06C095ED9A95F1F70000811179
:1043F000F5CF8091E80085FF0DC050E040E063E01C
:1044000070E08BEA92E00E94B2238091E8008E7700
:104410008093E8000895BC0184E00E94E0210895A3
:10442000BC0183E00E94E021089508950E94992034
:1044300008956091200381E0611101C080E00E9435
:10444000902008959091240381E0943009F080E059
:10445000609120030E949620089542E061EC81E083
:104460000E94BA2442E261EC82E00E94BA24909158
:10447000240381E0943009F080E0609120030E94E1
:104480008620089580912603833009F45FC030F4BC
:104490008130C1F1823009F49CC008958A3009F45A
:1044A00088C08B3009F46DC0893009F04EC080910E
:1044B0002503813209F049C08091290390912A0394
:1044C000029708F042C08091E800877F8093E8005F
:1044D0008091E80082FF35C08091F200823031F493
:1044E0008091F100813011F0863021F48091F1004B
:1044F0008093CE028091E8008B778093E8000E9441
:10450000EE2423C080912503813AF9F48091E800DC
:10451000877F8093E8008091290390912A03892B5B
:1045200061F460E28EEA92E070E00E9401248091E2
:10453000E8008B778093E800089560E090E080E0E9
:10454000F3CF809124038111C3CF08958091250377
:10455000813AD9F78091290390912A03892BA9F7F1
:104560008091E800877F8093E8008091E80080FFD9
:10457000FCCF809121018093F1008091E8008E773B
:10458000BCCF80912503813201F78091290390915E
:104590002A03892BD1F68091E800877F8093E80079
:1045A0000E94EE2480912703809321010E94A1089C
:1045B000089580912503813241F68091E800877F3C
:1045C0008093E8000E94EE24809128038093CF021C
:1045D000089580912503813A09F0B7CF8091E800D2
:1045E000877F8093E8008091E80080FFFCCF809176
:1045F000CF02C1CF84B7877F84BF0FB6F894A89548
:1046000080916000886180936000109260000FBE0E
:1046100080E890E00FB6F894809361009093610079
:104620000FBE0E949F2008950E943E250E94912562
:10463000E2EEF0E080818460808378940E94DF273E
:10464000089585E191E00E94651F089580912403FB
:10465000853031F480912403853019F00E941421B3
:1046600008950E94E92080912203882399F30E94F3
:10467000AC20882379F30E949C230E94A108EACFF2
:1046800008950E9444230895292F332723303105AC
:1046900019F168F42130310509F444C022303105A4
:1046A00009F445C090E080E030E020E025C02132F0
:1046B000310549F122323105A9F780E490E023EF7A
:1046C00035E061157105C1F08DE690E026E835E032
:1046D0006130710589F0E6CF99278130910581F02D
:1046E000009729F00297F1F6EBE1F5E002C0E5E36F
:1046F000F5E0849190E09F01FA01318320830895D1
:10470000E9E2F5E0F6CF89E090E02BE435E06115D1
:10471000710591F389E090E024E635E061307105A0
:1047200059F3C0CF82E190E024E735E0E5CF8BE399
:1047300090E029E335E0E0CF84E089BD86E089BDE3
:1047400009B400FEFDCF8091D8008F7D8093D80002
:104750008091E00082608093E0008091E00081FD24
:10476000FCCF0895AF92BF92CF92DF92FF920F934A
:104770001F93CF93DF936C01EB018A010E940D25FB
:10478000F82E811123C00115110539F0F80180813F
:104790009181C81BD90BC80ED91EB12CA12C209712
:1047A000A9F08091E80085FD22C08091E8008E7715
:1047B0008093E80001151105A1F0F8018081918135
:1047C000A80EB91EB182A08285E0F82E8F2DDF9150
:1047D000CF911F910F91FF90DF90CF90BF90AF903E
:1047E00008950E940D258823D1F2F82EEFCFF6010F
:1047F00081916F018093F1002197FFEFAF1ABF0AFB
:10480000CECFFC0180912B0390912C038617970744
:10481000A0F06115710529F49091E8009E779093BE
:10482000E80090E06115710551F4911108C0809184
:10483000E80082FF32C080E00895BC01F2CF809191
:1048400024038823B1F18530B1F18091E80083FD24
:104850002EC08091E80082FDEACF8091E80080FFC1
:10486000E1CF2091F20030E06115710519F0283098
:10487000310558F091E02830310509F090E02091A1
:10488000E8002E772093E800CDCF81918093F1004E
:10489000615071092F5F3F4FE7CF80912403882338
:1048A00041F0853041F08091E80083FFC0CF81E086
:1048B000089582E0089583E00895FC0180912B0320
:1048C00090912C0386179707A0F06115710529F4C4
:1048D0008091E8008E778093E80090E06115710583
:1048E00051F4911108C08091E80082FF33C080E04C
:1048F0000895BC01F2CF809124038823B9F185305B
:10490000B9F18091E80083FD2FC08091E80082FD1D
:10491000EACF8091E80080FFE1CF2091F20030E003
:104920006115710519F02830310558F091E02830F3
:10493000310509F090E08091E8008E778093E800DF
:10494000CDCF84918093F1003196615071092F5F32
:104950003F4FE6CF80912403882341F0853041F01A
:104960008091E80083FFBFCF81E0089582E0089541
:1049700083E00895982F953028F08F708093E90098
:1049800081E008959093E900242F762F50E0981746
:1049900031F07091EC002091ED005091F00021FD7C
:1049A00002C09F5FE8CF3091EB003E7F3093EB0079
:1049B0003091ED003D7F3093ED003091EB003160A0
:1049C0003093EB007093EC002093ED005093F000D7
:1049D0002091EE0027FDE5CF80E00895809125032A
:1049E00087FF13C08091E80082FF06C08091E80035
:1049F0008B778093E80004C0809124038111F2CF6B
:104A00000895809124038823D9F38091E80080FFE2
:104A1000F8CF8091E8008E77ECCF2091E4003091C0
:104A2000E50095E6A9012091EC00822F817020FF1E
:104A300006C08091E80080FF06C080E008952091C4
:104A4000E80022FD1AC080912403882389F0853074
:104A500089F08091EB0085FD0FC02091E40030913A
:104A6000E50042175307F9F29150E1F684E008950A
:104A700082E0089583E0089581E008950E949C25D6
:104A80000E949F25E0EEF0E0808181608083E8ED68
:104A9000F0E080818F77808319BCE3E6F0E08081CD
:104AA000816080831092230308950E949C250E94B8
:104AB0009F258091D8008F778093D8008091D8006F
:104AC00080688093D8008091D8008F7D8093D80033
:104AD00084E089BD86E089BD09B400FEFDCF109257
:104AE000240310922003109222031092210342E02B
:104AF00060E080E00E94BA248091E1008E7F809384
:104B0000E1008091E20081608093E2008091E20008
:104B100088608093E2008091E0008E7F8093E000C7
:104B20000895E3E6F0E080818E7F808381E08093CA
:104B300023030E94552508951092E20008951092D3
:104B4000E10008951F920F920FB60F9211242F9338
:104B50003F934F935F936F937F938F939F93AF9305
:104B6000BF93EF93FF938091E10082FF0BC0809190
:104B7000E20082FF07C08091E1008B7F8093E1001B
:104B80000E94DE278091E10080FF19C08091E20041
:104B900080FF15C08091E2008E7F8093E2008091BB
:104BA000E20080618093E2008091D800806280936F
:104BB000D80019BC85E0809324030E9419228091BB
:104BC000E10084FF2BC08091E20084FF27C084E0D5
:104BD00089BD86E089BD89B5982F917080FFFBCF94
:104BE0008091D8008F7D8093D8008091E1008F7EE6
:104BF0008093E1008091E2008F7E8093E2008091BB
:104C0000E20081608093E20080912003882309F410
:104C100043C084E0809324030E9422228091E1001B
:104C200083FF29C08091E20083FF25C08091E100CD
:104C3000877F8093E10082E0809324031092200319
:104C40008091E1008E7F8093E1008091E2008E7F71
:104C50008093E2008091E20080618093E20042E074
:104C600060E080E00E94BA248091F0008860809328
:104C7000F0000E941622FF91EF91BF91AF919F919A
:104C80008F917F916F915F914F913F912F910F90F5
:104C90000FBE0F901F9018958091E30087FD93E061
:104CA00090932403B9CF1F920F920FB60F92112445
:104CB0002F933F934F935F936F937F938F939F9324
:104CC000AF93BF93CF93DF93EF93FF93D091E9001E
:104CD000DF708091EC00C82FC17080FDC0E8109299
:104CE000E9008091F000877F8093F00078940E9423
:104CF00097261092E9008091F00088608093F00080
:104D0000CD2BCF70C093E900FF91EF91DF91CF9150
:104D1000BF91AF919F918F917F916F915F914F91D3
:104D20003F912F910F900FBE0F901F901895AAE200
:104D3000B0E0EDE9F6E20C949A2885E293E0209148
:104D4000F100FC012193CF01F3E08D329F07B9F709
:104D50000E9442228091E80083FF1EC180912503BA
:104D6000909126039A3008F017C1E92FF0E0EA5736
:104D7000F64D0C948528803899F0823809F00CC1E2
:104D8000809129038F70853008F006C18093E90077
:104D90008091EB0085FB882780F91092E90006C01E
:104DA0008091210390912203911182609091E800FB
:104DB000977F9093E8008093F1001092F10080912A
:104DC000E8008E77E5C0882309F4D3C0823009F06B
:104DD000E3C0809127038111D6C0809129038F7091
:104DE0002FEF280F243008F0D7C08093E9002091DE
:104DF000EB0020FFC8C0933031F48091EB0080625B
:104E00008093EB00C0C09091EB0090619093EB0019
:104E100021E030E001C0220F8A95EAF72093EA00F2
:104E20001092EA008091EB008860EACF8111B4C053
:104E3000109127031F778091E3008078812B809366
:104E4000E3008091E800877F8093E8000E94EE24D1
:104E50008091E80080FFFCCF8091E3008068809320
:104E6000E30082E0111183E08093240395C0805811
:104E7000823008F091C080912703909128038C3DE7
:104E800023E09207A1F583E08A838AE289834FB702
:104E9000F894DE01139620E03EE051E2E32FF0E0CB
:104EA00050935700E49120FF03C0E295EF703F5FFD
:104EB000EF708E2F90E0EA30C0F0C7968D939D93EF
:104EC0002F5F243159F74FBF8091E800877F80938F
:104ED000E8006AE270E0CE0101960E940124809110
:104EE000E8008B778093E80057C0C096E7CF6091C9
:104EF000290370912A03AE014F5F5F4F0E94412347
:104F0000BC01892B09F448C09091E800977F9093E9
:104F1000E80089819A810E945D24E1CF8038E1F523
:104F20008091E800877F8093E80080912003809340
:104F3000F10045CF811130C090912703923060F588
:104F40008091E800877F8093E800909320030E947F
:104F5000EE2480912003882311F084E005C0809125
:104F6000E30087FDFACF81E0809324030E942D2285
:104F700013C080912703813079F481E0933009F0E8
:104F800080E0809322031092E9008091E800877FFF
:104F90008093E8000E94EE248091E80083FF0AC01D
:104FA0008091E800877F8093E8008091EB00806229
:104FB0008093EB00AA96E3E00C94B6280895CF9373
:104FC000809124038823A1F0C091E900CF709091D3
:104FD000EC00892F817090FD80E8C82B1092E900C9
:104FE0008091E80083FD0E949726CF70C093E9006E
:104FF000CF910895002480FD060E660F11F086956E
:10500000D1F7802D08950024552704C0080E591F9C
:10501000880F991F009729F076956795B8F3710569
:10502000B9F7802D952F0895EE27FF27AA27BB27D4
:1050300008C0A20FB31FE41FF51F220F331F441F28
:10504000551F969587957795679598F37040A9F7C2
:10505000009799F7BD01CF01089587FB082E06261A
:1050600087FD819567FD61950E94C2280EF4919598
:1050700007FC81950895AA1BBB1B51E107C0AA1F1D
:10508000BB1FA617B70710F0A61BB70B881F991FE9
:105090005A95A9F780959095BC01CD01089597FB8D
:1050A000072E16F4009407D077FD09D00E943B2804
:1050B00007FC05D03EF4909581959F4F089570951B
:1050C00061957F4F0895A1E21A2EAA1BBB1BFD011B
:1050D0000DC0AA1FBB1FEE1FFF1FA217B307E407D7
:1050E000F50720F0A21BB30BE40BF50B661F771F2F
:1050F000881F991F1A9469F760957095809590950F
:105100009B01AC01BD01CF010895EE0FFF1F05907B
:10511000F491E02D09942F923F924F925F926F92FB
:105120007F928F929F92AF92BF92CF92DF92EF9237
:10513000FF920F931F93CF93DF93CDB7DEB7CA1BB8
:10514000DB0B0FB6F894DEBF0FBECDBF09942A88E3
:10515000398848885F846E847D848C849B84AA848B
:10516000B984C884DF80EE80FD800C811B81AA8118
:10517000B981CE0FD11D0FB6F894DEBF0FBECDBFE3
:10518000ED010895991B79E004C0991F961708F066
:10519000961B881F7A95C9F780950895FC014150A8
:1051A000504030F001900616D1F73197CF010895A5
:1051B000882799270895FB01DC0104C08D91019097
:1051C000801921F441505040C8F7881B990B08956D
:1051D000FB01DC0102C001900D9241505040D8F714
:1051E0000895F999FECF92BD81BDF89A992780B5AF
:1051F0000895A6E1B0E044E050E00C942B29A8E12A
:10520000B0E042E050E00C942B29262FF999FECF14
:1052100092BD81BDF89A019700B4021639F01FBA09
:1052200020BD0FB6F894FA9AF99A0FBE0895039626
:10523000272F0E9406290E940529252F0E94062952
:10524000242F0C9406290196272F0E9406290C94DE
:105250000529DC01CB01FC01F999FECF06C0F2BDA6
:10526000E1BDF89A319600B40D9241505040B8F724
:105270000895F894FFCF8D068D06BE06BE064B0737
:10528000ED06ED06ED066707D807E707E707EE1D11
:10529000E51DF11DE31D421E421EE31D421E421E7E
:1052A0000D1E421E181E231E421E421E421E421E7C
:1052B000E31D421E421EE31D421EFF1D421E421EF2
:1052C000401E401E401E401E401E401E401E401EEE
:1052D000401E2E1E421EEE1DE11D421E421E421E9B
:1052E000421E421E421E421E421E421E421E2E1ED2
:1052F000421E421EE31D421E351E351E351E351E42
:10530000351E351E351E351E351E2E1EBB26E326C8
:10531000CC27E326CC2716273727CC278E279A279A
:105320005002010102000E000E0E01191A1B1C1D75
:105330001E1F2021229C21A021152210220B229F1A
:105340002101E200E900EA00B500B600B700CD0097
:105350008301CC008A0192019401210223022402DC
:105360002502260227022A02B300B4006F00700053
:10537000818283E200E900EA00B500B600B700CD03
:10538000008301CC008A01920194012102230224AE
:10539000022502260227022A02B300B4006F007021
:1053A00000818283343536336232969293949531FC
:1053B00065646667370001020202020606060909F3
:1053C000090909090F0F0F0F0F0F151515181919D6
:1053D0001919191919191919232400FF01000100BD
:0A53E00000FFFF0000010001FF00C4
:00000001FF
