:100000000C9481030C94C8030C94C8030C94C8038B
:100010000C94C8030C94C8030C94C8030C94C80334
:100020000C94C8030C94C8030C94C8030C941327B5
:100030000C94C2270C9472220C94C8030C94C8032D
:100040000C94C8030C94C8030C94C8030C94CB22E2
:100050000C94C8030C94C8030C94C8030C94C803F4
:100060000C94C8030C94C8030C94C8030C94C803E4
:100070000C94C8034907490775077507DD0715097B
:1000800015091509FB079008A108A108050915091C
:1000900015090E09C309C309D509D509CC09D50924
:1000A000D509D509C309C309D109D509D509D1098C
:1000B0006C1F621F6F1FB71FBB1FBB1FB71FBB1F6C
:1000C000BB1F901FBB1F9A1FA41FBB1FBB1FBB1FC3
:1000D000BB1FB71FBB1FBB1FB71FBB1F7D1FBB1F96
:1000E000BB1FB41FB41FB41FB41FB41FB41FB41F71
:1000F000B41FB41FB91FBB1F6C1F5F1FBB1FBB1FEB
:10010000BB1FBB1FBB1FBB1FBB1FBB1FBB1FBB1F1F
:10011000B91FBB1FBB1FB71FBB1FB21FB21FB21F30
:10012000B21FB21FB21FB21FB21FB21FB91F2F28BA
:1001300056284E2956284E29A228C5284E291C2962
:100140002B29290014001A00090013000A000D00D1
:100150000F0018001C0033002D002A0004001500B9
:100160001600170007000B00110008000C00120019
:1001700028002B001D001B000600190005000E00C2
:1001800010003600370038003400E000E300E200E1
:10019000E10001582C0000000258500052005100AC
:1001A0004F00000000000000000000000000000000
:1001B0000000000000000000000035001E021F02C9
:1001C0002002210222022302240225022602270203
:1001D0002E003A003B003C003D003E003F00400046
:1001E0004100420043004400450039000000000087
:1001F000000000000000000000002F00300031006F
:100200000000E000E300E200E10010502C000000DC
:100210001050E1000000000000000000000000009D
:1002200000000000000000000000000000000000CE
:1002300000005F006000610000000000000000009E
:10024000000000000000000000005C005D005E0097
:10025000000000000000000000000000000000009E
:10026000000059005A005B00000000000000000080
:100270000000000000000000000062006300580061
:1002800000001050000000001350000000000000AB
:10029000005C000000000000000000000000000002
:1002A000000000000000000000003A003B003C009D
:1002B0003D003E003F00400041004200430044003A
:1002C00045000000000000000000000000000000E9
:1002D000000000000000000000000000000000001E
:1002E000000000000000000000000000000000000E
:1002F000000000000000000000001050000000009E
:10030000105000000000000000000000000000008D
:1003100000000000000000000000000000000000DD
:10032000000000000000000000002A2B2800000050
:100330000000000000000000000000000029000094
:1003400000002C1E3420212224342627252E362D71
:100350003738271E1F202122232425263333362E0B
:1003600037381F0405060708090A0B0C0D0E0F107D
:100370001112131415161718191A1B1C1D2F3130C2
:10038000232D350405060708090A0B0C0D0E0F1066
:100390001112131415161718191A1B1C1D2F3130A2
:1003A000354C0000000000000000000000000000CC
:1003B000000000000000000000000000000000003D
:1003C0000000000000007E0F00D4FFFFFFC7000008
:1003D000007800047F3F1F643214643214783C1E9E
:1003E0001E140A052223252628292A2C2D2F3032D7
:1003F000333536383A3B3D3E4042434547494A4C07
:100400004E5051535557595A5C5E60626466686934
:100410006B6D6F71737577797B7D7F81838587893C
:100420008A8C8E90929496989A9C9E9FA1A3A5A741
:10043000A8AAACAEAFB1B3B4B6B8B9BBBCBEBFC16D
:10044000C2C3C5C6C7C9CACBCCCDCED0D1D2D2D3F8
:10045000D4D5D6D7D7D8D9D9DADADBDBDBDCDCDC0C
:10046000DCDCDDDDDDDDDCDCDCDCDCDBDBDBDADACF
:10047000D9D9D8D7D7D6D5D4D3D2D2D1D0CECDCC46
:10048000CBCAC9C7C6C5C3C2C1BFBEBCBBB9B8B65B
:10049000B4B3B1AFAEACAAA8A7A5A3A19F9E9C9AE6
:1004A00098969492908E8C8A89878583817F7D7BB4
:1004B00079777573716F6D6B6968666462605E5C95
:1004C0005A5957555351504E4C4A4947454342405B
:1004D0003E3D3B3A3836353332302F2D2C2A2928F1
:1004E00026252322FFAA7F554000010101010101B9
:1004F00001010102020202020202020203030303DB
:1005000003030303040404040404040505050505AA
:100510000606060606070707070708080808090968
:1005200009090A0A0A0B0B0B0C0C0C0D0D0D0E0E13
:100530000E0F0F0F101011111112121313141415A6
:100540001516161717181819191A1A1B1B1C1D1D1A
:100550001E1E1F2020212222232424252626272870
:1005600029292A2B2C2D2D2E2F30313232333435A0
:10057000363738393A3B3C3D3E3F404142434445A3
:10058000464748494A4C4D4E4F5051535455565882
:10059000595A5B5D5E5F616264656668696B6C6D2C
:1005A0006F7072737577787A7B7D7E8082838587A2
:1005B000888A8C8E8F91939596989A9C9EA0A2A3E0
:1005C000A5A7A9ABADAFB1B3B5B7BABCBEC0C2C4E5
:1005D000C6C9CBCDCFD1D4D6D8DBDDDFE2E4E7E9A5
:1005E000EBEEF0F3F5F8FAFDFF0C03510055004176
:1005F0000052004B0000000A034E006100730070BF
:100600000000000403090409023B00020100A0FAF3
:100610000904000001030101000921110100012268
:1006200040000705810308000A09040100010300D6
:100630000000092111010001226D0007058203203D
:10064000000A12010002000000087070405301000F
:100650000102000105010980A101850319012AB7E2
:1006600000150126B700950175108100C0050C0921
:1006700001A101850419012AA002150126A00295F5
:100680000175108100C005010906A1018506050755
:1006900019E029E715002501950875018102050774
:1006A000190029EF1500250195F075018102050853
:1006B00019012905950575019102950175039101AF
:1006C000C005010906A101050719E029E715002564
:1006D00001950875018102950175088101050719C9
:1006E0000029FF150026FF00950675088100050802
:1006F000190129059505750191029501750391016F
:10070000C00011241FBECFEFD4E0DEBFCDBF04B6C2
:1007100003FE27C08091FE029091FF02A09100038A
:10072000B09101038730904BA740B04BD1F41092A9
:10073000FE021092FF02109200031092010314BEF9
:1007400084B7877F84BF0FB6F894A8958091600026
:10075000886180936000109260000FBEE0E0F8E3D3
:10076000099511E0A0E0B1E0E6E0F5E502C00590F2
:100770000D92AC3BB107D9F722E0ACEBB1E001C080
:100780001D92AE3FB207E1F70E94E0150C94812A5A
:100790000C9400009C013A9521153F4130F5BC01B5
:1007A00066277270AC01442754709C012227387070
:1007B00094FF0FC090FF02C080E101C080E0672B72
:1007C00009F08062452B09F08064232B79F0806862
:1007D0000895892F8170672B09F08260452B09F0FD
:1007E0008460232B19F08860089580E00895CF93EA
:1007F000DF93EC01805E9109089710F0209731F4A7
:10080000CE010E94CA030E94040705C0CE010E94C7
:10081000CA030E948D098C2FDF91CF910C94DE05C5
:10082000CF93DF93EC010E948506CE01805E910993
:10083000089710F0209739F4CE010E94CA03DF9187
:10084000CF910C940B07CE010E94CA03DF91CF9188
:100850000C949409CF93DF93EC010E94F703CE012F
:10086000DF91CF910C94100481E0089581E0089508
:100870000C94360408950C943A041F93CF93DF939D
:1008800000D000D01F92CDB7DEB749835A836B8367
:100890003091BE0189819A81311114C0662359F0CB
:1008A000222349F00E94700B182F682F89819A81AA
:1008B0000E94100B03C00E94410B182F69817A819E
:1008C000812F04C00E94700B69817A810F900F9074
:1008D0000F900F900F90DF91CF911F910C941C12ED
:1008E000FC01262F408151816281738184810C94A7
:1008F0003D0481E00895CF93DF93EC0160E00E9416
:100900007004BE01DF91CF910C943B040E945414FB
:100910000E9484050E94481D0C9491140C948D141F
:1009200080E00C94850508950C9493040E94B1090D
:100930000E9494042FEF84E39CE02150804090407B
:10094000E1F700C000000C94F1220F931F93CF93A6
:10095000DF938C0161E00E947004EC01B8010E94F9
:100960003804882309F44BC0B801CE010E94EC1D65
:10097000882309F444C0B801CE010E94A120882335
:10098000F1F1B801CE010E940A1E8823C1F1B8011D
:10099000CE010E94FD1F882391F1B801CE010E9473
:1009A000291C882361F1F8018281882309F1CB3564
:1009B0008DE5D807C1F050F4C115FCE5DF0781F0E3
:1009C000CF3DDC45A9F40E94231119C0CC35EDE5DB
:1009D000DE0761F0CD35DD4559F40E94661008C090
:1009E0000E9496040CC00E946F1002C00E947210F8
:1009F000C801DF91CF911F910F910C94340480E0D6
:100A0000DF91CF911F910F9108950C9493040E9450
:100A1000FD200E9485050C940505DF92EF92FF9260
:100A20000F931F93CF93DF93E82FF0E0EE5DFC4F21
:100A3000D490282F26952695269530E0F901EE537F
:100A4000FC4F0491877010E0082E02C015950795A1
:100A50000A94E2F701701127F901EE54FC4FE4907B
:100A6000F12C082E02C0F594E7940A94E2F791E085
:100A7000E922FF24F901EE55FC4FC491D0E002C0F9
:100A8000D595C7958A95E2F7C170DD270115110547
:100A900019F081EE0E94DE05E114F10419F086EEF2
:100AA0000E94DE058D2D0E94FB06EF2819F086EED0
:100AB0000E948506012B19F081EE0E948506CD2B40
:100AC00051F08CE2DF91CF911F910F91FF90EF9049
:100AD000DF900C94FB06DF91CF911F910F91FF9057
:100AE000EF90DF900895982F9F709A50963010F0F5
:100AF000805D01C0895A0C940D0508950C947D0504
:100B000081E008950C9480050895CF93C82F0E942A
:100B10007E058C2F0E948205CF910895CF93DF939D
:100B2000CDB7DEB72B970FB6F894DEBF0FBECDBFA3
:100B30004F83588769877A878B8761110E94B20F2C
:100B40009E012F5F3F4F86E0F90111928A95E9F7E8
:100B500085E0FE013796D90101900D928A95E1F763
:100B600089819A814C815D81452B31F09F3F31F421
:100B700091E08F3F19F403C091E001C090E090FF35
:100B800009C049815A816B817C818D819E810E943F
:100B9000CB0E05C0C9010E9479048111F2CF2B96BA
:100BA0000FB6F894DEBF0FBECDBFDF91CF91089591
:100BB000FC01808191810E94B20B0895CF9388231C
:100BC00009F4A1C0C82F8238C1F40E94FD2081FD24
:100BD0009AC069E380910201909103010E94E8218B
:100BE0000E94E40F2FEF81EE94E02150804090406E
:100BF000E1F700C0000069E319C0833801F50E94E5
:100C0000FD2080FD80C063E5809102019091030189
:100C10000E94E8210E94E40F2FEF81EE94E0215022
:100C200080409040E1F700C0000063E58091020140
:100C3000909103010E94F321CF910C94E40F84382A
:100C4000C1F40E94FD2082FD5EC067E48091020134
:100C5000909103010E94E8210E94E40F2FEF81EEA2
:100C600094E0215080409040E1F700C0000067E42C
:100C7000DDCF8CEF8C0F813AF8F48C2F0E94C11FCE
:100C8000811141C06C2F80910201909103010E945B
:100C90006821882349F06C2F809102019091030113
:100CA0000E94F3210E94E40F6C2F80910201909129
:100CB00003010E94E821C0CF80E28C0F883048F405
:100CC000C77081E001C0880FCA95EAF70E94920FB1
:100CD000B3CFEBE5EC0FE33040F4F0E0EE5AFE4F1B
:100CE000808190E0CF910C942621C85AC73158F4E6
:100CF000EC2FF0E0EE0FFF1FEC5DFE4F8081918145
:100D0000CF910C943C21CF910895882309F45BC0C6
:100D1000682F823879F40E94FD2081FF54C069E376
:100D200080910201909103010E94E8210E94E40F4A
:100D300069E310C08338B1F40E94FD2080FF43C0F6
:100D400063E580910201909103010E94E8210E94D5
:100D5000E40F63E580910201909103010E94F32169
:100D60000C94E40F843879F40E94FD2082FF2BC09C
:100D700067E480910201909103010E94E8210E94A2
:100D8000E40F67E4E7CF8CEF860F813A18F380E237
:100D9000860F883048F4677081E001C0880F6A953B
:100DA000EAF70E94980FDCCF8BE5860F833020F4A2
:100DB00080E090E00C942621685A673120F480E0AE
:100DC00090E00C943C2108951F93CF93DF93182F4C
:100DD000EB010E94DE05209741F08FE99FE001972B
:100DE000F1F700C000002197F6CF812FDF91CF915E
:100DF0001F910C948506893319F060E070E002C001
:100E000060E570E00C94E406882321F00E94920FC4
:100E10000C94E40F0895882321F00E94980F0C94FD
:100E2000E40F0895CF92DF92EF92FF920F931F93FA
:100E3000CF93DF937C01162FC72FFC01D281058150
:100E400002950F700E94880F8823B9F0DD23A9F066
:100E50008C2F807F803421F080E2810F883068F011
:100E60008091A20282FD09C082E00E9434100E949B
:100E7000880F91E0D82ED92601C0D12CCC2EC29457
:100E80008FE0C8228C2D90E0FC01E65CFF4F0C94B3
:100E90000D2A8C2F807FCF70882311F0C295C07FE0
:100EA000DD2399F0CC2309F49BC180E2810F8830C7
:100EB00010F0111104C08C2F0E94920F03C08C2FD0
:100EC0000E94A50F0E94E40F8BC1812F0E9485060E
:100ED000CC2309F4AAC180E2810F883038F11123B4
:100EE00029F18C2F0E94AB0F24C08C2F807FCF70F4
:100EF000803211F0C295C07F112319F01130A1F199
:100F00003DC08091A20282FF17C0DD2349F0CC23AF
:100F100029F08C2F0E94920F0E94E40F80E061C1A3
:100F200080E00E948506CC2309F47FC18C2F0E94AB
:100F3000980F0E94E40F79C1DD2371F0002341F086
:100F4000013031F40E94C50F8C2B0E94CD0F6DC172
:100F50000E94C50F8C2B1DC0002319F0013009F42D
:100F600064C10E94DA0F25C0DD2321F0063008F0AD
:100F70005CC10EC0053008F058C11BC0DD2361F014
:100F8000002331F0F701858180FF2AC18F708583AE
:100F90008C2F0E94040749C1002359F0193309F02E
:100FA00030C1FFEF27EE83E0F15020408040E1F7B1
:100FB00026C18C2F0E940B0738C18C2F86958695F1
:100FC000837019F0813061F030C1DD2321F0812F71
:100FD0009C2F937002C080E090E00E9426212DC1DA
:100FE000DD2321F0812F9C2F937002C080E090E0E0
:100FF0000E943C2122C18C2F837009F045C0D11181
:1010000018C1412F429546954770440F440F612FF8
:101010006F70862F90E0A0E0B0E0042E04C0880F2F
:10102000991FAA1FBB1F0A94D2F714FF10C00FE02C
:1010300010E020E030E004C0000F111F221F331F1A
:101040004A95D2F7009510952095309503C000E0A1
:1010500010E09801C695C695C370BC01CD01602B08
:10106000712B822B932BC23049F058F4C13019F008
:101070000E94260ADEC00E94140ADBC00E94380AC1
:10108000D8C00E94120AD5C0DD2319F08C2F8170C0
:1010900001C08695882309F4CCC0412F429546951E
:1010A0004770440F440F612F6F70862F90E0A0E0CF
:1010B000B0E0042E04C0880F991FAA1FBB1F0A941A
:1010C000D2F714FF10C00FE010E020E030E004C0C1
:1010D000000F111F221F331F4A95D2F7009510955C
:1010E0002095309503C000E010E09801C695C695A4
:1010F000C370BC01CD01602B712B822B932BC230AE
:1011000049F058F4C13019F00E94EB0A92C00E94D5
:10111000D90A8FC00E94FD0A8CC00E944C0A89C067
:10112000CF70DD2339F08C2F0E94720A812F0E942C
:1011300004077FC0812F0E940B078C2F0E94930A07
:1011400078C0123F21F128F4103F41F0113FC1F067
:1011500043C0133F19F1143F79F03EC0DD2341F045
:10116000053008F062C08C2F8F710E94B80A5DC0F4
:10117000063008F05AC0F7CF8091A20282FF18C053
:10118000DD2339F08C2F8F710E94720A4EC0DD234F
:10119000C9F38C2F8F710E94930A47C0DD2329F079
:1011A0008C2F8F710E945D0A40C00E94580A3DC07A
:1011B000DD2349F0CF718C2F0E94720A63E08C2FDF
:1011C0000E94191032C081E00E943410023068F190
:1011D00082E00E94341029C0DD2331F0002391F217
:1011E000812F0E94DE0521C0002399F2193349F4B2
:1011F0009FEFE7EEF3E09150E040F040E1F700C0F0
:101200000000812F0E94850610C04C2F4F70612F67
:10121000C7010E9418120E94E00B0FC04C2F4F70A4
:10122000612FC7010E941B1208C088EF8C0D84300B
:1012300020F40E94FD200E948505DD20C9F00E9457
:10124000840F80FD15C0F70112820E947E0F0E945C
:10125000720AC7010E9459090E947E0FDF91CF9147
:101260001F910F91FF90EF90DF90CF900C94930A15
:10127000DF91CF911F910F91FF90EF90DF90CF9072
:1012800008950F931F93CF93DF93EC0168817981C9
:101290008A810E94BD0B8C010E940F0B0E94000AE4
:1012A000B801CE010E941207DF91CF911F910F91DB
:1012B0000895CF93DF93EC01988189812B813C8144
:1012C000232B31F08F3F31F481E09F3F19F403C0AD
:1012D00081E001C080E080FD1DC0CE010E94A50418
:1012E000811110C00E94880F8823A1F08A81882371
:1012F00089F08091A20282FD0DC082E0DF91CF9142
:101300000C943410CE010E944109CE01DF91CF919F
:101310000C947B04DF91CF910895882321F00E94E3
:10132000A50F0C94E40F0895882321F00E94AB0FC1
:101330000C94E40F089580E090E00E94262180E064
:1013400090E00E943C210E94B20F0E94C20F0C94B8
:10135000E40F80910201909103010E94FE210C9400
:101360009B090E94A20F0C94A909E92FE295EF7046
:101370004E2F50E0FA013297EE30F105B0F4E65B03
:10138000FF4F0C940D2A803F91F018F4883E68F4CA
:101390000EC0843F51F40BC0883E48F0813F29F4D1
:1013A00006C093FB882780F9089580E0089581E0C6
:1013B0000895FC01808191810E94B20B0E94B509C1
:1013C0000895CF93DF9300D000D01F92CDB7DEB742
:1013D0000F900F900F900F900F90DF91CF91089585
:1013E000CF93DF9300D000D000D0CDB7DEB72696E4
:1013F0000FB6F894DEBF0FBECDBFDF91CF91089539
:10140000089508950C94010A0C94020A0E94040A9B
:101410006093EB017093EC018093ED019093EE01EA
:101420000C949B090C94060A0F931F930091EB01F7
:101430001091EC012091ED013091EE01602B712BA8
:10144000822B932B1F910F910C94060A0F931F93DD
:101450000091EB011091EC012091ED013091EE0132
:1014600060237123822393231F910F910C94060A0A
:101470000F931F930091EB011091EC012091ED016E
:101480003091EE0160277127822793271F910F91DA
:101490000C94060A0C94010A0E944A0A6093E70120
:1014A0007093E8018093E9019093EA010C949B0901
:1014B00060E070E0CB010C944C0A0F931F9341E065
:1014C00050E060E070E08A019B0104C0000F111F32
:1014D000221F331F8A95D2F7C901B8011F910F91BE
:1014E0000C944C0A0F931F9341E050E060E070E0D1
:1014F00004C0440F551F661F771F8A95D2F780914D
:10150000E7019091E801A091E901B091EA018A0117
:101510009B01082B192B2A2B3B2BC901B8011F91CA
:101520000F910C944C0A0F931F9341E050E060E040
:1015300070E004C0440F551F661F771F8A95D2F7CD
:1015400040955095609570958091E7019091E801E4
:10155000A091E901B091EA018A019B0108231923B6
:101560002A233B23C901B8011F910F910C944C0A07
:101570000F931F9341E050E060E070E004C0440F1F
:10158000551F661F771F8A95D2F78091E7019091CA
:10159000E801A091E901B091EA018A019B010827C5
:1015A00019272A273B27C901B8011F910F910C94D5
:1015B0004C0A0F931F930091E7011091E8012091CD
:1015C000E9013091EA01602B712B822B932B1F9143
:1015D0000F910C944C0A0F931F930091E701109107
:1015E000E8012091E9013091EA016023712382230F
:1015F00093231F910F910C944C0A0F931F9300910A
:10160000E7011091E8012091E9013091EA0160279A
:101610007127822793271F910F910C944C0A0895EC
:10162000282F362F892F6CE00E948229820F982F55
:101630009770A1E001C0AA0F9A95EAF78695869562
:10164000869590E065E070E00E948B29FC01E154F2
:10165000FE4F40E050E0632F70E090819B01042E2C
:1016600002C0369527950A94E2F721702195292723
:101670002A23292721934F5F5F4F4530510569F792
:101680000895282F892F6CE00E948229820FA82FAD
:10169000A77086958695869590E065E070E00E943B
:1016A0008B29BC0140E050E080E0FB01E40FF51F16
:1016B000E154FE4F208130E00A2E02C03695279576
:1016C0000A94E2F721703327042E01C0220F0A94F6
:1016D000EAF7822B4F5F5F4F4530510531F7089590
:1016E000BF92CF92DF92EF92FF920F931F93CF930F
:1016F000DF938C01C090E701D090E801E090E90110
:10170000F090EA018091EB019091EC01A091ED0144
:10171000B091EE01C82AD92AEA2AFB2ACFE1D0E00B
:10172000D701C6010C2E04C0B695A795979587954D
:101730000A94D2F780FD04C0219790F7B12C07C01E
:10174000BC2EB8018C2F0E945E130197A9F38B2D3C
:10175000DF91CF911F910F91FF90EF90DF90CF908D
:10176000BF900895CF93DF93EC010E94700BBE01F0
:101770000E945E13DF91CF9108951F93CF93DF9363
:10178000EB019091BE01992321F0CB010E94B20B95
:1017900013C0882349F0CB010E94700B182F682FCB
:1017A000CE010E94100B04C0CB010E94410B182FE8
:1017B000BE01812F0E945E13DF91CF911F9108958A
:1017C000EF92FF920F931F93CF93DF938C01892B9E
:1017D00009F46CC0F12CEE24E394E8012196F801A1
:1017E0008491843740F4843008F051C0813081F016
:1017F000823019F15BC0853709F444C0A8F19CE739
:10180000980F903708F052C08F770E94850641C02C
:101810000E5F1F4FFE01849190E2980F983050F4B4
:101820008770FE2D01C0FF0F8A95EAF78F2F0E9467
:10183000B50F14C00E94DE052DC00E5F1F4FFE01C4
:10184000849190E2980F983060F48770FE2D01C06B
:10185000FF0F8A95EAF78F2F0E94BB0F0E94E40FBB
:1018600019C00E94850616C00E5F1F4FFE01C4916D
:10187000CC2381F08FE99FE00197F1F700C00000D1
:10188000C150F6CF0E5F1F4FFE01F49003C00E94BF
:10189000DE058E018F2D882309F49FCFEFE9FFE04D
:1018A0003197F1F700C000008150F5CFDF91CF9163
:1018B0001F910F91FF90EF900895CF93DF93C09108
:1018C000EF018091F001C817A1F0D0E0CE0166E0F1
:1018D00070E00E948B29FC01EF50FE4F4081518146
:1018E00062817381848195810E94F0092196C7707D
:1018F000E8CFDF91CF9108954091210250912202CB
:101900006091230270912402809125029091260219
:101910000C94F009FF920F931F93CF93DF93809164
:10192000260282958F7009F062C08091230288237D
:1019300009F45DC02091EF01F090F00110912102B7
:1019400000912202A0912402B091250281E01F3F64
:1019500009F080E0C0910001D0910101482F2F15BE
:1019600009F445C0109721F00F3F21F080E003C03B
:1019700081E001C0842F30E080FD35C0C90166E000
:1019800070E00E948B29FC01EF50FE4F8181801393
:101990002AC08081811327C08281811124C0838164
:1019A00094818A1B9B0B8C179D07E8F4809126027B
:1019B0008F70806180932602C90166E070E00E940A
:1019C0008B29FC01EA50FE4F90819F7090619083BB
:1019D00081E292E00E945909DF91CF911F910F910E
:1019E000FF900C945D0C2F5F3F4F2770B8CFDF91B5
:1019F000CF911F910F91FF9008959F92AF92BF9248
:101A0000CF92DF92EF92FF920F931F93CF93DF93CA
:101A1000CDB7DEB761970FB6F894DEBF0FBECDBF6E
:101A20008C0185E0F801DE011D9601900D928A95EA
:101A3000E1F7F801E2809091210230912202609159
:101A40002402709125026115710531F03F3F31F498
:101A500081E09F3F19F403C081E001C080E0F82FCE
:101A6000F1709F2E80FD47C1F80140812181A38044
:101A7000B48081E2C82E82E0D82EF0902302F501D6
:101A8000E61BF70B6091000170910101FF2009F442
:101A9000DCC080912602582F507FE617F70708F028
:101AA00096C0511155C0231313C0491311C0FE2C09
:101AB000E1100EC08F708061809326020E947C0C22
:101AC000C6010E94590980912602F801858350C100
:101AD000AB2831F02F3F31F481E04F3F19F403C0C0
:101AE00081E001C080E080FD03C081E08E2502C05E
:101AF00080E090E0F82FF170FF2E80FF1FC0E09192
:101B0000EF013091F001E31709F410C1F0E0CF01CB
:101B100066E070E00E948B29DC01AF50BE4F119649
:101B20008C911197281307C08C91481304C012960A
:101B30008C91E81203C03196E770E5CFFE2CEE20C1
:101B400009F416C18091260281608093260254C058
:101B5000231306C0491304C0E11002C0F80199C064
:101B6000C8010E94D909882361F1EE2051F120912A
:101B70002602822F82958F7090E0029774F08091F8
:101B800021029091220298878F831986BB86AA86AC
:101B90002C87CE0107960E94590986E0F801A1E240
:101BA000B2E001900D928A95E1F70E948A0C0E94A2
:101BB0007C0C0AC0231711F1C8010E94D9098111B8
:101BC0002CC0C8010E945909FF24F394D1C05111BF
:101BD000F1CF7A2DB98AA88A522F6E2D89890E9459
:101BE000E10981E292E00E94590986E0F601119232
:101BF0008A95E9F70E947C0CF12CBAC04913DCCF1E
:101C0000E110DACFF8018583C8010E94590986E006
:101C1000F60111928A95E9F7ABC0EE2091F220917E
:101C20002602822F82958F7090E002970CF4B5CF38
:101C300080912102909122029A8389831B82BD8226
:101C4000AC822E83CE010196A6CFE617F70708F0E7
:101C500044C0FE2CEE2009F4B4CF231330C0491346
:101C60002EC02091260220FD21C0822F82958F70E8
:101C7000482F50E041155105C9F0F80125834F3038
:101C8000510541F08F5F982F9295907F822F8F7032
:101C9000892B8583C8010E94590986E0F801A1E2D9
:101CA000B2E001900D928A95E1F73DC086E0F8011F
:101CB000A1E2B2E001900D928A95E1F759C0C80106
:101CC0000E94D909811169CF809126028160809399
:101CD0002602C8010E9459094BC07A2DB98AA88AE8
:101CE000522F6E2D89890E94E10986E0F60111923A
:101CF0008A95E9F718C0EE2009F463CFC8010E9465
:101D0000D909F82E882309F45CCF86E0F801A1E216
:101D1000B2E001900D928A95E1F781E292E00E9493
:101D2000D8050E948A0C0E947C0C22C04D872E8709
:101D30008D859E850E94B20B292F22952F7022300F
:101D400028F49F7039F0811105C00BC0243028F4AD
:101D50009F7049F4805E883020F0C8010E945909C4
:101D60009F2CF92C05C0F8019581907F99F7F9CF48
:101D70008F2D61960FB6F894DEBF0FBECDBFDF91F9
:101D8000CF911F910F91FF90EF90DF90CF90BF9078
:101D9000AF909F900895CF93DF93CDB7DEB72C9788
:101DA0000FB6F894DEBF0FBECDBF4F83588769874B
:101DB0007A878B879C87CE0107960E94FD0C88232B
:101DC000D1F09F8188852A853B85232B31F08F3F79
:101DD00031F481E09F3F19F403C081E001C080E04D
:101DE00080FD6FC04F81588569857A858B859C857C
:101DF0000E94F00966C086E0FE013796DE0111966A
:101E000001900D928A95E1F7FF81E8856A857B85CF
:101E10006115710531F0EF3F31F481E0FF3F19F4B6
:101E200003C081E001C080E080FD4BC08091F001E3
:101E300090E09C012F5F3F4F277033274091EF01C7
:101E400050E02417350709F443C0F983EA837D8302
:101E50006C8366E070E00E948B29DC01AF50BE4FBE
:101E600096E0FE01319601900D929A95E1F720934C
:101E7000F0010E945D0C25C090E066E070E00E94D9
:101E80008B298F509E4F0E94FD0C882371F1809109
:101E9000EF0190E066E070E00E948B29FC01EF50BA
:101EA000FE4F4081518162817381848195810E94BE
:101EB000F0098091EF0190E0019687709927809357
:101EC000EF018091EF019091F0018913D5CF0DC002
:101ED0000E94B1091092F0011092EF01E1E2F2E0EC
:101EE00086E0DF011D928A95E9F72C960FB6F894EB
:101EF000DEBF0FBECDBFDF91CF9108958091270245
:101F00008595859585950895809127028770089518
:101F100090912702977081E009F480E00895809104
:101F20004B02089590914B02892B80934B020895A8
:101F3000809590914B02892380934B020895809362
:101F40004B02089510924B02089590914A02892BFA
:101F500080934A020895809590914A028923809344
:101F60004A02089510924A02089590914902892BDD
:101F70008093490208958095909149028923809326
:101F80004902089510924902089580912802089507
:101F900008950C94C80F0C94C90F9091A20292FD61
:101FA00008C090912802981721F0809328020C9481
:101FB000CB0F089580912802882329F010922802DF
:101FC00080E00C94CB0F0895E0910201F0910301A1
:101FD00080914B028083E0910201F0910301908196
:101FE00080914A02892B8083E0910201F0910301E4
:101FF000908180914902892B8083809128028823D7
:1020000081F0E0910201F09103019081892B80839E
:1020100080910201909103010E94522181110E943E
:10202000DA0F80910201909103010C940C210C9421
:10203000C80F9091A20292FD10C0982F990F990F8E
:10204000990F692B609327020E94720A80912702E0
:102050008595859585950C9417100C94720A1092AD
:10206000270280E00C94171020912702809582238C
:1020700080932702982F977099F430E0482F082E0C
:10208000000C550B2417350759F09091A20292FDD0
:1020900007C08595859585950E94930A0C942F100D
:1020A00008959091A20292FB222720F9281769F047
:1020B00080FB92F99093A2028091A1029091A202DA
:1020C0000E949F1082E00C94341008958091A20227
:1020D00082FB882780F991E089270C94511081E0D8
:1020E0000C94511080E00C9451106FEF7FEF80E062
:1020F00090E00C946B2A80E090E00E94472A21E057
:10210000893E9E4F09F020E0822F089582E090E002
:102110000C94392A83E090E00C94392ACF9384E020
:1021200090E00E94392AC82F82E290E00E94392A6A
:102130002C2F30E0A901582BCA01CF910895CF93DD
:10214000C92F682F84E090E00E944D2A6C2F82E214
:1021500090E0CF910C944D2AAB01BC018FE090E050
:102160000C945F2AAB01BC0183E190E00C945F2AE0
:1021700060E070E0CB010C94B21060E070E0CB0145
:102180000E94AC100C94B81069EE7EEF80E090E0F5
:102190000E946B2A60E082E090E00E944D2A60E09D
:1021A00083E090E00E944D2A1092EB011092EC0126
:1021B0001092ED011092EE0160E084E090E00E9448
:1021C0004D2A60E082E290E00E944D2A60E085E0C6
:1021D00090E00E944D2A60E086E090E00E944D2A47
:1021E0006FEF87E090E00E944D2A40E050E0BA0196
:1021F00088E090E00E945F2A60E08DE090E00E941D
:102200004D2A40E050E0BA0188E190E00E945F2A48
:1022100060E087E190E00E944D2A40E050E0BA0182
:102220008CE190E00E945F2A60E070E080E290E044
:102230000E946B2A40E050E0BA0188E190E00E94E1
:102240005F2A0C94BD100C94C410682F8EE090E0AF
:102250000C944D2A0E94B02260935B0270935C0242
:1022600080935D0290935E026093570270935802D0
:102270008093590290935A02089581E008950C9436
:102280003D1108950C9441110C9441110C9444118A
:102290000C9441110C9448110C9441118AE394E17F
:1022A0000E94F3200E944C110C944A110E9442118A
:1022B0000C9441110E949B220E9439150E94481BD8
:1022C0000C9446116F927F928F929F92AF92BF9221
:1022D000CF92DF92EF92FF920F931F93CF93DF93F2
:1022E000CDB7DEB72A970FB6F894DEBF0FBECDBFCD
:1022F0000E944E1581110E942A113DE4832E32E086
:10230000932E00E010E0C02E802F0E9478145C0114
:10231000F401619071904F0168267926611471046F
:10232000B1F40F5F1F4F0530110569F78FEF8983F7
:102330008A831B820E94A4228160782F9D838C83D4
:1023400049815A816B818D810E948E053AC08091AE
:102350005F0281FD0E948114D12CEE24E394F12CC4
:10236000C3018E219F21892B29F10E943F118823CF
:10237000A9F0DE82CF82AE20BF2081E0AB2809F435
:1023800080E088870E94A4228160782F9A878987BD
:102390004E815F8168858A850E948E05000F111F1E
:1023A000F801E35BFD4F80819181E826F926F182F7
:1023B000E08207C0D394EE0CFF1CFCE0DF12D0CF0C
:1023C000B0CF0E947B1B0E94FD2090914C02891788
:1023D000D1F00E94FD2080934C022A960FB6F8940B
:1023E000DEBF0FBECDBFDF91CF911F910F91FF9048
:1023F000EF90DF90CF90BF90AF909F908F907F90A5
:102400006F900C9485052A960FB6F894DEBF0FBE28
:10241000CDBFDF91CF911F910F91FF90EF90DF9093
:10242000CF90BF90AF909F908F907F906F900895C6
:1024300080E090E008950895382F262F872F90E0B0
:102440006CE070E00E948B29FC01832F90E06CE32C
:1024500070E00E948B298E0F9F1FFC01E20FF11D7F
:10246000EE0FFF1FEE5BFE4F859194910895880F4C
:10247000991FFC01EE52FC4F859194910895CF93E2
:10248000DF930E946313EC01811520E5920708F0A9
:1024900041C0811540E4940708F0D2C0803E910508
:1024A00020F5803C910508F0BFC0883A910570F492
:1024B000853A910508F0AFC08130910509F4A8C0B4
:1024C00008F4F5C0049708F0F5C0F1C08F3B910502
:1024D00008F0EDC0885AC82FD0E0CC0FDD1FCB5AD2
:1024E000DE4F888199819464E6C0811550E295079A
:1024F00050F4C11581E0D80708F0DCC0C83ED10512
:1025000008F4D8C0D4C0811520E3920708F091C028
:102510009F708CC0811545E5940708F04DC081156A
:1025200054E5950708F0A6C0C11582E5D80740F527
:10253000C11521E5D20708F086C0CE01B4E096951A
:102540008795BA95E1F7282F23703C2F337081E0EF
:1025500090E002C0880F991F3A95E2F79C68AC01A1
:10256000522B8C2F8F70282F26952695822F90E046
:10257000C5E0880F991FCA95E1F7842B952B9BC066
:10258000AE01437055279C2F96959695C115D3455E
:1025900008F05EC021E030E002C0220F331F4A95F0
:1025A000E2F7892F90E0F5E0880F991FFA95E1F79F
:1025B000822B932B9C687FC0811529E5920790F4AC
:1025C000811548E5940708F05AC0811556E595072E
:1025D00008F06DC00E94F7138F7190E0982F882744
:1025E000906269C0C1158AE5D80708F44DC0CE01D4
:1025F00090568115904208F05AC08D2F8F710E941D
:10260000F7139E01332730628F71A901582B4DC0FB
:1026100081E090E050C0855AC82FD0E0CD57DE4F02
:10262000888190E0906447C0805C91090E943712D5
:1026300042C09927D3FF02C0986C3DC0906C3BC04C
:102640009F70906A38C09C2F8827816F906A33C032
:1026500021E030E002C0220F331F4A95E2F7892FB4
:1026600090E0E5E0880F991FEA95E1F7822B932B24
:102670009A6821C0982F8827846F906A1CC0982F71
:102680008827806F906A17C08C2F8F700E94F71375
:102690009E0194E0369527959A95E1F72F7030E0EA
:1026A000322F22273069A901482BCA0104C080E0DB
:1026B00090E001C0CE01DF91CF9108950E941C12DD
:1026C0000E943F1208958238910569F1B0F4813378
:1026D000910509F46DC048F48932910509F463C08D
:1026E0008A32910509F469C008958533910509F48A
:1026F00055C089339105B9F00895833E910569F17C
:1027000038F4803E9105B1F0823E910509F10895BB
:10271000863E9105A9F1873E9105B9F1843E910568
:1027200009F064C023C02091A10220FD4FC021FD0B
:102730004DC008958091A10280FD44C08091A20205
:1027400080FF44C08091A10284FD42C083EE4DC051
:102750008091A10282FF38C0F5CF8091A10282FD55
:1027600033C08091A20280FD31C0ECCF8091A202E3
:1027700081FF32C08091A10284FD2AC087EE35C05E
:102780008091A10283FF26C0F5CF8091A10283FD35
:1027900021C08091A20281FD1FC0ECCF8091A102D7
:1027A00085FD1CC01DC08091A10285FD19C016C009
:1027B0008091A10286FD16C017C08091A10286FDFE
:1027C00013C010C089E311C082EE0FC080EE0DC0AF
:1027D00080E00BC086EE09C084EE07C089E205C028
:1027E00085E303C08AE201C081E390E008959091FF
:1027F000A10292FF0DC0282F2871283019F4877F7D
:10280000846006C0282F2471243011F48B7F8860E7
:1028100093FF0DC0282F2871283119F4877E846119
:1028200006C0282F2471243111F48B7E88612091F9
:10283000A20220FF0DC0382F3871383019F4877F7D
:10284000816006C0382F3171313011F48E7F88607D
:1028500021FF0DC0282F2871283119F4877E81614E
:1028600006C0282F2171213111F48E7E886194FDDC
:10287000877E089580E008950C9475100E944E158F
:102880008FE39CE90197F1F700C000000E944E150C
:1028900080E00E94781480FF04C00E943C140C94D5
:1028A000F12208950C943E140E947B10811102C005
:1028B0000E9423110E94861080935F020E948E1056
:1028C0009093A2028093A1020E9452140E948A1047
:1028D000682F70E080E090E00E94120A6091E701AA
:1028E0007091E8018091E9019091EA010C944A0A03
:1028F000E82FF0E0EE0FFF1FE355FD4F808191813F
:102900000895089580EA8A95F1F7089500C0089522
:102910000C94821408950C948A140C948B140C94C7
:102920008A140C948F14F894E82FE295EF70F0E07D
:1029300031A1282F2F7081E090E001C0880F2A95E7
:10294000EAF7982F9095932391A392A1892B82A3C4
:10295000789408950F931F93CF93DF93C2E9D1E04A
:1029600089918F3F11F00E94931481E0C739D807F5
:10297000B9F7C6E8D1E002E911E089918F3F11F083
:102980000E9493140C171D07C1F7DF91CF911F917F
:102990000F910895BF92CF92DF92EF92FF920F9323
:1029A0001F93CF93DF938C01C62FD0E0CE018E56BC
:1029B0009E4F6C01FC0190819F3F09F450C0B62EE0
:1029C000F894E92FE295EF70F0E081A19F7021E08B
:1029D00030E001C0220F9A95EAF7822B81A382A1F1
:1029E0002095282322A378940E948614E6E8F1E03B
:1029F00042E951E021E030E0E12CF12C61916F3FA0
:102A000089F0A62FA295AF70B0E090968C9190E0DF
:102A10006F7002C0959587956A95E2F780FD02C0B8
:102A2000C90102C080E090E0E82AF92A220F331F92
:102A30004E175F0719F7F60180818F3F11F00E9452
:102A4000931461E0E114F10409F460E08B2D0E941D
:102A50008814CC0FDD1FC00FD11FF982E882DF91EF
:102A6000CF911F910F91FF90EF90DF90CF90BF908B
:102A700008950E94AA148AE0EDEAF2E0DF01982F9F
:102A80001D929A95E9F7E3EAF2E0DF011D928A953B
:102A9000E9F785E00E9499150C948604FF920F9344
:102AA0001F93CF93DF93CDB7DEB72A970FB6F89475
:102AB000DEBF0FBECDBF8E010F5F1F4F8AE0F80152
:102AC00011928A95E9F7F12C6F2DC8010E94CA1462
:102AD000F394F5E0FF12F8CF4AE050E0B80183EA42
:102AE00092E00E942C2AFF24F394009709F4F12C21
:102AF000892B41F08AE0F801A3EAB2E001900D923F
:102B00008A95E1F72F2D45E06DEA72E083EA92E0C5
:102B10000E949A150E948E048F2D2A960FB6F89463
:102B2000DEBF0FBECDBFDF91CF911F910F91FF9000
:102B300008950895FF920F931F93CF93DF93F82E7C
:102B4000092F162FD72FC42F222349F081E080931D
:102B500062020E94A422909361028093600280919D
:102B600062028823D9F080916002909161020E94F4
:102B7000BC22059798F0EF2DF02FA12FBD2F80E0FC
:102B800090E04C2F50E08417950734F42191319157
:102B90002D933D930196F7CF10926202DF91CF9172
:102BA0001F910F91FF9008950E9489240E945A114D
:102BB0000C9495240E9499240E9462110C94B324D1
:102BC0000E942A220E9470240E944E110E94D41555
:102BD0000E94DA150E945611FBCFEF92FF920F93DD
:102BE0001F93CF93DF93E82F71110AC0442321F084
:102BF000F0E0E751FB4FE4916E2F7E2F8E2F6CC0DB
:102C0000C62FD0E0072F10E0282F30E0442329F012
:102C1000F901E751FB4F249130E0CE0166E070E00E
:102C20000E948B29EE24EA94F12CB7010E94C3295B
:102C3000DB01CC0FDD1FCB016BEA7FEF0E948B29FC
:102C40008C0F9D1FC82FCC0FC80FC701801B910B85
:102C5000B9010E948B29E92F492FD0E0CE01B8019C
:102C60000E948B29692F70E0C701861B970BB90161
:102C70000E948B29F92FC7018C1B9D0BB8010E9464
:102C80008B29692F70E0C701861B970BB9010E9441
:102C90008B29A230B10591F038F4109759F01197B3
:102CA000C1F48E2F7F2F0CC0A430B10579F050F005
:102CB000169779F4722F842FE92F0DC0892F7E2F5C
:102CC000E22F09C0822F7E2FEF2F05C0822F792F90
:102CD00002C0722F8F2F6E2FDF91CF911F910F9116
:102CE000FF90EF90089541E00E94ED15089508953A
:102CF0000E9473160895CF93DF93762FE901682F12
:102D0000842F0E947816798368838A83DF91CF911C
:102D100008958091B702282F269530E021153105BE
:102D200019F48170826005C02532310524F081706C
:102D300088648093B702089588E090E00C94412A5B
:102D4000CF92DF92EF92FF926B017C010E94891675
:102D5000B701A60188E090E0FF90EF90DF90CF9060
:102D60000C945F2AE7EBF2E083E0808311828FEF1F
:102D700082838383148260817181828193810C9428
:102D8000A0168091B70280FF02C08695089580E06A
:102D900008959091BB02933018F49F5F9093BB020B
:102DA000882351F06091B7027091B8028091B90206
:102DB0009091BA020C94A016089581E00C94C91663
:102DC0009091BB02992319F091509093BB028823F4
:102DD00051F06091B7027091B8028091B902909160
:102DE000BA020C94A016089581E00C94E01670E0ED
:102DF0000C94F51C309108018091B70280FF0CC043
:102E00008091070190E063E070E00E948B29632FBE
:102E100084549D4F0C94F7162091090140910A01AA
:102E2000241770F7822F90E063E070E00E948B29F6
:102E3000FC01E454FD4F1182108212822F5FF0CF0B
:102E4000A82FB62F8091B70280FF16C020910901EC
:102E500030910A01231770F4822F90E063E070E054
:102E60000E948B29FC01E454FD4FA183B08342836F
:102E70002F5FF0CF0C94FA160895CF93DF9300D014
:102E80001F92CDB7DEB79091B70290FF0AC09E01A6
:102E90002F5F3F4F0E947B164B8169818A810E9480
:102EA00020170F900F900F90DF91CF910895CF933F
:102EB000DF93EC01EC81F0E0EC51FC4F4491E7EB47
:102EC000F2E0628181810E943D178C818F5F8C834B
:102ED000DF91CF910895CF93DF93EC01E7EBF2E020
:102EE000438162818C810E943D178C818F5F8C832E
:102EF000DF91CF9108950F931F93CF93DF9300D06D
:102F00001F92CDB7DEB78C018091630281110AC098
:102F10009E012F5F3F4F4FEF6FEF0E947B168A811C
:102F200080936302F8018481813051F028F082306F
:102F300061F4409163020AC08091630240E007C0DF
:102F40006091630240E080E003C040E080E060E028
:102F50000E942017F801848190E0019663E070E000
:102F60000E94D72984830F900F900F90DF91CF910B
:102F70001F910F910895AF92BF92CF92DF92EF927F
:102F8000FF920F931F93CF93DF9300D01F92CDB783
:102F9000DEB7182FF62E042FE22E9091B70290FF85
:102FA0006EC0E92FE695AE2FB0E0A956BE4F8C91CA
:102FB00080936D029E7F923061F49E012F5F3F4FA0
:102FC000812F0E947B164B8169818A810E94201784
:102FD00044C0823019F40091BA023FC0863019F41F
:102FE0001091B8023AC08930D9F38931B1F5E9516D
:102FF0004E2F4170D42EE695F0E0EC51FB4FA5909A
:10300000B490C12CBB2440910B01C41620F52C2D8B
:1030100030E0C501B9010E948B29642F70E00E9445
:10302000C329E12FD11002C0E60F01C0E61B809139
:103030000901A901480F511DCA0163E070E00E9417
:103040008B299C0124543D4F402F6F2D8E2F0E94C1
:103050007B16C394D8CF0E94FA161093B802F09250
:10306000B9020093BA02EE2051F06091B70270915C
:10307000B8028091B9029091BA020E94A0160F90F6
:103080000F900F90DF91CF911F910F91FF90EF90D4
:10309000DF90CF90BF90AF900895E7EBF2E0918181
:1030A000282F438162818CE0890F0C94BB1781E04B
:1030B0000C944D18E7EBF2E09181282F4381628157
:1030C00084EF890F0C94BB1781E00C945A18E7EB3E
:1030D000F2E062812CE0620F08F46FEF282F438149
:1030E00081810C94BB1781E00C946718E7EBF2E048
:1030F00062812CE0621B08F460E0282F438181810B
:103100000C94BB1781E00C947618E7EBF2E0438156
:103110002CE0420F08F44FEF282F628181810C943C
:10312000BB1781E00C948518E7EBF2E043812CE0BB
:10313000421B08F440E0282F628181810C94BB1768
:1031400081E00C94941820E00C94BB17EF92FF924E
:103150001F93CF93DF93EC0110E0EE24EA94F12C5F
:1031600030910B01131700F520910901812F90E098
:10317000820F911D63E070E00E948B29FC01E454F2
:10318000FD4F632F70E0C7010E94D729812F0E9455
:1031900082299C819F014091BA026091B902890FF6
:1031A0000E947B161F5FDCCF0E94FA169A818C81E9
:1031B00090FF02C08F5F01C081508C83DF91CF915F
:1031C0001F91FF90EF900895AF92BF92CF92DF9240
:1031D000EF92FF920F931F93CF93DF93FC018281B5
:1031E00080FF02C0DFEF01C0D1E0C0E03EE0A32ECF
:1031F00080910B01C81708F043C080910901CC2EC3
:10320000D12C9601280F311DC90163E070E00E94A6
:103210008B2984549D4F7C01FC0111821082128203
:1032200004E010E0B12C809165028B0D8F302CF002
:103230006A2D0E94B529892F05C087FF03C0909190
:103240000B01890F082E000C990BC816D90691F4B2
:103250008091BA0290E0B8010E948B2995958795DC
:10326000959587959701482F6091B9028091B80292
:103270000E947B16BD0E01501109A9F6CF5FB8CF91
:103280000E94FA1680916502D13031F4811102C09A
:1032900080910B01815007C090E0019660910B0175
:1032A00070E00E94D72980936502DF91CF911F9132
:1032B0000F91FF90EF90DF90CF90BF90AF90089567
:1032C000CF932091090130910A01231770F4822FC6
:1032D00090E063E070E00E948B29FC01E454FD4F14
:1032E0001182108212822F5FF0CFC0E060910B013B
:1032F000C61790F5EC2FF0E070E0CF010E94D729BF
:1033000090910901890F20916402022E000C330B69
:1033100090E063E070E00E948B29E217F307A4F0CD
:1033200020910601022E000C330B2E173F0764F08C
:103330009C0124543D4F4091BA026091B9028091A2
:10334000B8020E947B1606C0FC01E454FD4F1182B6
:1033500010821282CF5FCACF0E94FA162091050117
:1033600080916402820F8093640290910601920F13
:103370009093060119165CF4082E000C990B4091ED
:103380000B0150E041505109841795071CF021951D
:1033900020930501CF9108954F925F926F927F9293
:1033A0008F929F92AF92BF92CF92DF92EF92FF9255
:1033B0000F931F93CF93DF938C01FC01C481CC2E1C
:1033C000D12CE12CF12CA7019601C701B6010E9476
:1033D0009C29A70196010E949C294B015C0180E277
:1033E00090E06C01CC1AD1080D2C000CEE08FF08FF
:1033F00025E530E040E050E0C501B4010E949C2981
:103400002B013C01A7019601C701B6010E949C292E
:10341000A70196010E949C299B01AC01280D391D32
:103420004A1D5B1DC301B2010E94EB29D22F822FDE
:1034300090E02A3230F025E530E0A901481B590B15
:10344000CA0163E070E00E948B2997FD0196959573
:103450008795C82FC095F12C85E5E82EED1A80914F
:103460000B01F816D0F4F1FC02C0EE2D01C0ED2FD7
:10347000209109018F2D90E0820F911D63E070E093
:103480000E948B299C0124543D4F4C2F6091B9021E
:103490008E2F0E947B16F394E2CF0E94FA16F80159
:1034A0008481811102C091E003C0803219F49FEF42
:1034B0009093040190910401890FF8018483DF91B6
:1034C000CF911F910F91FF90EF90DF90CF90BF9021
:1034D000AF909F908F907F906F905F904F900895E6
:1034E0000F931F93CF93DF93EC0100E010E0409126
:1034F0000B01842F90E0081719072CF58091090122
:103500009801280F311DC90163E070E00E948B29EA
:103510009C0124543D4F469550E08C8104171507BB
:103520001CF4882331F002C0811103C04091BA021B
:1035300001C040E06091B9028091B8020E947B1600
:103540000F5F1F4FD4CF0E94FA168C8190E0019636
:10355000817099278C83DF91CF911F910F910895EE
:10356000E7EBF2E080818E7F8083608171818281D0
:1035700093810E94A01610926E022FEF80E792E0D6
:10358000215080409040E1F700C000000C94FA16F2
:103590006091B702669570E04BE050E08CE091E0FE
:1035A0000E941F2A892B19F481E080936E020E94E9
:1035B000A422909367028093660208959091B702C7
:1035C00090FF35C09170811102C0926006C08532B3
:1035D00010F0986402C0880F982B9093B70266236E
:1035E00051F06091B7027091B8028091B902909148
:1035F000BA020E94A0166091B702669570E04BE097
:1036000050E08CE091E00E941F2A892B19F0109263
:103610006E0202C00E94C81A81E080936902409144
:10362000BA026091B9028091B8020C94A31808956F
:10363000682F9091B702969581E0890F853208F046
:1036400081E00C94DE1A81E00C94181B682F909195
:10365000B70296958FEF890F09F484E20C94DE1A75
:1036600081E00C94261B61E00C94DE1AE7EBF2E09B
:1036700080818160808386950C94331B8091B70292
:1036800080FD0C94B01A0C94361B60E00C94DE1A8A
:1036900080916C0281112EC00E947B10811104C0A8
:1036A0000E9423110E94B2160E949C166093B702DA
:1036B0007093B8028093B9029093BA026E7F61F45E
:1036C0000E94B2160E949C166093B7027093B802D3
:1036D0008093B9029093BA020E94891610926E02EA
:1036E0008091B70280FF03C086950E94451B81E050
:1036F00080936C0208950F931F93CF93DF93809173
:103700006E02882309F485C080916D02E091B702B2
:10371000E695E81BE0936802823049F4F0E0E0525D
:10372000FC4FE491CE2FD0E007E517E149C0863089
:1037300049F4F0E0E352FC4FE491CE2FD0E00BE6E9
:1037400017E13EC0893051F4E695F0E0E652FC4FB7
:10375000E491CE2FD0E006EA18E132C08F3051F468
:10376000E695F0E0E952FC4FE491CE2FD0E004EE74
:1037700018E126C0853149F4F0E0EC52FC4FE491A9
:10378000CE2FD0E000E619E11BC0883181F08332F2
:1037900039F4E2EDF3E0C591D4910BE717E110C0E5
:1037A000843251F4C4EFD1E000E71AE109C0C8E265
:1037B000D0E00CEC19E104C0C0EDD7E007E716E15A
:1037C00080916902882361F0109269020E94A4220C
:1037D000909367028093660210926B0210926A02C5
:1037E0000E94A422E0916602F09167028E1B9F0B5B
:1037F0008F3F9F4770F4EC0FFD1FF0936702E0933B
:10380000660286E692E0F801DF91CF911F910F9159
:103810000994DF91CF911F910F910895882311F0A2
:10382000FA0101C0FB010994CF93DF93C82FD62F73
:103830000E94C1168C1740F00E94C1168D1720F40B
:10384000DF91CF910C94231B8C2FDF91CF910C949F
:10385000331B1F93CF93DF93FB011281112309F4D4
:10386000BCC0EC010E948F0F8272CD3CFCE5DF07EB
:1038700009F497C008F043C0C73CECE5DE0709F443
:103880007CC0D8F4C43C9CE5D90709F46AC038F47C
:10389000C33CDC4509F0A4C00E943E1BA0C0C53C4F
:1038A0009CE5D90709F462C0C63CDC4509F098C024
:1038B00044E658E167E578E15DC0CA3CFCE5DF0716
:1038C00009F465C070F4C83CECE5DE0709F45AC0A1
:1038D000C93CDC4509F084C043E758E162E878E17F
:1038E00049C0CB3C9CE5D90709F456C0CC3CDC452B
:1038F00009F076C044EF56E16DED76E13BC0C23D84
:10390000FCE5DF0709F45AC098F4CF3C9CE5D907E1
:1039100009F44EC008F44AC0C03DFCE5DF0709F4D5
:103920004AC0C13DDC4509F05BC06EE089E04EC095
:10393000C53D9CE5D90709F447C050F4C33DFCE5FB
:10394000DF07F9F1C43DDC4509F04AC088E142C017
:10395000C63D9CE5D907E9F1CE35DD4509F43FC008
:103960003FC040E35BE163E27BE104C043E25BE133
:1039700060E37BE10E940E1C32C047E558E164E63B
:1039800078E1F8CF42E858E163E778E1F3CF40EA25
:1039900058E161E978E1EECF41E958E160EA78E188
:1039A000E9CF4DED56E164EF76E1E4CF81E012C05E
:1039B00065E082E00BC068E086E008C064E18FE06B
:1039C00005C067E185E102C062E289E10E94141C42
:1039D00006C083E20E94331B02C011E001C010E068
:1039E000812FDF91CF911F910895509A2BB12E7F97
:1039F0003BB131604FB7F894FC01CB0163E070E05C
:103A00000E948B298E0F9F1FE817F90789F05191AB
:103A100068E03BB9000000C057FF2BB9550F00000C
:103A200000C000C000C02BB900C06A9591F7ECCF70
:103A30004FBF8FE594E00197F1F700C000000895B3
:103A4000CF93DF9397FF0DC0FB012281222349F022
:103A5000EC010E945E1DCE019F770E94D11D0E9445
:103A6000AB1D81E0DF91CF9108959091E7029230F4
:103A700069F48A3040F490E009966AE070E00E94B0
:103A8000D729875A01C086500C94FB060C94730505
:103A90008CE090E00E94392A90E0A0E0B0E08093B2
:103AA000E7029093E802A093E902B093EA02089536
:103AB0006091E7028CE090E00C944D2A0E9409216D
:103AC000869581708093EC020E9409218170809319
:103AD000E6028091E702813039F48091EC0288237C
:103AE00019F089E30E94FB060E948F0F8093EB027E
:103AF0000E94A20F8091E702813071F048F082307D
:103B000081F0843009F586EE0E94FB0688E11AC038
:103B100082EE0E94DE0518C088E193E00E942A042C
:103B200013C08091E602811103C083E50E94FB0669
:103B300082EE0E94DE058FE39CE90197F1F700C059
:103B4000000087E50E94FB068FE39CE90197F1F7EF
:103B500000C0000008958091E702813059F030F0F4
:103B6000823089F08430C9F488E215C082EE0E9468
:103B7000850613C08CE20E94FB068091EC0288232C
:103B800061F089E308C082EE0E9485068091E6021A
:103B9000811103C083E50E94FB068091EB020C9427
:103BA0009F0F0F931F93CF93DF938C01CCE0D0E056
:103BB000C8010C2E02C0969587950A94E2F78F7083
:103BC0000E94351D2497CC3F8FEFD80789F7DF91EE
:103BD000CF911F910F9108950F931F93CF93DF9370
:103BE000EC018B01FB018281882361F00E948F0F21
:103BF000CE01825E9C458530910520F48093E702DA
:103C00000E94581DB801CE01DF91CF911F910F91F5
:103C10000C94201DCF93DF93EC01FB01828188235C
:103C200009F426C1C430FDE5DF0760F4CB3F9CE515
:103C3000D90768F49E0122503C452431310508F033
:103C400018C105C0C236EDE5DE0709F012C10E94B9
:103C50008E109093A2028093A102C031FCE5DF0791
:103C600009F4CAC008F041C0C8309CE5D90709F47E
:103C7000A4C0F0F4C430FCE5DF0709F48CC068F49C
:103C8000C2309CE5D90709F482C0C330DC4509F095
:103C9000E5C08091A1028260DFC0C630FCE5DF078D
:103CA00009F483C008F085C08091A1028860D4C067
:103CB000CC309CE5D90709F490C068F4CA30FCE523
:103CC000DF0709F47EC008F084C00E94B10980912A
:103CD000A1028068C1C0CE309CE5D90709F481C03B
:103CE00008F086C08091A10294C0CD3FFCE5DF07BB
:103CF00009F47BC038F5C4319CE5D90709F49AC0B2
:103D000058F4C231FCE5DF0709F47AC008F07EC040
:103D10008091A1028F7BA0C0CB3F9CE5D907F1F138
:103D200008F03FC0C531DC4509F098C08091A10280
:103D300082FB222720F991E0922790FB82F990FBE9
:103D400083F98AC0C1308DE5D80709F467C050F403
:103D50008091A202CF3FECE5DE07C1F108F05BC025
:103D60008D7F65C0C3308DE5D80709F471C008F4B4
:103D70006DC0C236DD4509F071C08091A10284FB9F
:103D8000222720F991E0922790FB84F965C0809169
:103D9000A102816061C08091A10216C08091A2023F
:103DA00016C08091A202826042C08091A10280610F
:103DB00053C08091A10280624FC08091A1028064B3
:103DC0004BC08091A1028860846046C0826081609F
:103DD0002EC08091A1028E7F3FC08091A1028D7F75
:103DE0003BC08091A102877F37C08091A20214C09E
:103DF0008091A1028F7E30C08091A1028F7D2CC066
:103E00000E94B1098091A1028F7726C08091A10202
:103E1000877F8B7F21C08D7F8E7F09C08091A2021A
:103E2000982F909591708E7F892B90FB81F98093CC
:103E3000A20214C00E94B1098091A10287FB22272F
:103E400020F991E0922790FB87F906C081E001C03C
:103E500080E00E94251102C08093A1028091A102FE
:103E60009091A2020E949F100E94B10980E001C0BF
:103E700081E0DF91CF9108950F931F9341E050E0CF
:103E800060E070E08A019B0104C0000F111F221F37
:103E9000331F8A95D2F7C901B8010E94120A1F91F7
:103EA0000F910C94B109482F50E0FA013597EF3388
:103EB000F10508F060C0E85AFF4F0C940D2A0E94EB
:103EC000231155C080915F02817F8E7F80935F02B6
:103ED00081E080936F0208950E94960448C080910B
:103EE0005F02982F9095917090FB80F980935F020C
:103EF00091113DC0897F877F10C080915F0281FB57
:103F0000222720F991E0922790FB81F980935F02AC
:103F1000992369F180915F02816080935F0227C0DD
:103F200080915F0282FB222720F991E0922790FB8B
:103F300082F9ECCF80915F0283FB222720F991E088
:103F4000922790FB83F9E2CF0E94B1098091A102F0
:103F500087FB222720F991E0922790FB87F9809335
:103F6000A10205C0895301C08D510E943C1F81E010
:103F7000089580E0FACF80E0089580E008950C94E1
:103F8000BD1FCF93C82F80916F02882319F0813015
:103F900031F02BC00E948F0F823249F504C00E947D
:103FA0008F0F823261F48C2F0E94BF1F811104C0D9
:103FB0008C2F0E94531F17C081E090E014C08C2FFB
:103FC0000E94BD1F81110EC0C43149F018F4CB30DE
:103FD00049F00FC0C93219F0C83321F00AC010925D
:103FE0006F0207C081E0817006C010926F0280E00E
:103FF00002C080E0F8CFCF910895CF93DF93863150
:104000009C4541F5EB010E948F0F982F8A812091EA
:10401000020130910301882379F09A7A81E009F452
:1040200080E080937002911102C069E201C065E3F3
:10403000C9010E94E8210AC080917002811102C06A
:1040400069E201C065E3C9010E94F3210E94E40F07
:1040500080E001C081E0DF91CF9108950F931F931D
:10406000CF93DF93C42FD22FFC0182818823C9F024
:10407000409373020E94A422909372028093710273
:1040800080E28C0F883008F057C0C77081E001C013
:10409000880FCA95EAF7DF91CF911F910F910C9489
:1040A000040780917302481330C08091710290918F
:1040B00072020E94BC22883C910538F510E21D0F67
:1040C000CD17B9F080E28C0F883040F4C77081E0E2
:1040D00001C0880FCA95EAF70E940B07183028F52F
:1040E00081E09D2F977001C0880F9A95EAF70E9492
:1040F0000407802F0E94FB061830F0F4D77081E08F
:1041000001C0880FDA95EAF70AC080E28C0F883088
:1041100098F4C77081E001C0880FCA95EAF7DF9173
:10412000CF911F910F910C940B07802FDF91CF91AE
:104130001F910F910C94FB06DF91CF911F910F916E
:1041400008950F939C01CB01243F4CE5340731F1D6
:1041500088F4293DFCE53F07D9F02A3D4CE53407BA
:1041600079F1283D3C45A9F506E221EE41EE68EDE6
:104170007CE52BC0263FFCE53F07E1F0A8F0273F98
:104180003C4539F507E225EE46EE67EF7CE51DC0BC
:1041900007E225EE45EE69ED7CE517C006E221EE6B
:1041A00040EE64EF7CE511C007E225EE44EE65EFDA
:1041B0007CE50BC006E221EE42EE66EF7CE505C031
:1041C00008E221E045EE6AED7CE50E942E2080E0C9
:1041D00008C0FC018281882319F01092730201C08B
:1041E00081E00F9108959093BD018093BC010895E3
:1041F00090937902809378020895E0917802F0918B
:104200007902309721F00190F081E02D099480E04F
:1042100008950E94FD200895E0917802F0917902BE
:10422000309799F020912301222359F02091A10287
:1042300027FF07C0DC012C9111962C93119726E0E3
:104240002C930280F381E02D099408952091760249
:10425000309177022817390771F090937702809395
:104260007602E0917802F0917902309721F0068091
:10427000F781E02D09940895209174023091750220
:104280002817390771F09093750280937402E091BA
:104290007802F0917902309721F00084F185E02DC9
:1042A00009940895FC01329680912301882331F00E
:1042B0008091A10287FF02C09EE101C096E080E0EC
:1042C000915028F021912223D9F38F5FF9CF0895DF
:1042D000662351F1209123012223E9F02091A102CC
:1042E00027FF19C0462F4695469546954E31E0F476
:1042F000677021E030E002C0220F331F6A95E2F7B9
:10430000FC01E40FF11D828190E02823392381E034
:10431000232B69F409C0FC0132960896219162179B
:1043200029F0E817F907D1F780E0089581E00895B2
:104330009C01FC0132969FEF80E04191461789F085
:104340009F3F19F4411101C0982F8F5F8630A9F764
:104350009F3F39F0F901E90FF11D97FDFA9562834E
:10436000089508959C012A5F3F4FFC014281461346
:1043700001C01282019682179307B9F70895262F7C
:104380002695269526952E3168F4FC01E20FF11D45
:10439000677021E030E001C0220F6A95EAF7828160
:1043A000282B22830895262F2695269526952E3193
:1043B00070F4FC01E20FF11D677021E030E001C0F4
:1043C000220F6A95EAF72095828128232283089597
:1043D00020912301222329F02091A10227FD0C9492
:1043E000BF210C94982120912301222329F02091B0
:1043F000A10227FD0C94D3210C94B221209123011A
:10440000FC013296222331F08091A10287FF02C085
:104410008EE101C086E0DF011D928A95E9F70895DB
:1044200008950C94102283E080937A020C94112258
:10443000811102C081E001C082E080937A020C9475
:1044400011220C94182281E080937A020C9411229C
:104450000C94232208958091F502843031F10E945A
:10446000900410927B0220E488E190E00FB6F8946B
:10447000A895809360000FBE2093600083B7817F72
:10448000846083BF83B7816083BF7894889583B746
:104490008E7F83BF0FB6F894A895809160008861E5
:1044A00080936000109260000FBE089508950C94F0
:1044B0005622CF930E9457220E944E150E945622E8
:1044C000C0E08C2F0E947814892B29F4CF5FC5306F
:1044D000C1F780E001C081E0CF9108950E94B10949
:1044E0000C9407051F920F920FB60F9211248F9311
:1044F0009F93AF93BF9380917B02811113C08091F2
:10450000ED029091EE02A091EF02B091F00241967F
:10451000A11DB11D8093ED029093EE02A093EF02D6
:10452000B093F002BF91AF919F918F910F900FBE0A
:104530000F901F90189582E084BD93E095BD9AEF8F
:1045400097BD80936E0008952FB7F8948091ED0287
:104550009091EE02A091EF02B091F0022FBF08956A
:104560002FB7F8946091ED027091EE028091EF0206
:104570009091F0022FBF08959C014FB7F89480915D
:10458000ED029091EE02A091EF02B091F0024FBFC8
:10459000821B930B089578941F920F920FB60F927F
:1045A00011248F939F93AF93BF938091ED029091CD
:1045B000EE02A091EF02B091F0020196A11DB11D93
:1045C0008093ED029093EE02A093EF02B093F0027D
:1045D000BF91AF919F918F910F900FBE0F901F9041
:1045E000189581E08093E00080E28093D8001092DB
:1045F000C9008FE19EE40197F1F700C0000087E059
:1046000090EBDC018093FE029093FF02A0930003E5
:10461000B09301039CE088E10FB6F894A8958093CD
:1046200060000FBE90936000FFCF80919F020895BD
:104630000895CF93DF9320912301222339F0209115
:10464000A10227FF03C060E222E002C068E021E08F
:104650002093E9002FEF3091E800215035FD06C08E
:1046600035ED3A95F1F700002111F5CF2091E800E2
:1046700025FF1DC0EC0180912301811105C040E0A0
:1046800050E068E070E003C070E040E050E0CE0130
:104690000E9425258091E8008E778093E80080E2D3
:1046A000FE01AFE7B2E001900D928A95E1F7DF914C
:1046B000CF91089580937C0270937E0260937D0277
:1046C0008091F502843001F582E08093E9008FEF5C
:1046D0009091E800815095FD06C095ED9A95F1F70F
:1046E00000008111F5CF8091E80085FF0DC040E00A
:1046F00050E063E070E08CE792E00E942525809115
:10470000E8008E778093E8000895BC0184E00C9463
:104710005A23BC0183E00C945A2308950C94282258
:104720006091F10281E0611101C080E00C941322DC
:104730009091F50281E0943009F080E06091F102FF
:104740000C94182242E061EC81E00E94292642E2AA
:1047500061EC82E00E9429269091F50281E094307C
:1047600009F080E06091F1020C9421228091F7021F
:10477000833009F45DC030F4813071F0823009F487
:1047800096C008958A3009F482C08B3009F468C05D
:10479000893009F0A4C020C08091F602813A09F066
:1047A0009EC08091E800877F8093E8008091FA02A4
:1047B0009091FB02892B21F460E28FE792E003C025
:1047C00060E080E090E070E00E9470258091E80059
:1047D0008B778093E80008958091F602813209F08A
:1047E0007EC08091FA029091FB02029708F077C098
:1047F0008091E800877F8093E8008091E80082FD47
:1048000005C08091F5028111F8CF69C08091F20056
:10481000823031F48091F100813011F0863021F442
:104820008091F10080939F028091E8008B7753C0C4
:104830008091F602813A09F052C08091FA0290917B
:10484000FB02892B09F04BC08091E800877F8093A1
:10485000E8008091E80080FFFCCF8091230136C002
:104860008091F6028132D9F58091FA029091FB0293
:10487000892BA9F58091E800877F8093E8000E944A
:104880005E268091F802809323010C94B1098091F7
:10489000F602813221F58091E800877F8093E8005D
:1048A0000E945E268091F9028093A0020895809173
:1048B000F602813AA1F48091E800877F8093E800B6
:1048C0008091E80080FFFCCF8091A0028093F100EE
:1048D0008091E8008E778093E8000C945E2608951E
:1048E00084B7877F84BF0FB6F894A8958091600045
:1048F000886180936000109260000FBE90E080E8B5
:104900000FB6F89480936100909361000FBE0C94F1
:1049100023220E94B0260E940327E2EEF0E080816D
:104920008460808378940C94672987E191E00C94EB
:10493000F8208091F5028530A9F48091F502853048
:1049400079F40E942B228091F3028823B1F30E9414
:104950005922882391F30E940F250E94B109EDCFBF
:104960000C946E22089508950C94B624292F3327B1
:1049700023303105C9F060F42130310581F0223057
:10498000310509F044C08BE390E027E036E043C0F6
:1049900021323105E1F02232310549F138C082E19E
:1049A00090E022E436E037C099278130910549F044
:1049B00028F0029761F5E9EEF5E005C0E3E0F6E0E6
:1049C00002C0E7EFF5E0849190E09F0124C06115FB
:1049D000710541F061307105D1F489E090E022E386
:1049E00036E019C089E090E029E136E014C0611595
:1049F000710541F06130710551F48DE690E024E5D8
:104A000036E009C080E490E021EC36E004C080E0AC
:104A100090E020E030E0FA0131832083089584E0C3
:104A200089BD86E089BD09B400FEFDCF8091D80024
:104A30008F7D8093D8008091E00082608093E000B9
:104A40008091E00081FDFCCF0895CF92DF92EF923C
:104A5000FF920F931F93CF93DF93EC018B017A01A9
:104A60000E947D26811133C0E114F10439F0F70171
:104A700080819181081B190BC80FD91FC12CD12C23
:104A80000115110519F18091E80085FD16C080918E
:104A9000E8008E778093E800E114F10449F0F70113
:104AA00080819181C80ED91ED182C08285E00FC05D
:104AB0000E947D26882321F30AC089918093F1000A
:104AC00001501109FFEFCF1ADF0ADACF80E0DF9142
:104AD000CF911F910F91FF90EF90DF90CF900895AD
:104AE0002091FC023091FD022617370748F061152E
:104AF000710539F42091E8002E772093E80001C079
:104B0000B901FC0120E06115710561F18091F502A8
:104B10008823D9F18530D9F18091E80083FD39C02F
:104B20008091E80082FD2BC08091E80080FFEBCFF0
:104B30008091F20090E06115710551F08830910587
:104B400038F421912093F100615071090196F3CF5F
:104B500021E0089709F020E08091E8008E778093AB
:104B6000E800D1CF2111D2CF0AC08091F50288236D
:104B700061F0853061F08091E80083FD0AC080918A
:104B8000E80082FFF2CF80E0089582E0089583E09C
:104B9000089581E008952091FC023091FD022617CE
:104BA000370748F06115710539F42091E8002E7738
:104BB0002093E80001C0B901FC0120E061157105F6
:104BC00079F18091F502882309F43DC0853009F41C
:104BD0003CC08091E80083FD3AC08091E80082FDEE
:104BE0002CC08091E80080FFE9CF8091F20090E036
:104BF0006115710559F08830910540F42491209396
:104C0000F1003196615071090196F2CF21E00897C9
:104C100009F020E08091E8008E778093E800CECF05
:104C20002111CFCF0AC08091F502882361F0853031
:104C300061F08091E80083FD0AC08091E80082FF66
:104C4000F2CF80E0089582E0089583E0089581E046
:104C50000895982F953068F59093E900981739F0EA
:104C60007091EC002091ED005091F00003C0242FD2
:104C7000762F50E021FD02C09F5FECCF3091EB001A
:104C80003E7F3093EB003091ED003D7F3093ED009F
:104C90003091EB0031603093EB007093EC00209387
:104CA000ED005093F0002091EE0027FDE5CF80E06D
:104CB00008958F708093E90081E008958091F60255
:104CC00087FF11C08091E80082FD05C08091F50248
:104CD0008111F8CF11C08091E8008B770BC08091D3
:104CE000F502882349F08091E80080FFF8CF809199
:104CF000E8008E778093E80008952091E4003091D9
:104D0000E50095E64091EC00842F817040FF23C0C0
:104D10008091E80080FD1DC08091F502882399F004
:104D2000853099F08091EB0085FD11C04091E40041
:104D30005091E5002417350729F3915011F09A019D
:104D4000E1CF84E0089582E0089583E0089581E052
:104D5000089580E008954091E80042FFDDCF089576
:104D60000E940D270E941027E0EEF0E08081816014
:104D70008083E8EDF0E080818F77808319BCE3E6E3
:104D8000F0E08081816080831092F40208950E9497
:104D90000D270E9410278091D8008F778093D8002C
:104DA0008091D80080688093D8008091D8008F7D52
:104DB0008093D80084E089BD86E089BD09B400FEF7
:104DC000FDCF1092F5021092F1021092F3021092B0
:104DD000F20242E060E080E00E9429268091E1003A
:104DE0008E7F8093E1008091E20081608093E200F9
:104DF0008091E20088608093E2008091E0008E7FE5
:104E00008093E0000895E3E6F0E080818E7F808368
:104E100081E08093F4020C94C7261092E20008957A
:104E20001092E10008951F920F920FB60F92112475
:104E30002F933F934F935F936F937F938F939F93A2
:104E4000AF93BF93EF93FF938091E10082FF0BC07C
:104E50008091E20082FF07C08091E1008B7F809308
:104E6000E1000E9466298091E10080FF19C08091D5
:104E7000E20080FF15C08091E2008E7F8093E20007
:104E80008091E20080618093E2008091D80080628E
:104E90008093D80019BC85E08093F5020E9490238E
:104EA0008091E10084FF30C08091E20084FF2CC03B
:104EB00084E089BD86E089BD09B400FEFDCF809104
:104EC000D8008F7D8093D8008091E1008F7E809301
:104ED000E1008091E2008F7E8093E2008091E20009
:104EE00081608093E2008091F102882311F084E0D8
:104EF00007C08091E30087FD02C081E001C083E02C
:104F00008093F5020E9498238091E10083FF29C0DD
:104F10008091E20083FF25C08091E100877F80932C
:104F2000E10082E08093F5021092F1028091E100AD
:104F30008E7F8093E1008091E2008E7F8093E2007B
:104F40008091E20080618093E20042E060E080E0D6
:104F50000E9429268091F00088608093F0000E94D2
:104F60008E23FF91EF91BF91AF919F918F917F9190
:104F70006F915F914F913F912F910F900FBE0F90C6
:104F80001F9018951F920F920FB60F9211242F9316
:104F90003F934F935F936F937F938F939F93AF93C1
:104FA000BF93CF93DF93EF93FF93C091E900CF704E
:104FB0008091EC00D82FD17080FDD0E81092E900EC
:104FC0008091F000877F8093F00078940E940628FB
:104FD0001092E9008091F00088608093F000CD2B62
:104FE000CF70C093E900FF91EF91DF91CF91BF9116
:104FF000AF919F918F917F916F915F914F913F9171
:105000002F910F900FBE0F901F9018951F93CF9365
:10501000DF93CDB7DEB7AA970FB6F894DEBF0FBE09
:10502000CDBFE6EFF2E08091F100819322E0EE3F08
:10503000F207C9F70E94B6238091E80083FF2EC1D2
:105040008091F6029091F702492F50E04A305105C5
:1050500008F024C1FA01E956FF4F0C940D2A80385C
:1050600021F0823809F01AC108C08091F2029091B3
:10507000F302992389F082600FC08091FA028F7049
:10508000853008F00BC18093E9008091EB0085FB2F
:10509000882780F91092E9009091E800977F90931B
:1050A000E8008093F1001092F100D1C0282F2D7FED
:1050B00009F0F4C0882319F0823061F0EFC08091CC
:1050C000F802813009F0EAC0933009F080E0809363
:1050D000F3022EC08091F80281112AC08091FA0259
:1050E0008F702FEF280F243008F0D8C08093E9008C
:1050F0002091EB0020FF1CC0933021F48091EB0045
:10510000806214C09091EB0090619093EB0021E0DD
:1051100030E0A90102C0440F551F8A95E2F7409381
:10512000EA001092EA008091EB0088608093EB0027
:105130001092E9008091E800877F8093E8000E9448
:105140005E26ACC08111AAC01091F8021F77809131
:10515000E3008078812B8093E3008091E800877FD3
:105160008093E8000E945E268091E80080FFFCCFDB
:105170008091E30080688093E300111102C082E017
:1051800001C083E08093F50289C08058823008F026
:1051900085C08091F8029091F9028C3D53E095070B
:1051A00079F583E08A838AE289834FB7F894DE0138
:1051B000139620E03EE051E2E32FF0E050935700D9
:1051C000E49120FF03C0E295EF703F5FEF708E2FF8
:1051D00090E0EA3010F0C79601C0C0968D939D9381
:1051E0002F5F243149F74FBF8091E800877F80937C
:1051F000E8006AE270E0CE0101960E94702516C0B8
:105200006091FA027091FB02AE014F5F5F4F0E9406
:10521000B424BC01892B09F441C09091E800977F28
:105220009093E80089819A810E94CB258091E800C3
:105230008B778093E80032C0803881F58091E80058
:10524000877F8093E8008091F1028093F100809144
:10525000E8008E7772CF811121C08091F802909181
:10526000F90299270297D4F48091E800877F809310
:10527000E8008091F8028093F1020E945E268091FE
:10528000F102811106C08091E30087FD02C081E038
:1052900001C084E08093F5020E94A2238091E8007F
:1052A00083FF0AC08091E800877F8093E8008091A7
:1052B000EB0080628093EB00AA960FB6F894DEBFF5
:1052C0000FBECDBFDF91CF911F9108950895CF9369
:1052D0008091F5028823A1F0C091E900CF709091F0
:1052E000EC00892F817090FD80E8C82B1092E900B6
:1052F0008091E80083FD0E940628CF70C093E900EA
:10530000CF910895002480FD060E660F11F086955A
:10531000D1F7802D08950024552704C0080E591F89
:10532000880F991F009729F076956795B8F3710556
:10533000B9F7802D952F0895EE27FF27AA27BB27C1
:1053400008C0A20FB31FE41FF51F220F331F441F15
:10535000551F969587957795679598F37040A9F7AF
:10536000009799F7BD01CF01089587FB082E062607
:1053700087FD819567FD61950E94132A0EF4919532
:1053800007FC81950895AA1BBB1B51E107C0AA1F0A
:10539000BB1FA617B70710F0A61BB70B881F991FD6
:1053A0005A95A9F780959095BC01CD01089597FB7A
:1053B000072E16F4009407D077FD09D00E94C32968
:1053C00007FC05D03EF4909581959F4F0895709508
:1053D00061957F4F0895A1E21A2EAA1BBB1BFD0108
:1053E0000DC0AA1FBB1FEE1FFF1FA217B307E407C4
:1053F000F50720F0A21BB30BE40BF50B661F771F1C
:10540000881F991F1A9469F76095709580959095FB
:105410009B01AC01BD01CF010895EE0FFF1F059068
:10542000F491E02D0994991B79E004C0991F961717
:1054300008F0961B881F7A95C9F780950895FC019E
:105440004150504030F001900616D1F73197CF010E
:105450000895882799270895FB01DC0104C08D91E8
:105460000190801921F441505040C8F7881B990BD6
:105470000895F999FECF92BD81BDF89A992780B51C
:105480000895A6E1B0E044E050E00C94732AA8E14E
:10549000B0E042E050E00C94732A262FF999FECF39
:1054A00092BD81BDF89A019700B4021639F01FBA77
:1054B00020BD0FB6F894FA9AF99A0FBE0895039694
:1054C000272F0E944E2A0E944D2A252F0E944E2AE5
:1054D000242F0C944E2A0196272F0E944E2A0C94BA
:1054E0004D2ADC01CB01FC01F999FECF06C0F2BDCB
:1054F000E1BDF89A319600B40D9241505040B8F792
:065500000895F894FFCFAE
:10550600C8002902010102000E000E0E01191A1B25
:105516001C1D1E1F202122152319238D2389238557
:1055260023182301E200E900EA00B500B600B7003F
:10553600CD008301CC008A0192019401210223024D
:1055460024022502260227022A02B300B4006F00B5
:105556007000818283E200E900EA00B500B600B778
:1055660000CD008301CC008A01920194012102231F
:105576000224022502260227022A02B300B4006F83
:10558600007000818283343536336232969293946A
:105596009531656466673700010202020206060657
:1055A6000909090909090F0F0F0F0F0F151515180E
:0C55B600191919191919191919192324A8
:00000001FF
