:100000000C949A010C94D2010C94D2010C94D2015C
:100010000C94D2010C94D2010C94D2010C94D20114
:100020000C94D2010C94D2010C94921D0C94661E77
:100030000C9463180C94D2010C94D2010C94D2014C
:100040000C94D2010C94D2010C94D2010C94D201E4
:100050000C94D2010C94EA180C94D2010C94D201A5
:100060000C94D2010C94D2010C94D2010C94D201C4
:100070000C94D2010C94D2010C94D2010C94D201B4
:100080000C94D2010C94D2010C94D2010C94D201A4
:100090000C94D2010C94D2010C94D2010C94D20194
:1000A0000C94D2010C94D2010C94D2012A001400B9
:1000B0001A000800150017001C0018000C001200A0
:1000C00013002A002B0004001600070009000A0094
:1000D0000B000D000E000F0028000000E1001D00C5
:1000E0001B00060019000500110010003600370043
:1000F000380000000000E300E0002A420000000099
:100100002C410000E600E7000000000001001E0096
:100110001F002000210022002300240025002600CB
:100120002700010035001E021F02200221022202C8
:100130002302240225022E002D00000001003102BE
:10014000310026022F0033003302300027022E0236
:100150002D0200000100010001000100000000006C
:10016000010000000100010001000000005C01002E
:100170004A0052004D004B003A003B003C003D005D
:100180002A00010001000100500051004F004E0004
:100190003D003E003F0040002B00000082000100B7
:1001A000AC00AE00AB00010042004300440045003B
:1001B0002800000001000100010001000000000013
:1001C00001000000010001000100000010037300A5
:1001D00079006E00610070007300650000000C0380
:1001E000640072006D006D007200000004030904D9
:1001F00009023B00020100A0FA090400000103010A
:1002000001000921110100012240000705810308B6
:10021000000109040100010300000009211101008F
:100220000122B6000705820320000112010002002E
:100230000000087071595301000102000105010915
:1002400002A10185020901A100050919012908156A
:100250000025019508750181020501093009311554
:1002600081257F95027508810609381581257F95BE
:100270000175088106050C0A38021581257F950154
:1002800075088106C0C005010980A1018503190117
:100290002AB700150126B700950175108100C00529
:1002A0000C0901A101850419012AA002150126A04B
:1002B00002950175108100C005010906A10185069E
:1002C000050719E029E71500250195087501810248
:1002D0000507190029EF1500250195F07501810228
:1002E0000508190129059505750191029501750308
:1002F0009101C005010906A101050719E029E715CB
:100300000025019508750181029501750881010597
:1003100007190029FF150026FF00950675088100C2
:1003200005081901290595057501910295017503C7
:100330009101C00011241FBECFEFDAE0DEBFCDBFB8
:1003400004B603FE18C08091C0029091C102A09132
:10035000C202B091C3028730904BA740B04B59F412
:100360001092C0021092C1021092C2021092C302F7
:10037000E0E0F8E3099511E0A0E0B1E0E4ECF1E49D
:1003800002C005900D92AE39B107D9F722E0AEE96F
:10039000B1E001C01D92A03CB207E1F70E9410112C
:1003A0000C94CA200C9400001F93CF93DF93182F56
:1003B000C62F0E941615D82F882389F0113039F4E2
:1003C00089EFC11109C08AEF0E941C0408C01111F5
:1003D00006C0CC2349F089EA0E941C04DC2F8D2F33
:1003E000DF91CF911F9108958AEAEECF81E00895C1
:1003F00081E008950E94F801089508950E94FD018A
:100400000895A5E0B0E0E7E0F2E00C9436204983DF
:100410005A833091A50189819A81311119C06623CF
:1004200099F0222389F00E94DC07182F682F898118
:100430009A810E94B80769817A81812F0E94750E86
:100440002596E3E00C9452200E94CA07182FF3CFA0
:100450000E94DC0769817A81F1CFFC01262F40815F
:1004600051816281738184810E940102089581E03B
:100470000895CF93DF93EC0160E00E942D02BE014E
:100480000E94FE01DF91CF9108950E94B50F08955B
:100490000E94B90F089508950E9483060E944B029E
:1004A0002FEF84E39CE0215080409040E1F700C0B2
:1004B000000008950E944C020E940E1908950E94A7
:1004C0004C020E94321908950F931F93CF93DF932C
:1004D0008C0161E00E942D02EC01B8010E94FA013A
:1004E000811106C080E0DF91CF911F910F91089597
:1004F000B801CE010E9494168823A1F3B801CE0161
:100500000E94A113882371F3B801CE010E94061640
:10051000882341F3F8018281882361F0CB35FDE522
:10052000DF0701F158F4C115ECE5DE0791F0CF3D8E
:10053000DC4591F0C8010E94F601D5CFCD358DE59F
:10054000D80769F090F0C83ADD45A1F70E945F0234
:10055000C9CF0E945A02C6CF0E94960CF7CF0E94C4
:10056000D40BE8CF0E94DE0BE5CF0E94E20BE2CF76
:100570000E943F180E94D50208950E94D9020E944D
:100580004418089508950E94C202089581E00895D4
:100590000E94C60208950895CF93C82F0E94C302F7
:1005A0008C2F0E94C802CF91089580E00E94CC0257
:1005B00008950E94F0160E94CC020895CF930E94E5
:1005C000F016C82F8091A0018C1779F0C093A0017C
:1005D0000E94CF186093A1017093A2018093A301A0
:1005E0009093A4018C2F0E94CC02CF910895ABE090
:1005F000B0E0EDEFF2E00C9437204F835887698725
:100600007A878B8761110E941F0B1E821D8285E0F5
:10061000FE013796DE01119601900D928A95E1F761
:100620008C819D81892B61F449815A816B817C8108
:100630008D819E810E94480A2B96E2E00C94532003
:1006400089819A8189238F3F79F3CE0101960E9497
:1006500037028111E9CFF0CFFC01808191810E94A6
:100660000E080895CF93C82F8823A9F08238A9F4E3
:1006700089E30E94D70A0E94400B2FEF87EE93E098
:10068000215080409040E1F700C0000089E30E94C3
:10069000DF0A0E94400BCF910895833881F483E5EF
:1006A0000E94D70A0E94400B2FEF81EE94E0215068
:1006B00080409040E1F700C0000083E5E8CF843837
:1006C00081F487E40E94D70A0E94400B2FEF81EE4D
:1006D00094E0215080409040E1F700C0000087E4A2
:1006E000D6CF8CEF8C0F813A90F46C2F8091000163
:1006F000909101010E946517882329F08C2F0E9498
:10070000DF0A0E94400B8C2F0E94D70AC2CF80E2E2
:100710008C0F883048F4C77081E001C0880FCA95FB
:10072000EAF70E94020BB5CFEBE5EC0FE33040F4A3
:10073000F0E0EB5BFE4F808190E00E942517ABCF8D
:10074000E8E5EC0FE73150F4F0E0EE0FFF1FE95E53
:10075000FE4F808191810E943B179DCFCD3E08F4D2
:100760009ACF8C2F0E9494110E94671294CF8823F5
:1007700009F449C0823859F489E30E94D70A0E94DB
:10078000400B89E30E94DF0A0E94400B08958338E2
:1007900039F483E50E94D70A0E94400B83E5F2CF2B
:1007A000843839F487E40E94D70A0E94400B87E41A
:1007B000E9CF9CEF980F913A28F390E2980F983088
:1007C00050F4877091E001C0990F8A95EAF7892F5C
:1007D0000E94080BD9CF9BE5980F933028F490E046
:1007E00080E00E942517089598E5980F973128F426
:1007F00090E080E00E943B1708958D3E20F00E941B
:10080000EE110E94671208951F93CF93DF93182F64
:10081000EB010E943203209739F4812F0E94B70325
:10082000DF91CF911F9108958FE99FE00197F1F734
:1008300000C000002197EFCF70E060E0893311F431
:1008400060E570E00E9404040895882321F00E946E
:10085000020B0E94400B0895882321F00E94080B90
:100860000E94400B0895B0E0A0E0E9E3F4E00C94AE
:1008700030206C01D62FC72FFC011281F580F29435
:100880009FE0F9220E94F80AE82E8823B9F0E12EB1
:100890001123A1F08C2F807F803421F080E28D0F16
:1008A0008830D0F080919E0282FF16C082E00E94C4
:1008B000A30B0E94F80A91E0E82EE926BC2EB29420
:1008C0008FE0B822FBE0FB1508F468C0EB2DF0E0E8
:1008D000E453FF4D0C942120E12CF0CF0C2F0F702E
:1008E000C07F11F00295007F112399F0002359F089
:1008F00080E28D0F883010F0D11107C0802F0E9448
:10090000020B0E94400B8D2F41C0802F0E94120BC2
:10091000F8CF8D2F0E94B703002309F43FC080E277
:100920008D0F883010F0D11104C0802F0E94080B69
:1009300003C0802F0E94180B0E94400B2FC00C2F69
:100940000F70C07FC03211F00295007FDD2381F06F
:10095000D13009F463C0112309F46DC0FF2009F4FC
:1009600063C0F601858180FFCECF8F7085835CC028
:1009700080919E0282FD33C0112359F0002329F09B
:10098000802F0E94020B0E94400B80E00E943203E5
:1009900005C080E00E94B7030111C7CFEB2DE850DE
:1009A000FF0B349720F40E94F0160E94CC02EE2038
:1009B00089F00E94F40A80FD0DC0F60112820E94A7
:1009C000EE0A0E941607C6010E9443060E94EE0A24
:1009D0000E942607CDB7DEB7E9E00C944C20112326
:1009E00089F0F11006C00E94220B802B0E94250482
:1009F000D5CF21E0F212F7CF0E94220B802B0E946C
:100A0000290BCCCFF11006C00E94360B802F0E941C
:100A10002C04C4CF31E0F31609F2F6CF112331F0E4
:100A200085E08F1508F4BACF802FE0CF94E09F15B2
:100A300008F4B4CFEBCFFF2049F3D93349F4FFEFEB
:100A400027EE33E0F15020403040E1F700C00000D5
:100A50008D2F0E94B703A2CF8C2F86958695837029
:100A600069F0813009F09ACF8D2F9C2F937011116E
:100A700002C090E080E00E943B1790CF8D2F9C2F0A
:100A80009370111102C090E080E00E94251786CF7C
:100A90008D2F112329F00E9494110E9467127ECF9E
:100AA0000E94EE11FACF8C2F8370A1F5111176CF31
:100AB0004D2F429546954770440F440F2D2F2F70B0
:100AC00030E0042E02C0220F331F0A94E2F790E0B8
:100AD00080E0D4FF09C08FE090E002C0880F991F2A
:100AE0004A95E2F780959095C695C695C370822B7E
:100AF000932BC23049F058F4C13019F00E94E4063B
:100B00004DCF0E94DB064ACF0E94ED0647CF0E94E0
:100B1000D80644CF8695112311F08C2F817088233D
:100B200009F43CCF4D2F429546954770440F440F32
:100B30002D2F2F7030E0042E02C0220F331F0A9495
:100B4000E2F790E080E0D4FF09C08FE090E002C0BF
:100B5000880F991F4A95E2F780959095C695C6959E
:100B6000C370822B932BC23049F058F4C13019F076
:100B70000E94510713CF0E94480710CF0E945A07C6
:100B80000DCF0E94FC060ACFCF70112329F08C2FC5
:100B90000E9416078D2F2ACF8D2F0E942C048C2F98
:100BA0000E942607FBCED23F51F160F4D03FB9F04E
:100BB000D13F81F0112309F449C0F110A4CE8C2F4C
:100BC0008F7121C0D33F11F1D43FA1F780919E02D4
:100BD00082FD26C08C2F8F71112311F314C01123B5
:100BE00049F084E08F1508F4D9CE8C2F8F710E94C4
:100BF0003807D4CE95E09F1508F4D0CEF6CF8C2FD1
:100C00008F711111CDCF0E941607C8CE112329F084
:100C10008C2F8F710E940A07C1CE0E940507BECE9D
:100C2000112349F0CF718C2F0E94160763E08C2F9F
:100C30000E94850BB3CE81E00E94A30BE1E0EF158B
:100C400008F0ACCE82E00E94A30BA8CEF110F5CE46
:100C50008C2F8F71A5CF0F931F93CF93DF93EC0150
:100C6000688179818A810E9419088C010E9463073A
:100C70000E94D706B801CE010E943304DF91CF91C4
:100C80001F910F910895CF93DF93EC018B819C818D
:100C9000892B29F08881998189238F3F51F4DF9135
:100CA000CF910895CE010E942B06CE010E943902F9
:100CB000F6CFCE010E9464028111F4CF0E94F80A9F
:100CC000882369F38A81882351F380919E0282FFF1
:100CD000E6CF82E00E94A30BE2CF90E080E00E948A
:100CE000251790E080E00E943B170E941F0B0E9496
:100CF000400B0E9483120E94671208950E94E70A27
:100D00000E946D0608950E940F0B0E947E060895B2
:100D100092959F70963091F058F4925F9F70923048
:100D200058F4803F19F030F4883E30F481E00895A3
:100D30009A5FF4CF843FD1F380E00895883EB0F30A
:100D4000813FD1F7F3CFFC0183819481892B29F076
:100D50008081918189238F3F11F480E00895808103
:100D600091810E940E080E9488060895A5E0B0E0D7
:100D7000ECEBF6E00C9437202596E2E00C9453203F
:100D8000A6E0B0E0E6ECF6E00C9437202696E2E030
:100D90000C94532008950E94CA0608950E94CB0621
:100DA0009093C1018093C0010E946D06089508953B
:100DB0000E94CE0608952091C0013091C101822B7E
:100DC000932B0E94CE0608952091C0013091C1015D
:100DD000822393230E94CE0608952091C001309172
:100DE000C101822793270E94CE0608950E94CA0659
:100DF00008950E94F60608950E94F9069093BF0197
:100E00008093BE010E946D06089590E080E00E94EC
:100E1000FC06089521E030E0A90102C0440F551FEF
:100E20008A95E2F7CA010E94FC06089521E030E0AD
:100E300002C0220F331F8A95E2F78091BE01909184
:100E4000BF01822B932B0E94FC06089521E030E025
:100E500002C0220F331F8A95E2F7209530958091CA
:100E6000BE019091BF01822393230E94FC06089546
:100E700021E030E002C0220F331F8A95E2F7809113
:100E8000BE019091BF01822793270E94FC0608951E
:100E90002091BE013091BF01822B932B0E94FC0652
:100EA00008952091BE013091BF01822393230E94B7
:100EB000FC0608952091BE013091BF01822793273F
:100EC0000E94FC0608950895262F277091E001C026
:100ED000990F2A95EAF723E0769567952A95E1F729
:100EE000660F771F660F771FFA01E60FF71F50E0B6
:100EF00040E0682F70E08191DF0111979B01042E83
:100F000002C0369527950A94E2F72170219528278B
:100F1000292328272C934F5F5F4F4430510559F701
:100F20000895A82FA77023E0969587952A95E1F755
:100F3000880F991F880F991FFB01E80FF91F50E0D8
:100F400040E080E0219130E00A2E02C036952795DE
:100F50000A94E2F721703327042E01C0220F0A946D
:100F6000EAF7822B4F5F5F4F4430510559F70895E0
:100F7000262F943070F48C3060F4682F70E08CE091
:100F8000989F600D711D112446EA51E0822F0E9446
:100F900064070895292F943068F48C3058F490E059
:100FA00066EA71E03CE0239F800D911D11240E94B0
:100FB0009107089580E00895B0E0A0E0E2EEF7E048
:100FC0000C9430207C010091BE011091BF018091F2
:100FD000C0019091C101082B192BCFE0D0E0CC24A7
:100FE000C394D12CBC2EC6010C2E02C0880F991FB1
:100FF0000A94E2F780239123892B49F4219790F7F3
:10100000B12C8B2DCDB7DEB7E9E00C944C20B701A5
:101010008C2F0E94900E019789F3F3CFCF93DF932B
:10102000EC010E94DC07BE010E94900EDF91CF917F
:1010300008951F93CF93DF93EB019091A50199231E
:1010400039F0CB010E940E08DF91CF911F910895D6
:10105000882369F0CB010E94DC07182F682FCE018E
:101060000E94B807BE01812F0E94900EEDCFCB01E8
:101070000E94CA07182FF6CF1F93CF93DF93C0911A
:10108000C20116E08091C3018C1304C0DF91CF919F
:101090001F910895D0E01C9FF0011D9FF00D1124B9
:1010A000EC53FE4F4081518162817381848195812F
:1010B0000E94C0062196C770E5CF4091F40150917F
:1010C000F5016091F6017091F7018091F80190911E
:1010D000F9010E94C00608951F93CF93DF9380917A
:1010E000F901807F09F049C08091F601882309F455
:1010F00044C08091C201C091C3016091F40170911C
:10110000F501A091F701B091F801D62FD72316E091
:10111000C81799F190E0109711F0DF3F19F401968C
:101120008770F6CF189F9001199F300D1124F90197
:10113000EC53FE4F41814713F2CF40814613EFCF6E
:1011400042814111ECCF438154814A1B5B0B483CE7
:10115000510528F78091F9018F7080618093F90122
:10116000F901E753FE4F80818F708061808384EFA7
:1011700091E00E9443060E943C08DF91CF911F91AD
:101180000895A1E1B0E0E7ECF8E00C942F208C0189
:1011900085E0F801DE011D9601900D928A95E1F738
:1011A000F801E28084EFC82E81E0D82E6091F7012B
:1011B0007091F8016115710509F44EC19091F40127
:1011C0002091F501892F82238F3F09F445C1408189
:1011D0005181A380B480F090F601F501E61BF70B76
:1011E000FF2009F4EAC08091F901382F307FE83CF4
:1011F000F10508F0A3C031116DC0FE2C251316C0F7
:10120000941314C0E11012C08F7080618093F901B3
:101210000E945D08C6010E9443068091F901F80111
:1012200085838F2D6196EAE00C944B20A114B104C4
:1012300029F0842F85238F3F09F027C180E0F82F04
:10124000F170DF2E80FF3CC08091C2012091C3016C
:1012500036E0821315C04D875E878D859E850E947E
:101260000E08292F22952F702230F0F0243018F527
:101270009F70F1F0F8019581907FD1F4D12C1EC0C0
:1012800090E0389FF001399FF00D1124EC53FE4F90
:101290006181651306C06081641303C06281E61238
:1012A0000FC001968770D5CF9F7011F0882331F35E
:1012B000805E883018F3C8010E944306FD2CB1CF30
:1012C000EE2009F4AECF8091F90181608093F9019D
:1012D000F12CA7CF251306C0941304C0F801EE200B
:1012E00009F487C0C8010E94A306882319F1EE20E3
:1012F00009F18091F901803270F02091F401309170
:10130000F50138872F831986BB86AA868C87CE0184
:1013100007960E94430686E0F801A4EFB1E0019031
:101320000D928A95E1F70E946C080E945D08FF24E7
:10133000F39477CFC8010E944306F9CF311113C04F
:101340007A2DB98AA88A6E2D89890E94B60684EF03
:1013500091E00E94430686E0F60111928A95E9F732
:101360000E945D08B5CF25130FC094130DC0E11086
:101370000BC0F8018583C8010E94430686E0F60190
:1013800011928A95E9F74DCFC8010E94A3068823E0
:1013900089F2EE2079F28091F901803208F4BBCF16
:1013A0002091F4013091F5013A8329831B82BD829B
:1013B000AC828E83CE010196ACCFE83CF10508F0FB
:1013C0003EC0FE2CEE2009F4B5CF25132AC094139D
:1013D00028C08091F90180FD1BC0982F907FC1F03B
:1013E000F8018583903F31F0982F907F905F8F7048
:1013F000892B8583C8010E94430686E0F801A4EF8B
:10140000B1E001900D928A95E1F70E945D0809CF45
:1014100086E0F801A4EFB1E001900D928A95E1F722
:1014200000CFC8010E94A306811175CF8091F901F8
:1014300081608093F901C8010E944306F2CE7A2DA3
:10144000B98AA88A6E2D89890E94B60686E0F601BF
:1014500011928A95E9F7D9CFEE2009F46BCFC80134
:101460000E94A306F82E882309F464CF86E0F801D1
:10147000A4EFB1E001900D928A95E1F784EF91E03D
:101480000E942C030E946C08C0CF81E08E25D7CE2D
:10149000ACE0B0E0EEE4FAE00C9436204F835887DD
:1014A00069877A878B879C87CE0107960E94C1083F
:1014B000882369F08A859B85892B39F04F8158856F
:1014C000842F85238F3F09F06BC016E05FC086E054
:1014D000FE013796DE01119601900D928A95E1F793
:1014E0008A859B85892B89F388859F8189238F3FF6
:1014F00061F32091C30130E0C901019687709927FB
:101500004091C2014817190671F40E948306109297
:10151000C3011092C20186E0E4EFF1E0DF011D9209
:101520008A95E9F7D2CF96E0929FD001939FB00DB4
:101530001124AC53BE4FFE01319601900D929A9545
:10154000E1F78093C3010E943C08BFCF819FC00197
:1015500011248C539E4F0E94C1088823E9F0E0912A
:10156000C2011E9FF0011124EC53FE4F40815181B6
:1015700062817381848195810E94C0068091C2013D
:1015800090E00196877099278093C2018091C201F3
:101590009091C3018913DACF2C96E3E00C9452208A
:1015A00069857A858B859C850E94C0068ECF682FC1
:1015B00080910001909101010E94E5170895682F24
:1015C00080910001909101010E94F317089580918C
:1015D0000001909101010E940118089580911A0262
:1015E000859585958595089580911A02877008954F
:1015F00090911A02977081E009F480E0089580913B
:101600003D02089590913D02892B80933D020895FB
:10161000809590913D02982390933D0208951092F9
:101620003D02089590913C02892B80933C020895DD
:10163000809590913C02982390933C0208951092DB
:101640003C02089580911B02089508950E94250B85
:10165000089590919E0292FF08C090911B029817E6
:1016600021F080931B020E94260B089580911B029B
:10167000882329F010921B0280E00E94260B089517
:10168000CF93DF93E0910001F091010180913D0241
:101690008083E0910001F0910101808190913C02F2
:1016A000892B808390911B02992381F0E0910001A6
:1016B000F09101018081892B8083809100019091BC
:1016C00001010E94511781110E94360BC091000147
:1016D000D091010140E250E06AEF71E0CE010E943A
:1016E0007220892B59F080E2FE01AAEFB1E001904F
:1016F0000D928A95E1F7CE010E94FD16DF91CF9100
:10170000089508950E94810B089590919E0292FF82
:1017100011C098E0899F90011124622B60931A02F6
:101720000E94160780911A028595859585950E94DD
:10173000820B08950E941607089510921A0280E005
:101740000E94820B089590911A02809589238093BC
:101750001A02282F277091F4282F082E000C330B23
:101760009217130659F090919E0292FF07C085953B
:10177000859585950E9426070E949D0B089590915E
:101780009E0292FB222720F9281769F080FB92F92C
:1017900090939E0280919D0290919E020E94100C57
:1017A00082E00E94A30B089580919E0282FB88270D
:1017B00080F991E089270E94BF0B089581E00E9483
:1017C000BF0B089580E00E94BF0B08956FEF7FEF7D
:1017D00090E080E00E94B420089590E080E00E94B4
:1017E000902021E0883E9E4F09F020E0822F08954E
:1017F00082E090E00E948820089583E090E00E94BB
:1018000088200895CF9384E090E00E948820C82F1C
:1018100082E290E00E948820982F8C2FCF9108952B
:10182000CF93C92F682F84E090E00E9496206C2F00
:1018300082E290E00E949620CF910895AB01BC0116
:101840008FE090E00E94A8200895AB01BC0183E1E5
:1018500090E00E94A820089560E070E0CB010E9413
:10186000250C089560E070E0CB010E941E0C0E94E0
:101870002C0C089568EE7EEF90E080E00E94B4208A
:1018800060E082E090E00E94962060E083E090E0DB
:101890000E9496201092C1011092C00160E084E085
:1018A00090E00E94962064E082E290E00E94962000
:1018B00060E085E090E00E94962060E086E090E0A5
:1018C0000E9496206FEF87E090E00E94962040E013
:1018D00050E0BA0188E090E00E94A82060E08DE02E
:1018E00090E00E94962040E050E0BA0188E190E04C
:1018F0000E94A82060E087E190E00E94962040E0EE
:1019000050E0BA018CE190E00E94A82070E060E015
:1019100080E290E00E94B42040E050E0BA0188E10B
:1019200090E00E94A8200E94320C08950E943A0C78
:101930000895682F8EE090E00E94962008950E94FE
:10194000CF1860935002709351028093520290938B
:10195000530260934C0270934D0280934E02909319
:101960004F0208950E94CF18609350027093510265
:1019700080935202909353026093480270934902FD
:1019800080934A0290934B020895089508950E940F
:10199000C60C089508950E94CA0C08958AE79FE036
:1019A0000E94E6160E94C50C0E94C70C089581E0B3
:1019B00008950E94D70C0895089508950E94DC0CA4
:1019C0000E94DD0C08950E94960F0E94CB0208959C
:1019D0000E94BA180E9471100E94E30C0E94181510
:1019E0000E94CB0C0895AAE0B0E0E9EFFCE00C9473
:1019F0002C200E94871020E4822E22E0922E640187
:101A000010E0F601E190F1906F01812F0E94BC0F70
:101A10001F5F143009F449C0E816F90691F380916C
:101A2000540281FD0E94C50F0E94D90C782E10E04F
:101A3000812F0E94BC0F7C01F401A190B1904F0155
:101A40008A159B0561F100E0CC24C394D12CAE240F
:101A5000BF24C5018C219D21892BC1F07720B1F0D5
:101A60000E831F8321E0C7018C219D21892B09F45E
:101A700020E028870E94C3188160782F9A87898781
:101A80004E815F8168858A850E94F7020F5FCC0CCA
:101A9000DD1C0C30F1F6F4013297F182E0821F5F19
:101AA000143031F60E949F0C22C0E816F90609F0A6
:101AB000B6CF0E94C3188C0180913E0290913F02E4
:101AC00008171907A1F08FEF89838A831B820E9470
:101AD000C3188160782F9D838C8349815A816B81E3
:101AE0008D810E94F70210933F0200933E020E94F4
:101AF000891581110E94B20C0E94A5120E94DE027B
:101B00002A96EDE00C944820CF93DF930E94950E27
:101B1000EC01811521E5920708F042C0811530E5FE
:101B2000930708F09FC0883E910530F5803E9105EF
:101B300008F094C0883A910588F4853A910508F038
:101B400086C08130910509F489C0009709F486C0E8
:101B5000049708F083C0D0E0C0E080C08F3B9105BF
:101B6000D0F7C85AD0E0CC0FDD1FC85BDE4F09901C
:101B7000D881C02DD46472C0811540E2940750F41E
:101B8000C11581E0D80708F069C0CD3ED10518F332
:101B9000D06564C081159044F0F2DF70D06A5EC0F9
:101BA000811535E5930718F5811544E5940708F08C
:101BB00085C0C11583E5D80708F06CC0C11522E5C2
:101BC000D20708F462C0CE018370992721E030E08B
:101BD00002C0220F331F8A95E2F7C695C69580E2B0
:101BE000C89FE0011124C22BD32BDC6837C08115BC
:101BF00039E59307A8F4811548E5940708F063C018
:101C0000C11586E5D80708F0A6CF8C2F0E94370FA4
:101C1000C82FD0E0DC2FCC27CC27DF71D0621EC0CC
:101C200081152AE5920708F453C090568115904219
:101C300008F091CF8D2F8F710E94370F90E0982F71
:101C4000882788279F719C012C2BE901E7CFC55A73
:101C5000D0E0CA58DE4FC881D0E0D064CE01DF9119
:101C6000CF9108958370992721E030E002C0220FC0
:101C7000331F8A95E2F7C695C69540E2C49FE001FE
:101C80001124C22BD32BDD68E9CFDC2FCC27C16F09
:101C9000D06AE4CFCE018370992721E030E002C002
:101CA000220F331F8A95E2F7C695C69540E2C49F7E
:101CB000E0011124C22BD32BDA68D0CFD82FCC2748
:101CC000C46FD06ACBCFD82FCC27C06FD06AC6CF15
:101CD0008F700E94370F34E0D695C7953A95E1F79B
:101CE000CF709C2FEC01D069B9CF972F7430A8F436
:101CF0006C3098F470E02CE0929F600D711D1124FF
:101D0000FB0190E3899FE00DF11D1124EE0FFF1FF1
:101D1000E455FF4F85919491089580E090E00895F7
:101D20000E94750E0E94840D089582389105B9F1C4
:101D3000B0F48133910509F47DC048F489329105EE
:101D400009F46DC08A32910509F47BC0089585338A
:101D5000910509F45FC08933910509F10895833E27
:101D60009105D9F138F4803E910529F1823E910523
:101D700079F10895863E9105D9F1873E910509F4E0
:101D80003EC0843E910541F520919E0221FF24C072
:101D900080919D0284FD19C087EE90E00895209106
:101DA0009D02237009F05AC020919E0223FF14C0A7
:101DB00089E290E0089520919D0220FD38C0309185
:101DC0009E0230FF09C024FF43C090E080E00895E8
:101DD00020919D0222FDF7CF089520919D0222FDC2
:101DE0003AC030919E0230FD39C024FFF5CFEDCFCF
:101DF00020919D0223FFF0CF24FDE7CFCDCF20918E
:101E00009D0223FD2EC030919E0231FFEECF84EE65
:101E100090E0089520919D0225FFDECFC9CF20914B
:101E20009D0225FD21C020919E0223FFD5CF89E38D
:101E300090E0D2CF20919D0226FFCECF8AE290E0A3
:101E4000089520919D0226FFC7CF81E390E0089579
:101E500083EE90E0089582EE90E0089580EE90E0A9
:101E6000089586EE90E0089585E390E008959091BE
:101E70009D0292FF06C0282F28712830F9F4877F31
:101E8000846093FF06C0282F28712831F1F4877EE3
:101E9000846120919E0220FF06C0382F38713830AF
:101EA000D9F4877F816021FF06C0282F287128314F
:101EB000D1F4877E816194FD877E0895282F247157
:101EC0002430F9F68B7F8860DCCF282F24712431F1
:101ED00001F78B7E8861DDCF382F3171313019F7F2
:101EE0008E7F8860E0CF282F2171213121F78E7EEF
:101EF0008861E1CF80E008950E94E60B08950E947A
:101F000087108FE39CE90197F1F700C000000E9461
:101F1000871080E00E94BC0F80FF04C00E947C0FED
:101F20000E940E1908950E947F0F08950E94ED0BE4
:101F3000811102C00E94960C0E94F80B80935402FB
:101F40000E94020C90939E0280939D020E94930F28
:101F50000E94FD0B90E00E94D8068091BE019091F6
:101F6000BF010E94F906089508950E94B40F0895D4
:101F700008950E94B80F0895E82FF0E0EE0FFF1FBC
:101F8000E955FD4F808191810895089580EA8A95F1
:101F9000F1F7089500C008950E94C60F0895F894BF
:101FA000E82FE295EF70F0E031A1282F2F7081E04B
:101FB00090E001C0880F2A95EAF7982F9095932317
:101FC00091A392A1892B82A378940895CF93DF9354
:101FD00086EC0E94CF0F80E30E94CF0F84EF0E9417
:101FE000CF0F81EF0E94CF0FC9E7D1E089918F3FDA
:101FF00011F00E94CF0F81E0C538D807B9F7DF9103
:10200000CF910895AF92BF92DF92EF92FF920F931C
:102010001F93CF93DF938C01D62EC62FD0E0CE0135
:102020008B579E4F7C01FC0120812F3F09F44CC04F
:10203000F894E22FE295EF70F0E031A12F7081E08B
:1020400090E001C0880F2A95EAF7932F982B91A36F
:1020500092A18095892382A378940E94CA0FE9E710
:10206000F1E041E050E0B12CA12C21912F3FB1F1E2
:10207000A22FA295AF70B0E090968C9190E02F7057
:1020800002C0959587952A95E2F780FD27C0CA0181
:10209000A82AB92A440F551F81E0E538F80729F727
:1020A000F70180818F3F11F00E94CF0F61E0A114F2
:1020B000B10409F460E08D2D0E94CC0FCC0FDD1F20
:1020C000C00FD11FB982A882DF91CF911F910F91CC
:1020D000FF90EF90DF90BF90AF90089590E080E088
:1020E000D7CF0E94E60F88E0E7EAF2E0DF01982F01
:1020F0001D929A95E9F7EFE9F2E0DF011D928A95CA
:10210000E9F784E00E94C2100E9445020895A8E009
:10211000B0E0EDE8F0E10C9434208E010F5F1F4F2A
:1021200088E0F80111928A95E9F7F12C6F2DC8012A
:102130000E940210F394F4E0FF12F8CF48E050E060
:10214000B8018FE992E00E94722021E0009709F423
:1021500020E0892B41F088E0F801AFE9B2E001907E
:102160000D928A95E1F744E067EA72E08FE992E028
:102170000E94C310182F0E944802812F2896E5E084
:102180000C9450200895CF92DF92EF92FF921F930C
:10219000CF93DF936C017B01C42F222349F081E0B0
:1021A000809357020E94C318909356028093550261
:1021B0001091570211110AC010E0812FDF91CF91C9
:1021C0001F91FF90EF90DF90CF900895809155027E
:1021D000909156020E94DB18059770F3D0E0CC0F67
:1021E000DD1FAE01B601C7010E947220892B41F0AC
:1021F000AE01B601C7010E947F2010925702DDCFC9
:1022000010E0FBCF0E94E81A0E94E80C0E94F51A29
:1022100008950E94FA1A0E94F30C0E94141B08955C
:102220000E945C180E94CE1A0E94CE0C0E940211DD
:102230000E9409110E94DE0CFBCF80915E0280FF9C
:102240000DC06091070170E0660F771F603871055F
:1022500070F56115710569F1862F089581FF07C03A
:102260006091070184E0689FB0011124EFCF609175
:10227000070182FD0AC080915D028823A9F02091A8
:10228000060160910701821710F088E0ECCF869F6D
:10229000C001112433E0880F991F3A95E1F7622FAE
:1022A00070E00E940D20D2CF68E070E0D5CF8FE7BC
:1022B000089581E0089580915E0280FF0CC06091D6
:1022C000030170E0759567957595679561157105C2
:1022D00049F1862F089581FF06C06091030170E0E7
:1022E00075956795F3CF6091030182FD0BC09091C6
:1022F0005C029923A1F0609102018091030196177D
:1023000038F0682F70E06038710500F38FE70895AA
:10231000899FC001112470E00E940D20F4CF61E07C
:1023200070E0D7CF81E008958D3E31F40E941D11F9
:1023300081958093620208958E3E19F40E941D11CA
:10234000F8CF8F3E31F40E941D1181958093610278
:102350000895803F19F40E941D11F8CF893F29F498
:102360000E945B118093630208958A3F21F40E94CA
:102370005B118195F7CF8B3F31F40E945B11819502
:102380008093640208958C3F19F40E945B11F8CF8A
:102390009FE0980F983070F4815F990B21E030E056
:1023A00001C0220F8A95EAF780916002822B809308
:1023B000600208958D3F31F480915E0281608093C8
:1023C0005E0208958E3F21F480915E028260F7CF15
:1023D0008F3FB9F780915E028460F1CF4091610236
:1023E0008D3E59F48091620287FF0DC01092620207
:1023F00041110BC010925D0208C08E3E81F48091A5
:10240000620218169CF3442381F08091630290913C
:102410006402892B09F05AC010925C0208958F3E25
:1024200049F447FFF0CF109261028091620281115E
:10243000ECCFE0CF803F19F41416ACF3E4CF9091C9
:102440006302893F29F41916F4F610926302DBCF78
:102450008A3F19F497FFD7CFF8CF909164028B3F52
:1024600029F497FFD0CF10926402CDCF8C3F19F49E
:102470001916CCF3C8CF9FE0980F983090F4815F85
:10248000990B21E030E0B90102C0660F771F8A95F1
:10249000E2F7CB01809590916002892380936002DE
:1024A000B2CF8D3F31F480915E028E7F80935E02C9
:1024B000AACF8E3F21F480915E028D7FF7CF8F3FB0
:1024C00009F0A1CF80915E028B7FF0CF08950E942A
:1024D000C3189C019091610280916202982B21F0B7
:1024E00030935B0220935A029091630280916402C0
:1024F000982B21F030935902209358028FE592E0F7
:102500000E941717089586E0EFE5F2E0DF011D92C3
:102510008A95E9F710925D0210925C0210925E02B9
:102520000895FC01828181110EC0838181110BC04D
:102530008481811108C091E08581811101C090E002
:10254000892F8170089581E0FCCFA6E0B0E0EBEA2E
:10255000F2E10C94362086E0EFE5F2E0DE01119620
:1025600001900D928A95E1F7109261021092620239
:1025700010926302109264028B819C81892B89F0F6
:1025800080915A0290915B020E94DB18AC019091FD
:102590005D029923C9F1809108018417150608F49A
:1025A00040C08D819E81892B91F08091580290913D
:1025B00059020E94DB18AC0190915C02992309F446
:1025C00071C0809104018417150608F479C0BE011A
:1025D0006F5F7F4F8FE592E00E941318811105C055
:1025E0008FE592E00E94911281110E94671286E0AD
:1025F000FE013196AFE5B2E001900D928A95E1F7C8
:102600002696E3E00C945220209109018AE0289F4D
:10261000900111242417350720F69F5F90935D02E7
:1026200002C09F3FD1F71B81112359F00E941D1159
:102630009FEF11160CF491E0899F802D1124809357
:1026400061021C81112359F00E941D119FEF111688
:102650000CF491E0899F802D1124809362023091C7
:102660006102332309F49DCF20916202222309F4F1
:1026700098CF45EB3403C0011124992359F090936E
:10268000610245EB240390011124332339F0309388
:10269000620287CF81E080936102F3CF81E0809373
:1026A00062027FCF209105018AE0289F90011124CA
:1026B0002417350708F08BCF9F5F90935C0202C010
:1026C0009F3FD1F71D81112359F00E945B119FEFAD
:1026D00011160CF491E0899F802D112480936302E0
:1026E0001E81112359F00E945B119FEF11160CF40B
:1026F00091E0899F802D11248093640230916302C0
:10270000332309F464CF20916402222309F45FCFBC
:1027100045EB3403C0011124992359F090936302CF
:1027200045EB240390011124332339F030936402E4
:102730004ECF81E080936302F3CF81E08093640207
:1027400046CFCF93DF93EC01FB018281882309F40C
:1027500064C1C430FDE5DF07E0F5CB3F9CE5D90758
:1027600030F49E0122503C4524313105D8F50E94B9
:10277000020C90939E0280939D02C231ECE5DE072D
:1027800009F41FC108F06EC0C9308CE5D80709F400
:10279000F2C008F03FC0C530ECE5DE0709F4DBC04D
:1027A00058F5C3308CE5D80709F4CDC008F0CFC088
:1027B00080919D028160C230DC4509F4AEC08091F9
:1027C0009D0290919E020E94100C0E94830680E060
:1027D00009C0C63AEDE5DE0751F238F4C2369DE590
:1027E000D90729F2DF91CF9108959E012E5A3D45D8
:1027F00023303105B8F7BBCF80919D028062C7308E
:10280000FCE5DF0709F489C008F4B1C080919D029E
:10281000806483C0CD309CE5D90709F4BAC070F458
:1028200080919D028E7FCB30FCE5DF0709F475C0F7
:1028300008F4A7C080919D028D7F6FC0CF309CE5CA
:10284000D90709F4B6C008F4A8C0C031FCE5DF0719
:1028500009F4B3C0C131DC4509F0B1CF80919D02CC
:102860008F7B5BC0C1159DE5D90709F4B4C098F50D
:10287000CB3FFCE5DF0709F472C0B8F4C4319CE536
:10288000D90709F4B6C008F4A2C0C531DC4509F087
:1028900096CF80919D0282FB992790F921E09227A3
:1028A00090FB82F990FB83F938C0CD3F8CE5D807C7
:1028B00009F477C008F457C0CE3FECE5DE0709F411
:1028C00074C080919E028360CF3FDC4509F077CFD2
:1028D00080939E0274CFC2368DE5D80709F496C066
:1028E00068F4C230EDE5DE0709F48CC008F477C067
:1028F000C330DD4509F063CF80E085C0CE3A9DE569
:10290000D907E9F068F490919D02892F8E7F90FF9E
:102910008160C63ADD4509F052CF80939D024FCFCA
:10292000CF3A8DE5D80789F1C03BDD4509F047CFA7
:1029300090919E02892F877F93FF8860C9CF8091F5
:102940009E028860C5CF80919D028260E6CF809113
:102950009D028460E2CF80919D028860DECF8091ED
:102960009E028160B5CF80919E028260B1CF80913E
:102970009D028061D2CF0E94830680919D02806873
:10298000CCCF80919D028C60C8CF80919E02877FC2
:102990009FCF80919D028B7FC0CF80919D02877FCA
:1029A000BCCF80919E028E7F93CF80919E028D7FBF
:1029B0008FCF80919D028F7EB0CF80919D028F7DC1
:1029C000ACCF0E94830680919D028F77A6CF809125
:1029D0009D02837FA2CF80919E028C7F79CF8091D0
:1029E0009E02982F909591708E7F892B90FB81F994
:1029F0006FCF0E94830690919D02892F97FB87F9E4
:102A000080588BCF81E00E94990CD9CE90919D0285
:102A1000892F8F7E94FF806180CF81E0E3CE8FE8A5
:102A200091E00197F1F700C00000089581E008955A
:102A3000FF920F931F93CF93DF9382E080936702FF
:102A40000BE911E0C9E9D1E0AE01D80121E030E0A5
:102A50008D91E82FE295EF70F0E0F1A08F70B90151
:102A600001C0660F8A95EAF7962F90959F2191A352
:102A700082A1862B82A3FA018191AF01E82FE29512
:102A8000EF70F0E0F1A08F70B90101C0660F8A9578
:102A9000EAF7962F90959F2191A382A1862B82A37E
:102AA000F1E0AD39BF07A1F60E940F1560916702F2
:102AB0004AE652E0FA018E2F841B861728F0CDB724
:102AC000DEB7E5E00C945020D8012D918D01A22FA6
:102AD000A295AF70B0E090968C9190E02F7002C0FC
:102AE000959587952A95E2F781709991A92FA295DE
:102AF000AF70B0E090962C9130E09F7002C0359599
:102B000027959A95E2F790E020FD92E0892B81933A
:102B1000D2CFB0E0A0E0EFE8F5E10C943120F12C49
:102B2000E12C84E0C82ED12C80916702F81630F099
:102B30008E2DCDB7DEB7E8E00C944D200F2D10E0C0
:102B4000F801E556FE4F8081E82FE295EF70F0E046
:102B5000E0A1F0E08F7002C0F595E7958A95E2F765
:102B6000E170D801A756BE4F2C91A22FA295AF704D
:102B7000B0E090968C9190E02F7002C0959587956B
:102B80002A95E2F780FD40C080E08E2BD801A6593F
:102B9000BD4FEC919E2F93709817A1F1EE0FEE0FA1
:102BA000E82BEC93EF70F0E0E757FE4FE801C859CF
:102BB000DD4F80819881890F888320E084305CF02C
:102BC000F801EB59FD4F80818F5F808360E08F2D8E
:102BD0000E94D40121E088818D3F5CF4F801EB591B
:102BE000FD4F80818150808361E08F2D0E94D40150
:102BF00021E08881082E000C990BB6010E940D205F
:102C00008883E22AF39490CF82E0BFCFCF93DF9303
:102C1000EB0186319C4511F50E94FF0A9A819923A8
:102C200099F08A7A91E009F490E090936C02811116
:102C300009C089E20E94D70A0E94400B80E0DF9120
:102C4000CF91089585E3F6CF80916C02811104C085
:102C500089E20E94DF0AF0CF85E3FBCF81E0EFCF6E
:102C60000F931F93CF93DF93C42FD22FFC01828148
:102C70008823C9F040936F020E94C31890936E029C
:102C800080936D0280E28C0F883040F4C77081E041
:102C900001C0880FCA95EAF70E942504DF91CF9101
:102CA0001F910F91089510916F02141332C08091FB
:102CB0006D0290916E020E94DB18883C910548F5E8
:102CC000C0E2CD0F1D17B9F080E2810F883040F4CB
:102CD000177081E001C0880F1A95EAF70E942C0452
:102CE000C83048F481E09D2F977001C0880F9A95F5
:102CF000EAF70E942504802F0E941C04C83070F659
:102D0000D77081E001C0880FDA95EAF70E942C04A1
:102D1000C5CF80E28C0F883008F6C77081E001C013
:102D2000880FCA95EAF7F2CF0F939C01CB01243F9D
:102D30004CE5340759F1A8F4293DFCE53F0701F1C2
:102D40002A3D4CE53407D1F1283D3C4591F406E29B
:102D500021EE41EE68ED7CE50E94301680E00F9197
:102D60000895263FFCE53F07E9F0B0F0273F3C45DA
:102D7000F9F0FC018281882339F110926F02EFCFC4
:102D800007E225EE45EE69ED7CE5E6CF06E221EEB1
:102D900040EE64EF7CE5E0CF07E225EE44EE65EF20
:102DA0007CE5DACF06E221EE42EE66EF7CE5D4CF99
:102DB00007E225EE46EE67EF7CE5CECF08E221E0A4
:102DC00045EE6AED7CE5C8CF81E0C9CF90939F01C5
:102DD00080939E01089590937502809374020895E4
:102DE000E0917402F0917502309729F00190F08122
:102DF000E02D0995089580E00895E0917402F09126
:102E00007502309799F020911601222359F02091F4
:102E10009D0227FF07C0DC012C9111962C9311977E
:102E200026E02C930280F381E02D09950895E0912E
:102E30007402F0917502309739F022E0DC012C9396
:102E40000480F581E02D099508952091720230915A
:102E500073022817390771F09093730280937202FE
:102E6000E0917402F0917502309721F00680F781AD
:102E7000E02D099508952091700230917102281774
:102E8000390771F09093710280937002E09174029F
:102E9000F0917502309721F00084F185E02D0995BD
:102EA0000895FC01329680911601882321F08091CB
:102EB0009D029EE187FF96E080E0915008F408951E
:102EC00021912223D1F38F5FF8CF662301F1209166
:102ED00016012223F1F020919D0227FF1AC0462FF0
:102EE0004695469546954E3190F4677021E030E066
:102EF00002C0220F331F6A95E2F7840F911DFC0177
:102F0000828190E02823392381E0232B69F480E03B
:102F10000895FC01329608962191261721F0E817B2
:102F2000F907D1F7F4CF81E008959C01FC013296B6
:102F30009FEF80E04191461751F09F3F19F44111F6
:102F400001C0982F8F5F8630A9F79F3F09F408953D
:102F5000290F311D97FD3A95F90162830895FC010F
:102F6000329608962191261303C0DF0111971C9217
:102F7000E817F907B9F70895E62FE695E695E6957F
:102F8000EE3168F4E80FF92FF11D677021E030E0B1
:102F900001C0220F6A95EAF78281822B828308950D
:102FA000E62FE695E695E695EE3170F4E80FF92FF9
:102FB000F11D677021E030E001C0220F6A95EAF749
:102FC00020958281282322830895209116012223AF
:102FD00039F020919D0227FF03C00E94BC1708957D
:102FE0000E949517089520911601222339F020910F
:102FF0009D0227FF03C00E94D01708950E94AF17BB
:103000000895FC01329680911601882351F0809139
:103010009D0287FF06C08EE1DF011D928A95E9F7C8
:10302000089586E0F9CF46E050E00E94722021E04A
:10303000892B09F420E0822F089508950E941D181D
:103040000895811106C081E0809376020E941E18C7
:10305000089582E0F9CF83E0809376020E941E18E3
:1030600008950E942118089581E0809376020E94BD
:103070001E1808950E9434180895089508950E9416
:103080003E180895089508950E943D180895CF931D
:103090000E9442180E9487100E944318C0E08C2FA3
:1030A0000E94BC0F892B31F4CF5FC430C1F780E0A0
:1030B000CF91089581E0FCCF85B7806885BF85B743
:1030C000806885BF08951F921FB61F9211248F93A9
:1030D0009F93AF93BF9380917702811113C080912A
:1030E000AF029091B002A091B102B091B2024196AC
:1030F000A11DB11D8093AF029093B002A093B102C5
:10310000B093B202BF91AF919F918F911F901FBE5C
:103110001F9018958091B702843031F10E94B80257
:103120001092770288E190E020E40FB6F894A89519
:10313000809360000FBE2093600083B7817F84601E
:1031400083BF83B7816083BF7894889583B78E7F70
:1031500083BF0FB6F894A895809160008861809332
:103160006000109260000FBE08950E9483060E94C6
:10317000BD02089582E084BD93E095BD9AEF97BDAE
:1031800080936E0008952FB7F8948091AF029091CC
:10319000B002A091B102B091B2022FBF08952FB733
:1031A000F8946091AF027091B0028091B102909159
:1031B000B2022FBF08959C014FB7F8948091AF02DF
:1031C0009091B002A091B102B091B2024FBF821BA8
:1031D000930B089578941F921FB61F9211248F931A
:1031E0009F93AF93BF938091AF029091B002A09153
:1031F000B102B091B2020196A11DB11D8093AF0240
:103200009093B002A093B102B093B202BF91AF917C
:103210009F918F911F901FBE1F90189581E0809302
:10322000E00080E28093D8001092C9008FE19EE414
:103230000197F1F700C0000087E090EBDC0180937C
:10324000C0029093C102A093C202B093C30288E16E
:103250009CE00FB6F894A895809360000FBE909301
:103260006000FFCF88E19CE00FB6F894A8958093AA
:1032700060000FBE90936000FFCF80919B02089585
:1032800008959C0182E08093E9009FEF8091E8001F
:10329000915085FD06C085ED8A95F1F700009111EA
:1032A000F5CF8091E80085FF0CC050E040E066E07B
:1032B00070E0C9010E94861B8091E8008E778093A0
:1032C000E8000895CF93DF93EC01809116018823E5
:1032D000B1F180919D0287FF32C060E282E080936D
:1032E000E9008FEF9091E800815095FD06C095EDC3
:1032F0009A95F1F700008111F5CF8091E80085FFE4
:103300001BC08091160170E050E040E0811104C0C4
:1033100050E040E068E070E0CE010E94861B8091A2
:10332000E8008E778093E80080E2FE01ABE7B2E030
:1033300001900D928A95E1F7DF91CF91089568E0B1
:1033400081E0CDCF8093780270937A026093790206
:103350008091B702843001F582E08093E9008FEF1D
:103360009091E800815095FD06C095ED9A95F1F792
:1033700000008111F5CF8091E80085FF0DC050E07D
:1033800040E063E070E088E792E00E94861B809155
:10339000E8008E778093E8000895BC0184E00E94E5
:1033A000A2190895BC0183E00E94A219089580919A
:1033B000B602811109C00E94161D0E94731D8091E2
:1033C000E20084608093E20008951092B6020895AE
:1033D0000E94341808956091B30281E0611101C028
:1033E00080E00E942B1808959091B70281E09430FC
:1033F00009F080E06091B3020E943118089542E024
:1034000061EC81E00E94921C42E261EC82E00E9449
:10341000921C9091B70281E0943009F080E06091B5
:10342000B3020E94211808958091B902833009F4F3
:1034300061C030F48130D1F1823009F49EC008952A
:103440008A3009F48AC08B3009F46FC0893009F0E2
:1034500050C08091B802813209F04BC08091BC020B
:103460009091BD02029708F044C08091E800877FE8
:103470008093E8008091E80082FF37C09091F300CC
:103480008091F200029731F48091F100813011F0C7
:10349000863021F48091F10080939B028091E800B6
:1034A0008B778093E8000E94C61C23C08091B802ED
:1034B000813AF9F48091E800877F8093E800809159
:1034C000BC029091BD02892B61F460E28BE792E02F
:1034D00070E00E94D51B8091E8008B778093E80014
:1034E000089560E090E080E0F3CF8091B702811111
:1034F000C1CF08958091B802813AD9F78091BC027A
:103500009091BD02892BA9F78091E800877F809375
:10351000E8008091E80080FFFCCF80911601809345
:10352000F1008091E8008E77BCCF8091B8028132A3
:1035300001F78091BC029091BD02892BD1F6809158
:10354000E800877F8093E8000E94C61C8091BA0241
:10355000809316010E94830608958091B8028132FB
:1035600041F68091E800877F8093E8000E94C61CA6
:103570008091BB0280939C0208958091B802813AA9
:1035800009F0B7CF8091E800877F8093E8008091B1
:10359000E80080FFFCCF80919C02C1CF84B7877F79
:1035A00084BF0FB6F894A8958091600088618093DD
:1035B0006000109260000FBE80E890E00FB6F894B3
:1035C00080936100909361000FBE0E943A180895A5
:1035D0000E94161D0E94731DE2EEF0E0808184605F
:1035E000808378940E94F21F08958AE091E00E94FF
:1035F000EB1608958091B702853031F48091B702BF
:10360000853019F00E94B51808950E948A1880919B
:10361000B502882399F30E944718882379F30E9402
:10362000701B0E948306EACF08950E94181B08951C
:10363000292F33272330310519F168F42130310562
:1036400009F444C02230310509F445C090E080E01F
:1036500030E020E025C02132310549F12232310528
:10366000A9F780E490E023EF32E061157105C1F025
:1036700086EB90E02DE332E06130710589F0E6CF12
:1036800099278130910581F0009729F00297F1F692
:10369000ECECF1E002C0ECEEF1E0849190E09F01EF
:1036A000FA01318320830895EEEDF1E0F6CF89E051
:1036B00090E022E032E06115710591F389E090E03D
:1036C0002BE132E06130710559F3C0CF82E190E027
:1036D0002BE232E0E5CF8BE390E020EF31E0E0CF6A
:1036E00080E189BD82E189BD09B400FEFDCF8091F2
:1036F000D8008F7D8093D8008091E0008260809315
:10370000E0008091E00081FDFCCF0895AF92BF9270
:10371000CF92DF92FF920F931F93CF93DF936C01B1
:10372000EB018A010E94E51CF82E811123C00115CE
:10373000110539F0F80180819181C81BD90BC80EA1
:10374000D91EB12CA12C2097A9F08091E80085FD0D
:1037500022C08091E8008E778093E8000115110562
:10376000A1F0F80180819181A80EB91EB182A082DA
:1037700085E0F82E8F2DDF91CF911F910F91FF9053
:10378000DF90CF90BF90AF9008950E94E51C8823F2
:10379000D1F2F82EEFCFF60181916F018093F10005
:1037A0002197FFEFAF1ABF0ACECFFC018091BE0276
:1037B0009091BF0286179707A0F06115710529F453
:1037C0009091E8009E779093E80090E06115710574
:1037D00051F4911108C08091E80082FF34C080E06C
:1037E0000895BC01F2CF8091B7028823C1F18530E2
:1037F000C1F18091E80083FD30C08091E80082FD36
:10380000EACF8091E80080FFE1CF8091F300209122
:10381000F200382F6115710519F02830310558F084
:1038200091E02830310509F090E02091E8002E77F2
:103830002093E800CBCF81918093F1006150710912
:103840002F5F3F4FE7CF8091B702882341F085304B
:1038500041F08091E80083FFBECF81E0089582E0CF
:10386000089583E00895FC018091BE029091BF020B
:1038700086179707A0F06115710529F48091E8007B
:103880008E778093E80090E06115710551F49111F5
:1038900008C08091E80082FF35C080E00895BC0137
:1038A000F2CF8091B7028823C9F18530C9F18091A8
:1038B000E80083FD31C08091E80082FDEACF80916D
:1038C000E80080FFE1CF8091F3002091F200382FD3
:1038D0006115710519F02830310558F091E0283054
:1038E000310509F090E08091E8008E778093E80040
:1038F000CBCF84918093F1003196615071092F5F95
:103900003F4FE6CF8091B702882341F0853041F0E8
:103910008091E80083FFBDCF81E0089582E00895A3
:1039200083E00895982F973028F08F708093E900F6
:1039300081E008959093E900242F762F50E09817A6
:1039400031F07091EC002091ED005091F00021FDDC
:1039500002C09F5FE8CF3091EB003E7F3093EB00D9
:103960003091ED003D7F3093ED003091EB00316000
:103970003093EB007093EC002093ED005093F00037
:103980002091EE0027FDE5CF80E008958091B802F8
:1039900087FF13C08091E80082FF06C08091E80095
:1039A0008B778093E80004C08091B7028111F2CF39
:1039B00008958091B7028823D9F38091E80080FFB1
:1039C000F8CF8091E8008E77ECCF2091E400309121
:1039D000E50095E6A9012091EC00822F817020FF7F
:1039E00006C08091E80080FF06C080E00895209125
:1039F000E80022FD1AC08091B702882389F0853043
:103A000089F08091EB0085FD0FC02091E40030919A
:103A1000E50042175307F9F29150E1F684E008956A
:103A200082E0089583E0089581E008950E94851D55
:103A30000E948D1DE0EEF0E0808181608083E8EDE2
:103A4000F0E080818F77808319BCA7EDB0E08C9186
:103A50008E7F8C9380818F7E80831092B602089532
:103A60000F931F93CF93DF930E94851D0E948D1D9E
:103A7000C8EDD0E088818F778883888180688883CB
:103A800088818F7D888319BC1092B7021092B3028F
:103A90001092B5021092B40200EE10E0F80180819D
:103AA0008B7F808388818160888342E060E080E052
:103AB0000E94921CE1EEF0E080818E7F8083E2EE36
:103AC000F0E0808181608083808188608083F8015C
:103AD00080818E7F8083888180618883DF91CF9110
:103AE0001F910F910895E8EDF0E080818F7E808333
:103AF000E7EDF0E080818160808384E082BF81E037
:103B00008093B6020E94301D0895E8EDF0E08081B8
:103B10008E7F80831092E20008951092DA00109256
:103B2000E10008951F920F920FB60F9211242F9368
:103B30003F934F935F936F937F938F939F93AF9335
:103B4000BF93EF93FF938091E10082FF0BC08091C0
:103B5000E20082FF07C08091E1008B7F8093E1004B
:103B60000E94F11F8091DA0080FF19C08091D80077
:103B700080FF15C08091DA008E7F8093DA008091FB
:103B8000D90080FF96C080E189BD82E189BD09B47A
:103B900000FEFDCF81E08093B7020E94D71980918B
:103BA000E10080FF19C08091E20080FF15C0809184
:103BB000E2008E7F8093E2008091E200806180933A
:103BC000E2008091D80080628093D80019BC85E023
:103BD0008093B7020E94EB198091E10084FF2BC013
:103BE0008091E20084FF27C080E189BD82E189BD28
:103BF00089B5982F917080FFFBCF8091D8008F7D81
:103C00008093D8008091E1008F7E8093E1008091C5
:103C1000E2008F7E8093E2008091E20081608093D9
:103C2000E2008091B302882309F449C084E08093C4
:103C3000B7020E94F4198091E10083FF29C08091AE
:103C4000E20083FF25C08091E100877F8093E1003F
:103C500082E08093B7021092B3028091E1008E7FE0
:103C60008093E1008091E2008E7F8093E20080915A
:103C7000E20080618093E20042E060E080E00E9428
:103C8000921C8091F00088608093F0000E94E819F7
:103C9000FF91EF91BF91AF919F918F917F916F9124
:103CA0005F914F913F912F910F900FBE0F901F90FA
:103CB000189519BC1092B7020E94E51970CF809137
:103CC000E30087FD93E09093B702B3CF1F920F926A
:103CD0000FB60F9211242F933F934F935F936F93DF
:103CE0007F938F939F93AF93BF93CF93DF93EF9384
:103CF000FF93D091E900DF708091EC00C82FC17074
:103D000080FDC0E81092E9008091F000877F8093E9
:103D1000F00078940E94AA1E1092E9008091F000B1
:103D200088608093F000CD2BCF70C093E900FF91A5
:103D3000EF91DF91CF91BF91AF919F918F917F9143
:103D40006F915F914F913F912F910F900FBE0F9008
:103D50001F901895AAE2B0E0E0EBFEE10C9436204B
:103D600088EB92E02091F100FC012193CF01F2E079
:103D7000803C9F07B9F70E94141A8091E80083FFE6
:103D80001EC18091B8029091B9029A3008F017C113
:103D9000E92FF0E0E852FF4D0C942120803899F093
:103DA000823809F00CC18091BC028F70873008F016
:103DB00006C18093E9008091EB0085FB882780F99C
:103DC0001092E90006C08091B4029091B502911161
:103DD00082609091E800977F9093E8008093F100D3
:103DE0001092F1008091E8008E77E5C0882309F4F5
:103DF000D3C0823009F0E3C08091BA028111D6C0ED
:103E00008091BC028F702FEF280F263008F0D7C0AA
:103E10008093E9002091EB0020FFC8C0933031F47B
:103E20008091EB0080628093EB00C0C09091EB002A
:103E300090619093EB0021E030E001C0220F8A9561
:103E4000EAF72093EA001092EA008091EB00886084
:103E5000EACF8111B4C01091BA021F778091E300BC
:103E60008078812B8093E3008091E800877F8093A6
:103E7000E8000E94C61C8091E80080FFFCCF809182
:103E8000E30080688093E30082E0111183E0809377
:103E9000B70295C08058823008F091C08091BA0274
:103EA0009091BB028C3D23E09207A1F583E08A83C9
:103EB0008AE289834FB7F894DE01139620E03EE052
:103EC00051E2E32FF0E050935700E49120FF03C04C
:103ED000E295EF703F5FEF708E2F90E0EA30C0F018
:103EE000C7968D939D932F5F243159F74FBF8091D3
:103EF000E800877F8093E8006AE270E0CE010196D7
:103F00000E94D51B8091E8008B778093E80057C012
:103F1000C096E7CF6091BC027091BD02AE014F5FC9
:103F20005F4F0E94151BBC01892B09F448C090917A
:103F3000E800977F9093E80089819A810E94331C62
:103F4000E1CF8038E1F58091E800877F8093E80039
:103F50008091B3028093F10045CF811130C09091E0
:103F6000BA02923060F58091E800877F8093E80084
:103F70009093B3020E94C61C8091B302882311F073
:103F800084E005C08091E30087FDFACF81E0809353
:103F9000B7020E94FF1913C08091BA02813079F4F0
:103FA00081E0933009F080E08093B5021092E9003F
:103FB0008091E800877F8093E8000E94C61C809172
:103FC000E80083FF0AC08091E800877F8093E800C3
:103FD0008091EB0080628093EB00AA96E3E00C9462
:103FE00052200895CF938091B7028823A1F0C09109
:103FF000E900CF709091EC00892F817090FD80E8EE
:10400000C82B1092E9008091E80083FD0E94AA1E4F
:10401000CF70C093E900CF91089597FB072E16F457
:10402000009407D077FD09D00E945E2007FC05D0E0
:104030003EF4909581959F4F0895709561957F4FBF
:104040000895EE0FFF1F0590F491E02D09942F9233
:104050003F924F925F926F927F928F929F92AF9218
:10406000BF92CF92DF92EF92FF920F931F93CF9365
:10407000DF93CDB7DEB7CA1BDB0B0FB6F894DEBFFC
:104080000FBECDBF09942A88398848885F846E8422
:104090007D848C849B84AA84B984C884DF80EE806C
:1040A000FD800C811B81AA81B981CE0FD11D0FB675
:1040B000F894DEBF0FBECDBFED010895AA1BBB1B58
:1040C00051E107C0AA1FBB1FA617B70710F0A61B18
:1040D000B70B881F991F5A95A9F780959095BC0139
:1040E000CD010895FB01DC0104C08D910190801980
:1040F00021F441505040C8F7881B990B0895FB01EB
:10410000DC0102C001900D9241505040D8F7089553
:10411000F999FECF92BD81BDF89A992780B508958F
:10412000A8E1B0E042E050E00C94BC20262FF999C1
:10413000FECF92BD81BDF89A019700B4021639F006
:104140001FBA20BD0FB6F894FA9AF99A0FBE0895D7
:104150000396272F0E9497200E949620252F0E94C9
:104160009720242F0C9497200196272F0E949720A8
:104170000C949620DC01CB01FC01F999FECF06C01E
:10418000F2BDE1BDF89A319600B40D924150504015
:10419000B8F70895F894FFCF6E046E049F049F044F
:1041A0002C054805CE04CE045305C405D305D3051C
:1041B000CE1EF61EDF1FF61EDF1F291F4A1FDF1F40
:0441C000A11FAD1F6F
:1041C4001C02280850011E0A14013D1962194119E4
:1041D400D219CD19401901E200E900EA00B500B690
:1041E40000B700CD008301CC008A01920194012123
:1041F40002230224022502260227022A02B300B463
:10420400006F007000818283E200E900EA00B500DB
:10421400B600B700CD008301CC008A01920194015D
:104224002102230224022502260227022A02B300C5
:10423400B4006F007000818283F094F5313233371B
:104244009091929336C630F4F100FF010001000012
:0E425400FFFF0000010001FF00966697670063
:00000001FF
