:100000000C949C020C94B9020C94B9020C94B902A1
:100010000C94B9020C94B9020C94B9020C94B90274
:100020000C94B9020C94B9020C94F4230C94C824D7
:100030000C94191F0C94B9020C94B9020C94B902D7
:100040000C94B9020C94B9020C94B9020C94B90244
:100050000C94B9020C94A01F0C94B9020C94B90230
:100060000C94B9020C94B9020C94B9020C94B90224
:100070000C94B9020C94B9020C94B9020C94B90214
:100080000C94B9020C94B9020C94B9020C94B90204
:100090000C94B9020C94B9020C94B9020C94B902F4
:1000A0000C94B9020C94B9020C94B90214001A0011
:1000B0000800150017001C001800040016000700B7
:1000C00009000A000B000D001D001B0006001900AE
:1000D000050011001000E200E300E0002A412C427C
:1000E0002D0038000C001200130036003300000011
:1000F00000000E000F002800370000000000000084
:100100001E001F00200021002200230024002B00DD
:10011000000000000000000000000000E1000000FE
:1001200000000000000000002F00000000000000A0
:1001300000000000340035002500260027003000B4
:100140003100000000000000000000002E00000050
:10015000000000000000000052000000000000004D
:1001600000000000500051004F000000000000009F
:100170000000000000000000000000000000007C03
:10018000000000000000000000000000000000006F
:10019000000000000000000000000000000000005F
:1001A00000000000000000001E0F0500047F3F1F3C
:1001B000643214643214783C1E1E140A052223256E
:1001C0002628292A2C2D2F3032333536383A3B3D1C
:1001D0003E4042434547494A4C4E5051535557596A
:1001E0005A5C5E6062646668696B6D6F7173757787
:1001F000797B7D7F81838587898A8C8E9092949686
:10020000989A9C9E9FA1A3A5A7A8AAACAEAFB1B394
:10021000B4B6B8B9BBBCBEBFC1C2C3C5C6C7C9CAE4
:10022000CBCCCDCED0D1D2D2D3D4D5D6D7D7D8D9A6
:10023000D9DADADBDBDBDCDCDCDCDCDDDDDDDDDC04
:10024000DCDCDCDCDBDBDBDADAD9D9D8D7D7D6D516
:10025000D4D3D2D2D1D0CECDCCCBCAC9C7C6C5C3D8
:10026000C2C1BFBEBCBBB9B8B6B4B3B1AFAEACAA25
:10027000A8A7A5A3A19F9E9C9A98969492908E8CD5
:100280008A89878583817F7D7B79777573716F6DAF
:100290006B6968666462605E5C5A59575553515089
:1002A0004E4C4A4947454342403E3D3B3A3836353D
:1002B0003332302F2D2C2A292826252322FFAA7FEE
:1002C0005540000101010101010101010202020288
:1002D00002020202020303030303030303040404F0
:1002E00004040404050505050506060606060707B9
:1002F00007070708080808090909090A0A0A0B0B71
:100300000B0C0C0C0D0D0D0E0E0E0F0F0F1010110F
:100310001111121213131414151516161717181895
:1003200019191A1A1B1B1C1D1D1E1E1F20202122FD
:1003300022232424252626272829292A2B2C2D2D43
:100340002E2F30313232333435363738393A3B3C60
:100350003D3E3F404142434445464748494A4C4D53
:100360004E4F50515354555658595A5B5D5E5F611C
:100370006264656668696B6C6D6F707273757778AF
:100380007A7B7D7E8082838587888A8C8E8F91930D
:100390009596989A9C9EA0A2A3A5A7A9ABADAFB134
:1003A000B3B5B7BABCBEC0C2C4C6C9CBCDCFD1D419
:1003B000D6D8DBDDDFE2E4E7E9EBEEF0F3F5F8FABF
:1003C000FDFF0803710061007A000000220377003E
:1003D0006800790064006F006200650061007200CF
:1003E00073006500780070006C006F00640000000E
:1003F0000403090409023B00020100A0FA090400F9
:100400000001030101000921110100012240000740
:10041000058103080001090401000103000000092F
:10042000211101000122B6000705820320000112FC
:100430000100020000000831740100010001020007
:100440000105010902A10185020901A1000509199F
:10045000012908150025019508750181020501098A
:100460003009311581257F950275088106093815F7
:1004700081257F950175088106050C0A38021581D2
:10048000257F950175088106C0C005010980A1017D
:10049000850319012AB700150126B70095017510CB
:1004A0008100C0050C0901A101850419012AA002DF
:1004B000150126A002950175108100C005010906ED
:1004C000A1018506050719E029E715002501950812
:1004D000750181020507190029EF1500250195F026
:1004E000750181020508190129059505750191021B
:1004F000950175039101C005010906A101050719C0
:10050000E029E7150025019508750181029501751F
:100510000881010507190029FF150026FF0095062F
:1005200075088100050819012905950575019102D5
:10053000950175039101C00011241FBECFEFDAE0D1
:10054000DEBFCDBF11E0A0E0B1E0EAEFF0E502C010
:1005500005900D92AC3CB107D9F723E0ACECB1E0CB
:1005600001C01D92A339B207E1F70E94C7110C9494
:1005700027280C9400008330B8F46630A8F4473084
:1005800098F450E097E0699F400D511D1124FA0145
:100590009AE2899FE00DF11D1124EE0FFF1FE45533
:1005A000FF4F85919491089580E090E008950E9416
:1005B000BB02089581E0089581E008950E94DC0265
:1005C000089508950E94E1020895A5E0B0E0EBEEE1
:1005D000F2E00C94192749835A833091D301898121
:1005E0009A81311119C0662399F0222389F00E9463
:1005F000F408182F682F89819A810E94D008698198
:100600007A81812F0E944D0F2596E3E00C943527C7
:100610000E94E208182FF3CF0E94F40869817A81C2
:10062000F1CFFC01262F4081518162817381848149
:100630000E94E502089581E00895CF93DF93EC01D5
:1006400060E00E941103BE010E94E202DF91CF919F
:1006500008950E947E1008950E94821008950895C2
:100660000E949F070E942F032FEF84E39CE02150FC
:1006700080409040E1F700C0000008950E943003E0
:100680000E94C41F08950E9430030E94D51F089540
:100690000F931F93CF93DF938C0161E00E941103AE
:1006A000EC01B8010E94DE02811106C080E0DF91FA
:1006B000CF911F910F910895B801CE010E943B1D6B
:1006C0008823A1F3B801CE010E94D11B882371F3C6
:1006D000B801CE010E94AD1C882341F3B801CE01C0
:1006E0000E94331B882311F3F8018281882361F073
:1006F000C330FCE7DF07E9F058F4C115ECE7DE078B
:10070000A9F0C130DC47B9F0C8010E94DA02CFCFAE
:10071000CB358CE7D807A9F0CC35ECE7DE0771F0D4
:10072000CA35DC4789F70E94F60CEECF0E943E03E3
:10073000BDCF0E94FE0C0E944303B8CF0E94EC0C78
:10074000E3CF0E94FA0CE0CF0E94F61E0E94CE0377
:1007500008950E94D2030E94FB1E089508950E94EE
:10076000AE03089581E008950895CF93DF93D82FC5
:100770000E94B203C82F882319F08D2F0E94B40362
:100780008C2FDF91CF9108950895CF93C82F0E94A9
:10079000AF038C2F0E94B503CF91089580E00E9493
:1007A000C50308950E94891D0E94C5030895CF9333
:1007B0000E94891DC82F8091CE018C1779F0C093BB
:1007C000CE010E94851F6093CF017093D00180936A
:1007D000D1019093D2018C2F0E94C503CF9108952F
:1007E000ABE0B0E0E6EFF3E00C941A274F835887B4
:1007F00069877A878B8761110E94370C1E821D8260
:1008000085E0FE013796DE01119601900D928A95E2
:10081000E1F78C819D81892B61F449815A816B813B
:100820007C818D819E810E94600B2B96E2E00C946E
:10083000362789819A8189238F3F79F3CE010196EA
:100840000E941B038111E9CFF0CFFC0180819181CF
:100850000E9426090895662329F00E944B120E94E7
:100860001E1308950E94A512FACFCF93C82F882394
:10087000C9F08238C9F40E94891D81FD13C089E343
:100880000E94EF0B0E94580C2FEF87EE93E021504F
:1008900080409040E1F700C0000089E30E94F70B20
:1008A0000E94580CCF9108958338A1F40E94891DAD
:1008B00080FDF8CF83E50E94EF0B0E94580C2FEFCC
:1008C00081EE94E0215080409040E1F700C00000AC
:1008D00083E5E4CF8438A1F40E94891D82FDE2CF34
:1008E00087E40E94EF0B0E94580C2FEF81EE94E0FA
:1008F000215080409040E1F700C0000087E4CECF57
:100900008CEF8C0F813A90F46C2F809104019091C0
:1009100005010E941C1E882329F08C2F0E94F70BD2
:100920000E94580C8C2F0E94EF0BBACF80E28C0FE4
:10093000883048F4C77081E001C0880FCA95EAF793
:100940000E941A0CADCFEBE5EC0FE33040F4F0E081
:10095000E45AFE4F808190E00E94BE1DA3CFE8E5DF
:10096000EC0FE93150F4F0E0EE0FFF1FE65DFE4FB3
:10097000808191810E94E31D95CF83E38C0F8331A9
:1009800008F090CF61E08C2F0E942B048BCF88233E
:1009900009F456C0823879F40E94891D81FF50C045
:1009A00089E30E94EF0B0E94580C89E30E94F70B29
:1009B0000E94580C0895833859F40E94891D80FFC5
:1009C0003FC083E50E94EF0B0E94580C83E5EECFF9
:1009D000843859F40E94891D82FF32C087E40E9446
:1009E000EF0B0E94580C87E4E1CF9CEF980F913AEF
:1009F000E8F290E2980F983050F4877091E001C0CF
:100A0000990F8A95EAF7892F0E94200CD1CF9BE598
:100A1000980F933028F490E080E00E94BE1D089566
:100A200098E5980F993128F490E080E00E94E31D4A
:100A3000089593E3980F933118F460E00E942B041B
:100A400008951F93CF93DF93182FEB010E94350475
:100A5000209739F4812F0E94C704DF91CF911F9115
:100A600008958FE99FE00197F1F700C000002197FA
:100A7000EFCF70E060E0893311F460E570E00E9430
:100A800021050895882321F00E941A0C0E94580C19
:100A90000895882321F00E94200C0E94580C08958C
:100AA000B0E0A0E0E6E5F5E00C9413276C01D62F4A
:100AB000C72FFC011281F580F2949FE0F9220E9479
:100AC000100CE82E8823B9F0E12E1123A1F08C2F11
:100AD000807F803421F080E28D0F8830D0F08091CB
:100AE000310382FF16C082E00E94BB0C0E94100CF2
:100AF00091E0E82EE926BC2EB2948FE0B822FBE00C
:100B0000FB1508F468C0EB2DF0E0E75DF74D0C94A1
:100B1000D326E12CF0CF0C2F0F70C07F11F002957F
:100B2000007F112399F0002359F080E28D0F883067
:100B300010F0D11107C0802F0E941A0C0E94580C8F
:100B40008D2F41C0802F0E942A0CF8CF8D2F0E943C
:100B5000C704002309F43FC080E28D0F883010F0F5
:100B6000D11104C0802F0E94200C03C0802F0E944E
:100B7000300C0E94580C2FC00C2F0F70C07FC03259
:100B800011F00295007FDD2381F0D13009F468C0B7
:100B9000112309F472C0FF2009F468C0F6018581B1
:100BA00080FFCECF8F70858361C08091310382FD3D
:100BB00033C0112359F0002329F0802F0E941A0C12
:100BC0000E94580C80E00E94350405C080E00E941D
:100BD000C7040111C7CFEB2DE850FF0B349720F469
:100BE0000E94891D0E94C503EE2089F00E940C0C12
:100BF00080FD0DC0F60112820E94060C0E942E0894
:100C0000C6010E945F070E94060C0E943E08CDB7F5
:100C1000DEB7E9E00C942F27112389F0F11006C00C
:100C20000E943A0C802B0E944205D5CF21E0F2129F
:100C3000F7CF0E943A0C802B0E94410CCCCFF110D0
:100C400006C00E944E0C802F0E944905C4CF31E09F
:100C5000F31609F2802F0E9449050E944E0CBBCF6B
:100C6000112331F085E08F1508F4B5CF802FDBCF4D
:100C700094E09F1508F4AFCFE6CFFF2021F3D933DE
:100C800049F4FFEF27EE33E0F15020403040E1F728
:100C900000C000008D2F0E94C7049DCF8C2F869529
:100CA0008695837069F0813009F095CF8D2F9C2F48
:100CB0009370111102C080E090E00E94E31D8BCF81
:100CC0008D2F9C2F9370111102C080E090E00E9444
:100CD000BE1D81CF612F8D2F0E942B047CCF8C2FC6
:100CE0008370A1F5111177CF4D2F4295469547702E
:100CF000440F440F2D2F2F7030E0042E02C0220F1E
:100D0000331F0A94E2F790E080E0D4FF09C08FE03F
:100D100090E002C0880F991F4A95E2F78095909560
:100D2000C695C695C370822B932BC23049F058F4F8
:100D3000C13019F00E94FE074ECF0E94F5074BCF3D
:100D40000E94070848CF0E94F20745CF86951123DD
:100D500011F08C2F8170882309F43DCF4D2F4295DF
:100D600046954770440F440F2D2F2F7030E0042E0E
:100D700002C0220F331F0A94E2F790E080E0D4FF14
:100D800009C08FE090E002C0880F991F4A95E2F7F2
:100D900080959095C695C695C370822B932BC230D3
:100DA00049F058F4C13019F00E94690814CF0E942C
:100DB000600811CF0E9472080ECF0E9416080BCF58
:100DC000CF70112329F08C2F0E942E088D2F2BCF4E
:100DD0008D2F0E9449058C2F0E943E08FCCED23FE9
:100DE00051F160F4D03FB9F0D13F81F0112309F403
:100DF00049C0F110A5CE8C2F8F7121C0D33F11F1C6
:100E0000D43FA1F78091310382FD26C08C2F8F71D2
:100E1000112311F314C0112349F084E08F1508F455
:100E2000DACE8C2F8F710E945008D5CE95E09F1599
:100E300008F4D1CEF6CF8C2F8F711111CDCF0E9437
:100E40002E08C9CE112329F08C2F8F710E94220801
:100E5000C2CE0E941D08BFCE112349F0CF718C2F46
:100E60000E942E0863E08C2F0E949D0CB4CE81E07E
:100E70000E94BB0CE1E0EF1508F0ADCE82E00E94CD
:100E8000BB0CA9CEF110FBCE8C2F8F71A5CF0F9389
:100E90001F93CF93DF93EC01688179818A810E944F
:100EA00031098C010E947B080E94F107B801CE0134
:100EB0000E945005DF91CF911F910F910895CF931C
:100EC000DF93EC018B819C81892B29F088819981AA
:100ED00089238F3F51F4DF91CF910895CE010E9475
:100EE0004707CE010E941D03F6CFCE010E944803A2
:100EF0008111F4CF0E94100C882369F38A81882322
:100F000051F38091310382FFE6CF82E00E94BB0C57
:100F1000E2CF90E080E00E94BE1D90E080E00E9461
:100F2000E31D0E94370C0E94580C0E943A130E9445
:100F30001E1308950E94FF0B0E94890708950E94C6
:100F4000270C0E949A07089592959F70963091F011
:100F500058F4925F9F70923058F4803F19F030F44B
:100F6000883E30F481E008959A5FF4CF843FD1F356
:100F700080E00895883EB0F3813FD1F7F3CFFC01C4
:100F800083819481892B29F08081918189238F3FEE
:100F900011F480E00895808191810E9426090E94C9
:100FA000A4070895A5E0B0E0E8EDF7E00C941A2757
:100FB0002596E2E00C943627A6E0B0E0E2EEF7E0FA
:100FC0000C941A272696E2E00C94362708950E9486
:100FD000E60708950E94E7079093EF018093EE01E2
:100FE000089508950E94EA0708952091EE01309136
:100FF000EF01822B932B0E94EA0708952091EE01C6
:101000003091EF01822393230E94EA0708952091F3
:10101000EE013091EF01822793270E94EA0708959D
:101020000E94E60708950E94100808950E94130880
:101030009093ED018093EC01089590E080E00E9490
:101040001608089521E030E0A90102C0440F551FA1
:101050008A95E2F7CA010E941608089521E030E05F
:1010600002C0220F331F8A95E2F78091EC01909124
:10107000ED01822B932B0E941608089521E030E0A9
:1010800002C0220F331F8A95E2F720953095809198
:10109000EC019091ED01822393230E94160808959C
:1010A00021E030E002C0220F331F8A95E2F78091E1
:1010B000EC019091ED01822793270E941608089574
:1010C0002091EC013091ED01822B932B0E941608A8
:1010D00008952091EC013091ED01822393230E9429
:1010E000160808952091EC013091ED018227932795
:1010F0000E94160808950895262F277091E001C0D8
:10110000990F2A95EAF723E0769567952A95E1F7F6
:10111000660F771F660F771FFA01E60FF71F50E083
:1011200040E0682F70E08191DF0111979B01042E50
:1011300002C0369527950A94E2F721702195282759
:10114000292328272C934F5F5F4F4430510559F7CF
:101150000895A82FA77023E0969587952A95E1F723
:10116000880F991F880F991FFB01E80FF91F50E0A6
:1011700040E080E0219130E00A2E02C036952795AC
:101180000A94E2F721703327042E01C0220F0A943B
:10119000EAF7822B4F5F5F4F4430510559F70895AE
:1011A000262F963070F4873060F4682F70E087E067
:1011B000989F600D711D112444ED51E0822F0E9413
:1011C0007C080895292F963068F4873058F490E011
:1011D00064ED71E037E0239F800D911D11240E9482
:1011E000A908089580E00895B0E0A0E0EAEFF8E0F3
:1011F0000C9413277C010091EC011091ED0180917A
:10120000EE019091EF01082B192BCFE0D0E0CC2418
:10121000C394D12CBC2EC6010C2E02C0880F991F7E
:101220000A94E2F780239123892B49F4219790F7C0
:10123000B12C8B2DCDB7DEB7E9E00C942F27B70189
:101240008C2F0E94590F019789F3F3CFCF93DF932F
:10125000EC010E94F408BE010E94590FDF91CF916A
:1012600008951F93CF93DF93EB019091D3019923BE
:1012700039F0CB010E942609DF91CF911F9108958B
:10128000882369F0CB010E94F408182F682FCE0143
:101290000E94D008BE01812F0E94590FEDCFCB01D3
:1012A0000E94E208182FF6CF1F93CF93DF93C091CF
:1012B000F00116E08091F1018C1304C0DF91CF9111
:1012C0001F910895D0E01C9FF0011D9FF00D112487
:1012D000EE50FE4F408151816281738184819581FE
:1012E0000E94DC072196C770E5CF40912202509101
:1012F0002302609124027091250280912602909130
:1013000027020E94DC0708951F93CF93DF938091FB
:101310002702807F09F049C080912402882309F4C4
:1013200044C08091F001C091F1016091220270915E
:101330002302A0912502B0912602D62FD72316E0D2
:10134000C81799F190E0109711F0DF3F19F401965A
:101350008770F6CF189F9001199F300D1124F90165
:10136000EE50FE4F41814713F2CF40814613EFCF3D
:1013700042814111ECCF438154814A1B5B0B483CB5
:10138000510528F7809127028F7080618093270292
:10139000F901E950FE4F80818F708061808382E285
:1013A00092E00E945F070E945409DF91CF911F9144
:1013B0000895A1E1B0E0EFEDF9E00C9412278C0163
:1013C00085E0F801DE011D9601900D928A95E1F706
:1013D000F801E28082E2C82E82E0D82E60912502D8
:1013E000709126026115710509F44EC19091220297
:1013F00020912302892F82238F3F09F445C1408128
:101400005181A380B480F0902402F501E61BF70B14
:10141000FF2009F4EAC080912702382F307FE83C92
:10142000F10508F0A3C031116DC0FE2C251316C0C4
:10143000941314C0E11012C08F7080618093270252
:101440000E947509C6010E945F0780912702F8017A
:1014500085838F2D6196EAE00C942E27A114B104A8
:1014600029F0842F85238F3F09F027C180E0F82FD2
:10147000F170DF2E80FF3CC08091F0012091F101DE
:1014800036E0821315C04D875E878D859E850E944C
:101490002609292F22952F702230F0F0243018F5DC
:1014A0009F70F1F0F8019581907FD1F4D12C1EC08E
:1014B00090E0389FF001399FF00D1124EE50FE4F5F
:1014C0006181651306C06081641303C06281E61206
:1014D0000FC001968770D5CF9F7011F0882331F32C
:1014E000805E883018F3C8010E945F07FD2CB1CFE1
:1014F000EE2009F4AECF809127028160809327020D
:10150000F12CA7CF251306C0941304C0F801EE20D8
:1015100009F487C0C8010E94BF07882319F1EE2093
:1015200009F180912702803270F0209122023091DF
:10153000230238872F831986BB86AA868C87CE0123
:1015400007960E945F0786E0F801A2E2B2E00190F0
:101550000D928A95E1F70E9484090E947509FF2483
:10156000F39477CFC8010E945F07F9CF311113C000
:101570007A2DB98AA88A6E2D89890E94D20782E2C3
:1015800092E00E945F0786E0F60111928A95E9F7E2
:101590000E947509B5CF25130FC094130DC0E1103B
:1015A0000BC0F8018583C8010E945F0786E0F60141
:1015B00011928A95E9F74DCFC8010E94BF07882391
:1015C00089F2EE2079F280912702803208F4BBCFB5
:1015D00020912202309123023A8329831B82BD820B
:1015E000AC828E83CE010196ACCFE83CF10508F0C9
:1015F0003EC0FE2CEE2009F4B5CF25132AC094136B
:1016000028C08091270280FD1BC0982F907FC1F0D9
:10161000F8018583903F31F0982F907F905F8F7015
:10162000892B8583C8010E945F0786E0F801A2E24A
:10163000B2E001900D928A95E1F70E94750909CFF9
:1016400086E0F801A2E2B2E001900D928A95E1F7FE
:1016500000CFC8010E94BF07811175CF809127027A
:10166000816080932702C8010E945F07F2CE7A2D25
:10167000B98AA88A6E2D89890E94D20786E0F60170
:1016800011928A95E9F7D9CFEE2009F46BCFC80102
:101690000E94BF07F82E882309F464CF86E0F80182
:1016A000A2E2B2E001900D928A95E1F782E292E027
:1016B0000E9425040E948409C0CF81E08E25D7CEE8
:1016C000ACE0B0E0E6E6FBE00C9419274F835887C6
:1016D00069877A878B879C87CE0107960E94D909F4
:1016E000882369F08A859B85892B39F04F8158853D
:1016F000842F85238F3F09F06BC016E05FC086E022
:10170000FE013796DE01119601900D928A95E1F760
:101710008A859B85892B89F388859F8189238F3FC3
:1017200061F32091F10130E0C9010196877099279A
:101730004091F0014817190671F40E949F0710921A
:10174000F1011092F00186E0E2E2F2E0DF011D9289
:101750008A95E9F7D2CF96E0929FD001939FB00D82
:101760001124AE50BE4FFE01319601900D929A9514
:10177000E1F78093F1010E945409BFCF819FC0011E
:1017800011248E509E4F0E94D9098823E9F0E091E0
:10179000F0011E9FF0011124EE50FE4F4081518157
:1017A00062817381848195810E94DC078091F001C0
:1017B00090E00196877099278093F0018091F00165
:1017C0009091F1018913DACF2C96E3E00C94352740
:1017D00069857A858B859C850E94DC078ECF682F72
:1017E00080910401909105010E949C1E0895682F2C
:1017F00080910401909105010E94AA1E0895809194
:101800000401909105010E94B81E0895809148023C
:1018100085958595859508958091480287700895EE
:1018200090914802977081E009F480E008958091DA
:101830006B02089590916B02892B80936B0208953F
:10184000809590916B02982390936B02089510926B
:101850006B02089590916A02892B80936A02089521
:10186000809590916A02982390936A02089510924D
:101870006A02089580914902089508950E943D0CDE
:1018800008959091310392FF08C0909149029817F2
:1018900021F0809349020E943E0C089580914902F4
:1018A000882329F01092490280E00E943E0C08959E
:1018B000CF93DF93E0910401F091050180916B02D9
:1018C0008083E0910401F0910501808190916A028A
:1018D000892B808390914902992381F0E091040142
:1018E000F09105018081892B808380910401909182
:1018F00005010E94081E81110E944E0CC091040136
:10190000D091050140E250E068E272E0CE010E9411
:10191000AA27892B59F080E2FE01A8E2B2E00190EB
:101920000D928A95E1F7CE010E94961DDF91CF912D
:10193000089508950E94990C08959091310392FFA3
:1019400011C098E0899F90011124622B6093480296
:101950000E942E08809148028595859585950E9464
:101960009A0C08950E942E0808951092480280E073
:101970000E949A0C08959091480280958923809343
:101980004802282F277091F4282F082E000C330BC3
:101990009217130659F09091310392FF07C0859575
:1019A000859585950E943E080E94B50C08959091FA
:1019B000310392FB222720F9281769F080FB92F966
:1019C0009093310380913003909131030E941F0D59
:1019D00082E00E94BB0C08958091310382FB88272E
:1019E00080F991E089270E94D70C089581E00E9438
:1019F000D70C089580E00E94D70C08956FEF7FEF19
:101A000090E080E00E94F227089590E080E00E943C
:101A1000CE2721E0873E9E4F09F020E0822F0895D7
:101A200082E090E00E94C027089583E090E00E9449
:101A3000C027089584E090E00E94CE270895BC015D
:101A400084E090E00E94F2270895AB01BC018FE092
:101A500090E00E94E6270895AB01BC0183E190E08D
:101A60000E94E627089560E070E0CB010E942C0DF3
:101A7000089560E070E0CB010E94250D0E94330DB7
:101A8000089567EE7EEF90E080E00E94F22760E02C
:101A900082E090E00E94D42760E083E090E00E9422
:101AA000D4271092EF011092EE0160E074E184E01F
:101AB00090E00E94F22760E086E090E00E94D42748
:101AC0006FEF87E090E00E94D42740E050E0BA0139
:101AD00088E090E00E94E62760E08DE090E00E94C0
:101AE000D42740E050E0BA0188E190E00E94E62768
:101AF00060E087E190E00E94D42740E050E0BA0126
:101B00008CE190E00E94E62770E060E080E290E0E7
:101B10000E94F22740E050E0BA0188E190E00E9484
:101B2000E6270E94390D08950E94410D0895682FFF
:101B30008EE090E00E94D42708950E94851F609354
:101B400078027093790280937A0290937B0260937B
:101B500074027093750280937602909377020895D1
:101B6000089508950E94B10D089508950E94B50D3D
:101B7000089583E490E10E947F1D0E94B00D0E94B1
:101B8000B20D089581E008950E94C20D0895089550
:101B900008950E94C70D0E94C80D08950E945F100D
:101BA0000E94C40308950E94701F0E942A110E947F
:101BB000CE0D0E94471A0E94B60D0895AAE0B0E02B
:101BC000E4EEFDE00C9412270E9440118EE6A82E50
:101BD00082E0B82E750110E0F70101917F01812F9D
:101BE0000E9485101F5F163009F440C00817A1F34A
:101BF00080917C0281FD0E948B100E94C40DC82E32
:101C000010E0812F0E948510082FF50181915F015E
:101C1000081731F1F12CEE24E394D02ED8268D2D27
:101C20008E21B1F0CC20A1F0FE821F8391E0802FA5
:101C30008E2109F490E098870E94791F8160782FA7
:101C40009A8789874E815F8168858A850E94F00323
:101C5000F394EE0CF7E0FF12E2CFF5013197008329
:101C60001F5F163071F60E949D0D20C00813C0CF73
:101C70000E94791F8C0180916C0290916D0208176F
:101C80001907A1F08FEF89838A831B820E94791F35
:101C90008160782F9D838C8349815A816B818D81EE
:101CA0000E94F00310936D0200936C020E947A1A56
:101CB0000E945C130E94D7032A96EAE00C942E2718
:101CC000CF93DF930E945E0FEC01811520E5920710
:101CD000D0F5811530E4930708F086C0803E910569
:101CE00018F58D3C910508F07DC0883A910570F497
:101CF000853A910508F06EC08130910501F1009799
:101D0000F1F00497E0F4D0E0C0E019C0813C910507
:101D1000D0F7C85AD0E0CC0FDD1FC15ADE4F099072
:101D2000D881C02DD4640BC08115904208F0A8C0A2
:101D3000C11581E0D80718F4C83ED10520F7CE01BF
:101D4000DF91CF910895803622E5920710F5803417
:101D500032E5930708F052C08032924508F047C040
:101D6000C11582E5D80708F47DC02C2F269526954D
:101D700040E2249F900111248C2F8370C1E0D0E0B9
:101D800002C0CC0FDD1F8A95E2F7C22BD32BDD6892
:101D9000D6CF803A22E5920760F4803832E5930787
:101DA00008F441C0CF71D0E0DC2FCC27C46FD06ADB
:101DB000C6CF803C42E5940708F449C0C03E82E5A6
:101DC000D80708F0A0CFDC2FCC27CC27DF71C06F5D
:101DD000D06AB5CFC55AD0E0CF56DE4FC881D0E02B
:101DE000D064ADCFD065ABCFDF70D06AA8CFCF7154
:101DF000D0E0DC2FCC27C16FD06AA1CF282F269549
:101E00002695277080E2289F900111248C2F8370E3
:101E1000C1E0D0E002C0CC0FDD1F8A95E2F7C22BF3
:101E2000D32BDC688CCF282F26952695277040E28F
:101E3000249F900111248370C1E0D0E002C0CC0F38
:101E4000DD1F8A95E2F7C22BD32BDA6878CF8F712A
:101E50000E940010C82FD0E0DC2FCC27CC27DF71E8
:101E6000D0626DCF8C2F8F710E94001035E0D69517
:101E7000C7953A95E1F7CF709C2FEC01D0695FCF01
:101E80008D2F8F710E94001090E0982F882788274F
:101E90009F719C012C2BE901E3CF462F763030F463
:101EA000673020F4672F0E94D702089590E080E009
:101EB00008950E944D0F0E94600E0895823891058A
:101EC000B9F1B0F48133910509F47DC048F4893249
:101ED000910509F46DC08A32910509F47BC008951B
:101EE0008533910509F45FC08933910509F108959F
:101EF000833E9105D9F138F4803E910529F1823E67
:101F0000910579F10895863E9105D9F1873E9105B5
:101F100009F43EC0843E910541F52091310321FF33
:101F200024C08091300384FD19C087EE90E00895AD
:101F300020913003237009F05AC02091310323FF10
:101F400014C089E290E008952091300320FD38C04C
:101F50003091310330FF09C024FF43C090E080E09E
:101F600008952091300322FDF7CF0895209130038A
:101F700022FD3AC03091310330FD39C024FFF5CF46
:101F8000EDCF2091300323FFF0CF24FDE7CFCDCF5D
:101F90002091300323FD2EC03091310331FFEECF6D
:101FA00084EE90E008952091300325FFDECFC9CF65
:101FB0002091300325FD21C02091310323FFD5CF8F
:101FC00089E390E0D2CF2091300326FFCECF8AE282
:101FD00090E008952091300326FFC7CF81E390E081
:101FE000089583EE90E0089582EE90E0089580EEEB
:101FF00090E0089586EE90E0089585E390E00895DE
:102000009091300392FF06C0282F28712830F9F4F0
:10201000877F846093FF06C0282F28712831F1F450
:10202000877E84612091310320FF06C0382F3871EC
:102030003830D9F4877F816021FF06C0282F2871AE
:102040002831D1F4877E816194FD877E0895282F01
:1020500024712430F9F68B7F8860DCCF282F24711F
:10206000243101F78B7E8861DDCF382F317131301B
:1020700019F78E7F8860E0CF282F2171213121F759
:102080008E7E8861E1CF80E008950E94FE0C089565
:102090000E9440118FE39CE90197F1F700C0000016
:1020A0000E94401180E00E94851080FF04C00E94C1
:1020B00045100E94C41F08950E94481008950E9470
:1020C000050D811102C00E94940D0E94100D809395
:1020D0007C020E941A0D90933103809330030E947A
:1020E0005C100E94150D90E00E94F2078091EC01B7
:1020F0009091ED010E941308089508950E947D10AB
:10210000089508950E9481100895E82FF0E0E85C9A
:10211000FC4F80810895089580EA8A95F1F708952B
:1021200000C008950E948C100895F894E82FE2955D
:10213000EF70F0E031A1282F2F7081E090E001C016
:10214000880F2A95EAF7982F9095932391A392A14F
:10215000892B82A3789408950F931F93CF93DF93D5
:10216000CBE9D1E089918F3F11F00E94951081E079
:10217000C13AD807B9F7C4E9D1E00BE911E0899178
:102180008F3F11F00E9495100C171D07C1F7DF91CA
:10219000CF911F910F910895B0E0A0E0E2EDF0E142
:1021A0000C941427EC01D62E062F10E0C80185569A
:1021B0009E4F7C01FC0180818F3F09F444C0F8945C
:1021C000E82FE295EF70F0E091A18F7021E030E010
:1021D00001C0220F8A95EAF7892F822B81A382A161
:1021E0002095282322A378940E949010E4E9F1E03E
:1021F00031E0C12C21912F3F59F1A22FA295AF7050
:10220000B0E090968C9190E02F7002C095958795E4
:102210002A95E2F780FD1CC0832FC82A330F81E086
:10222000EB39F80739F7F70180818F3F11F00E94F1
:10223000951061E0C11001C060E08D2D0E949210E8
:10224000C00FD11FC882CDB7DEB7E8E00C943027AD
:1022500080E0E3CF0E94AC1086E0E8E3F3E0DF012A
:10226000982F1D929A95E9F7E2E3F3E0DF011D92C2
:102270008A95E9F786E00E947B110E942903089560
:10228000A6E0B0E0E6E4F1E10C9417278E010F5FC1
:102290001F4F86E0F80111928A95E9F7F12C6F2D16
:1022A000C8010E94CC10F394F6E0FF12F8CF46E08C
:1022B00050E0B80182E393E00E94AA2721E0009752
:1022C00009F420E0892B41F086E0F801A2E3B3E0B5
:1022D00001900D928A95E1F746E068E373E082E3AE
:1022E00093E00E947C11182F0E942C03812F2696C8
:1022F000E5E00C9433270895CF92DF92EF92FF929E
:102300000F931F93CF936C017B01042F222349F07D
:1023100081E080937F020E94791F90937E028093D8
:102320007D02C0917F02C1110AC0C0E08C2FCF9105
:102330001F910F91FF90EF90DF90CF9008958091C3
:102340007D0290917E020E94911F059770F310E02C
:10235000A801B601C7010E94AA27892B41F0A80154
:10236000B601C7010E94B72710927F02DFCFC0E0FD
:10237000FBCF0E944A210E94D30D0E94572108954D
:102380000E945C210E94DE0D0E94762108950E9429
:10239000121F0E9430210E94B90D0E94B9110E94A3
:1023A000C0110E94C90DFBCF8091860280FF0DC035
:1023B00060910B0170E0660F771F6038710570F552
:1023C0006115710569F1862F089581FF07C060913D
:1023D0000B0184E0689FB0011124EFCF60910B01E5
:1023E00082FD0AC0809185028823A9F020910A010C
:1023F00060910B01821710F088E0ECCF869FC0013E
:10240000112433E0880F991F3A95E1F7622F70E0AD
:102410000E949D26D2CF68E070E0D5CF8FE7089567
:1024200081E008958091860280FF0CC060910701D1
:1024300070E075956795759567956115710549F11A
:10244000862F089581FF06C06091070170E07595A1
:102450006795F3CF6091070182FD0BC090918402D4
:102460009923A1F06091060180910701961738F039
:10247000682F70E06038710500F38FE70895899F39
:10248000C001112470E00E949D26F4CF61E070E04D
:10249000D7CF81E008958D3C31F40E94D41181950D
:1024A00080938A0208958E3C19F40E94D411F8CFCB
:1024B0008F3C31F40E94D411819580938902089554
:1024C000803D19F40E94D411F8CF893D29F40E946F
:1024D000121280938B0208958A3D21F40E941212F9
:1024E0008195F7CF8B3D31F40E9412128195809334
:1024F0008C0208958C3D19F40E941212F8CF9FE2CD
:10250000980F983070F4815D990B21E030E001C0A4
:10251000220F8A95EAF780918802822B80938802A5
:1025200008958D3D31F4809186028160809386020A
:1025300008958E3D21F4809186028260F7CF8F3D11
:10254000B9F7809186028460F1CF409189028D3C79
:1025500059F480918A0287FF0DC010928A024111BE
:102560000BC01092850208C08E3C81F480918A02D3
:1025700018169CF3442381F080918B0290918C0279
:10258000892B09F05AC01092840208958F3C49F4B7
:1025900047FFF0CF1092890280918A028111ECCF1F
:1025A000E0CF803D19F41416ACF3E4CF90918B0288
:1025B000893D29F41916F4F610928B02DBCF8A3D7F
:1025C00019F497FFD7CFF8CF90918C028B3D29F467
:1025D00097FFD0CF10928C02CDCF8C3D19F41916F5
:1025E000CCF3C8CF9FE2980F983090F4815D990B9F
:1025F00021E030E0B90102C0660F771F8A95E2F74B
:10260000CB01809590918802892380938802B2CF74
:102610008D3D31F4809186028E7F80938602AACF11
:102620008E3D21F4809186028D7FF7CF8F3D09F09A
:10263000A1CF809186028B7FF0CF08950E94791FF1
:102640009C019091890280918A02982B21F030930D
:1026500083022093820290918B0280918C02982BAE
:1026600021F0309381022093800287E892E00E945B
:10267000B01D089586E0E7E8F2E0DF011D928A953B
:10268000E9F7109285021092840210928602089552
:10269000FC01828181110EC0838181110BC0848174
:1026A000811108C091E08581811101C090E0892FDE
:1026B0008170089581E0FCCFA6E0B0E0E2E6F3E1AE
:1026C0000C94192786E0E7E8F2E0DE01119601900C
:1026D0000D928A95E1F71092890210928A02109267
:1026E0008B0210928C028B819C81892B89F08091C6
:1026F0008202909183020E94911FAC019091850209
:102700009923C9F180910C018417150608F440C083
:102710008D819E81892B91F0809180029091810220
:102720000E94911FAC0190918402992309F471C019
:10273000809108018417150608F479C0BE016F5F07
:102740007F4F87E892E00E94CA1E811105C087E88A
:1027500092E00E94481381110E941E1386E0FE0140
:102760003196A7E8B2E001900D928A95E1F726969E
:10277000E3E00C94352720910D018AE0289F900119
:1027800011242417350720F69F5F9093850202C01D
:102790009F3FD1F71B81112359F00E94D4119FEF65
:1027A00011160CF491E0899F802D112480938902E9
:1027B0001C81112359F00E94D4119FEF11160CF4C3
:1027C00091E0899F802D112480938A0230918902A3
:1027D000332309F49DCF20918A02222309F498CF54
:1027E00045EB3403C0011124992359F090938902D9
:1027F00045EB240390011124332339F030938A02EE
:1028000087CF81E080938902F3CF81E080938A02B1
:102810007FCF209109018AE0289F9001112424177D
:10282000350708F08BCF9F5F9093840202C09F3FD3
:10283000D1F71D81112359F00E9412129FEF11163A
:102840000CF491E0899F802D112480938B021E81CE
:10285000112359F00E9412129FEF11160CF491E00F
:10286000899F802D112480938C0230918B02332319
:1028700009F464CF20918C02222309F45FCF45EB49
:102880003403C0011124992359F090938B0245EB36
:10289000240390011124332339F030938C024ECF5E
:1028A00081E080938B02F3CF81E080938C0246CF4E
:1028B000EF92FF920F931F93CF93DF93EB01E82FDB
:1028C000D1110EC0442321F0F0E0EE53FD4FE4910E
:1028D0006E2F7E2F8E2FCDB7DEB7E6E00C94322719
:1028E0000D2F10E0282F30E0442329F02E533D4FC8
:1028F000F901249130E0F6E0CF9FC0011124EFEF01
:10290000F0E0BF010E948926AB018C2F90E0880F78
:10291000991FA5E5A49FB001A59F700D1124861BEA
:10292000970B982F990F980FBF01601B710B629F37
:10293000D001639FB00D729FB00D11248B2F9D9F0E
:10294000B0011124672F7727EF01C61BD70BBE01FB
:10295000629FE001639FD00D729FD00D11247F0113
:10296000E91AF108E09EB001E19E700DF09E700D35
:102970001124672F7727E61BF70BE29F8001E39F67
:10298000100DF29F100D1124E12F722F42305105CE
:1029900099F048F44115510569F04130510581F035
:1029A000EB2F8D2F07C04430510569F080F0463081
:1029B0005105B1F76E2F8FCFE22F7B2F812FFACFEA
:1029C000E22F7D2FF7CFEB2F822F712FF3CF7B2FAD
:1029D000822FED2FEFCF41E00E9458140895089503
:1029E0000E94EB140895CF93DF93762FE901682FAF
:1029F000842F0E94F014798368838A83DF91CF91BA
:102A0000089580913E03982F9E7F29F48170826003
:102A100080933E0308958635E8F381708465F8CF8E
:102A200088E090E00E94C8270895CF92DF92EF924D
:102A3000FF926B017C010E940115B701A60188E09D
:102A400090E00E94E627FF90EF90DF90CF900895EE
:102A5000EEE3F3E083E0808311828FEF8283838350
:102A6000148260817181828193810E94151508957D
:102A700080913E0380FF02C08695089580E008950E
:102A800090914203933018F49F5F90934203882300
:102A900051F060913E0370913F038091400390910B
:102AA00041030E941515089581E00E944015089584
:102AB00090914203992319F09150909342038823F7
:102AC00051F060913E0370913F03809140039091DB
:102AD00041030E941515089581E00E94581508953C
:102AE00070E00E94A51B08956091120180913E0341
:102AF00080FF0BC08091110123E0829FC00111244F
:102B00008D5B9C4F0E9470150895809113019091E8
:102B1000140123E0829FF0011124ED5BFC4F891723
:102B200048F71182108212828F5F3396F8CF90910E
:102B30003E0390FF0EC0909113012091140133E0E9
:102B4000939FF0011124ED5BFC4F921718F00E9447
:102B5000741508958183608342839F5F3396F5CF18
:102B6000A3E0B0E0E6EBF5E10C941A2790913E0368
:102B700090FF0AC09E012F5F3F4F0E94F3144B81CC
:102B800069818A810E9497152396E2E00C9436278A
:102B9000CF93DF93EC01EC81F0E0E354FE4F4491DE
:102BA000EEE3F3E0628181810E94B0158C818F5F3A
:102BB0008C83DF91CF910895CF93DF93EC01EEE307
:102BC000F3E0438162818C810E94B0158C818F5F1C
:102BD0008C83DF91CF910895A3E0B0E0E2EFF5E1BF
:102BE0000C9418278C0180918D0281110AC09E01DE
:102BF0002F5F3F4F4FEF6FEF0E94F3148A81809356
:102C00008D02F8016481613069F080918D0240E0AD
:102C1000662361F040E0623011F440918D0280E063
:102C200060E004C060918D0240E080E00E94971552
:102C3000F801848190E0019663E070E00E949D2697
:102C400084832396E4E00C943427A3E0B0E0EBE225
:102C5000F6E10C941327082FD62EE42EC22E909165
:102C60003E0390FF29C0E92FE695AE2FB0E0AF55A7
:102C7000BE4F8C91809300039E7F923009F59E0198
:102C80002F5F3F4F802F0E94F3144B8169818A810F
:102C90000E94971500933F03D0924003E0924103B6
:102CA000CC2051F060913E0370913F03809140032E
:102CB000909141030E9415152396E9E00C942F276B
:102CC000823019F4E0904103E5CF863019F4009189
:102CD0003F03E0CF8930D9F38931E1F6E9516E2F16
:102CE0006170B62EE695F0E0E354FD4F1491F12C9F
:102CF00060911501F61618F00E947415CBCFF19E65
:102D0000C001112470E00E948926802FB11014C0E8
:102D1000860F20911301622F6F0D7727771F9B017C
:102D2000220F331F260F371F2D5B3C4F4E2D6D2D6D
:102D30000E94F314F394DCCF861BEBCFEEE3F3E0B9
:102D40009181282F4381628188E0890F0E94251696
:102D5000089581E00E949E160895EEE3F3E09181CC
:102D6000282F4381628188EF890F0E9425160895DC
:102D700081E00E94AD160895EEE3F3E0628128E061
:102D8000620F08F46FEF282F438181810E9425167E
:102D9000089581E00E94BC160895EEE3F3E062819D
:102DA00028E0621B08F460E0282F438181810E94A3
:102DB0002516089581E00E94CD160895EEE3F3E014
:102DC000438128E0420F08F44FEF282F6281818170
:102DD0000E942516089581E00E94DE160895EEE314
:102DE000F3E0438128E0421B08F440E0282F628191
:102DF00081810E942516089581E00E94EF160895B2
:102E000020E00E9425160895EF92FF921F93CF9322
:102E1000DF93EC0110E0EE24EA94F12C60911501AF
:102E2000161770F00E9474159A818C8190FF27C04C
:102E30008F5F8C83DF91CF911F91FF90EF9008956A
:102E400020911301422F410F5527551FCA019A01A6
:102E5000220F331F280F391F2D5B3C4F70E0C70135
:102E60000E949D26962F8C814091410360914003E2
:102E7000199F800D11240E94F3141F5FCFCF815042
:102E8000D8CFB0E0A0E0E7E4F7E10C941227FC0112
:102E900082810FEF80FF01E010E045E1A42E8091D8
:102EA0001501181798F00E94741580918F02013057
:102EB00009F04FC0811102C08091150181508093AB
:102EC0008F02CDB7DEB7EAE00C942E27C091130134
:102ED000C12ED12CCC0DDD2DD11DCE01880F991F17
:102EE000C80FD91FCD5BDC4F198218821A8234E0DB
:102EF000E32EF12CB12C80918F028B0D86311CF1C9
:102F00006A2D0E947B26892F082E000C990BC8166B
:102F1000D90691F4809141038E9DA0018F9D500DA3
:102F2000112455954795559547959E01609140030D
:102F300080913F030E94F314B00EF1E0EF1AF10804
:102F4000D1F61F5FACCF87FFDFCF90911501890FBE
:102F5000DBCF90E001966091150170E00E949D2604
:102F6000AECF0F931F93CF93DF9380911301909176
:102F7000140123E0829FF0011124ED5BFC4F8917BF
:102F800040F1C0E0D3E060911501C61740F10E9406
:102F9000741520910F0180918E02820F80938E0212
:102FA00090911001920F90931001191654F4082E6D
:102FB000000C990B409115014150550B8417950752
:102FC0001CF0219520930F01DF91CF911F910F915C
:102FD00008951182108212828F5F3396D0CF0C2F0A
:102FE00010E070E0C8010E949D2620911301820F1D
:102FF000482F50E020918E02022E000C330B021756
:103000001307BCF020911001022E000C330B201787
:1030100031077CF08D9F900111242D5B3C4F409136
:1030200041036091400380913F030E94F314CF5FFE
:10303000AACFFA01EE0FFF1FE40FF51FED5BFC4F67
:10304000118210821282F3CFB0E0A0E0EAE2F8E150
:103050000C941027EC014C81042F10E09801D8014A
:103060000E94E1269B01AC010E94F7264B015C0106
:10307000E0E2F0E0E01BF10BA5E5B0E0AC019B0164
:103080000E94F7266B017C019F01DF010E94D92677
:103090009B01AC010E9402279B01AC01280D391D48
:1030A0004A1D5B1DC701B6010E94B126F22E822F78
:1030B00090E039E23F1520F143E0249F9001112474
:1030C00035952795122F109500E085E5E82EEF182D
:1030D00080911501081718F10E9474159C8181E0F8
:1030E000992319F0903219F48FEF80930E0180919B
:1030F0000E01890F8C83CDB7DEB7ECE00C942C2742
:1031000025E530E0B901681B790B9B01220F331FC5
:10311000260F371F37FFD4CF2F5F3F4FD1CF8E2DD4
:1031200001FD8F2D20911301622F600F7727771FEC
:103130009B01220F331F260F371F2D5B3C4F412F62
:10314000609140030E94F3140F5FC2CF0F931F934F
:10315000CF93DF93EC0110E000E090911501901700
:10316000110609F06CF40E9474158C8190E00196B0
:10317000817099278C83DF91CF911F910F910895D2
:1031800020911301A801420F511D9A01220F331FF4
:10319000240F351F2D5B3C4F4C8160914003809183
:1031A0003F0396959017110651F04CF0442349F0D7
:1031B000409141030E94F3140F5F1F4FCECF442371
:1031C000B9F340E0F7CFB0E0A0E0E9EEF8E10C940D
:1031D0000C27FC016280448081E08483EDEBF1E008
:1031E0007490ECE3F2E0E491C0914103C695C158BC
:1031F000D0E0CC0FDD1FCD2FDD27812C75E0972E81
:10320000AA24AA94B12C55245A94E719EE2EF12C35
:1032100080911501881638F00E947415CDB7DEB77D
:10322000E0E10C942827C82CD12C82E0861568F0A8
:103230009C9CF0019D9CF00D1124E057FD4F809166
:103240003F038083809140038183411023C09C9C75
:10325000F0019D9CF00D1124E057FD4F1382128266
:1032600020911301C601820F911D9C01220F331F73
:10327000280F391F2D5B3C4F9C9CF0019D9CF00D4D
:103280001124E057FD4F4281618180810E94F31437
:103290008394BECF9C9C80019D9C100D11240057EF
:1032A0001D4FF80183818823F1F081508383859D30
:1032B000C0011124648170E00E948926FB01FF2770
:1032C000E354FE4F8491E82FE719E59DC0011124D6
:1032D000B7010E94892680914103689FB0011124A3
:1032E000F8017283BDCF0E948D27B5010E949D26F3
:1032F0008C179D070CF0B4CFF2E0F61598F40E94FD
:103300008D27B5010E949D26F80180830E948D279C
:10331000209140032695622F70E00E949D26280F81
:10332000F80121839C9CF0019D9CF00D1124E05735
:10333000FD4F128280914103893C58F088EC9C9C9F
:10334000F0019D9CF00D1124E057FD4F8483838391
:1033500087CF8431A0F784E1F2CFEEE3F3E0808100
:103360008E7F808360817181828193810E94151597
:10337000109201030E947415089560913E036695B2
:1033800070E04BE050E086E191E00E949D27892BA0
:1033900019F481E0809301030E94791F9093FA024F
:1033A0008093F902089590913E0390FF2BC0917095
:1033B000811129C0926090933E03662351F0609181
:1033C0003E0370913F0380914003909141030E941E
:1033D000151560913E03669570E04BE050E086E184
:1033E00091E00E949D27892BA9F01092010381E0B2
:1033F0008093FC02409141036091400380913F0320
:103400000E94001708958B3210F09465D4CF880F76
:10341000982BD1CF0E94BD19EACF682F90913E031F
:10342000969581E0890F8B3208F081E00E94D319D4
:10343000089581E00E940D1A0895682F90913E032F
:1034400096958FEF890F09F48AE20E94D3190895A7
:1034500081E00E941D1A089561E00E94D319089529
:10346000EEE3F3E080818160808386950E942C1AD0
:10347000089580913E0380FF03C00E94AD19089516
:103480000E94301A089560E00E94D3190895809137
:10349000FF0281112EC00E94050D811104C00E94FF
:1034A000940D0E9428150E94101560933E0370939E
:1034B0003F0380934003909341036E7F61F40E9429
:1034C00028150E94101560933E0370933F0380936C
:1034D0004003909341030E940115109201038091D3
:1034E0003E0380FF03C086950E94431A81E08093CB
:1034F000FF0208950F931F93CF93DF9380910103F1
:103500008823B9F180910003E0913E03E695E81B22
:10351000E093FB02823091F5F0E0E754FE4FE49136
:10352000CE2FD0E008EC15E18091FC02882361F0F9
:103530001092FC020E94791F9093FA028093F90284
:103540001092FE021092FD020E94791FE091F90292
:10355000F091FA028E1B9F0B8F3F9F4750F4EC0FA8
:10356000FD1FF093FA02E093F90289EF92E0F8016F
:103570000995DF91CF911F910F910895863049F4FD
:10358000F0E0EA54FE4FE491CE2FD0E00CED15E1CF
:10359000CBCF893051F4E695F0E0ED54FE4FE49145
:1035A000CE2FD0E004E017E1BFCF8F3051F4E69585
:1035B000F0E0E055FE4FE491CE2FD0E001E417E1BA
:1035C000B3CF853149F4F0E0E355FE4FE491CE2FBF
:1035D000D0E001EB17E1A8CFC8E2D0E004E218E1A7
:1035E000883109F4A1CF833239F4EBEAF1E0C591D7
:1035F000D4910CEE15E198CFC4EFD1E006EA18E1C2
:10360000843209F491CFC0EDD7E00FEE14E185329A
:1036100009F08ACF8E2F63E00E946F26E92FF0E039
:10362000E855FE4FE491CE2FD0E003EE18E17CCFB9
:10363000FA01811101C0FB0109950895CF93DF9331
:10364000C82FD62F0E9438158C1748F00E943815C5
:103650008D1728F40E94191ADF91CF9108958C2FAD
:103660000E942C1AF9CF1F93CF93DF93EC01FB013B
:103670001281111110C00E94170C8272FE01E052DB
:10368000F847E531F10508F05EC0EB5CF74D0C94AE
:10369000D3260E94391A812FDF91CF911F9108956F
:1036A00048E25AE169E17AE10E94181BF4CF49E14E
:1036B0005AE168E27AE1F8CF48EB56E169EA76E14F
:1036C000F3CF49EA56E168EB76E1EECF4AED56E1F9
:1036D00069EC76E1E9CF49EC56E16AED76E1E4CFB9
:1036E0004CEF56E16BEE76E1DFCF4BEE56E16CEF3F
:1036F00076E1DACF4CE655E164E575E1D5CF44E5F6
:1037000055E16CE675E1D0CF81E00E942C1AC3CF61
:1037100065E082E00E941E1BBECF68E086E0FACF23
:103720006EE089E0F7CF64E18FE0F4CF67E185E1F7
:10373000F1CF88E1EACF62E289E1ECCF83E2E5CF25
:103740006AE285E2E7CF11E0A6CF879A41B34F77CF
:1037500051B35068EFB7F8949B01220F331F260F27
:10376000371F280F391F2817390741F4EFBF8FE59E
:1037700094E00197F1F700C000000895DC016D911D
:10378000CD0178E051BB000000C067FF41BB660F70
:10379000000000C000C000C041BB00C07A9591F796
:1037A000E2CFCF93DF93EC01FB018281882309F400
:1037B000D2C09E0130572332310508F0B2C00E94BA
:1037C0001A0D9093310380933003FE01E150F047CE
:1037D000E232F10520F4E65BF74D0C94D32680919C
:1037E000300381608093300393C0809131038860FF
:1037F000809331038DC0809130038260F3CF80913C
:1038000030038460EFCF809130038860EBCF8091EC
:1038100031038160EDCF809131038260E9CF8091E7
:1038200030038061DFCF809130038062DBCF8091F5
:1038300030038064D7CF0E949F0780913003806857
:10384000D1CF809130038C60CDCF809131038360E4
:10385000CFCF809130038E7FC5CF80913103877F9A
:10386000C7CF809130038D7FBDCF809130038B7F98
:10387000B9CF80913003877FB5CF809131038E7FA0
:10388000B7CF809131038D7FB3CF809130038F7E8E
:10389000A9CF809130038F7DA5CF809130038F7B9E
:1038A000A1CF0E949F07809130038F779BCF80919B
:1038B0003003837F97CF809131038C7F99CF8091A4
:1038C000300382FB992790F921E0922790FB82F93F
:1038D00090FB83F987CF80913103982F9095917059
:1038E0008E7F892B90FB81F983CF90913003892FB4
:1038F0008F7B96FF806476CF0E949F079091300364
:10390000892F97FB87F980586DCF81E00E94970D32
:1039100080913003909131030E941F0D0E949F07F8
:1039200080E0DF91CF91089580E0F0CF9091300357
:10393000892F8F7E94FF806155CF90913003892F1E
:103940008E7F90FF81604ECF90913103892F877FCA
:1039500093FF88604DCF81E0E4CFCF93DF93EB01FD
:1039600086319C4711F50E94170C9A81992399F092
:103970008A7A91E009F490E090930203811109C0E2
:1039800089E20E94EF0B0E94580C80E0DF91CF91FA
:10399000089585E3F6CF80910203811104C089E286
:1039A0000E94F70BF0CF85E3FBCF81E0EFCF0F93C1
:1039B0001F93CF93DF93C42FD22FFC0182818823E2
:1039C000C9F0409305030E94791F909304038093EC
:1039D000030380E28C0F883040F4C77081E001C09F
:1039E000880FCA95EAF70E944205DF91CF911F9197
:1039F0000F91089510910503141332C080910303B1
:103A0000909104030E94911F883C910548F5C0E203
:103A1000CD0F1D17B9F080E2810F883040F4177088
:103A200081E001C0880F1A95EAF70E944905C83065
:103A300048F481E09D2F977001C0880F9A95EAF7AE
:103A40000E944205802F0E943905C83070F6D77059
:103A500081E001C0880FDA95EAF70E944905C5CFD9
:103A600080E28C0F883008F6C77081E001C0880FB3
:103A7000CA95EAF7F2CF0F93DB0188519C47873054
:103A80009105A0F5FC01E459F74D0C94D32606E20C
:103A900021EE41EE6AE17CE7CD010E94D71C80E077
:103AA0000F91089507E225EE45EE6BE17CE7F4CF38
:103AB00006E221EE40EE68E17CE7EECF07E225EE7C
:103AC00044EE69E17CE7E8CF06E221EE42EE6CE1EC
:103AD0007CE7E2CF07E225EE46EE6DE17CE7DCCF46
:103AE00008E221E045EE6EE17CE7D6CF12968C919C
:103AF000882319F010920503D3CF81E0D1CF9093A2
:103B0000CD018093CC01089590930B0380930A0319
:103B10000895E0910A03F0910B03309729F001908A
:103B2000F081E02D0995089580E00895E0910A0361
:103B3000F0910B03309799F020912901222359F03D
:103B40002091300327FF07C0DC012C9111962C93A4
:103B5000119726E02C930280F381E02D09950895BA
:103B6000E0910A03F0910B03309739F022E0DC0179
:103B70002C930480F581E02D09950895A3E0B0E031
:103B8000E4ECFDE10C941A2720910803309109031D
:103B900028173907A1F09093090380930803E09157
:103BA0000A03F0910B03309751F023E029839B83A4
:103BB0008A830680F781E02DCE0101960995239630
:103BC000E2E00C943627A3E0B0E0E9EEFDE10C94CE
:103BD0001A27209106033091070328173907A1F00F
:103BE0009093070380930603E0910A03F0910B037F
:103BF000309751F024E029839B838A830680F781E4
:103C0000E02DCE01019609952396E2E00C9436272B
:103C1000FC01329680912901882321F080913003A4
:103C20009EE187FF96E080E0915008F4089521918D
:103C30002223D1F38F5FF8CF662301F12091290170
:103C40002223F1F02091300327FF1AC0462F46951A
:103C5000469546954E3190F4677021E030E002C001
:103C6000220F331F6A95E2F7840F911DFC018281B8
:103C700090E02823392381E0232B69F480E0089524
:103C8000FC01329608962191261721F0E817F907D2
:103C9000D1F7F4CF81E008959C01FC0132969FEFAB
:103CA00080E04191461751F09F3F19F4411101C046
:103CB000982F8F5F8630A9F79F3F09F40895290F49
:103CC000311D97FD3A95F90162830895FC01329602
:103CD00008962191261303C0DF0111971C92E81763
:103CE000F907B9F70895E62FE695E695E695EE31E2
:103CF00068F4E80FF92FF11D677021E030E001C092
:103D0000220F6A95EAF78281822B82830895E62F3B
:103D1000E695E695E695EE3170F4E80FF92FF11D82
:103D2000677021E030E001C0220F6A95EAF7209524
:103D3000828128232283089520912901222339F0AA
:103D40002091300327FF03C00E94731E08950E9434
:103D50004C1E089520912901222339F0209130032F
:103D600027FF03C00E94871E08950E94661E0895C3
:103D7000FC01329680912901882351F08091300313
:103D800087FF06C08EE1DF011D928A95E9F708954D
:103D900086E0F9CF46E050E00E94AA2721E0892B77
:103DA00009F420E0822F089508950E94D41E0895FA
:103DB000811106C081E080930C030E94D51E0895F6
:103DC00082E0F9CF83E080930C030E94D51E089512
:103DD0000E94D81E089581E080930C030E94D51E96
:103DE00008950E94EB1E0895089508950E94F51EFF
:103DF0000895089508950E94F41E0895CF930E9497
:103E0000F91E0E9440110E94FA1EC0E08C2F0E94F1
:103E10008510811105C0CF5FC630C1F7CF910895DD
:103E200081E0FCCF85B7806885BF85B7806885BF96
:103E300008951F921FB61F9211248F939F93AF93E3
:103E4000BF9380910D03811113C0809182039091E3
:103E50008303A0918403B09185034196A11DB11DF8
:103E60008093820390938303A0938403B09385038C
:103E7000BF91AF919F918F911F901FBE1F9018957A
:103E800080918A03843031F10E94A40310920D03C3
:103E900088E190E020E40FB6F894A8958093600044
:103EA0000FBE2093600083B7817F846083BF83B798
:103EB000816083BF7894889583B78E7F83BF0FB668
:103EC000F894A895809160008861809360001092BA
:103ED00060000FBE08950E949F070E94A9030895E5
:103EE00082E084BD93E095BD9AEF97BD80936E000C
:103EF00008952FB7F8948091820390918303A09145
:103F00008403B09185032FBF08952FB7F894609173
:103F100082037091830380918403909185032FBF66
:103F200008959C014FB7F894809182039091830388
:103F3000A0918403B09185034FBF821B930B08951A
:103F400078941F921FB61F9211248F939F93AF9363
:103F5000BF938091820390918303A0918403B091D9
:103F600085030196A11DB11D809382039093830365
:103F7000A0938403B0938503BF91AF919F918F91DC
:103F80001F901FBE1F90189587E797E79093010831
:103F90008093000888E19AE00FB6F894A895809382
:103FA00060000FBE90936000FFCF88E19AE00FB6EB
:103FB000F894A895809360000FBE90936000FFCFA7
:103FC00080912E0308959B01BA0190918A03943049
:103FD000E9F48F708093E9009FEF8091E8009150A1
:103FE00085FD06C085ED8A95F1F700009111F5CFAA
:103FF0008091E80085FF0AC050E040E0C9010E94BE
:10400000E8218091E8008E778093E800089543E0EE
:1040100050E0BC0182E00E94E31F089546E050E0BA
:10402000BC0182E00E94E31F0895CF93DF93EC016F
:1040300080912901811111C048E050E0BE0181E06A
:104040000E94E31F80E2FE01AEE0B3E001900D921A
:104050008A95E1F7DF91CF9108958091300387FF32
:1040600005C040E282E050E0BE01EACF48E081E0D6
:10407000FACF80918903811109C00E9478230E94A0
:10408000D5238091E20084608093E200089510922D
:10409000890308950E94EB1E08956091860381E0D4
:1040A000611101C080E00E94E21E089590918A0390
:1040B00081E0943009F080E0609186030E94E81E60
:1040C000089542E061EC81E00E94F42242E261EC5A
:1040D00082E00E94F42290918A0381E0943009F0FA
:1040E00080E0609186030E94D81E089580918C0321
:1040F000833009F461C030F48130D1F1823009F4A9
:104100009EC008958A3009F48AC08B3009F46FC0CC
:10411000893009F050C080918B03813209F04BC087
:1041200080918F0390919003029708F044C0809192
:10413000E800877F8093E8008091E80082FF37C025
:104140009091F3008091F200029731F48091F10098
:10415000813011F0863021F48091F10080932E039C
:104160008091E8008B778093E8000E94282323C089
:1041700080918B03813AF9F48091E800877F8093E6
:10418000E80080918F0390919003892B61F460E2A5
:104190008EE093E070E00E9437228091E8008B77F8
:1041A0008093E800089560E090E080E0F3CF809194
:1041B0008A038111C1CF089580918B03813AD9F789
:1041C00080918F0390919003892BA9F78091E8004B
:1041D000877F8093E8008091E80080FFFCCF80918A
:1041E00029018093F1008091E8008E77BCCF809107
:1041F0008B03813201F780918F0390919003892B7B
:10420000D1F68091E800877F8093E8000E94282300
:1042100080918D03809329010E949F0708958091CA
:104220008B03813241F68091E800877F8093E8001C
:104230000E94282380918E0380932F0308958091FC
:104240008B03813A09F0B7CF8091E800877F809394
:10425000E8008091E80080FFFCCF80912F03C1CF60
:1042600084B7877F84BF0FB6F894A89580916000CB
:10427000886180936000109260000FBE80E890E03B
:104280000FB6F89480936100909361000FBE0E9476
:10429000F11E08950E9478230E94D523E2EEF0E0FB
:1042A00080818460808378940E945426089581E2FE
:1042B00091E00E94841D089580918A03853031F435
:1042C00080918A03853019F00E946B1F08950E9427
:1042D000401F80918803882399F30E94FE1E882343
:1042E00079F30E94D2210E949F07EACF08950E948D
:1042F0007A210895292F33272330310519F168F4E5
:104300002130310509F444C02230310509F445C09B
:1043100090E080E030E020E025C02132310549F115
:1043200022323105A9F780E490E027EF34E06115EF
:104330007105C1F086EB90E021E434E06130710555
:1043400089F0E6CF99278130910581F0009729F017
:104350000297F1F6E2ECF3E002C0E0EFF3E08491C3
:1043600090E09F01FA01318320830895ECECF3E0A3
:10437000F6CF89E090E026E034E06115710591F315
:1043800089E090E02FE134E06130710559F3C0CF4E
:1043900082E190E02FE234E0E5CF8BE390E024EF80
:1043A00033E0E0CF80E189BD82E189BD09B400FE40
:1043B000FDCF8091D8008F7D8093D8008091E00060
:1043C00082608093E0008091E00081FDFCCF089541
:1043D000AF92BF92CF92DF92FF920F931F93CF9332
:1043E000DF936C01EB018A010E944723F82E8111B3
:1043F00023C00115110539F0F80180819181C81B96
:10440000D90BC80ED91EB12CA12C2097A9F08091F0
:10441000E80085FD22C08091E8008E778093E80057
:1044200001151105A1F0F80180819181A80EB91E36
:10443000B182A08285E0F82E8F2DDF91CF911F9160
:104440000F91FF90DF90CF90BF90AF9008950E94A2
:1044500047238823D1F2F82EEFCFF60181916F0127
:104460008093F1002197FFEFAF1ABF0ACECFFC0176
:10447000809191039091920386179707A0F06115A0
:10448000710529F49091E8009E779093E80090E000
:104490006115710551F4911108C08091E80082FF07
:1044A00034C080E00895BC01F2CF80918A03882354
:1044B000C1F18530C1F18091E80083FD30C0809169
:1044C000E80082FDEACF8091E80080FFE1CF809193
:1044D000F3002091F200382F6115710519F0283092
:1044E000310558F091E02830310509F090E0209135
:1044F000E8002E772093E800CBCF81918093F100E4
:10450000615071092F5F3F4FE7CF80918A03882365
:1045100041F0853041F08091E80083FFBECF81E01B
:10452000089582E0089583E00895FC01809191034D
:104530009091920386179707A0F06115710529F4F1
:104540008091E8008E778093E80090E06115710516
:1045500051F4911108C08091E80082FF35C080E0DD
:104560000895BC01F2CF80918A038823C9F1853078
:10457000C9F18091E80083FD31C08091E80082FD9F
:10458000EACF8091E80080FFE1CF8091F300209195
:10459000F200382F6115710519F02830310558F0F7
:1045A00091E02830310509F090E08091E8008E77A5
:1045B0008093E800CBCF84918093F10031966150D5
:1045C00071092F5F3F4FE6CF80918A03882341F026
:1045D000853041F08091E80083FFBDCF81E00895F0
:1045E00082E0089583E00895982F973028F08F7027
:1045F0008093E90081E008959093E900242F762FBD
:1046000050E0981731F07091EC002091ED0050913E
:10461000F00021FD02C09F5FE8CF3091EB003E7FAC
:104620003093EB003091ED003D7F3093ED00309101
:10463000EB0031603093EB007093EC002093ED00C1
:104640005093F0002091EE0027FDE5CF80E0089523
:1046500080918B0387FF13C08091E80082FF06C022
:104660008091E8008B778093E80004C080918A03F2
:104670008111F2CF089580918A038823D9F3809124
:10468000E80080FFF8CF8091E8008E77ECCF209192
:10469000E4003091E50095E6A9012091EC00822F1D
:1046A000817020FF06C08091E80080FF06C080E096
:1046B00008952091E80022FD1AC080918A03882382
:1046C00089F0853089F08091EB0085FD0FC0209145
:1046D000E4003091E50042175307F9F29150E1F6FA
:1046E00084E0089582E0089583E0089581E00895CC
:1046F0000E94E7230E94EF23E0EEF0E080818160DA
:104700008083E8EDF0E080818F77808319BCA7ED8E
:10471000B0E08C918E7F8C9380818F7E808310920D
:10472000890308950F931F93CF93DF930E94E7238C
:104730000E94EF23C8EDD0E088818F77888388813D
:104740008068888388818F7D888319BC10928A0352
:1047500010928603109288031092870300EE10E0F7
:10476000F80180818B7F808388818160888342E02B
:1047700060E080E00E94F422E1EEF0E080818E7F34
:104780008083E2EEF0E080818160808380818860B8
:104790008083F80180818E7F808388818061888317
:1047A000DF91CF911F910F910895E8EDF0E08081A6
:1047B0008F7E8083E7EDF0E080818160808384E0FC
:1047C00082BF81E0809389030E9492230895E8EDDF
:1047D000F0E080818E7F80831092E2000895109235
:1047E000DA001092E10008951F920F920FB60F9217
:1047F00011242F933F934F935F936F937F938F93E6
:104800009F93AF93BF93EF93FF938091E10082FF5B
:104810000BC08091E20082FF07C08091E1008B7F96
:104820008093E1000E9453268091DA0080FF19C036
:104830008091D80080FF15C08091DA008E7F809330
:10484000DA008091D90080FF96C080E189BD82E1C5
:1048500089BD09B400FEFDCF81E080938A030E94E8
:1048600039208091E10080FF19C08091E20080FF33
:1048700015C08091E2008E7F8093E2008091E2007B
:1048800080618093E2008091D80080628093D8009C
:1048900019BC85E080938A030E944D208091E1003D
:1048A00084FF2BC08091E20084FF27C080E189BD96
:1048B00082E189BD89B5982F917080FFFBCF8091EF
:1048C000D8008F7D8093D8008091E1008F7E809307
:1048D000E1008091E2008F7E8093E2008091E2000F
:1048E00081608093E20080918603882309F449C0A7
:1048F00084E080938A030E9456208091E10083FF28
:1049000029C08091E20083FF25C08091E100877F6C
:104910008093E10082E080938A0310928603809165
:10492000E1008E7F8093E1008091E2008E7F809392
:10493000E2008091E20080618093E20042E060E06A
:1049400080E00E94F4228091F00088608093F00063
:104950000E944A20FF91EF91BF91AF919F918F915B
:104960007F916F915F914F913F912F910F900FBE6B
:104970000F901F90189519BC10928A030E9447202F
:1049800070CF8091E30087FD93E090938A03B3CFCB
:104990001F920F920FB60F9211242F933F934F93B4
:1049A0005F936F937F938F939F93AF93BF93CF93B7
:1049B000DF93EF93FF93D091E900DF708091EC00DB
:1049C000C82FC17080FDC0E81092E9008091F0000E
:1049D000877F8093F00078940E940C251092E90064
:1049E0008091F00088608093F000CD2BCF70C09351
:1049F000E900FF91EF91DF91CF91BF91AF919F912E
:104A00008F917F916F915F914F913F912F910F9077
:104A10000FBE0F901F901895AAE2B0E0E2E1F5E218
:104A20000C9419278BE893E02091F100FC0121936D
:104A3000CF01F3E083399F07B9F70E947620809178
:104A4000E80083FF1EC180918B0390918C039A3004
:104A500008F017C1E92FF0E0ED58F74D0C94D3267C
:104A6000803899F0823809F00CC180918F038F70E3
:104A7000873008F006C18093E9008091EB0085FB48
:104A8000882780F91092E90006C0809187039091F1
:104A90008803911182609091E800977F9093E800DD
:104AA0008093F1001092F1008091E8008E77E5C0CC
:104AB000882309F4D3C0823009F0E3C080918D03CC
:104AC0008111D6C080918F038F702FEF280F263071
:104AD00008F0D7C08093E9002091EB0020FFC8C008
:104AE000933031F48091EB0080628093EB00C0C082
:104AF0009091EB0090619093EB0021E030E001C0D9
:104B0000220F8A95EAF72093EA001092EA0080913A
:104B1000EB008860EACF8111B4C010918D031F773C
:104B20008091E3008078812B8093E3008091E800FE
:104B3000877F8093E8000E9428238091E80080FF0F
:104B4000FCCF8091E30080688093E30082E0111144
:104B500083E080938A0395C08058823008F091C02A
:104B600080918D0390918E038C3D23E09207A1F5F7
:104B700083E08A838AE289834FB7F894DE01139633
:104B800020E03EE051E2E32FF0E050935700E49143
:104B900020FF03C0E295EF703F5FEF708E2F90E033
:104BA000EA30C0F0C7968D939D932F5F243159F75B
:104BB0004FBF8091E800877F8093E8006AE270E051
:104BC000CE0101960E9437228091E8008B77809376
:104BD000E80057C0C096E7CF60918F0370919003B3
:104BE000AE014F5F5F4F0E947721BC01892B09F412
:104BF00048C09091E800977F9093E80089819A815E
:104C00000E949522E1CF8038E1F58091E800877F0E
:104C10008093E800809186038093F10045CF811155
:104C200030C090918D03923060F58091E800877FCD
:104C30008093E800909386030E9428238091860346
:104C4000882311F084E005C08091E30087FDFACF4E
:104C500081E080938A030E94612013C080918D03BC
:104C6000813079F481E0933009F080E0809388030B
:104C70001092E9008091E800877F8093E8000E940D
:104C800028238091E80083FF0AC08091E800877F95
:104C90008093E8008091EB0080628093EB00AA96FD
:104CA000E3E00C9435270895CF9380918A038823FD
:104CB000A1F0C091E900CF709091EC00892F817034
:104CC00090FD80E8C82B1092E9008091E80083FDF8
:104CD0000E940C25CF70C093E900CF910895991BD5
:104CE00079E004C0991F961708F0961B881F7A95E3
:104CF000C9F78095089587FB082E062687FD8195C4
:104D000067FD61950E946F260EF4919507FC8195D1
:104D10000895AA1BBB1B51E107C0AA1FBB1FA61702
:104D2000B70710F0A61BB70B881F991F5A95A9F754
:104D300080959095BC01CD01089597FB072E16F440
:104D4000009407D077FD09D00E94892607FC05D082
:104D50003EF4909581959F4F0895709561957F4F92
:104D60000895A1E21A2EAA1BBB1BFD010DC0AA1FAC
:104D7000BB1FEE1FFF1FA217B307E407F50720F0C4
:104D8000A21BB30BE40BF50B661F771F881F991F3F
:104D90001A9469F760957095809590959B01AC0188
:104DA000BD01CF010895EE0FFF1F0590F491E02D96
:104DB00009940E94E126332312F48A1B9B0B0C9466
:104DC000F226A29FB001B39FC001A39F700D811D69
:104DD0001124911DB29F700D811D1124911D089504
:104DE0000E94E126B7FF0895821B930B08950E944D
:104DF000E126A59F900DB49F900DA49F800D911D5D
:104E000011240895B7FF0C94F7260E94F726821B01
:104E1000930B08952F923F924F925F926F927F92E1
:104E20008F929F92AF92BF92CF92DF92EF92FF92BA
:104E30000F931F93CF93DF93CDB7DEB7CA1BDB0B66
:104E40000FB6F894DEBF0FBECDBF09942A8839880B
:104E500048885F846E847D848C849B84AA84B98412
:104E6000C884DF80EE80FD800C811B81AA81B9811E
:104E7000CE0FD11D0FB6F894DEBF0FBECDBFED0132
:104E800008958F929F92AF92BF92CF92DF92EF924E
:104E9000FF92CF93DF93EC01688179818A819B81B6
:104EA000611571058105910521F464E279ED8BE5C9
:104EB00097E02DE133EF41E050E00E9408284901DE
:104EC0005A019B01AC01A7EAB1E40E94F7266B01ED
:104ED0007C01ACEEB4EFA50194010E940527DC0132
:104EE000CB018C0D9D1DAE1DBF1DB7FF03C00197EB
:104EF000A109B04888839983AA83BB839F77DF91F8
:104F0000CF91FF90EF90DF90CF90BF90AF909F90A8
:104F10008F9008950E944127089580E091E00E94BB
:104F200041270895B0E0A0E0809300019093010133
:104F3000A0930201B09303010895FC014150504039
:104F400030F001900616D1F73197CF0108958827E8
:104F500099270895FB01DC0104C08D91019080190F
:104F600021F441505040C8F7881B990B0895FB016C
:104F7000DC0102C001900D9241505040D8F70895D5
:104F8000F999FECF92BD81BDF89A992780B5089511
:104F9000A6E1B0E044E050E00C94FA27A8E1B0E0CC
:104FA00042E050E00C94FA27262FF999FECF92BDEB
:104FB00081BDF89A019700B4021639F01FBA20BDDE
:104FC0000FB6F894FA9AF99A0FBE08950396272F10
:104FD0000E94D5270E94D427252F0E94D527242F51
:104FE0000C94D5270196272F0E94D5270C94D427FF
:104FF000DC01CB01FC01F999FECF06C0F2BDE1BD99
:10500000F89A319600B40D9241505040B8F7089587
:10501000052E97FB1EF400940E941F2857FD07D011
:105020000E94B12607FC03D04EF40C941F28509523
:105030004095309521953F4F4F4F5F4F0895909584
:105040008095709561957F4F8F4F9F4F0895F8948D
:10505000FFCF8B058B05BC05BC054E066A06EB052C
:10506000EB056F06E006EF06EF06491B501B571BCA
:105070005C1B611B661B6B1B701B751B7A1B7F1BEC
:10508000841B881B8D1B901B931B961B991B9B1BC2
:105090009E1BA01B291C9D1C311CFB1BFF1B351CD0
:1050A000031C391C451C0F1C961C131C491C171C87
:1050B0004D1C751C1B1C511C7C1C211C571C5F1C8F
:1050C000071C3D1C0B1C411C251C5B1C6B1C851C00
:1050D000941CF51B2D1CA41C581D5E1D471D521D44
:1050E000641D6A1D701D302558254126582541260E
:0A50F0008B25AC25412603260F2670
:1050FA00010000004A02280850011E0A1401010199
:10510A0002001500151501191A1B1C1D1E1F20214E
:10511A0022E01F15200E20072001E200E900EA0024
:10512A00B500B600B700CD008301CC008A01920118
:10513A0094012102230224022502260227022A02BE
:10514A00B300B4006F0070009F01CB01818283E23B
:10515A0000E900EA00B500B600B700CD008301CC33
:10516A00008A0192019401210223022402250226C7
:10517A000227022A02B300B4006F0070009F01CB1D
:10518A0001818283349392F535F697F49466C69139
:10519A009000010202020206060609090909090924
:1051AA000F0F0F0F0F0F15151518191919191919AE
:0C51BA0019191919232425252525252560
:00000001FF
