:100000000C94B4020C9485200C94D1020C94D1026F
:100010000C94D1020C94D1020C94D1020C94D10214
:100020000C94D1020C94D1020C9495270C9469285D
:100030000C9490220C94D1020C94D1020C94D10215
:100040000C94D1020C94D1020C94D1020C94D102E4
:100050000C94D1020C9433230C94D1020C94D10251
:100060000C94D1020C94D1020C94D1020C94D102C4
:100070000C94D1020C94D1020C94D1020C94D102B4
:100080000C94D1020C94D1020C94D1020C94D102A4
:100090000C94D1020C94D1020C94D1020C94D10294
:1000A0000C94D1020C94D1020C94D10229001400BA
:1000B0001A0008001500170000002A0004001600AE
:1000C000070009000A0000002B001D001B000600AD
:1000D000190005000000E200E300E000E100015823
:1000E000000000001C0018000C0012001300330078
:1000F0002D000B000D000E000F0034000000280042
:1001000011000000100036003700380001512C4269
:10011000000000005000520051004F0035001E004A
:100120001F0020002100220000000000000000004D
:100130000000000000000000E100000000000000DE
:1001400000002F0200005000520051004F0001003B
:1001500000000000230024002500260027002D00B9
:100160002E000000000000000000330000003100FD
:100170003002000000002F0030002E0001002A0095
:10018000000000000000E6000100000035021E0231
:100190005200200221022202000001005000510002
:1001A0004F004B004A0000000100010001004C001C
:1001B0004E004D000000010001000100010001009F
:1001C00000000000230224022502260227022D023D
:1001D0002E020100010001000100330200000100B5
:1001E0000100000001002F023002010001000100A7
:1001F00000000000010001000100210B00003A0096
:100200003B003C003D003E000000000000000000FC
:1002100000000000000000000000000000000000DE
:1002200000000000000001000000000000000000CD
:10023000000000003F004000410042004300440035
:100240004500000000000000000000000000000069
:10025000000000000000000000000000000000009E
:1002600000000000000000000000000000047F3FCC
:100270001F643214643214783C1E1E140A052223B3
:10028000252628292A2C2D2F3032333536383A3B73
:100290003D3E4042434547494A4C4E5051535557C5
:1002A000595A5C5E6062646668696B6D6F717375E4
:1002B00077797B7D7F81838587898A8C8E909294E4
:1002C00096989A9C9E9FA1A3A5A7A8AAACAEAFB1F1
:1002D000B3B4B6B8B9BBBCBEBFC1C2C3C5C6C7C93B
:1002E000CACBCCCDCED0D1D2D2D3D4D5D6D7D7D8F5
:1002F000D9D9DADADBDBDBDCDCDCDCDCDDDDDDDD47
:10030000DCDCDCDCDCDBDBDBDADAD9D9D8D7D7D64E
:10031000D5D4D3D2D2D1D0CECDCCCBCAC9C7C6C505
:10032000C3C2C1BFBEBCBBB9B8B6B4B3B1AFAEAC4B
:10033000AAA8A7A5A3A19F9E9C9A98969492908EF6
:100340008C8A89878583817F7D7B79777573716FCF
:100350006D6B6968666462605E5C5A5957555351AB
:10036000504E4C4A4947454342403E3D3B3A383661
:10037000353332302F2D2C2A292826252322FFAA77
:100380007F5540000101010101010101010202024A
:100390000202020202020303030303030303040431
:1003A00004040404040505050505060606060607FB
:1003B0000707070708080808090909090A0A0A0BB4
:1003C0000B0B0C0C0C0D0D0D0E0E0E0F0F0F101055
:1003D00011111112121313141415151616171718DC
:1003E0001819191A1A1B1B1C1D1D1E1E1F20202147
:1003F0002222232424252626272829292A2B2C2D8E
:100400002D2E2F30313232333435363738393A3BAE
:100410003C3D3E3F404142434445464748494A4CA3
:100420004D4E4F50515354555658595A5B5D5E5F6F
:10043000616264656668696B6C6D6F707273757705
:10044000787A7B7D7E8082838587888A8C8E8F9167
:10045000939596989A9C9EA0A2A3A5A7A9ABADAF91
:10046000B1B3B5B7BABCBEC0C2C4C6C9CBCDCFD17B
:10047000D4D6D8DBDDDFE2E4E7E9EBEEF0F3F5F824
:10048000FAFDFF100346006F0075007200690065F9
:1004900000720000000E034B0065006500620069F9
:1004A000006F0000000403090409023B0002010080
:1004B000A0FA090400000103010100092111010053
:1004C0000122400007058103080001090401000121
:1004D00003000000092111010001223200070582FA
:1004E00003200001120100020000000810CB471297
:1004F00000010102000105010980A1018503190124
:100500002AB700150126B700950175108100C005B6
:100510000C0901A101850419012AA002150126A0D8
:1005200002950175108100C005010906A1010507AA
:1005300019E029E71500250195087501810295014B
:10054000750881010507190029FF150026FF009590
:1005500006750881000508190129059505750191A1
:1005600002950175039101C011241FBECFEFDAE09F
:10057000DEBFCDBF11E0A0E0B1E0EEEEF6E502C0D7
:1005800005900D92A83DB107D9F723E0A8EDB1E0A1
:1005900001C01D92AF30B207E1F70E94B4140C9471
:1005A0005F2B0C94000081E0089581E008950E9483
:1005B000D502089508950E94DA020895A5E0B0E0FA
:1005C000E4EEF2E00C94C02A49835A833091DF01B3
:1005D00089819A81311119C0662399F0222389F00B
:1005E0000E94BD08182F682F89819A810E9499085E
:1005F00069817A81812F0E94240F2596E3E00C9473
:10060000DC2A0E94AB08182FF3CF0E94BD08698135
:100610007A81F1CFFC01262F408151816281738163
:1006200084810E94DE02089581E00895CF93DF93D4
:10063000EC0160E00E940A03BE010E94DB02DF9130
:10064000CF9108950E94961008950E949A100895DF
:1006500008950E9464070E9428032FEF84E39CE022
:10066000215080409040E1F700C0000008950E94B2
:1006700029030E94572308950E9429030E9468239A
:1006800008950F931F93CF93DF938C0161E00E9435
:100690000A03EC01B8010E94D702811106C080E074
:1006A000DF91CF911F910F910895B801CE010E9463
:1006B000951F8823A1F3B801CE010E94D11C882385
:1006C00071F3B801CE010E94071F882341F3B801DE
:1006D000CE010E94C51B882311F3F8018281882373
:1006E00061F0CB35FDE5DF0701F158F4C115ECE50C
:1006F000DE0791F0CF3DDC4591F0C8010E94D302A6
:10070000CFCFCD358DE5D80769F090F0C83ADD45FB
:10071000A1F70E943C03C3CF0E943703C0CF0E94C1
:10072000700DF7CF0E94B50CE8CF0E94BF0CE5CF4B
:100730000E94C30CE2CF0E946D220E94B80308956C
:100740000E94BC030E947222089508950E94A5038E
:10075000089581E008950E94A90308950895CF9314
:10076000C82F0E94A6038C2F0E94AB03CF9108953F
:1007700080E00E94AF0308950E94AB210E94AF0366
:100780000895CF930E94AB21C82F8091DA018C1776
:1007900079F0C093DA010E94FC226093DB01709330
:1007A000DC018093DD019093DE018C2F0E94AF036A
:1007B000CF910895ABE0B0E0E0EEF3E00C94C12AF5
:1007C0004F83588769877A878B8761110E94000C55
:1007D0001E821D8285E0FE013796DE011196019092
:1007E0000D928A95E1F78C819D81892B61F4498175
:1007F0005A816B817C818D819E810E94290B2B9671
:10080000E2E00C94DD2A89819A8189238F3F79F374
:10081000CE0101960E9414038111E9CFF0CFFC01B3
:10082000808191810E94EF080895CF93C82F88237B
:10083000C9F08238C9F40E94AB2181FD13C089E35D
:100840000E94B80B0E94210C2FEF87EE93E02150FD
:1008500080409040E1F700C0000089E30E94C00B97
:100860000E94210CCF9108958338A1F40E94AB21FE
:1008700080FDF8CF83E50E94B80B0E94210C2FEF7A
:1008800081EE94E0215080409040E1F700C00000EC
:1008900083E5E4CF8438A1F40E94AB2182FDE2CF4E
:1008A00087E40E94B80B0E94210C2FEF81EE94E0A8
:1008B000215080409040E1F700C0000087E4CECF97
:1008C0008CEF8C0F813AB8F48C2F0E94D01E8111CE
:1008D000C9CF6C2F80910001909101010E940822E4
:1008E000882329F08C2F0E94C00B0E94210C8C2F92
:1008F0000E94B80BB5CF80E28C0F883048F4C770E7
:1009000081E001C0880FCA95EAF70E94E30BA8CFE7
:10091000EBE5EC0FE33040F4F0E0EF58FE4F808160
:1009200090E00E94CA219ECFC85AC73108F09ACFE2
:10093000EC2FF0E0EE0FFF1FED5BFE4F8081918109
:100940000E94E0218FCF882309F44DC0823879F4CA
:100950000E94AB2181FF47C089E30E94B80B0E942F
:10096000210C89E30E94C00B0E94210C089583385A
:1009700059F40E94AB2180FF36C083E50E94B80B7A
:100980000E94210C83E5EECF843859F40E94AB21FC
:1009900082FF29C087E40E94B80B0E94210C87E4E3
:1009A000E1CF9CEF980F913AE8F290E2980F9830DF
:1009B00050F4877091E001C0990F8A95EAF7892F6A
:1009C0000E94E90BD1CF9BE5980F933028F490E07B
:1009D00080E00E94CA210895885A873120F490E06F
:1009E00080E00E94E02108951F93CF93DF93182F9A
:1009F000EB010E941504209739F4812F0E94A30473
:100A0000DF91CF911F9108958FE99FE00197F1F752
:100A100000C000002197EFCF70E060E0893311F44F
:100A200060E570E00E94F4040895882321F00E949C
:100A3000E30B0E94210C0895882321F00E94E90B0A
:100A40000E94210C0895B0E0A0E0E9E2F5E00C94EA
:100A5000BA2A6C01D62FC72FFC011281F580F294BF
:100A60009FE0F9220E94D90BE82E8823B9F0E12EED
:100A70001123A1F08C2F807F803421F080E28D0F34
:100A80008830D0F08091BC0282FF16C082E00E94C4
:100A9000840C0E94D90B91E0E82EE926BC2EB2947A
:100AA0008FE0B822FBE0FB1508F468C0EB2DF0E006
:100AB000EF59F44D0C947A2AE12CF0CF0C2F0F70E3
:100AC000C07F11F00295007F112399F0002359F0A7
:100AD00080E28D0F883010F0D11107C0802F0E9466
:100AE000E30B0E94210C8D2F41C0802F0E94F30B3D
:100AF000F8CF8D2F0E94A304002309F43FC080E2A9
:100B00008D0F883010F0D11104C0802F0E94E90BA6
:100B100003C0802F0E94F90B0E94210C2FC00C2FC4
:100B20000F70C07FC03211F00295007FDD2381F08D
:100B3000D13009F463C0112309F46DC0FF2009F41A
:100B400063C0F601858180FFCECF8F7085835CC046
:100B50008091BC0282FD33C0112359F0002329F09B
:100B6000802F0E94E30B0E94210C80E00E9415045C
:100B700005C080E00E94A3040111C7CFEB2DE8500F
:100B8000FF0B349720F40E94AB210E94AF03EE20AC
:100B900089F00E94D50B80FD0DC0F60112820E94E3
:100BA000CF0B0E94F707C6010E9428070E94CF0BB7
:100BB0000E940708CDB7DEB7E9E00C94D62A1123CE
:100BC00089F0F11006C00E94030C802B0E941505CD
:100BD000D5CF21E0F212F7CF0E94030C802B0E94A8
:100BE0000A0CCCCFF11006C00E94170C802F0E9477
:100BF0001C05C4CF31E0F31609F2F6CF112331F012
:100C000085E08F1508F4BACF802FE0CF94E09F15D0
:100C100008F4B4CFEBCFFF2049F3D93349F4FFEF09
:100C200027EE33E0F15020403040E1F700C00000F3
:100C30008D2F0E94A304A2CF8C2F8695869583705A
:100C400069F0813009F09ACF8D2F9C2F937011118C
:100C500002C090E080E00E94E02190CF8D2F9C2F79
:100C60009370111102C090E080E00E94CA2186CFEB
:100C70008C2F8370A1F5111181CF4D2F4295469590
:100C80004770440F440F2D2F2F7030E0042E02C008
:100C9000220F331F0A94E2F790E080E0D4FF09C0EE
:100CA0008FE090E002C0880F991F4A95E2F7809587
:100CB0009095C695C695C370822B932BC23049F090
:100CC00058F4C13019F00E94C50758CF0E94BC07E4
:100CD00055CF0E94CE0752CF0E94B9074FCF8695BD
:100CE000112311F08C2F8170882309F447CF4D2FE9
:100CF000429546954770440F440F2D2F2F7030E0DA
:100D0000042E02C0220F331F0A94E2F790E080E025
:100D1000D4FF09C08FE090E002C0880F991F4A9568
:100D2000E2F780959095C695C695C370822B932B5C
:100D3000C23049F058F4C13019F00E9432081ECF79
:100D40000E9429081BCF0E943B0818CF0E94DD0794
:100D500015CFCF70112329F08C2F0E94F7078D2F0C
:100D600035CF8D2F0E941C058C2F0E94070806CFBF
:100D7000D23F51F160F4D03FB9F0D13F81F011235F
:100D800009F449C0F110AFCE8C2F8F7121C0D33F31
:100D900011F1D43FA1F78091BC0282FD26C08C2FB7
:100DA0008F71112311F314C0112349F084E08F15C2
:100DB00008F4E4CE8C2F8F710E941908DFCE95E0E5
:100DC0009F1508F4DBCEF6CF8C2F8F711111CDCF8C
:100DD0000E94F707D3CE112329F08C2F8F710E9428
:100DE000EB07CCCE0E94E607C9CE112349F0CF71A4
:100DF0008C2F0E94F70763E08C2F0E94660CBECEFA
:100E000081E00E94840CE1E0EF1508F0B7CE82E0AB
:100E10000E94840CB3CEF11000CF8C2F8F71A5CF20
:100E20000F931F93CF93DF93EC01688179818A81BF
:100E30000E94FA088C010E9444080E94B807B80179
:100E4000CE010E942305DF91CF911F910F9108954C
:100E5000CF93DF93EC018B819C81892B29F08881D2
:100E6000998189238F3F51F4DF91CF910895CE016D
:100E70000E941007CE010E941603F6CFCE010E94F9
:100E800041038111F4CF0E94D90B882369F38A8131
:100E9000882351F38091BC0282FFE6CF82E00E945A
:100EA000840CE2CF90E080E00E94CA2190E080E0D4
:100EB0000E94E0210E94000C0E94210C08950E94D3
:100EC000C80B0E94520708950E94F00B0E945F0712
:100ED000089592959F70963091F058F4925F9F70AC
:100EE000923058F4803F19F030F4883E30F481E0BD
:100EF00008959A5FF4CF843FD1F380E00895883E4F
:100F0000B0F3813FD1F7F3CFFC0183819481892B2A
:100F100029F08081918189238F3F11F480E0089529
:100F2000808191810E94EF080E9469070895A5E0E1
:100F3000B0E0EDE9F7E00C94C12A2596E2E00C94CC
:100F4000DD2AA6E0B0E0E7EAF7E00C94C12A269695
:100F5000E2E00C94DD2A08950E94AB0708950E94F8
:100F6000AC079093FF018093FE010E945207089501
:100F700008950E94AF0708952091FE013091FF016E
:100F8000822B932B0E94AF0708952091FE01309190
:100F9000FF01822393230E94AF0708952091FE0151
:100FA0003091FF01822793270E94AF0708950E9486
:100FB000AB0708950E94D70708950E94DA0790931F
:100FC000FD018093FC010E945207089590E080E0AB
:100FD0000E94DD07089521E030E0A90102C0440F1E
:100FE000551F8A95E2F7CA010E94DD07089521E0A6
:100FF00030E002C0220F331F8A95E2F78091FC0196
:101000009091FD01822B932B0E94DD07089521E032
:1010100030E002C0220F331F8A95E2F72095309509
:101020008091FC019091FD01822393230E94DD07B2
:10103000089521E030E002C0220F331F8A95E2F7C5
:101040008091FC019091FD01822793270E94DD078A
:1010500008952091FC013091FD01822B932B0E9479
:10106000DD0708952091FC013091FD018223932337
:101070000E94DD0708952091FC013091FD01822737
:1010800093270E94DD0708950895262F277091E089
:1010900001C0990F2A95EAF723E0769567952A957E
:1010A000E1F7660F771F660F771FFA01E60FF71F4C
:1010B00050E040E0682F70E08191DF0111979B01C3
:1010C000042E02C0369527950A94E2F721702195E7
:1010D0002827292328272C934F5F5F4F4430510541
:1010E00059F70895A82FA77023E0969587952A951C
:1010F000E1F7880F991F880F991FFB01E80FF91F6F
:1011000050E040E080E0219130E00A2E02C03695A8
:1011100027950A94E2F721703327042E01C0220F8D
:101120000A94EAF7822B4F5F5F4F4430510559F71D
:101130000895262F983070F4873060F4682F70E09F
:1011400087E0989F600D711D112440EE51E0822FC1
:101150000E9445080895292F983068F4873058F484
:1011600090E060EE71E037E0239F800D911D112427
:101170000E947208089580E00895B0E0A0E0E3ECDA
:10118000F8E00C94BA2A7C010091FC011091FD0159
:101190008091FE019091FF01082B192BCFE0D0E048
:1011A000CC24C394D12CBC2EC6010C2E02C0880FB7
:1011B000991F0A94E2F780239123892B49F4219700
:1011C00090F7B12C8B2DCDB7DEB7E9E00C94D62A81
:1011D000B7018C2F0E943F0F019789F3F3CFCF9374
:1011E000DF93EC010E94BD08BE010E943F0FDF911A
:1011F000CF9108951F93CF93DF93EB019091DF017F
:10120000992339F0CB010E94EF08DF91CF911F9114
:101210000895882369F0CB010E94BD08182F682F1C
:10122000CE010E949908BE01812F0E943F0FEDCF91
:10123000CB010E94AB08182FF6CF1F93CF93DF93FB
:10124000C091000216E0809101028C1304C0DF916E
:10125000CF911F910895D0E01C9FF0011D9FF00DCC
:101260001124EE5FFD4F4081518162817381848141
:1012700095810E94A1072196C770E5CF4091320267
:1012800050913302609134027091350280913602A0
:10129000909137020E94A10708951F93CF93DF9387
:1012A00080913702807F09F049C080913402882301
:1012B00009F444C080910002C091010260913202A1
:1012C00070913302A0913502B0913602D62FD72308
:1012D00016E0C81799F190E0109711F0DF3F19F46C
:1012E00001968770F6CF189F9001199F300D112439
:1012F000F901EE5FFD4F41814713F2CF4081461364
:10130000EFCF42814111ECCF438154814A1B5B0BEB
:10131000483C510528F7809137028F708061809397
:101320003702F901E95FFD4F80818F708061808312
:1013300082E392E00E9428070E941D09DF91CF916D
:101340001F910895A1E1B0E0E8EAF9E00C94B92A10
:101350008C0185E0F801DE011D9601900D928A95C1
:10136000E1F7F801E28082E3C82E82E0D82E609196
:101370003502709136026115710509F44EC19091E4
:10138000320220913302892F82238F3F09F445C115
:1013900040815181A380B480F0903402F501E61BB6
:1013A000F70BFF2009F4EAC080913702382F307F15
:1013B000E83CF10508F0A3C031116DC0FE2C2513E7
:1013C00016C0941314C0E11012C08F708061809316
:1013D00037020E943E09C6010E9428078091370209
:1013E000F80185838F2D6196EAE00C94D52AA1142B
:1013F000B10429F0842F85238F3F09F027C180E0B5
:10140000F82FF170DF2E80FF3CC080910002209108
:10141000010236E0821315C04D875E878D859E855B
:101420000E94EF08292F22952F702230F0F02430EF
:1014300018F59F70F1F0F8019581907FD1F4D12CCF
:101440001EC090E0389FF001399FF00D1124EE5F2F
:10145000FD4F6181651306C06081641303C0628122
:10146000E6120FC001968770D5CF9F7011F08823C8
:1014700031F3805E883018F3C8010E942807FD2CE4
:10148000B1CFEE2009F4AECF809137028160809316
:101490003702F12CA7CF251306C0941304C0F8011E
:1014A000EE2009F487C0C8010E948407882319F13F
:1014B000EE2009F180913702803270F020913202E3
:1014C0003091330238872F831986BB86AA868C8792
:1014D000CE0107960E94280786E0F801A2E3B2E059
:1014E00001900D928A95E1F70E944D090E943E09F4
:1014F000FF24F39477CFC8010E942807F9CF311158
:1015000013C07A2DB98AA88A6E2D89890E949707FF
:1015100082E392E00E94280786E0F60111928A9504
:10152000E9F70E943E09B5CF25130FC094130DC0F3
:10153000E1100BC0F8018583C8010E94280786E0EE
:10154000F60111928A95E9F74DCFC8010E948407F0
:10155000882389F2EE2079F280913702803208F4F4
:10156000BBCF20913202309133023A8329831B8210
:10157000BD82AC828E83CE010196ACCFE83CF105F2
:1015800008F03EC0FE2CEE2009F4B5CF25132AC08A
:10159000941328C08091370280FD1BC0982F907F44
:1015A000C1F0F8018583903F31F0982F907F905FD4
:1015B0008F70892B8583C8010E94280786E0F80177
:1015C000A2E3B2E001900D928A95E1F70E943E09F4
:1015D00009CF86E0F801A2E3B2E001900D928A956E
:1015E000E1F700CFC8010E948407811175CF809177
:1015F0003702816080933702C8010E942807F2CE2B
:101600007A2DB98AA88A6E2D89890E94970786E06B
:10161000F60111928A95E9F7D9CFEE2009F46BCF44
:10162000C8010E948407F82E882309F464CF86E05D
:10163000F801A2E3B2E001900D928A95E1F782E30E
:1016400092E00E940F040E944D09C0CF81E08E25D8
:10165000D7CEACE0B0E0EFE2FBE00C94C02A4F83C1
:10166000588769877A878B879C87CE0107960E9467
:10167000A209882369F08A859B85892B39F04F81DF
:101680005885842F85238F3F09F06BC016E05FC01B
:1016900086E0FE013796DE01119601900D928A9543
:1016A000E1F78A859B85892B89F388859F8189232A
:1016B0008F3F61F32091010230E0C90101968770EC
:1016C0009927409100024817190671F40E94640797
:1016D000109201021092000286E0E2E3F2E0DF01E4
:1016E0001D928A95E9F7D2CF96E0929FD001939F01
:1016F000B00D1124AE5FBD4FFE01319601900D92E9
:101700009A95E1F7809301020E941D09BFCF819F46
:10171000C00111248E5F9D4F0E94A2098823E9F029
:10172000E09100021E9FF0011124EE5FFD4F408109
:10173000518162817381848195810E94A10780918A
:10174000000290E0019687709927809300028091B3
:101750000002909101028913DACF2C96E3E00C94F9
:10176000DC2A69857A858B859C850E94A1078ECFAE
:10177000682F80910001909101010E943E220895FE
:10178000682F80910001909101010E9441220895EB
:1017900080910001909101010E944422089580915E
:1017A00040028595859585950895809140028770C2
:1017B000089590914002977081E009F480E00895C7
:1017C00080914B02089590914B02892B80934B029C
:1017D0000895809590914B02982390934B02089521
:1017E00010924B02089590914A02892B80934A02ED
:1017F0000895809590914A02982390934A02089503
:1018000010924A02089580914102089508950E941D
:10181000060C08959091BC0292FF08C0909141027D
:10182000981721F0809341020E94070C089580913F
:101830004102882329F01092410280E00E94070CA7
:101840000895CF93DF93E0910001F0910101809121
:101850004B028083E0910001F09101018081909121
:101860004A02892B808390914102992381F0E09173
:101870000001F09101018081892B8083809100011A
:10188000909101010E94F62181110E94170CC091D4
:101890000001D091010148E050E068E372E0CE0120
:1018A0000E94012B892B59F088E0FE01A8E3B2E0E9
:1018B00001900D928A95E1F7CE010E94BF21DF9140
:1018C000CF91089508950E94620C08959091BC02F2
:1018D00092FF11C098E0899F90011124622B6093C0
:1018E00040020E94F7078091400285958595859575
:1018F0000E94630C08950E94F70708951092400219
:1019000080E00E94630C08959091400280958923A5
:1019100080934002282F277091F4282F082E000C66
:10192000330B9217130659F09091BC0292FF07C037
:101930008595859585950E9407080E947E0C0895DF
:101940009091BC0292FB222720F9281769F080FBB6
:1019500092F99093BC028091BB029091BC020E94CC
:10196000EA0C82E00E94840C08958091BC0282FB04
:10197000882780F991E089270E94A00C089581E0D2
:101980000E94A00C089580E00E94A00C089590E0B1
:1019900080E00E94252B21E0883E9E4F09F020E048
:1019A000822F089582E090E00E94172B089583E033
:1019B00090E00E94172B0895CF9384E090E00E945E
:1019C000172BC82F82E290E00E94172B982F8C2FA4
:1019D000CF910895CF93C92F682F84E090E00E94A3
:1019E0002B2B6C2F82E290E00E942B2BCF9108953D
:1019F000AB01BC018FE090E00E943D2B0895AB014C
:101A0000BC0183E190E00E943D2B089560E070E00E
:101A1000CB010E94FF0C089560E070E0CB010E94B2
:101A2000F80C0E94060D089568EE7EEF90E080E0CD
:101A30000E94492B60E082E090E00E942B2B60E046
:101A400083E090E00E942B2B1092FF011092FE0188
:101A500060E084E090E00E942B2B64E082E290E062
:101A60000E942B2B60E085E090E00E942B2B60E031
:101A700086E090E00E942B2B6FEF87E090E00E94C1
:101A80002B2B40E050E0BA0188E090E00E943D2B13
:101A900060E08DE090E00E942B2B40E050E0BA0126
:101AA00088E190E00E943D2B60E087E190E00E9499
:101AB0002B2B40E050E0BA018CE190E00E943D2BDE
:101AC00070E060E080E290E00E94492B40E050E04E
:101AD000BA0188E190E00E943D2B0E940C0D089510
:101AE0000E94140D0895682F8EE090E00E942B2B29
:101AF00008950E94FC2260935A0270935B028093C7
:101B00005C0290935D02609356027093570280933B
:101B10005802909359020895089508950E948D0DDA
:101B2000089508950E94910D089584E790E10E9420
:101B3000A1210E948C0D0E948E0D08950E944B12CF
:101B40000895089508950E94A10D0E94A20D089580
:101B50000E9477100E94AE0308950E94E7220E941F
:101B600029100E9463120E94A7110E94A80D0E94D2
:101B7000B91C0E94801A0E947F120E94920D089543
:101B8000AAE0B0E0E6ECFDE00C94B92A0E94CA118C
:101B90008EE4A82E82E0B82E750110E0F7010191C5
:101BA0007F01812F0E949D101F5F183009F440C0F3
:101BB0000817A1F380915E0281FD0E94A3100E948C
:101BC0009E0DC82E10E0812F0E949D10082FF50158
:101BD00081915F01081731F1F12CEE24E394D02EAE
:101BE000D8268D2D8E21B1F0CC20A1F0FE821F834E
:101BF00091E0802F8E2109F490E098870E94F022D6
:101C00008160782F9A8789874E815F8168858A8570
:101C10000E94DA03F394EE0CF7E0FF12E2CFF50135
:101C2000319700831F5F183071F60E94790D20C034
:101C30000813C0CF0E94F0228C0180914C02909139
:101C40004D0208171907A1F08FEF89838A831B8241
:101C50000E94F0228160782F9D838C8349815A8174
:101C60006B818D810E94DA0310934D0200934C0228
:101C70000E944B120E94ED1A0E94C1032A96EAE0CC
:101C80000C94D52ACF93DF930E94440FEC01811569
:101C900022E59207E8F5811531E5930708F0A3C026
:101CA000883E910510F5803E910570F5883A9105C2
:101CB00070F4853A910508F078C08130910521F1E2
:101CC000009711F1049700F5D0E0C0E01DC08F3BF4
:101CD0009105D0F7C85AD0E0CC0FDD1FCC58DE4FAD
:101CE0000990D881C02DD4640FC0811540E59407B8
:101CF00008F066C0C11580E4D80708F05EC0CE01C8
:101D00009A9581159F4100F7CE01DF91CF910895FB
:101D1000811536E5930718F5811545E5940708F018
:101D20007BC0C11584E5D80708F071C09E012370FF
:101D300033279C2F96959695C115D34508F458C026
:101D4000C1E0D0E002C0CC0FDD1F2A95E2F730E2FF
:101D5000939FC0011124C82BD92BDA68D5CFC115A8
:101D60008AE5D80778F4C11529E5D20708F05EC0E6
:101D7000C11538E5D30708F4A7CFDC2FCC27C06FF7
:101D8000D06AC2CFCE0190568115904208F09CCF08
:101D90008D2F8F710E94E60F90E0982F882788275B
:101DA0009F719C012C2BE9013FC0C55AD0E0CE5554
:101DB000DE4FC881D0E0D064A7CFDF70D06AA4CF57
:101DC0008370992721E030E002C0220F331F8A95EB
:101DD000E2F7C695C69580E2C89FE0011124C22BA8
:101DE000D32BDD6891CFD82FCC27C16FD06A8CCF91
:101DF000C1E0D0E002C0CC0FDD1F2A95E2F720E25F
:101E0000929FC0011124C82BD92BDC687DCFDC2F19
:101E1000CC27C46FD06A78CF0E94E60FC82FD0E0DD
:101E2000DC2FCC27CC27DF71D0626ECF8C2F8F7048
:101E30000E94E60F34E0D695C7953A95E1F7CF704A
:101E40009C2FEC01D06960CF972F7830A8F46730D1
:101E500098F470E027E0929F600D711D1124FB0142
:101E600098E3899FE00DF11D1124EE0FFF1FE4554B
:101E7000FF4F85919491089580E090E008950E942D
:101E8000240F0E94420E089582389105B9F1B0F4F2
:101E90008133910509F47DC048F48932910509F434
:101EA0006DC08A32910509F47BC008958533910590
:101EB00009F45FC08933910509F10895833E9105C6
:101EC000D9F138F4803E910529F1823E910579F1EE
:101ED0000895863E9105D9F1873E910509F43EC0EB
:101EE000843E910541F52091BC0221FF24C08091E0
:101EF000BB0284FD19C087EE90E008952091BB02DB
:101F0000237009F05AC02091BC0223FF14C089E25B
:101F100090E008952091BB0220FD38C03091BC02B2
:101F200030FF09C024FF43C090E080E00895209175
:101F3000BB0222FDF7CF08952091BB0222FD3AC0DB
:101F40003091BC0230FD39C024FFF5CFEDCF209198
:101F5000BB0223FFF0CF24FDE7CFCDCF2091BB0202
:101F600023FD2EC03091BC0231FFEECF84EE90E015
:101F700008952091BB0225FFDECFC9CF2091BB027F
:101F800025FD21C02091BC0223FFD5CF89E390E03D
:101F9000D2CF2091BB0226FFCECF8AE290E00895F7
:101FA0002091BB0226FFC7CF81E390E0089583EE26
:101FB00090E0089582EE90E0089580EE90E008951C
:101FC00086EE90E0089585E390E008959091BB023D
:101FD00092FF06C0282F28712830F9F4877F84608B
:101FE00093FF06C0282F28712831F1F4877E846181
:101FF0002091BC0220FF06C0382F38713830D9F448
:10200000877F816021FF06C0282F28712831D1F4F5
:10201000877E816194FD877E0895282F2471243066
:10202000F9F68B7F8860DCCF282F2471243101F7EB
:102030008B7E8861DDCF382F3171313019F78E7F7B
:102040008860E0CF282F2171213121F78E7E8861B1
:10205000E1CF1092B7021092B8021092B90210921A
:10206000BA020895CF92DF92EF92FF926B017C014A
:102070000E944B1281110EC00E94FC22C61AD70A80
:10208000E80AF90AC092B702D092B802E092B90207
:10209000F092BA02FF90EF90DF90CF9008950F93E7
:1020A0001F930E944B12882329F00E94FC221F914B
:1020B0000F9108950E94FC220091B7021091B8027E
:1020C0002091B9023091BA02600F711F821F931FD5
:1020D000EECF0E944B12882319F00E94F02208953F
:1020E0000E944F10CB01089580E0089508950E944A
:1020F000C70C811102C00E94700D0E94D20C809307
:102100005E020E94DC0C9093BC028093BB020E9492
:1021100076100E94D70C90E00E94B9078091FC01D4
:102120009091FD010E94DA07089508950E9495108C
:10213000089508950E9499100895E82FF0E0EA5359
:10214000FD4F80810895089580EA8A95F1F70895FA
:1021500000C008950E94A410089508950E94AD1033
:102160000895EF92FF921F93CF93DF9300D000D09A
:10217000CDB7DEB70E944B12182F6091CE02882394
:1021800009F447C019821A821B821C82862F90E0B4
:102190009E012F5F3F4F7901B9018A539D4F0E94E5
:1021A0008D128823E9F08091BD0290E044E050E078
:1021B000B7018A539D4F0E94012B21E020935F02BB
:1021C000892BC9F410E00E942503812F0F900F90F6
:1021D0000F900F90DF91CF911F91FF90EF90089596
:1021E00080915F02882371F384E0F70111928A9550
:1021F000E9F710925F02E091BD02F0E0EA53FD4F73
:1022000089819A81AB81BC8180839183A283B383CE
:10221000DACF70E06A537D4F8091BD0290E08A531F
:102220009D4F0E9414130E94AE10CFCFF894E82F58
:10223000E295EF70F0E031A1282F2F7081E090E05F
:1022400001C0880F2A95EAF7982F9095932391A3C0
:1022500092A1892B82A378940895CF93DF9384EF82
:102260000E94161187E90E94161186EC0E94161131
:1022700084E30E941611C5EAD1E089918F3F11F0E5
:102280000E94161181E0CC3AD807B9F7DF91CF91BF
:102290000895B0E0A0E0EFE4F1E10C94BB2AEC017A
:1022A000D62E062F10E0C80184559E4F7C01FC01FC
:1022B00080818F3F09F444C0F894E82FE295EF70D5
:1022C000F0E091A18F7021E030E001C0220F8A95EB
:1022D000EAF7892F822B81A382A12095282322A3AC
:1022E00078940E94A810E5EAF1E031E0C12C219138
:1022F0002F3F59F1A22FA295AF70B0E090968C912C
:1023000090E02F7002C0959587952A95E2F780FDA1
:102310001CC0832FC82A330F81E0EC3AF80739F745
:10232000F70180818F3F11F00E94161161E0C1100A
:1023300001C060E08D2D0E94AA10C00FD11FC8827D
:10234000CDB7DEB7E8E00C94D72A80E0E3CF8091E8
:1023500002018091020194E0811190E09093CE02FD
:1023600084E0891B8093BD020E942D1188E0E6EC79
:10237000F2E0DF01982F1D929A95E9F7EEEBF2E07B
:10238000DF011D928A95E9F784E00E9408120E94FD
:1023900022030895A8E0B0E0E0EDF1E10C94BE2A3C
:1023A0008E010F5F1F4F88E0F80111928A95E9F7BF
:1023B000F12C6F2DC8010E944911F394F4E0FF1233
:1023C000F8CF48E050E0B8018EEB92E00E94012B7C
:1023D00021E0009709F420E0892B41F088E0F80122
:1023E000AEEBB2E001900D928A95E1F76091CE02DA
:1023F00070E06A537D4F44E08EEB92E00E94091238
:10240000182F0E94B110812B2896E5E00C94DA2A4F
:102410000895CF92DF92EF92FF920F931F93CF9385
:102420006C017B01042F222349F081E0809362023A
:102430000E94F0229093610280936002C091620238
:10244000C1110AC0C0E08C2FCF911F910F91FF9056
:10245000EF90DF90CF90089580916002909161029B
:102460000E940823059770F310E0A801B601C70188
:102470000E94012B892B41F0A801B601C7010E94DF
:102480000E2B10926202DFCFC0E0FBCF89B182FB3E
:10249000882780F9089580916502811107C00E9404
:1024A000152A882351F081E08093650281E09091A4
:1024B0006502913009F080E0089582E08093650222
:1024C0000E94102AF3CF52985A988FE891E0019712
:1024D000F1F700C000000E94461280930201809133
:1024E000020167E0882349F080E00E9459150E94AC
:1024F0004B1281110E94C312089587E0F6CF0E940B
:102500004B12811102C00E94C612089581E0909181
:1025100066029A3008F080E008950F931F93CF93DE
:10252000DF93EC018B01809166028A30B8F4B80128
:10253000CE010E941113C82F811122C08091660222
:102540008F3FB9F40E94F02290936402809363025B
:102550008C2FDF91CF911F910F910895809163028D
:10256000909164020E940823843F914000F7C0E0EC
:10257000EFCF8F5F809366028A3020F7C1E0E8CF0B
:1025800010926602E5CF0E943F2008950E944220EB
:102590000895B0E0A0E0EFECF2E10C94BC2A7901E0
:1025A000C82F880FDD0B41155105A9F0FE0193E0FE
:1025B000EE0FFF1F9A95E1F7ED5FFE4F818192814B
:1025C00089599D4F208130E04217530708F49A0142
:1025D000A9010E940E2BCE010E942B21D82E882308
:1025E000D1F001151105B9F083E0CC0FDD1F8A95FC
:1025F000E1F7FE01ED5FFE4F438150E00417150740
:1026000008F4A801CD5FDE4F6C817D8169597D4F53
:10261000C7010E940E2B8D2DCDB7DEB7E7E00C94DD
:10262000D82A0E94461408950E9467140895A4E0D1
:10263000B0E0EDE1F3E10C94BF2A60918402709167
:10264000850280918602909187020E94172311E0F3
:10265000643671058105910518F10E944F106E5F77
:102660007F4F8F4F9F4F69837A838B839C8310E0CA
:1026700000E030E020E044E050E0BE016F5F7F4FBB
:1026800082E00E94C912182F882351F00E94FC2278
:1026900060938402709385028093860290938702F0
:1026A000812F2496E4E00C94DB2AB0E0A0E0EBE577
:1026B000F3E10C94B92A7C015B016A010E94861245
:1026C00001E010E0882311F00AE010E0C1E0D0E062
:1026D000B501C701F6010995811104C021960C17B7
:1026E0001D072CF4CDB7DEB7EAE00C94D52ACC9FB9
:1026F0009001CD9F300D300D112490E080E045E336
:102700004A95F1F70000019682179307C1F7E0CFD1
:10271000A8E0B0E0EEE8F3E10C94BF2ACE01019608
:102720000E949C191885609188027091890280919D
:102730008A0290918B020E941723643671058105ED
:10274000910510F41123C1F010E000E030E020E02A
:1027500048E050E0BE016F5F7F4F83E00E94C912E6
:10276000882369F00E94FC2260938802709389029A
:1027700080938A0290938B020E94991981E0289697
:10278000E4E00C94DB2AA5E0B0E0E9ECF3E10C9482
:10279000B92A5B01E090B001F090B10101E010E0D6
:1027A0009E012B5F3F4F50E040E070E060E080E032
:1027B0000E94C912182F882309F44BC067018FEFBC
:1027C000C81AD80A609180027091810280918202B9
:1027D000909183020E94172364367105810591054B
:1027E00080F104E010E09E012F5F3F4F50E040E099
:1027F00070E060E081E00E94C912F82E64E070E0B1
:10280000C6010E94BA1C11E09D81981310E01F219F
:1028100059F10E94FC2260938002709381028093A0
:1028200082029093830289819A81AB81BC818093DB
:102830007C0290937D02A0937E02B0937F0211E010
:1028400013C064E070E0C6010E94BA1C9D81891328
:10285000C8CFF70181819281A381B48189839A8352
:10286000AB83BC831111DFCF80917C0290917D02FC
:10287000A0917E02B0917F02F50180839183A283B3
:10288000B383812F2596EAE00C94D52A0F931F93EA
:10289000CF93DF93EC018B0143EC53E10E9455137E
:1028A000811106C080E0DF91CF911F910F910895B3
:1028B00047E153E1B801CE010E945513882391F3FB
:1028C00048E853E1B801CE010E945513ECCF0F93B5
:1028D0001F93CF93DF93C091B001D091B101CE018E
:1028E000019624E0FB01DC0101900D922A95E1F7AD
:1028F00064E070E00E94BA1C88836D817E818F81C4
:102900009885009178021091790220917A02309195
:102910007B02601771078207930751F0609378027A
:102920007093790280937A0290937B020E94321016
:102930008889882331F060E0CE0109960E94B81A98
:10294000188ADF91CF911F910F9108950E94EB2477
:102950000E94AD0D0E94F82408950E94FD240E945B
:10296000C00D0E94172508950E9489220E94D1243B
:102970000E94950D0E94A6140E94AD140E94A30D02
:10298000FBCFEF92FF920F931F93CF93DF93EB0157
:10299000E82FD1110EC0442321F0F0E0ED57FC4F99
:1029A000E4916E2F7E2F8E2FCDB7DEB7E6E00C942C
:1029B000D92A0D2F10E0282F30E0442329F02D577D
:1029C0003C4FF901249130E0F6E0CF9FC001112483
:1029D000EFEFF0E0BF010E94302AAB018C2F90E0B6
:1029E000880F991FA5E5A49FB001A59F700D112424
:1029F000861B970B982F990F980FBF01601B710BC7
:102A0000629FD001639FB00D729FB00D11248B2F78
:102A10009D9FB0011124672F7727EF01C61BD70BAD
:102A2000BE01629FE001639FD00D729FD00D112403
:102A30007F01E91AF108E09EB001E19E700DF09E61
:102A4000700D1124672F7727E61BF70BE29F80019B
:102A5000E39F100DF29F100D1124E12F722F4230D1
:102A6000510599F048F44115510569F0413051057F
:102A700081F0EB2F8D2F07C04430510569F080F0B5
:102A800046305105B1F76E2F8FCFE22F7B2F812F6C
:102A9000FACFE22F7D2FF7CFEB2F822F712FF3CFBD
:102AA0007B2F822FED2FEFCF41E00E94C1140895BC
:102AB0000895E6E2F1E08083618308950E94541551
:102AC0000895CF93DF93762FE901682F842F0E941A
:102AD0005E15798368838A83DF91CF910895809111
:102AE000CF02982F9E7F29F4817082608093CF025D
:102AF00008958A34E8F381708864F8CF88E090E024
:102B00000E941F2B0895CF92DF92EF92FF926B01EC
:102B10007C010E946F15B701A60188E090E00E9439
:102B20003D2BFF90EF90DF90CF900895EFECF2E017
:102B300083E0808311828FEF828383831482A9E9EB
:102B4000B2E012968C911297836012968C936081FA
:102B50007181828193810E94831508958091CF02B3
:102B600080FF02C08695089580E008959091D30279
:102B7000933018F49F5F9093D302882351F06091B3
:102B8000CF027091D0028091D1029091D2020E9426
:102B90008315089581E00E94B61508959091D3029F
:102BA000992319F091509093D302882351F06091AA
:102BB000CF027091D0028091D1029091D2020E94F6
:102BC0008315089581E00E94CE15089570E00E945B
:102BD0008D1C0895609127018091CF0280FF0BC06A
:102BE0008091260123E0829FC00111248C529D4FC9
:102BF0000E94E6150895809128019091290123E013
:102C0000829FF0011124EC52FD4F891748F7118281
:102C1000108212828F5F3396F8CF9091CF0290FF8F
:102C20000EC0909128012091290133E0939FF0017B
:102C30001124EC52FD4F921718F00E94EA150895E6
:102C40008183608342839F5F3396F5CFA3E0B0E03A
:102C5000ECE2F6E10C94C12A9091CF0290FF0AC0F9
:102C60009E012F5F3F4F0E9461154B8169818A81D0
:102C70000E940D162396E2E00C94DD2ACF93DF9399
:102C8000EC01EC81F0E0E258FD4F4491EFECF2E012
:102C9000628181810E9426168C818F5F8C83DF91F7
:102CA000CF910895CF93DF93EC01EFECF2E04381F5
:102CB00062818C810E9426168C818F5F8C83DF91CC
:102CC000CF910895A3E0B0E0E8E6F6E10C94BF2AC6
:102CD0008C0180918C0281110AC09E012F5F3F4FB1
:102CE0004FEF6FEF0E9461158A8180938C02F8018B
:102CF0006481613069F080918C0240E0662361F06C
:102D000040E0623011F440918C0280E060E004C049
:102D100060918C0240E080E00E940D16F8018481F1
:102D200090E0019663E070E00E94442A8483239639
:102D3000E4E00C94DB2AA3E0B0E0E1EAF6E10C94D5
:102D4000BA2A082FD62EF42EC22E9091CF0290FFD1
:102D50003AC0E92FE695AE2FB0E0AE54BE4F8C914D
:102D6000809399029E7F923091F59E012F5F3F4F95
:102D7000802F0E9461154B8169818A810E940D1606
:102D80008091D002801308C08091D1028D1104C0BF
:102D90008091D2028F1529F080919B0282608093EE
:102DA0009B020093D002D092D102F092D202CC20AA
:102DB00051F06091CF027091D0028091D102909138
:102DC000D2020E9483152396E9E00C94D62A823021
:102DD00019F4F090D202D4CF863019F40091D002C9
:102DE000CFCF8930D9F3893159F6E9516E2F61700F
:102DF000B62EE695F0E0E258FC4F1491E12C60917C
:102E00002A01E61618F00E94EA15BACFE19EC00129
:102E1000112470E00E94302A802FB11014C0860F58
:102E200020912801622F6E0D7727771F9B01220FBB
:102E3000331F260F371F2C523D4F4F2D6D2D0E94F3
:102E40006115E394DCCF861BEBCFEFECF2E09181D0
:102E5000282F4381628188E0890F0E949B16089584
:102E600081E00E9425170895EFECF2E09181282F70
:102E70004381628188EF890F0E949B16089581E04B
:102E80000E9434170895EFECF2E0628121E1620FB5
:102E900008F46FEF282F438181810E949B160895CB
:102EA00081E00E9443170895EFECF2E0628121E196
:102EB000621B08F460E0282F438181810E949B16E9
:102EC000089581E00E9454170895EFECF2E04381E9
:102ED00021E1420F08F44FEF282F628181810E9487
:102EE0009B16089581E00E9465170895EFECF2E0CB
:102EF000438121E1421B08F440E0282F6281818157
:102F00000E949B16089581E00E947617089520E0A4
:102F10000E949B160895EF92FF921F93CF93DF9329
:102F2000EC0110E0EE24EA94F12C60912A011617CE
:102F300070F00E94EA159A818C8190FF27C08F5F04
:102F40008C83DF91CF911F91FF90EF900895209196
:102F50002801422F410F5527551FCA019A01220F00
:102F6000331F280F391F2C523D4F70E0C7010E94BC
:102F7000442A962F8C814091D2026091D102199FF0
:102F8000800D11240E9461151F5FCFCF8150D8CFD3
:102F9000B0E0A0E0EEECF7E10C94B72AEC018A81F6
:102FA000BB24BA9480FD02C0BB24B3948C818111F0
:102FB0000AC081E0B81222C080912A01815080931A
:102FC0008E0281E08C83A12C4EE0942E80912A0108
:102FD000A816B8F00E94EA1580918E0291E0B9120D
:102FE00059C0811152C080912A01815080938E0274
:102FF0001C82CDB7DEB7ECE00C94D32A10928E027F
:10300000E0CF00912801CA2CD12C0C0D1D2D111DD3
:10301000C801880F991F080F191F0C521D4FF80186
:1030200011821082128234E0E32EF12C812C8091E7
:103030008E02880D8F301CF1692D0E94222A892F63
:10304000082E000C990BC816D90691F48091D20273
:103050008E9DA0018F9D500D112455954795559536
:10306000479598016091D1028091D0020E9461152C
:103070008B0CF1E0EF1AF108D1F6A394A7CF87FFEC
:10308000DFCF90912A01890FDBCF815080938E0290
:10309000BC82AFCF90E0019660912A0170E00E945F
:1030A000442A80938E028C83A4CFEF92FF920F93D9
:1030B0001F93CF93DF93EC018C81811109C081E0D4
:1030C0008C8310928D0292E09093250180932401CD
:1030D000809128019091290123E0829FF001112421
:1030E000EC52FD4F891758F110E003E060912A017E
:1030F000161758F10E94EA158091240120918D0243
:10310000280F20938D0290912501980F909325010F
:10311000191654F4022E000C330B40912A01415031
:10312000550B2417350734F08195809324018130A5
:1031300009F41C82CDB7DEB7E6E00C94D92A1182DF
:10314000108212828F5F3396CDCFE12EF12C70E08A
:10315000C7010E94442A20912801820F482F50E085
:1031600020918D02022E000C330BE216F306BCF008
:1031700020912501022E000C330B2E153F057CF00B
:10318000809F900111242C523D4F4091D2026091BA
:10319000D1028091D0020E9461151F5FA7CFFA0172
:1031A000EE0FFF1FE40FF51FEC52FD4F118210824E
:1031B0001282F3CFB0E0A0E0E0EEF8E10C94B72A81
:1031C000EC014C81042F10E09801D8010E94882A5C
:1031D0009B01AC010E949E2A4B015C01E0E2F0E001
:1031E000E01BF10BA5E5B0E0AC019B010E949E2A1B
:1031F0006B017C019F01DF010E94802A9B01AC01D1
:103200000E94A92A9B01AC01280D391D4A1D5B1D96
:10321000C701B6010E94582AF22E822F90E039E2AF
:103220003F1520F143E0249F900111243595279507
:10323000122F109500E085E5E82EEF1880912A0105
:10324000081718F10E94EA159C8181E0992319F072
:10325000903219F48FEF8093230180912301890F1D
:103260008C83CDB7DEB7ECE00C94D32A25E530E0B3
:10327000B901681B790B9B01220F331F260F371FE3
:1032800037FFD4CF2F5F3F4FD1CF8E2D01FD8F2D34
:1032900020912801622F600F7727771F9B01220F53
:1032A000331F260F371F2C523D4F412F6091D10203
:1032B0000E9461150F5FC2CF0F931F93CF93DF93CF
:1032C000EC0110E000E090912A019017110609F03E
:1032D0006CF40E94EA158C8190E001968170992728
:1032E0008C83DF91CF911F910F9108952091280138
:1032F000A801420F511D9A01220F331F240F351FC1
:103300002C523D4F4C816091D1028091D002969514
:103310009017110651F04CF0442349F04091D2022D
:103320000E9461150F5F1F4FCECF4423B9F340E0D9
:10333000F7CF10929B02089525E0EFECF2E0DC015C
:1033400001900D922A95E1F72091990230919A020D
:1033500040919B02FC012583368347830895E9E968
:10336000F2E011828281846082830895EFECF2E0C2
:1033700080818E7F80830E94AF19E9E9F2E082812B
:10338000816082832FEF80E792E02150804090405F
:10339000E1F700C000000E94EA150895EFECF2E0AA
:1033A00080818E7F808360817181828193810E9480
:1033B00083150E94AF19E9E9F2E08281816082837E
:1033C0002FEF80E792E0215080409040E1F700C06D
:1033D00000000E94EA1508956091CF02669570E0A2
:1033E0004BE050E08BE291E00E94F42A892B19F423
:1033F00081E080939A020E946910909393028093D7
:10340000920280919B02846080939B020895909128
:10341000CF0290FF30C0917081112EC092609093C6
:10342000CF0280919B02816080939B02662351F0C2
:103430006091CF027091D0028091D1029091D2021E
:103440000E9483156091CF02669570E04BE050E0DA
:103450008BE291E00E94F42A892BA9F00E94AF1917
:1034600081E0809395024091D2026091D1028091D7
:10347000D0020E9487170895853210F09864CFCF4C
:10348000880F982BCCCF0E94EC19EACF682F90912F
:10349000CF02969581E0890F853208F081E00E9485
:1034A000071A089581E00E94461A0895682F9091A6
:1034B000CF0296958FEF890F09F484E20E94071AD4
:1034C000089581E00E94561A089561E00E94071A4B
:1034D0000895EFECF2E080818160808386950E9400
:1034E000651A08958091CF0280FF03C00E94CE1913
:1034F00008950E94691A089560E00E94071A0895CD
:1035000080919802811133C00E94C70C811104C0C0
:103510000E94700D0E9496150E947E156093CF0246
:103520007093D0028093D1029093D20280919B023B
:10353000836080939B026E7F61F40E9496150E94C7
:103540007E156093CF027093D0028093D102909346
:10355000D2020E946F150E94AF198091CF0280FFA6
:1035600003C086950E947C1A81E08093980208959A
:103570001F93CF93DF93EC01162F8F8180FF0CC038
:10358000888180FF24C08091CF0281608093CF0228
:10359000888186950E94071A8F8181FF06C0212F9E
:1035A0004B816A8189810E949B168F8182FF05C0B1
:1035B0008E81882379F00E94EC198F8183FF03C0EC
:1035C00081E080939502DF91CF911F9108950E9431
:1035D000B619E2CF0E94AF19F0CFEF92FF920F938E
:1035E0001F93CF93DF9380919A02882309F463C0DD
:1035F00080919902E091CF02E695E81BE093940256
:10360000823009F05DC0F0E0E658FD4FE491CE2F26
:10361000D0E00EE316E180919502882361F01092CC
:1036200095020E94691090939302809392021092E7
:103630009702109296020E946910E0919202F09116
:1036400093029C012E1B3F0B2F3F3F47A0F520917B
:1036500091022223B1F01092910220918F023091B9
:103660009002821B930B8F3F9F4758F4205D3A488E
:103670003093900220938F0280919B028860809308
:103680009B02E0909602F0909702EC0FFD1FF093E2
:103690009302E093920282E992E0F8010995809109
:1036A000960290919702892B31F4E114F10419F0FC
:1036B00081E080939102CDB7DEB7E6E00C94D92A81
:1036C000863049F4F0E0E958FD4FE491CE2FD0E088
:1036D00002E516E1A0CF893051F4E695F0E0EC5810
:1036E000FD4FE491CE2FD0E00BE817E194CF8F305F
:1036F00051F4E695F0E0EF58FD4FE491CE2FD0E085
:1037000008EC17E188CF853149F4F0E0E259FD4F2C
:10371000E491CE2FD0E005E518E17DCFC8E2D0E0FE
:103720000AED18E1883109F476CF833239F4ECE6FA
:10373000F2E0C591D49102E616E16DCFC4EFD1E07D
:103740000CE519E1843209F466CFC0EDD7E008E555
:1037500015E161CFFA01811101C0FB0109950895BE
:10376000CF93DF93C82FD62F0E94AE158C1748F049
:103770000E94AE158D1728F40E94521ADF91CF9146
:1037800008958C2F0E94651AF9CF1F93CF93DF9372
:10379000EC01FB01128111117EC00E94E00B8272CC
:1037A000CD3CFCE5DF0709F49CC008F041C0C73CF4
:1037B000ECE5DE0709F481C0D8F4C43C9CE5D907E8
:1037C00009F471C030F4C33CDC4509F469C011E070
:1037D00062C0C53C9CE5D90709F46AC04FE357E1D4
:1037E00060E377E1C63CDC4591F70E94AA1B53C019
:1037F000CA3CFCE5DF0709F46AC068F4C83CECE5A4
:10380000DE0709F45FC040E557E161E677E1C93CB6
:10381000DC4559F3DCCFCB3C9CE5D90709F45CC00F
:1038200042EE55E16AEC75E1CC3CDC45F1F2CFCFDC
:10383000C23DFCE5DF0709F465C098F4CF3C9CE588
:10384000D90709F457C008F451C0C03DFCE5DF07B3
:1038500009F455C0C13DDC4509F0B9CF6EE089E0FF
:103860004BC0C53D9CE5D90709F452C058F4C33D8F
:10387000FCE5DF0709F449C0C43DDC4509F0A7CFEA
:1038800088E135C0C63D9CE5D90709F444C0CE3572
:10389000DD4509F09CCF812FDF91CF911F910895D5
:1038A0000E94721AF8CF41E65AE162E57AE19DCFB3
:1038B00042E55AE161E67AE198CF40E357E16FE3F0
:1038C00077E193CF41E657E160E577E18ECF43E8BA
:1038D00057E162E777E189CF42E757E163E877E1B3
:1038E00084CF4AEC55E162EE75E17FCF81E00E9422
:1038F000651AD1CF65E082E00E94B01BCCCF68E0B2
:1039000086E0FACF64E18FE0F7CF67E185E1F4CF9D
:1039100062E289E1F1CF83E2EACF539A4BB1477F6C
:103920005BB15860EFB7F8949B01220F331F260F4D
:10393000371F280F391F2817390741F4EFBF8FE5CC
:1039400094E00197F1F700C000000895DC016D914B
:10395000CD0178E05BB9000000C067FF4BB9660F8E
:10396000000000C000C000C04BB900C07A9591F7BC
:10397000E2CF0895FC01680F791F8FEF91E3E617FE
:10398000F70709F408952191822728E030E087FFA6
:1039900006C0880F892721503109C9F7F0CF880F59
:1039A000FACFCF93DF93EC01FB018281882309F4E6
:1039B00064C1C430FDE5DF07E0F5CB3F9CE5D907E6
:1039C00030F49E0122503C4524313105D8F50E9447
:1039D000DC0C9093BC028093BB02C231ECE5DE07A5
:1039E00009F41FC108F06EC0C9308CE5D80709F48E
:1039F000F2C008F03FC0C530ECE5DE0709F4DBC0DB
:103A000058F5C3308CE5D80709F4CDC008F0CFC015
:103A10008091BB028160C230DC4509F4AEC0809168
:103A2000BB029091BC020E94EA0C0E94640780E0F5
:103A300009C0C63AEDE5DE0751F238F4C2369DE51D
:103A4000D90729F2DF91CF9108959E012E5A3D4565
:103A500023303105B8F7BBCF8091BB028062C730FD
:103A6000FCE5DF0709F489C008F4B1C08091BB020E
:103A7000806483C0CD309CE5D90709F4BAC070F4E6
:103A80008091BB028E7FCB30FCE5DF0709F475C067
:103A900008F4A7C08091BB028D7F6FC0CF309CE53A
:103AA000D90709F4B6C008F4A8C0C031FCE5DF07A7
:103AB00009F4B3C0C131DC4509F0B1CF8091BB023C
:103AC0008F7B5BC0C1159DE5D90709F4B4C098F59B
:103AD000CB3FFCE5DF0709F472C0B8F4C4319CE5C4
:103AE000D90709F4B6C008F4A2C0C531DC4509F015
:103AF00096CF8091BB0282FB992790F921E0922713
:103B000090FB82F990FB83F938C0CD3F8CE5D80754
:103B100009F477C008F457C0CE3FECE5DE0709F49E
:103B200074C08091BC028360CF3FDC4509F077CF41
:103B30008093BC0274CFC2368DE5D80709F496C0D5
:103B400068F4C230EDE5DE0709F48CC008F477C0F4
:103B5000C330DD4509F063CF80E085C0CE3A9DE5F6
:103B6000D907E9F068F49091BB02892F8E7F90FF0E
:103B70008160C63ADD4509F052CF8093BB024FCF3A
:103B8000CF3A8DE5D80789F1C03BDD4509F047CF35
:103B90009091BC02892F877F93FF8860C9CF809165
:103BA000BC028860C5CF8091BB028260E6CF809165
:103BB000BB028460E2CF8091BB028860DECF80913F
:103BC000BC028160B5CF8091BC028260B1CF809190
:103BD000BB028061D2CF0E9464078091BB028068E3
:103BE000CCCF8091BB028C60C8CF8091BC02877F14
:103BF0009FCF8091BB028B7FC0CF8091BB02877F1C
:103C0000BCCF8091BC028E7F93CF8091BC028D7F10
:103C10008FCF8091BB028F7EB0CF8091BB028F7D12
:103C2000ACCF0E9464078091BB028F77A6CF8091B2
:103C3000BB02837FA2CF8091BC028C7F79CF809121
:103C4000BC02982F909591708E7F892B90FB81F903
:103C50006FCF0E9464079091BB02892F97FB87F971
:103C600080588BCF81E00E94730DD9CE9091BB021A
:103C7000892F8F7E94FF806180CF81E0E3CE8B31EE
:103C800009F465C040F58B3071F078F4863009F4A2
:103C900047C020F4853059F180E00895873009F459
:103CA00048C08830C9F781E00895803109F45DC0CB
:103CB00068F48E3089F790915E02892F8B7F92FF96
:103CC000846080935E0282FD4CC0EDCF863159F353
:103CD000893149F3E1CF8A3201F160F48732B1F0E2
:103CE00020F48E31C8F28D514CC08932A9F60E9461
:103CF0003703D9CF833440F48A3308F041C0853389
:103D000029F0883381F2C8CF833431F681E090E026
:103D10000E94B9070E946407C6CF0E94700DC3CFEE
:103D200080915E02807F80935E0281E080939C029E
:103D3000089590915E02892F8E7F90FF816080931D
:103D40005E0280FDB0CF817F80935E02ACCF909108
:103D50005E02892F8D7F91FF826080935E0281FFDA
:103D6000A2CF80915E028160EFCF90915E02892F99
:103D7000877F93FF886080935E0283FDF2CF93CFAD
:103D8000895321E030E0A90102C0440F551F8A95F4
:103D9000E2F7CA01BDCF80E008950E94CB1E0895CE
:103DA000CF93C82F80919C02882331F0813099F005
:103DB00010929C0280E00DC00E94E00B8232D1F78D
:103DC0008C2F0E94CB1E811116C08C2F0E943F1E8B
:103DD0008170CF9108950E94E00B823289F38C2F7D
:103DE0000E94CD1E811105C0C43171F038F4CB3072
:103DF00079F781E0EDCF81E090E0EACFC93221F0A0
:103E0000C833B9F380E0E4CF10929C02FBCFCF938C
:103E1000DF93EB0186319C4511F50E94E00B9A81FE
:103E2000992399F08A7A91E009F490E090939D02A9
:103E3000811109C089E20E94B80B0E94210C80E028
:103E4000DF91CF91089585E3F6CF80919D02811196
:103E500004C089E20E94C00BF0CF85E3FBCF81E074
:103E6000EFCF0F931F93CF93DF93C42FD22FFC017B
:103E700082818823C9F04093A0020E94F02290938F
:103E80009F0280939E0280E28C0F883040F4C770BE
:103E900081E001C0880FCA95EAF70E941505DF91FD
:103EA000CF911F910F9108951091A002141332C069
:103EB00080919E0290919F020E940823883C910568
:103EC00048F5C0E2CD0F1D17B9F080E2810F8830B0
:103ED00040F4177081E001C0880F1A95EAF70E943C
:103EE0001C05C83048F481E09D2F977001C0880FF1
:103EF0009A95EAF70E941505802F0E940C05C8309C
:103F000070F6D77081E001C0880FDA95EAF70E9459
:103F10001C05C5CF80E28C0F883008F6C77081E0A1
:103F200001C0880FCA95EAF7F2CF0F939C01CB012D
:103F3000243F4CE5340759F1A8F4293DFCE53F073F
:103F400001F12A3D4CE53407D1F1283D3C4591F47F
:103F500006E221EE41EE68ED7CE50E94311F80E033
:103F60000F910895263FFCE53F07E9F0B0F0273FA9
:103F70003C45F9F0FC018281882339F11092A002BE
:103F8000EFCF07E225EE45EE69ED7CE5E6CF06E2F0
:103F900021EE40EE64EF7CE5E0CF07E225EE44EE53
:103FA00065EF7CE5DACF06E221EE42EE66EF7CE5D6
:103FB000D4CF07E225EE46EE67EF7CE5CECF08E2F0
:103FC00021E045EE6AED7CE5C8CF81E0C9CF8EE106
:103FD000489B02C08150E1F7489BFECF0895589856
:103FE00080E28A95F1F7589A0895FC013BE03A95F2
:103FF000F1F798E020E080E031E040E14A95F1F708
:10400000880F489B02C08160232742E04A95F1F760
:10401000000040E14A95F1F7915079F790E19A95C7
:10402000F1F799B132E03A95F1F7000040E14A9595
:10403000F1F7917092272081920F90830895A1E06B
:10404000B0E0E5E2F0E20C94BD2A19828C017C011B
:10405000E60EF11C0E151F0541F481E099819111C6
:1040600080E02196E6E00C94D92A0E94E71FCE0159
:1040700001960E94F51FF80181938F01EBCF509AB2
:10408000589A08955098589AE89AE9E6F0E08081A5
:104090008C7F808308956150770B91E001C0990F68
:1040A0006A95EAF720E031E0911108C0222391F0EF
:1040B000589A80E28A95F1F758980895492F482335
:1040C00039F0589A232740E24A95F1F79695ECCFBC
:1040D0005898F9CF5898EDCFFF920F931F93CF9335
:1040E000DF93EC018C01060F111DC017D10729F4D5
:1040F000CDB7DEB7E5E00C94DA2AF9900E94EF1F05
:1041000068E08F2D0E944B20F0CF1F920F920FB6C8
:104110000F9211240F931F932F933F934F935F930D
:104120006F937F938F939F93AF93BF93EF93FF937F
:10413000CF93DF930F92CDB7DEB719820E94E71FAE
:10414000CE0101960E94F51F082F0695069506954B
:10415000282F22952570902F9570290F922F9370FC
:1041600026952695920F982797708981982B09F0AC
:104170005CC0053008F059C080E18A95F1F7589A83
:10418000509A82E08A95F1F700C0589888E0089F1D
:1041900080011124D801AD5FBE4F1696ED91FC91C0
:1041A00017973097A9F06091B0017091B101149602
:1041B0002D913C911597260F371F11968D919C914B
:1041C0001297680F791F13964C9113978C9109954C
:1041D000F801ED5FFE4F6381662351F02091B0013D
:1041E0003091B10184819581820F931F0E946C20D0
:1041F0000E94EF1F80E18A95F1F758985098589ADD
:1042000080E18A95F1F7F801ED5FFE4F608166234A
:1042100051F02091B0013091B10181819281820FE2
:10422000931F0E941F200E94E71F0F90DF91CF91E4
:10423000FF91EF91BF91AF919F918F917F916F917E
:104240005F914F913F912F911F910F910F900FBE52
:104250000F901F9018950F931F93CF93DF93EC014E
:1042600005970CF04CC0F894509A589885E08A95C0
:10427000F1F700009C2F969595708C2F8570980F04
:10428000892F83709695969523E0CC0FDD1F2A9594
:10429000E1F7980F8E01092B0E94EF1F00C068E024
:1042A000802F0E944B2080E18A95F1F75098589A10
:1042B000489B1EC087E090E048991CC0FE01ED5F5E
:1042C000FE4F63816623F9F02091B0013091B10176
:1042D00084819581820F931F0E941F20811113C03A
:1042E000509A589A7894DF91CF911F910F91089529
:1042F00000C0DECF019729F4509A589A789480E054
:10430000F2CF00C0D9CF0E94E71F80E28A95F1F773
:104310005898509A80E18A95F1F7CD5FDE4F688119
:10432000662351F02091B0013091B10189819A81C9
:10433000820F931F0E946C200E94EF1F789481E0EF
:10434000D2CF9093D9018093D80108959093A7027A
:104350008093A60208950E944B12811103C08091A0
:10436000A1020895E091A602F091A702309729F0EA
:104370000190F081E02D0995089580E00895E09185
:10438000A602F091A702309721F00280F381E02D80
:10439000099508952091A4023091A50228173907A4
:1043A00071F09093A5028093A402E091A602F0918F
:1043B000A702309721F00680F781E02D0995089536
:1043C0002091A2023091A3022817390771F090932F
:1043D000A3028093A202E091A602F091A702309777
:1043E00021F00084F185E02D099508959C012E5F50
:1043F0003F4FAC01485F5F4F80E02417350709F459
:104400000895F90191919F019923B9F38F5FF5CF39
:10441000662349F0FC01329608962191261729F06F
:10442000E817F907D1F780E0089581E008959C012D
:10443000FC0132969FEF80E04191461751F09F3F7B
:1044400019F4411101C0982F8F5F8630A9F79F3F63
:1044500009F40895290F311D97FD3A95F9016283FA
:104460000895FC01329608962191261303C0DF01BE
:1044700011971C92E817F907B9F708950E941722BF
:1044800008950E9431220895029626E0FC011192BF
:104490002A95E9F7089508950E944B220895811105
:1044A00006C081E08093A8020E944C22089582E019
:1044B000F9CF83E08093A8020E944C2208950E94C5
:1044C0004F22089581E08093A8020E944C22089513
:1044D0000E9462220895089508950E946C22089512
:1044E000089508950E946B220895CF930E94702230
:1044F0000E94CA110E947122C0E08C2F0E949D1060
:10450000811105C0CF5FC830C1F7CF91089581E018
:10451000FCCF85B7806885BF85B7806885BF089563
:104520001F921FB61F9211248F939F93AF93BF9337
:104530008091A902811113C08091FE029091FF0227
:10454000A0910003B09101034196A11DB11D80937C
:10455000FE029093FF02A0930003B0930103BF916A
:10456000AF919F918F911F901FBE1F9018958091C2
:104570000603843031F10E949B031092A90288E166
:1045800090E020E40FB6F894A895809360000FBEE9
:104590002093600083B7817F846083BF83B781608D
:1045A00083BF7894889583B78E7F83BF0FB6F894C6
:1045B000A8958091600088618093600010926000EF
:1045C0000FBE08950E9464070E94A003089582E030
:1045D00084BD93E095BD9AEF97BD80936E000895DA
:1045E0002FB7F8948091FE029091FF02A0910003F2
:1045F000B09101032FBF08952FB7F8946091FE0288
:104600007091FF0280910003909101032FBF0895E4
:104610009C014FB7F8948091FE029091FF02A09107
:104620000003B09101034FBF821B930B0895CF92FB
:10463000DF92EF92FF922FB7F894C090FE02D090D5
:10464000FF02E0900003F09001032FBFA701960145
:10465000261B370B480B590BCA01B901FF90EF908D
:10466000DF90CF90089578941F921FB61F92112467
:104670008F939F93AF93BF938091FE029091FF021F
:10468000A0910003B09101030196A11DB11D80937B
:10469000FE029093FF02A0930003B0930103BF9129
:1046A000AF919F918F911F901FBE1F90189587E724
:1046B00097E7909301088093000888E19AE00FB68D
:1046C000F894A895809360000FBE90936000FFCF90
:1046D00088E19AE00FB6F894A895809360000FBE29
:1046E00090936000FFCF8091B50208950895CF9315
:1046F000DF93EC0181E08093E9008FEF9091E80077
:10470000815095FD06C095ED9A95F1F70000811155
:10471000F5CF8091E80085FF14C050E040E068E0EC
:1047200070E0CE010E9489258091E8008E77809309
:10473000E80088E0FE01ADEAB2E001900D928A95B2
:10474000E1F7DF91CF9108958093AA027093AC02B4
:104750006093AB0280910603843001F582E0809380
:10476000E9008FEF9091E800815095FD06C095ED2E
:104770009A95F1F700008111F5CF8091E80085FF4F
:104780000DC050E040E063E070E08AEA92E00E94F1
:1047900089258091E8008E778093E8000895BC0118
:1047A00084E00E94A4230895BC0183E00E94A42316
:1047B0000895089580910503811109C00E94192769
:1047C0000E9476278091E20084608093E200089541
:1047D0001092050308950E946222089560910203D9
:1047E00081E0611101C080E00E94592208959091FA
:1047F000060381E0943009F080E0609102030E949A
:104800005F22089542E061EC81E00E94952642E239
:1048100061EC82E00E9495269091060381E094303D
:1048200009F080E0609102030E944F220895809178
:104830000803833009F461C030F48130D1F1823053
:1048400009F49EC008958A3009F48AC08B3009F4B7
:104850006FC0893009F050C080910703813209F0A0
:104860004BC080910B0390910C03029708F044C059
:104870008091E800877F8093E8008091E80082FFC4
:1048800037C09091F3008091F200029731F480914B
:10489000F100813011F0863021F48091F100809395
:1048A000B5028091E8008B778093E8000E94C926CA
:1048B00023C080910703813AF9F48091E800877F53
:1048C0008093E80080910B0390910C03892B61F495
:1048D00068E08DEA92E070E00E94D8258091E800BF
:1048E0008B778093E800089560E090E080E0F3CF5C
:1048F000809106038111C1CF089580910703813A09
:10490000D9F780910B0390910C03892BA9F7809123
:10491000E800877F8093E8008091E80080FFFCCF6B
:10492000809142018093F1008091E8008E77BCCFA6
:1049300080910703813201F780910B0390910C0362
:10494000892BD1F68091E800877F8093E8000E9450
:10495000C92680910903809342010E94640708954B
:1049600080910703813241F68091E800877F809330
:10497000E8000E94C92680910A038093B602089538
:1049800080910703813A09F0B7CF8091E800877FD3
:104990008093E8008091E80080FFFCCF8091B60210
:1049A000C1CF84B7877F84BF0FB6F894A895809154
:1049B0006000886180936000109260000FBE80E804
:1049C00090E00FB6F89480936100909361000FBE61
:1049D0000E94682208950E9419270E947627E2EE1D
:1049E000F0E080818460808378940E94F5290895A6
:1049F00086E391E00E94A621089580910603853008
:104A000031F480910603853019F00E94E222089566
:104A10000E94B72280910403882399F30E94752293
:104A2000882379F30E9473250E946407EACF0895D2
:104A30000E941B250895292F33272330310519F1B2
:104A400068F42130310509F444C02230310509F4FD
:104A500045C090E080E030E020E025C02132310503
:104A600049F122323105A9F780E490E028E235E0EF
:104A700061157105C1F082E390E026EF34E061300A
:104A8000710589F0E6CF99278130910581F0009773
:104A900029F00297F1F6E3E8F4E002C0E5EAF4E079
:104AA000849190E09F01FA01318320830895E5E924
:104AB000F4E0F6CF89E090E02BEB34E0611571056E
:104AC00091F389E090E024ED34E06130710559F311
:104AD000C0CF82E190E024EE34E0E5CF8BE390E0BC
:104AE00029EA34E0E0CF80E189BD82E189BD09B4E3
:104AF00000FEFDCF8091D8008F7D8093D8008091FB
:104B0000E00082608093E0008091E00081FDFCCFB6
:104B10000895AF92BF92CF92DF92FF920F931F93AF
:104B2000CF93DF936C01EB018A010E94E826F82EF7
:104B3000811123C00115110539F0F801808191819F
:104B4000C81BD90BC80ED91EB12CA12C2097A9F0D7
:104B50008091E80085FD22C08091E8008E778093E7
:104B6000E80001151105A1F0F80180819181A80EDE
:104B7000B91EB182A08285E0F82E8F2DDF91CF91F2
:104B80001F910F91FF90DF90CF90BF90AF9008954D
:104B90000E94E8268823D1F2F82EEFCFF60181910A
:104BA0006F018093F1002197FFEFAF1ABF0ACECFBC
:104BB000FC0180910D0390910E0386179707A0F0DA
:104BC0006115710529F49091E8009E779093E800B3
:104BD00090E06115710551F4911108C08091E800D1
:104BE00082FF34C080E00895BC01F2CF80910603BB
:104BF0008823C1F18530C1F18091E80083FD30C088
:104C00008091E80082FDEACF8091E80080FFE1CF4B
:104C10008091F3002091F200382F6115710519F091
:104C20002830310558F091E02830310509F090E046
:104C30002091E8002E772093E800CBCF81918093DC
:104C4000F100615071092F5F3F4FE7CF809106035C
:104C5000882341F0853041F08091E80083FFBECF8A
:104C600081E0089582E0089583E00895FC01809139
:104C70000D0390910E0386179707A0F0611571053B
:104C800029F48091E8008E778093E80090E0611528
:104C9000710551F4911108C08091E80082FF35C080
:104CA00080E00895BC01F2CF809106038823C9F10A
:104CB0008530C9F18091E80083FD31C08091E80022
:104CC00082FDEACF8091E80080FFE1CF8091F30080
:104CD0002091F200382F6115710519F02830310547
:104CE00058F091E02830310509F090E08091E8001B
:104CF0008E778093E800CBCF84918093F10031963A
:104D0000615071092F5F3F4FE6CF809106038823E2
:104D100041F0853041F08091E80083FFBDCF81E014
:104D2000089582E0089583E00895982F973028F041
:104D30008F708093E90081E008959093E900242F1B
:104D4000762F50E0981731F07091EC002091ED0033
:104D50005091F00021FD02C09F5FE8CF3091EB0041
:104D60003E7F3093EB003091ED003D7F3093ED00BE
:104D70003091EB0031603093EB007093EC002093A6
:104D8000ED005093F0002091EE0027FDE5CF80E08C
:104D900008958091070387FF13C08091E80082FF88
:104DA00006C08091E8008B778093E80004C0809172
:104DB00006038111F2CF0895809106038823D9F369
:104DC0008091E80080FFF8CF8091E8008E77ECCFEB
:104DD0002091E4003091E50095E6A9012091EC00D6
:104DE000822F817020FF06C08091E80080FF06C0FE
:104DF00080E008952091E80022FD1AC0809106030A
:104E0000882389F0853089F08091EB0085FD0FC003
:104E10002091E4003091E50042175307F9F29150D8
:104E2000E1F684E0089582E0089583E0089581E04A
:104E300008950E9488270E949027E0EEF0E080818C
:104E400081608083E8EDF0E080818F77808319BCFA
:104E5000A7EDB0E08C918E7F8C9380818F7E8083D4
:104E60001092050308950F931F93CF93DF930E9431
:104E700088270E949027C8EDD0E088818F778883AB
:104E800088818068888388818F7D888319BC10928F
:104E9000060310920203109204031092030300EE23
:104EA00010E0F80180818B7F808388818160888316
:104EB00042E060E080E00E949526E1EEF0E0808133
:104EC0008E7F8083E2EEF0E080818160808380814C
:104ED00088608083F80180818E7F808388818061F3
:104EE0008883DF91CF911F910F910895E8EDF0E055
:104EF00080818F7E8083E7EDF0E080818160808318
:104F000084E082BF81E0809305030E9433270895E7
:104F1000E8EDF0E080818E7F80831092E2000895BA
:104F20001092DA001092E10008951F920F920FB6CE
:104F30000F9211242F933F934F935F936F937F931F
:104F40008F939F93AF93BF93EF93FF938091E10073
:104F500082FF0BC08091E20082FF07C08091E100D8
:104F60008B7F8093E1000E94F4298091DA0080FF1A
:104F700019C08091D80080FF15C08091DA008E7F23
:104F80008093DA008091D90080FF96C080E189BDCE
:104F900082E189BD09B400FEFDCF81E08093060364
:104FA0000E94DA238091E10080FF19C08091E20025
:104FB00080FF15C08091E2008E7F8093E200809197
:104FC000E20080618093E2008091D800806280934B
:104FD000D80019BC85E0809306030E94EE238091DF
:104FE000E10084FF2BC08091E20084FF27C080E1B4
:104FF00089BD82E189BD89B5982F917080FFFBCF73
:105000008091D8008F7D8093D8008091E1008F7EC1
:105010008093E1008091E2008F7E8093E200809196
:10502000E20081608093E20080910203882309F40A
:1050300049C084E0809306030E94F7238091E10039
:1050400083FF29C08091E20083FF25C08091E100A9
:10505000877F8093E10082E0809306031092020331
:105060008091E1008E7F8093E1008091E2008E7F4D
:105070008093E2008091E20080618093E20042E050
:1050800060E080E00E9495268091F0008860809327
:10509000F0000E94EB23FF91EF91BF91AF919F91A0
:1050A0008F917F916F915F914F913F912F910F90D1
:1050B0000FBE0F901F90189519BC109206030E9406
:1050C000E82370CF8091E30087FD93E0909306037F
:1050D000B3CF1F920F920FB60F9211242F933F93CD
:1050E0004F935F936F937F938F939F93AF93BF93F0
:1050F000CF93DF93EF93FF93D091E900DF7080911E
:10510000EC00C82FC17080FDC0E81092E9008091CA
:10511000F000877F8093F00078940E94AD28109271
:10512000E9008091F00088608093F000CD2BCF7073
:10513000C093E900FF91EF91DF91CF91BF91AF91C3
:105140009F918F917F916F915F914F913F912F919F
:105150000F900FBE0F901F901895AAE2B0E0E3EBFE
:10516000F8E20C94C02A87E093E02091F100FC0162
:105170002193CF01F3E08F309F07B9F70E941724E6
:105180008091E80083FF1EC180910703909108037E
:105190009A3008F017C1E92FF0E0E359F44D0C9470
:1051A0007A2A803899F0823809F00CC180910B037B
:1051B0008F70873008F006C18093E9008091EB0082
:1051C00085FB882780F91092E90006C080910303CF
:1051D00090910403911182609091E800977F9093E1
:1051E000E8008093F1001092F1008091E8008E7742
:1051F000E5C0882309F4D3C0823009F0E3C0809170
:1052000009038111D6C080910B038F702FEF280FF7
:10521000263008F0D7C08093E9002091EB0020FFF2
:10522000C8C0933031F48091EB0080628093EB0032
:10523000C0C09091EB0090619093EB0021E030E0D2
:1052400001C0220F8A95EAF72093EA001092EA0043
:105250008091EB008860EACF8111B4C010910903FE
:105260001F778091E3008078812B8093E300809109
:10527000E800877F8093E8000E94C9268091E800BB
:1052800080FFFCCF8091E30080688093E30082E0A0
:10529000111183E08093060395C08058823008F096
:1052A00091C08091090390910A038C3D23E09207FD
:1052B000A1F583E08A838AE289834FB7F894DE01FF
:1052C000139620E03EE051E2E32FF0E050935700C8
:1052D000E49120FF03C0E295EF703F5FEF708E2FE7
:1052E00090E0EA30C0F0C7968D939D932F5F2431F4
:1052F00059F74FBF8091E800877F8093E8006AE20A
:1053000070E0CE0101960E94D8258091E8008B774D
:105310008093E80057C0C096E7CF60910B0370916F
:105320000C03AE014F5F5F4F0E941825BC01892B13
:1053300009F448C09091E800977F9093E800898134
:105340009A810E943626E1CF8038E1F58091E8000D
:10535000877F8093E800809102038093F10045CF1E
:10536000811130C090910903923060F58091E8007E
:10537000877F8093E800909302030E94C926809162
:105380000203882311F084E005C08091E30087FDCB
:10539000FACF81E0809306030E94022413C080911B
:1053A0000903813079F481E0933009F080E0809343
:1053B00004031092E9008091E800877F8093E80061
:1053C0000E94C9268091E80083FF0AC08091E8000E
:1053D000877F8093E8008091EB0080628093EB00F0
:1053E000AA96E3E00C94DC2A0895CF9380910603FB
:1053F0008823A1F0C091E900CF709091EC00892F33
:10540000817090FD80E8C82B1092E9008091E8003F
:1054100083FD0E94AD28CF70C093E900CF9108951D
:105420000E941927109206030895E8EDF0E08081AC
:10543000806180838AE18A95F1F700C08091D9006C
:105440008170089587FB082E062687FD819567FDEC
:1054500061950E94E82A0EF4919507FC81950895C4
:10546000AA1BBB1B51E107C0AA1FBB1FA617B7078A
:1054700010F0A61BB70B881F991F5A95A9F78095A6
:105480009095BC01CD01089597FB072E16F400946A
:1054900007D077FD09D00E94302A07FC05D03EF4E2
:1054A000909581959F4F0895709561957F4F0895D0
:1054B000A1E21A2EAA1BBB1BFD010DC0AA1FBB1F18
:1054C000EE1FFF1FA217B307E407F50720F0A21B8A
:1054D000B30BE40BF50B661F771F881F991F1A94F7
:1054E00069F760957095809590959B01AC01BD0121
:1054F000CF010895EE0FFF1F0590F491E02D099460
:105500000E94882A332312F48A1B9B0B0C94992A3D
:10551000A29FB001B39FC001A39F700D811D1124F4
:10552000911DB29F700D811D1124911D08950E943F
:10553000882AB7FF0895821B930B08950E94882A3A
:10554000A59F900DB49F900DA49F800D911D1124D7
:105550000895B7FF0C949E2A0E949E2A821B930BEB
:1055600008952F923F924F925F926F927F928F9207
:105570009F92AF92BF92CF92DF92EF92FF920F93E2
:105580001F93CF93DF93CDB7DEB7CA1BDB0B0FB6EC
:10559000F894DEBF0FBECDBF09942A8839884888A9
:1055A0005F846E847D848C849B84AA84B984C8843F
:1055B000DF80EE80FD800C811B81AA81B981CE0F36
:1055C000D11D0FB6F894DEBF0FBECDBFED0108951B
:1055D000991B79E004C0991F961708F0961B881F45
:1055E0007A95C9F780950895FC014150504030F0FC
:1055F00001900616D1F73197CF0108958827992792
:105600000895FB01DC0104C08D910190801921F403
:1056100041505040C8F7881B990B0895FB01DC01ED
:1056200002C001900D9241505040D8F70895F99969
:10563000FECF92BD81BDF89A992780B50895A6E165
:10564000B0E044E050E00C94512BA8E1B0E042E01F
:1056500050E00C94512B262FF999FECF92BD81BDBD
:10566000F89A019700B4021639F01FBA20BD0FB6A0
:10567000F894FA9AF99A0FBE08950396272F0E947C
:105680002C2B0E942B2B252F0E942C2B242F0C948B
:105690002C2B0196272F0E942C2B0C942B2BDC01FA
:1056A000CB01FC01F999FECF06C0F2BDE1BDF89A2D
:1056B000319600B40D9241505040B8F70895F894D7
:1056C000FFCF5E055E058F058F051C06BE05BE0576
:1056D000BE053806A906B806B806D128F928E22979
:0E56E000F928E2292C294D29E229A429B02914
:1056EE004202010000000100000000000000040161
:1056FE000000000405000000000000080900000082
:10570E00000000010102000E000E0E01191A1B1CF2
:10571E001D1E1F20212273237723D923D423CF23A9
:10572E00762301E200E900EA00B500B600B700CD2D
:10573E00008301CC008A01920194012102230224EC
:10574E00022502260227022A02B300B4006F00705F
:10575E0000818283E200E900EA00B500B600B700DE
:10576E00CD008301CC008A01920194012102230213
:10577E0024022502260227022A02B300B4006F007B
:10578E007000818283F5F6F731333236F497C634E2
:10579E00670200010202020206060609090909094A
:1057AE00090F0F0F0F0F0F151515181919191919B4
:0857BE0019191919192324001F
:00000001FF
