:100000000C94CA020C9483220C94E7020C94E7022D
:100010000C94E7020C94E7020C94E7020C94E702BC
:100020000C94E7020C94E7020C9476290C94482A6D
:100030000C947F240C94E7020C94E7020C94E702E2
:100040000C94E7020C94E7020C94E7020C94E7028C
:100050000C94E7020C9423250C94E7020C94E7021D
:100060000C94E7020C94E7020C94E7020C94E7026C
:100070000C94E7020C94E7020C94E7020C94E7025C
:100080000C94E7020C94E7020C94E7020C94E7024C
:100090000C94E7020C94E7020C94E7020C94E7023C
:1000A0000C94E7020C94E7020C94E7029205920587
:1000B000BE05BE0526065107510751074406DD0659
:1000C000EE06EE06B52ADC2AD42BDC2AD42B282B0C
:1000D0004B2BD42BA22BB12B290014001A000800A3
:1000E0001500170000002A00040016000700090090
:1000F0000A0000002B001D001B000600190005006F
:100100000000E200E300E000E10001580000000010
:100110001C0018000C001200130033002D000B000F
:100120000D000E000F003400000028001100000038
:10013000100036003700380001512C42000000004A
:100140005000520051004F0035001E001F002000DB
:10015000210022000000000000000000000000005C
:1001600000000000E10000000000000000002F027D
:1001700000005000520051004F000100000000003C
:10018000230024002500260027002D002E0000005B
:1001900000000000000033000000310030020000C9
:1001A00000002F003000000001002A0000000000C5
:1001B0000000E6000100000035021E021F022002BE
:1001C00021022202000001000100010049004B0051
:1001D0004A0000000100010001004C004E004D00EB
:1001E000000001000100010001000100000000000A
:1001F000230224022502260227022D022E020100DC
:1002000001000100010033020000010001000000B4
:1002100001002F0230020100010001000000000077
:10022000010001000100210B00003A003B003C00EE
:100230003D003E0000000000000000000000000043
:1002400000000000000000000000000000000000AE
:10025000000001000000000000000000000000009D
:100260003F004000410042004300440045000000C0
:10027000000000000000000000000000000000007E
:10028000000000000000000000000000000000006E
:10029000000000000000000000047F3F1F643214D3
:1002A000643214783C1E1E140A05222325262829B0
:1002B0002A2C2D2F3032333536383A3B3D3E4042E2
:1002C000434547494A4C4E5051535557595A5C5E25
:1002D0006062646668696B6D6F71737577797B7D39
:1002E0007F81838587898A8C8E90929496989A9C38
:1002F0009E9FA1A3A5A7A8AAACAEAFB1B3B4B6B850
:10030000B9BBBCBEBFC1C2C3C5C6C7C9CACBCCCDB1
:10031000CED0D1D2D2D3D4D5D6D7D7D8D9D9DADA8C
:10032000DBDBDBDCDCDCDCDCDDDDDDDDDCDCDCDC0C
:10033000DCDBDBDBDADAD9D9D8D7D7D6D5D4D3D240
:10034000D2D1D0CECDCCCBCAC9C7C6C5C3C2C1BF1E
:10035000BEBCBBB9B8B6B4B3B1AFAEACAAA8A7A582
:10036000A3A19F9E9C9A98969492908E8C8A89873E
:100370008583817F7D7B79777573716F6D6B69681C
:10038000666462605E5C5A5957555351504E4C4AF0
:100390004947454342403E3D3B3A3836353332309B
:1003A0002F2D2C2A292826252322FFAA7F554000FD
:1003B0000101010101010101010202020202020226
:1003C00002020303030303030303040404040404F9
:1003D00004050505050506060606060707070707BF
:1003E00008080808090909090A0A0A0B0B0B0C0C72
:1003F0000C0D0D0D0E0E0E0F0F0F1010111111120E
:100400001213131414151516161717181819191A8C
:100410001A1B1B1C1D1D1E1E1F20202122222324EF
:1004200024252626272829292A2B2C2D2D2E2F302E
:10043000313232333435363738393A3B3C3D3E3F42
:10044000404142434445464748494A4C4D4E4F502F
:10045000515354555658595A5B5D5E5F61626465ED
:100460006668696B6C6D6F7072737577787A7B7D77
:100470007E8082838587888A8C8E8F9193959698CB
:100480009A9C9EA0A2A3A5A7A9ABADAFB1B3B5B7E7
:10049000BABCBEC0C2C4C6C9CBCDCFD1D4D6D8DBBE
:1004A000DDDFE2E4E7E9EBEEF0F3F5F8FAFDFF104B
:1004B0000346006F0075007200690065007200005D
:1004C000000E034B0065006500620069006F0000CC
:1004D000000403090409023B00020100A0FA090418
:1004E0000000010301010009211101000122400067
:1004F0000705810308000109040100010300000051
:1005000009211101000122320007058203200001A8
:10051000120100020000000810CB47120001010286
:10052000000105010980A101850319012AB7001501
:100530000126B700950175108100C0050C0901A1C5
:1005400001850419012AA002150126A00295017552
:10055000108100C005010906A101050719E029E77E
:100560001500250195087501810295017508810125
:100570000507190029FF150026FF0095067508815B
:100580000005081901290595057501910295017568
:10059000039101C011241FBECFEFDAE0DEBFCDBF53
:1005A00011E0A0E0B1E0E4E4FAE502C005900D92AC
:1005B000AA3DB107D9F723E0AAEDB1E001C01D9231
:1005C000A631B207E1F70E9471160C94202D0C940D
:1005D000000081E0089581E008950C94EB020895F5
:1005E0000C94EF021F93CF93DF9300D000D01F92A3
:1005F000CDB7DEB749835A836B833091DD018981A2
:100600009A81311114C0662359F0222349F00E94C7
:100610008A09182F682F89819A810E94330903C0A3
:100620000E945E09182F69817A81812F04C00E947F
:100630008A0969817A810F900F900F900F900F9027
:10064000DF91CF911F910C949F10FC01262F4081C8
:1006500051816281738184810C94F20281E008955A
:10066000CF93DF93EC0160E00E942503BE01DF9190
:10067000CF910C94F0020C9415120C941112089561
:100680000E94DD070E943F032FEF84E39CE021508E
:1006900080409040E1F700C000000C9449250F9382
:1006A0001F93CF93DF938C0161E00E942503EC013F
:1006B000B8010E94ED02882309F444C0B801CE01BC
:1006C0000E9490218823F1F1B801CE010E94BC1E46
:1006D0008823C1F1B801CE010E94EC20882391F15A
:1006E000B801CE010E94AA1D882361F1F801828120
:1006F000882309F1CB358DE5D807C1F050F4C11539
:10070000FCE5DF0781F0CF3DDC45A9F40E94BB0E7C
:1007100019C0CC35EDE5DE0761F0CD35DD4559F486
:100720000E94040E08C00E9440030CC00E940D0EDF
:1007300002C00E94100EC801DF91CF911F910F914E
:100740000C94E90280E0DF91CF911F910F91089501
:100750000E9462240C94C1030E94C4030C94682478
:1007600008950C94B00381E008950C94B3030895A8
:10077000CF93C82F0E94B1038C2F0E94B503CF9155
:10078000089580E00C94B8030E94AE230C94B80343
:100790000E94AE239091DC01891721F08093DC0147
:1007A0000C94B8030895CF93DF93CDB7DEB72B97A2
:1007B0000FB6F894DEBF0FBECDBF4F835887698751
:1007C0007A878B8761110E94500D9E012F5F3F4FEA
:1007D00086E0F90111928A95E9F785E0FE013796E6
:1007E000D90101900D928A95E1F789819A814C8116
:1007F0005D81452B31F09F3F31F491E08F3F19F43B
:1008000003C091E001C090E090FF09C049815A8186
:100810006B817C818D819E810E94710C05C0C90114
:100820000E942E038111F2CF2B960FB6F894DEBFF3
:100830000FBECDBFDF91CF910895FC0180819181E2
:100840000E94CC090895CF93882309F4A1C0C82F32
:100850008238C1F40E94AE2381FD9AC069E3809181
:100860000201909103010E943A240E94720D2FEF21
:1008700081EE94E0215080409040E1F700C00000FC
:1008800069E319C0833801F50E94AE2380FD80C062
:1008900063E580910201909103010E943A240E9435
:1008A000720D2FEF81EE94E0215080409040E1F7EF
:1008B00000C0000063E580910201909103010E9455
:1008C0003C24CF910C94720D8438C1F40E94AE2365
:1008D00082FD5EC067E480910201909103010E9455
:1008E0003A240E94720D2FEF81EE94E02150804057
:1008F0009040E1F700C0000067E4DDCF8CEF8C0F83
:10090000813AF8F48C2F0E94B020811141C06C2FE5
:1009100080910201909103010E940424882349F0F0
:100920006C2F80910201909103010E943C240E944F
:10093000720D6C2F80910201909103010E943A2464
:10094000C0CF80E28C0F883048F4C77081E001C0CE
:10095000880FCA95EAF70E94330DB3CFEBE5EC0F91
:10096000E33040F4F0E0ED58FE4F808190E0CF910D
:100970000C94CC23C85AC73158F4EC2FF0E0EE0F9A
:10098000FF1FEB5BFE4F80819181CF910C94E2239E
:10099000CF910895882309F45BC0682F823879F4D9
:1009A0000E94AE2381FF54C069E3809102019091BF
:1009B00003010E943A240E94720D69E310C083383B
:1009C000B1F40E94AE2380FF43C063E58091020131
:1009D000909103010E943A240E94720D63E5809178
:1009E0000201909103010E943C240C94720D843802
:1009F00079F40E94AE2382FF2BC067E4809102014C
:100A0000909103010E943A240E94720D67E4E7CF9F
:100A10008CEF860F813A18F380E2860F883048F415
:100A2000677081E001C0880F6A95EAF70E94390D6E
:100A3000DCCF8BE5860F833020F480E090E00C94CF
:100A4000CC23685A673120F480E090E00C94E223D4
:100A500008951F93CF93DF93182FEB010E94230477
:100A6000209741F08FE99FE00197F1F700C0000067
:100A70002197F6CF812FDF91CF911F910C94CA045B
:100A8000893319F060E070E002C060E570E00C941A
:100A90002905882321F00E94330D0C94720D0895CE
:100AA000882321F00E94390D0C94720D0895CF9285
:100AB000DF92EF92FF920F931F93CF93DF937C010E
:100AC000D62FC72FFC011281058102950F700E945D
:100AD000290D8823B9F01123A9F08C2F807F803451
:100AE00021F080E28D0F883068F08091C30282FD92
:100AF00009C082E00E94D20D0E94290D91E0D82EFB
:100B0000D92601C0D12CCC2EC2948FE0C8228C2DC6
:100B100090E08C30910508F0C4C1FC01EA5AFF4F07
:100B20000C94722C8C2F807FCF70882311F0C2958B
:100B3000C07F112399F0CC2309F49FC180E28D0F6F
:100B4000883010F0D11104C08C2F0E94330D03C0E7
:100B50008C2F0E94430D0E94720D8FC18D2F0E9419
:100B6000CA04CC2309F49DC180E28D0F883038F18E
:100B7000DD2329F18C2F0E94490D24C08C2F807F0A
:100B8000CF70803211F0C295C07FDD2319F0D130D3
:100B9000A1F13DC08091C30282FF17C0112349F02B
:100BA000CC2329F08C2F0E94330D0E94720D80E01F
:100BB00065C180E00E94CA04CC2309F472C18C2F65
:100BC0000E94390D0E94720D6CC1112371F0002337
:100BD00041F0013031F40E94530D8C2B0E945B0DCB
:100BE00060C10E94530D8C2B1DC0002319F00130F1
:100BF00009F457C10E94680D25C0112321F0063069
:100C000008F04FC10EC0053008F04BC11BC01123C6
:100C100061F0002331F0F701858180FF2EC18F70D4
:100C200085838C2F0E9449053CC1002359F0D9339C
:100C300009F034C1FFEF07EE13E0F150004010401F
:100C4000E1F72AC18C2F0E9450052BC18C2F86956D
:100C50008695837019F0813061F023C1112321F052
:100C60008D2F9C2F937002C080E090E00E94CC23D7
:100C700020C1112321F08D2F9C2F937002C080E0A2
:100C800090E00E94E22315C18C2F837009F047C0C9
:100C900011110BC12D2F229526952770220F220F9F
:100CA0006D2F6F70862F90E0A0E0B0E0022E04C0A0
:100CB000880F991FAA1FBB1F0A94D2F7D4FF10C038
:100CC0004FE050E060E070E004C0440F551F661F25
:100CD000771F2A95D2F7409550956095709503C07F
:100CE00040E050E0BA01C695C695C3708A019B01E9
:100CF000082B192B2A2B3B2BC901B801C23049F014
:100D000058F4C13019F00E944908CFC00E9437083A
:100D1000CCC00E945B08C9C00E943508C6C0112320
:100D200019F08C2F817001C08695882309F4BDC00D
:100D30002D2F229526952770220F220F6D2F6F7071
:100D4000862F90E0A0E0B0E0022E04C0880F991F2B
:100D5000AA1FBB1F0A94D2F7D4FF10C04FE050E087
:100D600060E070E004C0440F551F661F771F2A958E
:100D7000D2F7409550956095709503C040E050E0E3
:100D8000BA01C695C695C3708A019B01082B192B21
:100D90002A2B3B2BC901B801C23049F058F4C130AD
:100DA00019F00E940E0981C00E94FC087EC00E94BA
:100DB00020097BC00E946F0878C0CF70112339F0E2
:100DC0008C2F0E9495088D2F0E9449056EC08D2F93
:100DD0000E9450058C2F0E94B60867C0D23F21F1B7
:100DE00028F4D03F41F0D13FC1F043C0D33F19F1C7
:100DF000D43F79F03EC0112341F0053008F051C0D6
:100E00008C2F8F710E94DB084CC0063008F049C05F
:100E1000F7CF8091C30282FF18C0112339F08C2FC5
:100E20008F710E9495083DC01123C9F38C2F8F71DB
:100E30000E94B60836C0112329F08C2F8F710E94B2
:100E400080082FC00E947B082CC0112349F0CF716D
:100E50008C2F0E94950863E08C2F0E94B70D21C053
:100E600081E00E94D20D0230E0F082E00E94D20DBB
:100E700018C0112331F0002391F28D2F0E9423041A
:100E800010C0002399F2D93349F41FEF27EE33E065
:100E9000115020403040E1F700C000008D2F0E942B
:100EA000CA0488EF8C0D843020F40E94AE230E9487
:100EB000B803DD20C9F00E94250D80FD15C0F701A3
:100EC00012820E941F0D0E949508C7010E9495077B
:100ED0000E941F0DDF91CF911F910F91FF90EF9016
:100EE000DF90CF900C94B608DF91CF911F910F91B6
:100EF000FF90EF90DF90CF9008950F931F93CF93C3
:100F0000DF93EC01688179818A810E94D7098C0185
:100F10000E9432090E942308B801CE010E945705A1
:100F2000DF91CF911F910F910895CF93DF93EC0143
:100F3000988189812B813C81232B31F08F3F31F4C3
:100F400081E09F3F19F403C081E001C080E080FD93
:100F50001DC0CE010E944F03811110C00E94290DB7
:100F60008823A1F08A81882389F08091C30282FDC1
:100F70000DC082E0DF91CF910C94D20DCE010E9482
:100F80007D07CE01DF91CF910C943003DF91CF919B
:100F9000089580E090E00E94CC2380E090E00E94E1
:100FA000E2230E94500D0C94720D809102019091E9
:100FB00003010E943E240C94C9070E94400D0C942A
:100FC000D50792959F70963079F010F4925001C039
:100FD0009A50923068F4803F69F018F4883E40F4EB
:100FE00009C0843F29F406C0883E20F0813F11F0FB
:100FF00080E0089581E00895FC01808191810E9444
:10100000CC090E94E1070895CF93DF9300D000D070
:101010001F92CDB7DEB70F900F900F900F900F90EB
:10102000DF91CF910895CF93DF9300D000D000D00F
:10103000CDB7DEB726960FB6F894DEBF0FBECDBF94
:10104000DF91CF910895089508950C9424080C948D
:1010500025080E942708609305027093060280937A
:101060000702909308020C94C9070C9429080F9367
:101070001F93009105021091060220910702309102
:101080000802602B712B822B932B1F910F910C94D4
:1010900029080F931F9300910502109106022091D9
:1010A00007023091080260237123822393231F914A
:1010B0000F910C9429080F931F9300910502109132
:1010C00006022091070230910802602771278227CB
:1010D00093271F910F910C9429080C9424080E94C7
:1010E0006D08609301027093020280930302909353
:1010F00004020C94C90760E070E0CB010C946F0807
:101100000F931F9341E050E060E070E08A019B0183
:1011100004C0000F111F221F331F8A95D2F7C90187
:10112000B8011F910F910C946F080F931F9341E02A
:1011300050E060E070E004C0440F551F661F771F49
:101140008A95D2F78091010290910202A091030248
:10115000B09104028A019B01082B192B2A2B3B2BEF
:10116000C901B8011F910F910C946F080F931F9341
:1011700041E050E060E070E004C0440F551F661F7E
:10118000771F8A95D2F7409550956095709580911C
:10119000010290910202A0910302B09104028A011F
:1011A0009B01082319232A233B23C901B8011F915E
:1011B0000F910C946F080F931F9341E050E060E093
:1011C00070E004C0440F551F661F771F8A95D2F741
:1011D0008091010290910202A0910302B091040259
:1011E0008A019B01082719272A273B27C901B80133
:1011F0001F910F910C946F080F931F9300910102A0
:10120000109102022091030230910402602B712B95
:10121000822B932B1F910F910C946F080F931F93A8
:101220000091010210910202209103023091040208
:1012300060237123822393231F910F910C946F08D5
:101240000F931F930091010210910202209103025B
:101250003091040260277127822793271F910F91F5
:101260000C946F08089527E0929F800D1124E82FB9
:10127000E695E695E695877051E001C0550F8A9591
:10128000EAF785E0E89FF0011124E252FE4F20E0EA
:1012900030E070E04081CB01022E02C09695879528
:1012A0000A94E2F7817081958427852384278193AE
:1012B0002F5F3F4F2530310569F7089527E0929F52
:1012C000800D1124682F669566956695982F977006
:1012D00085E0689FB001112440E050E080E0FB0110
:1012E000E40FF51FE252FE4F208130E0092E02C0CC
:1012F000369527950A94E2F721703327042E01C012
:10130000220F0A94EAF7822B4F5F5F4F4530510559
:1013100031F70895BF92CF92DF92EF92FF920F9331
:101320001F93CF93DF938C01C0900102D0900202F3
:10133000E0900302F0900402809105029091060271
:10134000A0910702B0910802C82AD92AEA2AFB2AEA
:10135000CFE1D0E0D701C6010C2E04C0B695A79509
:10136000979587950A94D2F780FD04C0219790F74E
:10137000B12C07C0BC2EB8018C2F0E94B21001976F
:10138000A9F38B2DDF91CF911F910F91FF90EF90DB
:10139000DF90CF90BF900895CF93DF93EC010E9430
:1013A0008A09BE010E94B210DF91CF9108951F9368
:1013B000CF93DF93EB019091DD01992321F0CB01D5
:1013C0000E94CC0913C0882349F0CB010E948A09EE
:1013D000182F682FCE010E94330904C0CB010E9450
:1013E0005E09182FBE01812F0E94B210DF91CF91AC
:1013F0001F9108951F93CF93DF93C091090216E0C8
:1014000080910A02C81799F0D0E01C9FF0011D9F3F
:10141000F00D1124E55FFD4F4081518162817381A0
:10142000848195810E9413082196C770E9CFDF91CE
:10143000CF911F91089540913B0250913C026091E1
:101440003D0270913E0280913F02909140020C94C7
:101450001308EF92FF920F931F93CF93DF93809126
:10146000400282958F7009F065C080913D0288230B
:1014700009F460C080910902F0900A0210913B02C9
:1014800000913C0260913E0270913F0291E01F3F4B
:1014900009F090E0C0910001D0910101292F96E060
:1014A000E92E8F1509F446C06115710521F00F3F33
:1014B00021F030E003C031E001C0322F90E030FD78
:1014C00036C0E89EF001E99EF00D1124DF01A55F12
:1014D000BD4F11963C911197301329C03C913113A7
:1014E00026C012963C911297311121C013964D914E
:1014F0005C911497461B570B4C175D07C0F4809105
:1015000040028F70806180934002E05FFD4F8081D8
:101510008F70806180838BE392E00E949507DF915A
:10152000CF911F910F91FF90EF900C94FA090196C3
:101530008770B7CFDF91CF911F910F91FF90EF9000
:1015400008959F92AF92BF92CF92DF92EF92FF9257
:101550000F931F93CF93DF93CDB7DEB761970FB68D
:10156000F894DEBF0FBECDBF8C0185E0F801DE012F
:101570001D9601900D928A95E1F7D8011296EC9094
:1015800090913B02E0913C0220913E0230913F025B
:101590002115310531F0EF3F31F481E09F3F19F41F
:1015A00003C081E001C080E0B82FB1709B2E80FDA8
:1015B00047C1D8014C9111965C9111971396AD904B
:1015C000BC9014978BE3C82E82E0D82EF0903D0299
:1015D000B501621B730B2091000130910101FF20C6
:1015E00009F4D9C0809140026217730708F095C0D2
:1015F000282F207F09F052C05E1313C0491311C079
:10160000FE2CE1100EC08F708061809340020E941A
:101610001B0AC6010E94950780914002F80185834C
:101620004DC1AB2831F05F3F31F481E04F3F19F4F9
:1016300003C081E001C080E080FD03C081E08E2511
:1016400002C080E090E0F82FF170FF2E80FF1CC0F8
:101650008091090220910A0236E0821709F40BC139
:1016600090E0389FF001399FF00D1124E55FFD4FA8
:101670006181561306C06081461303C06281E61281
:1016800003C001968770E9CFFE2CEE2009F416C145
:101690008091400281608093400254C05E1306C076
:1016A000491304C0E11002C0F80199C0C8010E94AA
:1016B000FC07882361F1EE2051F120914002822F36
:1016C00082958F7090E0029774F080913B02909128
:1016D0003C0298878F831986BB86AA862C87CE0109
:1016E00007960E94950786E0F801ABE3B2E001900F
:1016F0000D928A95E1F70E94290A0E941B0A0AC0EE
:101700005E1711F1C8010E94FC0781112CC0C801AD
:101710000E949507FF24F394D1C0282F207F81F7E2
:101720007A2DB98AA88A6E2D89890E9404088BE3D4
:1017300092E00E94950786E0D6011D928A95E9F70E
:101740000E941B0AF12CBAC04913DCCFE110DACF9A
:10175000F8018583C8010E94950786E0D6011D9295
:101760008A95E9F7ABC0EE2091F220914002822FDA
:1017700082958F7090E002970CF4B5CF80913B0278
:1017800090913C029A8389831B82BD82AC822E8316
:10179000CE010196A6CF6217730708F044C0FE2C55
:1017A000EE2009F4B4CF5E1330C049132EC020914F
:1017B000400220FD21C0822F82958F70482F50E07B
:1017C00041155105C9F0F80125834F30510541F00D
:1017D0008F5F982F9295907F822F8F70892B8583B2
:1017E000C8010E94950786E0F801ABE3B2E00190E2
:1017F0000D928A95E1F73CC086E0F801ABE3B2E0D8
:1018000001900D928A95E1F759C0C8010E94FC072A
:10181000811169CF80914002816080934002C801AC
:101820000E9495074BC07A2DB98AA88A6E2D8989A6
:101830000E94040886E0D6011D928A95E9F718C037
:10184000EE2009F464CFC8010E94FC07F82E88231B
:1018500009F45DCF86E0F801ABE3B2E001900D92B0
:101860008A95E1F78BE392E00E941D040E94290A09
:101870000E941B0A23C04D875E878D859E850E942E
:10188000CC09292F22952F70223028F49F7039F02F
:10189000811105C00BC0243028F49F7049F4805E8C
:1018A000883020F0C8010E9495079F2CF92C06C0B3
:1018B000D80115969C91907F91F7F8CF8F2D619666
:1018C0000FB6F894DEBF0FBECDBFDF91CF911F9151
:1018D0000F91FF90EF90DF90CF90BF90AF909F90CF
:1018E00008951F93CF93DF93CDB7DEB72C970FB634
:1018F000F894DEBF0FBECDBF4F83588769877A87C4
:101900008B879C87CE0107960E94A10A8823D1F07D
:101910009F8188852A853B85232B31F08F3F31F4C9
:1019200081E09F3F19F403C081E001C080E080FDA9
:1019300047C04F81588569857A858B859C850E9433
:1019400013083EC086E0FE013796DE011196019035
:101950000D928A95E1F7FF81E8856A857B8561159F
:10196000710531F0EF3F31F481E0FF3F19F403C01E
:1019700081E001C080E080FD23C020910A0230E0B8
:10198000C9010196877099274091090250E0841798
:101990009507F1F1F983EA837D836C8396E0929F4A
:1019A000D001939FB00D1124A55FBD4FFE0131966C
:1019B00001900D929A95E1F780930A020E94FA092C
:1019C00016E08091090290910A02891771F1189F1F
:1019D000C0011124855F9D4F0E94A10A882329F12F
:1019E000E09109021E9FF0011124E55FFD4F408147
:1019F000518162817381848195810E941308809155
:101A0000090290E001968770992780930902D9CF47
:101A10000E94DD0710920A0210920902EBE3F2E045
:101A200086E0DF011D928A95E9F72C960FB6F894AF
:101A3000DEBF0FBECDBFDF91CF911F910895809182
:101A4000490285958595859508958091490287700D
:101A5000089590914902977081E009F480E008951B
:101A600080915402089590915402892B80935402DE
:101A7000089580959091540289238093540208958B
:101A800010925402089590915302892B809353022F
:101A9000089580959091530289238093530208956D
:101AA00010925302089580914A02089508950C946B
:101AB000560D0C94570D9091C30292FD08C0909161
:101AC0004A02981721F080934A020C94590D089508
:101AD00080914A02882329F010924A0280E00C94F7
:101AE000590D0895CF93DF93E0910201F091030126
:101AF000809154028083E0910201F0910301908172
:101B000080915302892B808380914A02882381F03F
:101B1000E0910201F09103019081892B80838091F3
:101B20000201909103010E94F82381110E94680D27
:101B3000C0910201D091030148E050E061E472E0FD
:101B4000CE010E94C22C892B69F088E0FE01A1E43D
:101B5000B2E001900D928A95E1F7CE01DF91CF912D
:101B60000C94C123DF91CF9108950C94560D909160
:101B7000C30292FD10C098E0899F90011124262B8A
:101B8000209349020E949508809149028595859588
:101B900085950C94B50D0C9495081092490280E03F
:101BA0000C94B50D209149028095822380934902BF
:101BB000982F977099F430E0482F082E000C550BA1
:101BC0002417350759F09091C30292FD07C08595FF
:101BD000859585950E94B6080C94CD0D0895909139
:101BE000C30292FB222720F9281769F080FB92F9A3
:101BF0009093C3028091C2029091C3020E94370E5B
:101C000082E00C94D20D08958091C30282FB882754
:101C100080F991E089270C94EF0D81E00C94EF0D91
:101C200080E00C94EF0D80E090E00E94E62C21E033
:101C3000893E9E4F09F020E0822F089582E090E0D7
:101C40000C94D82C83E090E00C94D82CCF9384E0B3
:101C500090E00E94D82CC82F82E290E00E94D82CFD
:101C60002C2F30E0A901582BCA01CF910895CF93B2
:101C7000C92F682F84E090E00E94EC2C6C2F82E248
:101C800090E0CF910C94EC2CAB01BC018FE090E084
:101C90000C94FE2CAB01BC0183E190E00C94FE2C73
:101CA00060E070E0CB010C944A0E60E070E0CB0184
:101CB0000E94440E0C94500E69EE7EEF80E090E09E
:101CC0000E940A2D60E082E090E00E94EC2C60E02F
:101CD00083E090E00E94EC2C109205021092060224
:101CE000109207021092080260E084E090E00E94E7
:101CF000EC2C60E082E290E00E94EC2C60E085E059
:101D000090E00E94EC2C60E086E090E00E94EC2CD9
:101D10006FEF87E090E00E94EC2C40E050E0BA01C9
:101D200088E090E00E94FE2C60E08DE090E00E9450
:101D3000EC2C40E050E0BA0188E190E00E94FE2CDB
:101D400060E087E190E00E94EC2C40E050E0BA01B6
:101D50008CE190E00E94FE2C60E070E080E290E078
:101D60000E940A2D40E050E0BA0188E190E00E9414
:101D7000FE2C0C94550E0C945C0E682F8EE090E0B7
:101D80000C94EC2C0E94EC2460936102709362022C
:101D9000809363029093640260935D0270935E028D
:101DA00080935F0290936002089585B7806885BF35
:101DB00085B7806885BF08950C94CC1308950C9462
:101DC000DE0E0C94DE0E0C94E10E0C94DE0E0C94E0
:101DD000E50E0C94DE0E0E94D50E88ED91E10E9476
:101DE000A4230E94E90E0C94E70E0E94DF0E0C94CF
:101DF000DE0E0E94DB110C94B7030E94D7240E94D0
:101E00008E110E94E4130E9416130E94F90E0E9484
:101E1000A41E0E949A1C0E94F8130C94E30E8F9249
:101E20009F92AF92BF92CF92DF92EF92FF920F9369
:101E30001F93CF93DF93CDB7DEB72A970FB6F894F1
:101E4000DEBF0FBECDBF0E943A13982E81110E94B3
:101E5000C20E85E5A82E82E0B82E00E010E0802EAC
:101E6000802F0E94FF11D82EF501C1905F01C82676
:101E7000B1F40F5F1F4F0830110589F78FEF898389
:101E80008A831B820E94E0248160782F9D838C834B
:101E900049815A816B818D810E94D3032FC080912B
:101EA000650281FD0E940512E12CFF24F3948C2D24
:101EB0008F21F1F00E94DC0E882399F0EE828F8250
:101EC000DF2081E009F480E088870E94E0248160BF
:101ED000782F9A8789874E815F8168858A850E94DD
:101EE000D303F801EB5AFD4F8081F826F08206C03B
:101EF000E394FF0CF7E0EF12DACFBBCF81E0911053
:101F000001C080E02A960FB6F894DEBF0FBECDBFA9
:101F1000DF91CF911F910F91FF90EF90DF90CF90C5
:101F2000BF90AF909F908F9008950E940F0F0E94D6
:101F3000CC130E94D21C0C94C803CF93DF930E9451
:101F4000B710EC01811522E59207E8F5811531E51E
:101F5000930708F0B6C0883E910528F5803E9105AC
:101F600008F0E9C0883A910570F4853A910508F0C7
:101F70007AC08130910509F473C008F4D9C0049780
:101F800008F0D9C0D5C08F3B910508F0D1C0C85A20
:101F9000D0E0CC0FDD1FCA58DE4F0990D881C02D8C
:101FA000CE019464C9C0811540E5940708F069C06A
:101FB000811550E4950708F060C09A9581159F41FE
:101FC00008F4B9C0B5C0811536E5930728F5811529
:101FD00045E5940708F092C0811554E5950708F08F
:101FE00087C0AC0143705527282F26952695C1152B
:101FF000D34508F06CC081E090E002C0880F991FC3
:102000004A95E2F740E2249F90011124EC01C22B93
:10201000D32BCE019C6890C081152AE5920780F4ED
:10202000811539E5930708F072C0811548E59407DA
:1020300008F47EC0D82FCC27CE01806F906A7CC078
:1020400090568115904208F073C08D2F8F710E94B9
:102050004B11DD27D0628F71AE01582BCA016CC0C5
:1020600081E090E069C0C55AD0E0CC55DE4F888150
:10207000C82FD0E0CE0190645FC0DF70CE01906ABF
:102080005BC074E0969587957A95E1F7282F2370C9
:102090003C2F337081E090E002C0880F991F3A9581
:1020A000E2F79C68AC01522B9A019C2F9F70969589
:1020B000969550E2959FE0011124C9018C2B9D2B30
:1020C0003BC0D82FCC27CE01816F906A35C081E00C
:1020D00090E002C0880F991F4A95E2F750E2259FD1
:1020E00090011124EC01C22BD32BCE019A6824C09D
:1020F000D82FCC27CE01846F906A1EC00E944B114E
:102100008F7190E0D82FCC27CE01906215C08F70D0
:102110000E944B1194E0D695C7959A95E1F7CF7040
:10212000D0E0DC2FCC27D0699E01282BC90104C048
:1021300080E090E001C0CE01DF91CF91089528E3C7
:10214000829FC0011124FC0127E0729FE00DF11D68
:102150001124E60FF11DEE0FFF1FE852FF4F85918E
:10216000949108950E949F100E949D0F08958238B7
:10217000910569F1B0F48133910509F46DC048F41B
:102180008932910509F463C08A32910509F469C066
:1021900008958533910509F455C089339105B9F047
:1021A0000895833E910569F138F4803E9105B1F0C0
:1021B000823E910509F10895863E9105A9F1873E79
:1021C0009105B9F1843E910509F064C023C02091C6
:1021D000C20220FD4FC021FD4DC008958091C20272
:1021E00080FD44C08091C30280FF44C08091C20240
:1021F00084FD42C083EE4DC08091C20282FF38C090
:10220000F5CF8091C20282FD33C08091C30280FD70
:1022100031C0ECCF8091C30281FF32C08091C202F5
:1022200084FD2AC087EE35C08091C20283FF26C09C
:10223000F5CF8091C20283FD21C08091C30281FD50
:102240001FC0ECCF8091C20285FD1CC01DC08091D3
:10225000C20285FD19C016C08091C20286FD16C05B
:1022600017C08091C20286FD13C010C089E311C05F
:1022700082EE0FC080EE0DC080E00BC086EE09C07C
:1022800084EE07C089E205C085E303C08AE201C08D
:1022900081E390E008959091C20292FF0DC0282F33
:1022A0002871283019F4877F846006C0282F247194
:1022B000243011F48B7F886093FF0DC0282F287184
:1022C000283119F4877E846106C0282F24712431B7
:1022D00011F48B7E88612091C30220FF0DC0382F3E
:1022E0003871383019F4877F816006C0382F31711A
:1022F000313011F48E7F886021FF0DC0282F2871A6
:10230000283119F4877E816106C0282F217121317F
:1023100011F48E7E886194FD877E08951092BE022E
:102320001092BF021092C0021092C1020895CF9283
:10233000DF92EF92FF926B017C010E94CC1381111E
:102340000EC00E94EC24C61AD70AE80AF90AC09205
:10235000BE02D092BF02E092C002F092C102FF9092
:10236000EF90DF90CF9008950F931F930E94CC13AE
:10237000882321F01F910F910C94EC240E94EC24EF
:102380000091BE021091BF022091C0023091C102A3
:10239000600F711F821F931F1F910F9108950E945C
:1023A000CC1381110C94E0240E94B411CB01089548
:1023B00080E0089508950E94130E811102C00E94CA
:1023C000BB0E0E941E0E809365020E94260E909303
:1023D000C3028093C2020E94DA110E94220E682F6B
:1023E00070E080E090E00E943508609101027091F9
:1023F000020280910302909104020C946D08E82F70
:10240000F0E0E353FD4F80810895089580EA8A95B6
:10241000F1F7089500C008950C94061208950C94E5
:102420000E120C940F120C940E120C9413120C94A6
:102430000E120F931F93CF93DF9300D000D0CDB730
:10244000DEB70E94CC136091D5028823E9F119828E
:102450001A821B821C82862F90E08E010F5F1F4F15
:10246000B80183539D4F0E940614882389F0809100
:10247000C40290E044E050E0B80183539D4F0E94B5
:10248000C22C21E020936602892B69F410E019C068
:10249000809166028823D1F384E0F80111928A9535
:1024A000E9F710926602E091C402F0E0E353FD4FB9
:1024B00089819A81AB81BC8180839183A283B3831C
:1024C00011E00E943D030DC070E063537D4F809189
:1024D000C40290E083539D4F0E9490140E941712F3
:1024E00010E0812F0F900F900F900F90DF91CF9100
:1024F0001F910F910895F894E82FE295EF70F0E0A6
:1025000031A1282F2F7081E090E001C0880F2A951B
:10251000EAF7982F9095932391A392A1892B82A3F8
:10252000789408950F931F93CF93DF93CEEAD1E071
:1025300089918F3F11F00E947B1281E0C23BD80746
:10254000B9F7C7EAD1E00EEA11E089918F3F11F0A7
:102550000E947B120C171D07C1F7DF91CF911F91CD
:102560000F910895CF92DF92EF92FF920F931F93F6
:10257000CF93DF938C01C62FD0E0CE0182559E4FC2
:102580007C01FC0190819F3F09F447C0D62EF8944E
:10259000E92FE295EF70F0E081A19F7021E030E03B
:1025A00001C0220F9A95EAF7822B81A382A1209580
:1025B000282322A378940E940A12E7EAF1E04EEA67
:1025C00051E031E0C12C21912F3F89F0A22FA2953B
:1025D000AF70B0E090968C9190E02F7002C095950E
:1025E00087952A95E2F780FD02C0832F01C080E025
:1025F000C82A330F4E175F0731F7F70180818F3FED
:1026000011F00E947B1261E0C11001C060E08D2DCD
:102610000E940C12C00FD11FC882DF91CF911F9171
:102620000F91FF90EF90DF90CF900895809104017B
:1026300080910401811102C094E001C090E0909368
:10264000D50284E0891B8093C4020E94921288E024
:10265000EDECF2E0DF01982F1D929A95E9F7E5EC99
:10266000F2E0DF011D928A95E9F784E00E948E1363
:102670000C943B03EF92FF920F931F93CF93DF9342
:10268000CDB7DEB728970FB6F894DEBF0FBECDBF2B
:102690008E010F5F1F4F88E0F80111928A95E9F7CC
:1026A000F12C6F2DC8010E94B212F394F4E0FF12D6
:1026B000F8CF48E050E0B80185EC92E00E94C22CCF
:1026C0007C0121E0892B09F420E0E114F10441F0C0
:1026D00088E0F801A5ECB2E001900D928A95E1F74F
:1026E0006091D50270E063537D4F44E085EC92E049
:1026F0000E948F13EF2819F40E94191202C081E082
:1027000090E028960FB6F894DEBF0FBECDBFDF91E4
:10271000CF911F910F91FF90EF9008950895FF9230
:102720000F931F93CF93DF938C01F62ED72FC42FD7
:10273000222349F081E0809369020E94E024909373
:10274000680280936702809169028823C1F08091BA
:102750006702909168020E94F824059780F0EF2D9F
:10276000FD2FD8014C2F50E0CD01801B910B841719
:1027700095071CF48D918193F7CF10926902DF9138
:10278000CF911F910F91FF90089552985A9889B157
:1027900082FB882780F9089580916C0281110DC019
:1027A0000E940D2C811102C082E001C081E0809363
:1027B0006C02823011F40E94082C81E090916C022E
:1027C000913009F080E008950E94C51380930401C0
:1027D0008091040167E0882311F080E001C087E068
:1027E0000E9413170E94CC1381110C943E1408957B
:1027F0000E94CC13811102C00C944014089581E012
:1028000090916D029A3008F080E008950F931F9325
:10281000CF93DF93EC018B0180916D028A3038F405
:10282000B801CE010E948E1481111DC00AC0809192
:102830006A0290916B020E94F824843F914080F7D5
:1028400015C080916D028F3F19F08F5F80936D02EC
:1028500080916D028A3060F00E94E02490936B02B8
:1028600080936A0203C010926D0202C080E001C032
:1028700081E0DF91CF911F910F9108950C943D223B
:102880000C944022DF92EF92FF920F931F93CF930D
:10289000DF937901C82F880FDD0B41155105A9F091
:1028A000FE0193E0EE0FFF1F9A95E1F7EB5FFE4FFD
:1028B0008181928182599D4F208130E042175307D8
:1028C00008F49A01A9010E94CF2CCE010E9429236D
:1028D000D82E8823D1F001151105B9F083E0CC0F73
:1028E000DD1F8A95E1F7FE01EB5FFE4F438150E06B
:1028F0000417150708F4A801CB5FDE4F6C817D81BA
:1029000062597D4FC7010E94CF2C8D2DDF91CF9151
:102910001F910F91FF90EF90DF9008950C94FC159C
:102920000C9420160F931F93CF93DF9300D000D009
:10293000CDB7DEB760918B0270918C0280918D02D1
:1029400090918E020E9407256436710581059105DC
:1029500028F10E94B411DC01CB010296A11DB11D2A
:1029600089839A83AB83BC8300E010E020E030E0F1
:1029700044E050E0BE016F5F7F4F82E00E9442144E
:10298000182F882361F00E94EC2460938B027093CF
:102990008C0280938D0290938E0201C011E0812FF2
:1029A0000F900F900F900F90DF91CF911F910F918B
:1029B0000895AF92BF92CF92DF92EF92FF920F9362
:1029C0001F93CF93DF937C015B016A010E94FF1389
:1029D000811103C001E010E002C00AE010E0C1E094
:1029E000D0E0F894B501C701F601099578948111FA
:1029F00015C021960C171D0794F0CC9F9001CD9F18
:102A0000300D300D112480E090E045E34A95F1F758
:102A10000000019682179307C1F7E3CF81E0DF91B1
:102A2000CF911F910F91FF90EF90DF90CF90BF90CB
:102A3000AF9008950F931F93CF93DF93CDB7DEB779
:102A400028970FB6F894DEBF0FBECDBFCE0101961A
:102A50000E948D1B188560918F0270919002809169
:102A60009102909192020E940725643671058105BA
:102A7000910510F41123D9F000E010E020E030E0DF
:102A800048E050E0BE016F5F7F4F83E00E94421438
:102A9000882359F00E94EC2460938F027093900277
:102AA000809391029093920202C080E003C00E9442
:102AB0008A1B81E028960FB6F894DEBF0FBECDBF0B
:102AC000DF91CF911F910F910895AF92BF92CF9256
:102AD000DF92EF92FF920F931F93CF93DF9300D07B
:102AE00000D01F92CDB7DEB75B01E090B201F0904D
:102AF000B30101E010E09E012B5F3F4F40E050E04A
:102B000060E070E080E00E944214182F882309F4EE
:102B10003EC067018FEFC81AD80A60918702709192
:102B200088028091890290918A020E94072564366A
:102B300071058105910518F104E010E09E012F5FF9
:102B40003F4F40E050E060E070E081E00E944214BE
:102B5000182F64E070E0C6010E94A51E91E02D814F
:102B6000281390E0192351F10E94EC24609387020E
:102B7000709388028093890290938A0211C064E066
:102B800070E0C6010E94A51E9D818913D5CFF70173
:102B900081819281A381B48189839A83AB83BC8331
:102BA000112361F089819A81AB81BC81809383027A
:102BB00090938402A0938502B09386028091830251
:102BC00090918402A0918502B0918602F5018083E4
:102BD0009183A283B383812F0F900F900F900F905A
:102BE0000F90DF91CF911F910F91FF90EF90DF90A9
:102BF000CF90BF90AF9008950F931F93CF93DF9323
:102C0000EC018B0145E655E10E94D914882391F02F
:102C100042E954E1B801CE010E94D914882351F051
:102C20004AE155E1B801CE01DF91CF911F910F919B
:102C30000C94D91480E0DF91CF911F910F910895EA
:102C40000F931F93CF93DF93F894C091B201D0916B
:102C5000B301CE01019624E0FB01DC0101900D924D
:102C60002A95E1F764E070E00E94A51E88837894BD
:102C7000F8946D817E818F81988500917F021091FB
:102C800080022091810230918202601771078207D1
:102C9000930751F060937F027093800280938102CA
:102CA000909382020E9497117894F89488898823DF
:102CB00031F060E0CE0109960E94651C188A789474
:102CC000DF91CF911F910F9108950E94CE260E940F
:102CD000FD0E0C94DA260E94DE260E94950F0C94BD
:102CE000F8260E947E240E94B5260E94EB0E0E94C8
:102CF00065160E946B160E94F50EFBCFEF92FF92B5
:102D00000F931F93CF93DF938B01682F11110AC08C
:102D1000442329F0E82FF0E0E155FC4F6491762F31
:102D2000862F75C0212F30E0E82FF0E0442321F0FA
:102D3000E155FC4FE491F0E046E0049FC00111240E
:102D4000CFEFD0E0BE010E94282C4BEA4603C00121
:102D5000479F900D1124800F911D800F911D982F7A
:102D6000990F890FAE01421B530B4E9FD0014F9F0D
:102D7000B00D5E9FB00D11249B2F189FA001112450
:102D8000452F55278E01041B150B0E9FA0010F9F89
:102D9000500D1E9F500D11247E01E81AF108E29E8D
:102DA0008001E39E100DF29E100D1124212F332778
:102DB000C21BD30BCE9F9001CF9F300DDE9F300DF5
:102DC000112462307105A9F048F46115710569F0AC
:102DD00061307105C9F48B2F752F0DC064307105FA
:102DE00081F058F06630710579F47E2F8B2F932F88
:102DF0000DC0832F7B2F9E2F09C08E2F7B2F952FE9
:102E000005C08E2F732F02C07E2F852F692FDF9173
:102E1000CF911F910F91FF90EF90089541E00E9494
:102E20007E1608950895E8E2F1E0808361830895B5
:102E30000E940E170895CF93DF93762FE901682F34
:102E4000842F0E941817798368838A83DF91CF913A
:102E500008958091D602282F269530E0211531055E
:102E600019F48170826005C02532310524F081702B
:102E700088648093D602089588E090E00C94E02C5A
:102E8000CF92DF92EF92FF926B017C010E94291793
:102E9000B701A60188E090E0FF90EF90DF90CF901F
:102EA0000C94FE2CE6EDF2E083E0808311828FEF3C
:102EB000828383831482A0EAB2E012968C911297E7
:102EC000836012968C9360817181828193810C94CE
:102ED00040178091D60280FF02C08695089580E059
:102EE00008959091DA02933018F49F5F9093DA027C
:102EF000882351F06091D6027091D7028091D80258
:102F00009091D9020C944017089581E00C947117A8
:102F10009091DA02992319F091509093DA02882364
:102F200051F06091D6027091D7028091D8029091B1
:102F3000D9020C944017089581E00C94881770E032
:102F40000C94791E609129018091D60280FF0AC0FD
:102F50008091280123E0829FC001112485529D4F5A
:102F60000C949F1780912A0190912B01891780F76B
:102F7000E82FF0E09F01220F331FE20FF31FE5520D
:102F8000FD4F1182108212828F5FF0CF9091D60296
:102F900090FF16C090912A0120912B01921770F496
:102FA000E92FF0E0DF01AA0FBB1FEA0FFB1FE5527C
:102FB000FD4F8183608342839F5FF0CF0C94A21703
:102FC0000895CF93DF9300D01F92CDB7DEB79091D5
:102FD000D60290FF0AC09E012F5F3F4F0E941B1731
:102FE0004B8169818A810E94C6170F900F900F90C4
:102FF000DF91CF910895CF93DF93EC01EC81F0E066
:10300000E655FD4F4491E6EDF2E0628181810E9438
:10301000E1178C818F5F8C83DF91CF910895CF93DF
:10302000DF93EC01E6EDF2E0438162818C810E9446
:10303000E1178C818F5F8C83DF91CF9108950F937F
:103040001F93CF93DF9300D01F92CDB7DEB78C01D3
:103050008091930281110AC09E012F5F3F4F4FEF75
:103060006FEF0E941B178A8180939302F80184817D
:10307000813051F028F0823061F4409193020AC00F
:103080008091930240E007C06091930240E080E0AD
:1030900003C040E080E060E00E94C617F801848130
:1030A00090E0019663E070E00E943C2C84830F90D6
:1030B0000F900F90DF91CF911F910F910895AF92D4
:1030C000BF92CF92DF92EF92FF920F931F93CF9315
:1030D000DF9300D01F92CDB7DEB7182FF62E042F46
:1030E000E22E9091D60290FF7EC0E92FE695AE2F9A
:1030F000B0E0AC54BE4F8C918093A0029E7F923082
:1031000061F49E012F5F3F4F812F0E941B174B815F
:1031100069818A810E94C61743C0823019F40091E8
:10312000D9023EC0863019F41091D70239C08930D7
:10313000D9F38931A9F5E9518E2F8170D82EE69502
:10314000F0E0E655FC4FA590B490C12CBB246091F3
:103150002C01C61618F52C2D30E0A29EC001A39EAE
:10316000900DB29E900D112470E00E94282C812FAA
:10317000D11002C0860F01C0861B90912A01290F31
:10318000311DA901440F551F240F351F25523D4FF6
:10319000402F6F2D0E941B17C394D9CF0E94A217F6
:1031A0008091D702181308C08091D802F81204C089
:1031B0008091D902081729F08091A2028260809341
:1031C000A2021093D702F092D8020093D902EE2007
:1031D00051F06091D6027091D7028091D8029091FF
:1031E000D9020E9440170F900F900F90DF91CF915E
:1031F0001F910F91FF90EF90DF90CF90BF90AF9015
:103200000895E6EDF2E09181282F4381628188E004
:10321000890F0C945F1881E00C940119E6EDF2E03F
:103220009181282F4381628188EF890F0C945F1868
:1032300081E00C940E19E6EDF2E0628121E1620F6B
:1032400008F46FEF282F438181810C945F1881E08F
:103250000C941B19E6EDF2E0628121E1621B08F497
:1032600060E0282F438181810C945F1881E00C94E9
:103270002A19E6EDF2E0438121E1420F08F44FEF15
:10328000282F628181810C945F1881E00C94391998
:10329000E6EDF2E0438121E1421B08F440E0282FF3
:1032A000628181810C945F1881E00C94481920E0C0
:1032B0000C945F18FF920F931F93CF93DF93EC0151
:1032C000F12C0FEF10E060912C01F616F0F48091D4
:1032D0002A012F2D30E0280F311DC901880F991FB9
:1032E000280F391F25523D4F70E0C8010E943C2C29
:1032F000962F8C814091D9026091D802F99E800D61
:1033000011240E941B17F394DECF0E94A2179A810A
:103310008C8190FF02C08F5F01C081508C83DF9150
:10332000CF911F910F91FF9008958F929F92AF922E
:10333000BF92CF92DF92EF92FF920F931F93CF93A2
:10334000DF93EC018A8180FF03C0BB24BA9402C0E2
:10335000BB24B3948C8181110DC081E0B81206C0EA
:1033600080912C0181508093950202C010929502A9
:1033700081E08C83A12C4EE0942E80912C01A81624
:1033800008F044C080912A01CA2CD12C8601080F74
:10339000111DC801880F991F080F191F05521D4FD5
:1033A000F80111821082128234E0E32EF12C812C7C
:1033B00080919502880D8F302CF0692D0E941A2C77
:1033C000892F05C087FF03C090912C01890F082E1B
:1033D000000C990BC816D90691F48091D9028E9DE4
:1033E000A0018F9D500D11245595479555954795F2
:1033F00098016091D8028091D7020E941B178B0C14
:10340000F1E0EF1AF108A1F6A394B7CF0E94A2173A
:103410008091950291E0B9120EC0811107C0809190
:103420002C018150809395021C820FC081508093A3
:103430009502BC820AC090E0019660912C0170E078
:103440000E943C2C809395028C83DF91CF911F9139
:103450000F91FF90EF90DF90CF90BF90AF909F9033
:103460008F9008951F93CF93DF93EC018C8181118E
:1034700009C081E08C831092940292E0909327011E
:103480008093260180912A0190912B01891770F475
:10349000E82FF0E09F01220F331FE20FF31FE552E8
:1034A000FD4F1182108212828F5FF0CF10E0609189
:1034B0002C011617C0F5E12FF0E070E0CF010E945B
:1034C0003C2C20912A01820F20919402022E000CA4
:1034D000330B90E0E217F307CCF020912701022E86
:1034E000000C330B2E173F078CF09C01220F331F6B
:1034F000820F931F9C0125523D4F4091D90260914C
:10350000D8028091D7020E941B170BC0FC01EE0F5E
:10351000FF1F8E0F9F1FFC01E552FD4F118210828D
:1035200012821F5FC4CF0E94A217809126012091B2
:103530009402280F2093940290912701980F909362
:10354000270119165CF4022E000C330B40912C015C
:1035500050E0415051092417350734F0819580938C
:103560002601813009F41C82DF91CF911F910895CB
:103570008F929F92AF92BF92CF92DF92EF92FF9283
:103580000F931F93CF93DF938C01FC014481C42FD1
:10359000D0E09E01DE010E94802C9B01AC010E94C4
:1035A000962C6B017C01E0E2F0E0EC1BFD0BA5E545
:1035B000B0E09B01AC010E94962C4B015C019F0185
:1035C000DF010E94782C9B01AC010E94A12C9B0181
:1035D000AC012C0D3D1D4E1D5F1DC501B4010E94A7
:1035E000502CC22FD22F2A3228F4F3E02F9F9001C3
:1035F00011240DC025E530E02C1B3109C901880FCD
:10360000991F280F391F37FF02C02F5F3F4F359595
:103610002795C22FC095F12C85E5E82EED1A8091F3
:103620002C01F816C8F4F1FC02C08E2D01C08D2FBC
:1036300090912A012F2D30E0290F311DA901440F4F
:10364000551F240F351F25523D4F4C2F6091D80236
:103650000E941B17F394E3CF0E94A217F801848104
:10366000811102C091E003C0803219F49FEF909362
:10367000250190912501890FF8018483DF91CF9175
:103680001F910F91FF90EF90DF90CF90BF90AF9080
:103690009F908F9008950F931F93CF93DF93EC012A
:1036A00000E010E080912C01282F30E00217130772
:1036B00024F590912A019801290F311DA901440F89
:1036C000551F240F351F25523D4F869590E04C81A4
:1036D000081719071CF4442331F002C0411103C03C
:1036E0004091D90201C040E06091D8028091D70298
:1036F0000E941B170F5F1F4FD5CF0E94A2178C810E
:1037000090E00196817099278C83DF91CF911F9172
:103710000F9108951092A202089525E0E6EDF2E0DF
:10372000DC0101900D922A95E1F72091A0023091E1
:10373000A1024091A202FC012583368347830895AC
:103740006091D602669570E04BE050E08DE291E02A
:103750000E94B52C892B19F481E08093A1020E946C
:10376000CF1190939A02809399028091A202846073
:103770008093A2020895E0EAF2E0118282818460DF
:10378000828308959091D60290FF3AC09170811182
:1037900002C0926006C0853210F0986402C0880FA3
:1037A000982B9093D6028091A20281608093A2020E
:1037B000662351F06091D6027091D7028091D802B1
:1037C0009091D9020E9440176091D602669570E0F0
:1037D0004BE050E08DE291E00E94B52C892B19F06E
:1037E0000E94BB1B02C00E94A01B81E080939C0230
:1037F0004091D9026091D8028091D7020C94571958
:103800000895682F9091D602969581E0890F8532B0
:1038100008F081E00C94C21B81E00C94011C682F1D
:103820009091D60296958FEF890F09F484E20C945B
:10383000C21B81E00C940F1C61E00C94C21BE6EDEE
:10384000F2E080818160808386950C941C1C60E08E
:103850000C94C21BE6EDF2E080818E7F8083608154
:103860007181828193810E9440170E94BB1BE0EA14
:10387000F2E08281816082832FEF80E792E0215025
:1038800080409040E1F700C000000C94A2178091A6
:10389000D60280FD0C942A1C0C941F1CE6EDF2E06D
:1038A00080818E7F80830E94BB1BE0EAF2E08281F0
:1038B000816082832FEF80E792E02150804090402A
:1038C000E1F700C000000C94A2171F93CF93DF9381
:1038D000EC01162F8F8180FF0FC0888180FF0AC006
:1038E0008091D60281608093D602888186950E945D
:1038F000C21B02C00E944E1C8F8181FF06C0212F77
:103900004B816A8189810E945F188F8182FF08C084
:103910008E81882319F00E94A01B02C00E94BB1B4D
:103920008F8183FF03C081E080939C02DF91CF9160
:103930001F91089580919F02811133C00E94130E40
:10394000811104C00E94BB0E0E9452170E943C17B6
:103950006093D6027093D7028093D8029093D902D5
:103960008091A20283608093A2026E7F61F40E9424
:1039700052170E943C176093D6027093D70280932F
:10398000D8029093D9020E9429170E94BB1B8091F4
:10399000D60280FF03C086950E94271C81E0809399
:1039A0009F020895EF92FF920F931F93CF93DF939F
:1039B0008091A102882309F4ABC08091A002E0911C
:1039C000D602E695E81BE0939B02823049F4F0E0D2
:1039D000EA55FD4FE491CE2FD0E00BEF17E149C03F
:1039E000863049F4F0E0ED55FD4FE491CE2FD0E064
:1039F0000FE018E13EC0893051F4E695F0E0E05662
:103A0000FD4FE491CE2FD0E00AE519E132C08F30AE
:103A100051F4E695F0E0E356FD4FE491CE2FD0E06F
:103A200005E919E126C0853149F4F0E0E656FD4F7D
:103A3000E491CE2FD0E002E31AE11BC0883181F07F
:103A4000833239F4E8E9F2E0C591D4910FE118E14D
:103A500010C0843251F4C4EFD1E00BE41BE109C083
:103A6000C8E2D0E008EB1AE104C0C0EDD7E002E103
:103A700017E180919C02882361F010929C020E94C1
:103A8000CF1190939A028093990210929E02109205
:103A90009D020E94CF11E0919902F0919A029C013F
:103AA0002E1B3F0B2F3F3F4798F520919802222372
:103AB000B1F0109298022091960230919702821BE9
:103AC000930B8F3F9F4758F4205D3A4830939702FD
:103AD000209396028091A20288608093A202E090D7
:103AE0009D02F0909E02EC0FFD1FF0939A02E0936E
:103AF000990289E992E0F801099580919D029091DF
:103B00009E02892B29F4EF2819F081E08093980216
:103B1000DF91CF911F910F91FF90EF90089588232F
:103B200011F0FA0101C0FB010994CF93DF93C82F74
:103B3000D62F0E9469178C1740F00E9469178D17C5
:103B400020F4DF91CF910C940C1C8C2FDF91CF913E
:103B50000C941C1C1F93CF93DF93FB011281111156
:103B6000C3C0EC010E94300D8272CD3CFCE5DF0742
:103B700009F49AC0A8F5C73CECE5DE0709F476C065
:103B8000A8F4C43C9CE5D90709F45FC028F4C33C01
:103B9000DC4509F457C054C0C53C9CE5D90709F47D
:103BA00059C0C63CDC4509F45CC04AC0CA3CFCE5CF
:103BB000DF0709F46AC050F4C83CECE5DE0709F4FD
:103BC0005AC0C93CDC4509F45BC03AC0CB3C9CE51B
:103BD000D90709F45FC0CC3CDC4509F460C030C0B3
:103BE000C23DFCE5DF0709F46FC088F4CF3C9CE5DB
:103BF000D90709F460C008F45CC0C03DFCE5DF07EC
:103C000009F45CC0C13DDC4509F45BC019C0C53D89
:103C10009CE5D90709F460C050F4C33DFCE5DF071B
:103C200009F455C0C43DDC4509F454C009C0C63D83
:103C30009CE5D90709F455C0CE35DD4509F454C0DB
:103C400011E052C00E94471C4FC049E15CE16CE0AA
:103C50007CE104C04CE05CE169E17CE10E948F1DE5
:103C600043C048E159E16BE079E1F8CF4BE059E11D
:103C700068E179E1F3CF46E359E167E279E1EECF1C
:103C800047E259E166E379E1E9CF44E559E165E4CA
:103C900079E1E4CF45E459E164E579E1DFCF4CE92E
:103CA00057E165E877E1DACF45E857E16CE977E17C
:103CB000D5CF81E017C065E082E010C068E086E003
:103CC0000DC06EE089E00AC064E18FE007C067E1E3
:103CD00085E104C088E106C062E289E10E94951D89
:103CE00003C083E20E941C1C812FDF91CF911F91A2
:103CF0000895539A2BB1277F3BB138604FB7F894A2
:103D0000FC01CB01880F991F680F791F6E0F7F1F71
:103D1000E617F70789F0819198E03BB9000000C0F1
:103D200087FF2BB9880F000000C000C000C02BB96E
:103D300000C09A9591F7ECCF4FBF8FE594E00197C3
:103D4000F1F700C0000008950895FC01680F791F85
:103D50008FEF91E3E617F70771F02191822728E0B2
:103D600030E087FF03C0880F892701C0880F2150EA
:103D70003109B9F7EFCF0895CF93DF93EC01FB0141
:103D80008281882309F43CC1C430FDE5DF0760F47B
:103D9000CB3F9CE5D90788F49E0122503C45243155
:103DA000310508F02EC109C0C236EDE5DE0729F065
:103DB000C63AFDE5DF0709F024C10E94260E909364
:103DC000C3028093C202C1318CE5D80709F4C6C092
:103DD00008F042C0C930ECE5DE0709F49BC000F5ED
:103DE000C5308CE5D80709F485C078F4C330ECE51C
:103DF000DE0709F478C008F07AC0C230DC4509F06B
:103E0000F5C08091C2028160EFC0C7309CE5D90740
:103E100009F478C008F07AC08091C2028061E4C0E1
:103E2000CD30FCE5DF0709F487C058F4CB309CE5C2
:103E3000D90709F479C008F07BC08091C20288607C
:103E40006FC0CF30FCE5DF0709F480C008F082C006
:103E50008091C202877FC8C0CE3F9CE5D90709F494
:103E600071C000F5C531FCE5DF0709F485C068F4D1
:103E7000C3319CE5D90709F475C008F095C00E94CC
:103E8000DD078091C2028F77AFC0CC3FFCE5DF0732
:103E9000A9F108F054C0CB3FDC4509F0A7C08091E0
:103EA000C30240C0C230EDE5DE0709F489C058F412
:103EB000C1158DE5D80709F45AC008F069C0809192
:103EC000C30282602FC0C236EDE5DE0709F47CC074
:103ED000C63AFDE5DF0709F481C0C330DD4509F0CE
:103EE00085C080E06EC08091C20282607DC08091FA
:103EF000C20216C08091C202886076C08091C3025F
:103F000082604FC08091C20280626EC08091C20206
:103F100080646AC00E94DD078091C202806864C02C
:103F2000846062C081603DC08091C2028E7F5CC0AF
:103F30008091C2028D7F58C08091C20216C08091CC
:103F4000C30218C08091C3028D7F2BC08091C20232
:103F50008F7E4AC08091C2028F7D46C08091C2028E
:103F60008F7B42C08091C202877F8B7F3DC0809152
:103F7000C3028D7F8E7F15C08091C20282FB2227F3
:103F800020F991E0922790FB82F990FB83F92CC0F5
:103F90008091C302982F909591708E7F892B90FB12
:103FA00081F98093C30222C00E94DD078091C20282
:103FB00087FB222720F991E0922790FB87F914C014
:103FC00081E00E94BD0E12C08091C20284FB2227B4
:103FD00020F991E0922790FB84F906C08091C202FB
:103FE000982F909590FB80F98093C2028091C20235
:103FF0009091C3020E94370E0E94DD0780E001C04D
:1040000081E0DF91CF9108950F931F9341E050E03D
:1040100060E070E08A019B0104C0000F111F221FA5
:10402000331F8A95D2F7C901B8010E9435081F9144
:104030000F910C94DD078B3109F468C058F58B3073
:1040400009F486C078F4863009F445C020F4853040
:1040500009F44BC07FC0873009F44AC0883009F4A6
:1040600077C078C0803109F464C068F48E3009F0FC
:1040700071C08091650282FB222720F991E092278E
:1040800090FB82F94CC0863109F462C0893109F491
:104090005FC060C08A32E1F060F4873209F455C035
:1040A00028F48E3108F456C08D5150C08932E9F0A1
:1040B00051C0833450F48A3308F045C0853309F485
:1040C00044C0883309F444C045C08334F1F142C090
:1040D0000E94BB0E3DC080916502817F8E7F8093E0
:1040E000650281E08093A30208950E94400330C0DE
:1040F00080916502982F9095917090FB80F9809344
:104100006502911125C0897F877F10C0809165026B
:1041100081FB222720F991E0922790FB81F980937F
:1041200065029923A9F08091650281608093650200
:104130000FC08091650283FB222720F991E092272E
:1041400090FB83F9ECCF895301C080E00E940420EA
:1041500081E0089580E0089580E008950C94AC20FB
:10416000CF93C82F8091A302882319F0813031F0BA
:104170002BC00E94300D823249F504C00E94300DE0
:10418000823261F48C2F0E94AE20811104C08C2FEA
:104190000E941B2017C081E090E014C08C2F0E9469
:1041A000AC2081110EC0C43149F018F4CB3049F075
:1041B0000FC0C93219F0C83321F00AC01092A3020F
:1041C00007C081E0817006C01092A30280E002C0A7
:1041D00080E0F8CFCF910895CF93DF9386319C454F
:1041E00041F5EB010E94300D982F8A812091020148
:1041F00030910301882379F09A7A81E009F480E014
:104200008093A402911102C069E201C065E3C90173
:104210000E943A240AC08091A402811102C069E27E
:1042200001C065E3C9010E943C240E94720D80E038
:1042300001C081E0DF91CF9108950F931F93CF9339
:10424000DF93C42FD22FFC0182818823C9F04093D1
:10425000A7020E94E0249093A6028093A50280E228
:104260008C0F883008F057C0C77081E001C0880FFC
:10427000CA95EAF7DF91CF911F910F910C944905F0
:104280008091A702481330C08091A5029091A602A8
:104290000E94F824883C910538F510E21D0FCD17D7
:1042A000B9F080E28C0F883040F4C77081E001C023
:1042B000880FCA95EAF70E945005183028F581E06A
:1042C0009D2F977001C0880F9A95EAF70E944905C3
:1042D000802F0E9440051830F0F4D77081E001C0B3
:1042E000880FDA95EAF70AC080E28C0F883098F4DC
:1042F000C77081E001C0880FCA95EAF7DF91CF91BE
:104300001F910F910C945005802FDF91CF911F9139
:104310000F910C944005DF91CF911F910F9108955B
:104320000F939C01CB01243F4CE5340731F188F415
:10433000293DFCE53F07D9F02A3D4CE5340779F1EA
:10434000283D3C45A9F506E221EE41EE68ED7CE50D
:104350002BC0263FFCE53F07E1F0A8F0273F3C4596
:1043600039F507E225EE46EE67EF7CE51DC007E272
:1043700025EE45EE69ED7CE517C006E221EE40EE44
:1043800064EF7CE511C007E225EE44EE65EF7CE5C5
:104390000BC006E221EE42EE66EF7CE505C008E2C6
:1043A00021E045EE6AED7CE50E941D2180E008C019
:1043B000FC018281882319F01092A70201C081E0DC
:1043C0000F9108958EE1489B02C08150E1F7489B10
:1043D000FECF0895589880E28A95F1F7589A08958B
:1043E000FC012AE02A95F1F728E090E080E031E036
:1043F00040E14A95F1F7880F489B02C081609327FE
:1044000000C0000040E14A95F1F7215089F720E112
:104410002A95F1F729B100C0000030E13A95F1F793
:10442000217092272081920F90830895EF92FF923E
:104430000F931F93CF93DF931F92CDB7DEB71982EF
:104440008C017C01E60EF11C0E151F0551F00E9437
:10445000E221CE0101960E94F021F80181938F01A3
:10446000F3CF81E09981911180E00F90DF91CF919E
:104470001F910F91FF90EF900895509A589A0895C8
:104480005098589AE89AE9E6F0E080818C7F808322
:104490000895615091E001C0990F6A95EAF720E014
:1044A00031E0992361F0492F482319F0589A2327C6
:1044B00001C0589840E24A95F1F79695F2CF222331
:1044C00011F0589A01C0589880E28A95F1F75898EF
:1044D0000895FF920F931F93CF93DF93EC018C010C
:1044E000060F111DC017D10741F0F9900E94EA2173
:1044F00068E08F2D0E944922F5CFDF91CF911F9167
:104500000F91FF9008951F920F920FB60F921124F2
:104510000F931F932F933F934F935F936F937F93CB
:104520008F939F93AF93BF93EF93FF93CF93DF93BB
:104530001F92CDB7DEB719820E94E221CE0101960B
:104540000E94F021082F069506950695902F9695C6
:104550009570202F2570920F292F23709695969590
:10456000920F877089135FC0898181115CC005300B
:1045700008F059C080E18A95F1F7589A509A82E084
:104580008A95F1F700C0589888E0089F80011124AF
:10459000D801AB5FBE4F1696ED91FC9117973097FF
:1045A000A9F06091B2017091B30114962D913C91E4
:1045B0001597260F371F11968D919C911297680FB2
:1045C000791F13964C9113978C910995F801EB5F25
:1045D000FE4F6381662351F08091B2019091B30147
:1045E00024813581820F931F0E9469220E94EA2153
:1045F00080E18A95F1F758985098589A80E18A9509
:10460000F1F7F801EB5FFE4F6081662351F0809176
:10461000B2019091B30121813281820F931F0E94D8
:1046200016220E94E2210F90DF91CF91FF91EF912E
:10463000BF91AF919F918F917F916F915F914F91BA
:104640003F912F911F910F910F900FBE0F901F90D0
:1046500018950F931F93CF93DF93853091050CF03E
:104660006DC0EC01F894509A589885E08A95F1F75E
:1046700000009C2F969595702C2F2570920F892FF6
:1046800083709695969523E0CC0FDD1F2A95E1F770
:10469000980F8E01092B0E94EA2184E08A95F1F798
:1046A00000C068E0802F0E94492280E18A95F1F7DE
:1046B0005098589A489902C000C0FCCF87E090E01B
:1046C000489B08C0019721F4509A589A789436C0B4
:1046D00000C0F6CFFE01EB5FFE4F6381662381F0E1
:1046E0008091B2019091B30124813581820F931F93
:1046F0000E941622811104C0509A589A78941FC0C3
:104700000E94E22180E28A95F1F75898509A80E160
:104710008A95F1F7CB5FDE4F6881662351F0809177
:10472000B2019091B30129813A81820F931F0E94B7
:1047300069220E94EA21789481E001C080E0DF9143
:10474000CF911F910F9108959093DB018093DA012F
:1047500008959093AE028093AD0208950E94CC1309
:10476000811103C08091A8020895E091AD02F091FB
:10477000AE02309721F00190F081E02D099480E0A5
:104780000895E091AD02F091AE02309721F00280E1
:10479000F381E02D099408952091AB023091AC0291
:1047A0002817390771F09093AC028093AB02E09127
:1047B000AD02F091AE02309721F00680F781E02D36
:1047C000099408952091A9023091AA022817390767
:1047D00071F09093AA028093A902E091AD02F0914A
:1047E000AE02309721F00084F185E02D0994089500
:1047F000FC01329697E080E0915029F0219122232C
:10480000D9F38F5FF9CF0895662349F0FC01329602
:1048100008962191621729F0E817F907D1F780E08F
:10482000089581E008959C01FC0132969FEF80E09D
:104830004191461789F09F3F19F4411101C0982F0B
:104840008F5F8630A9F79F3F39F0F901E90FF11D1D
:1048500097FDFA956283089508959C012A5F3F4F62
:10486000FC014281461301C0128201968217930710
:10487000B9F708950C9413240C942D24029626E085
:10488000FC0111922A95E9F7089508950C944524A6
:1048900083E08093AF020C944624811102C081E032
:1048A00001C082E08093AF020C9446240C944D2406
:1048B00081E08093AF020C9446240C945824089510
:1048C0000C945F240C9460240C945F240C945F245B
:1048D0000C945F24CF930E9466240E943A130E9496
:1048E0006424C0E08C2F0E94FF11811104C0CF5FAF
:1048F000C830C1F701C081E0CF91089508951F929B
:104900000F920FB60F9211248F939F93AF93BF9383
:104910008091B002811113C080910503909106032C
:10492000A0910703B09108034196A11DB11D80938A
:10493000050390930603A0930703B0930803BF9168
:10494000AF919F918F910F900FBE0F901F90189570
:1049500080910D03843031F10E94A8031092B002BF
:1049600020E488E190E00FB6F894A8958093600069
:104970000FBE2093600083B7817F846083BF83B7BD
:10498000816083BF7894889583B78E7F83BF0FB68D
:10499000F894A895809160008861809360001092DF
:1049A00060000FBE08950E94DD070C94AC0382E006
:1049B00084BD93E095BD9AEF97BD80936E000895F6
:1049C0002FB7F8948091050390910603A0910703F7
:1049D000B09108032FBF08952FB7F8946091050395
:1049E0007091060380910703909108032FBF0895EB
:1049F0009C014FB7F8948091050390910603A09114
:104A00000703B09108034FBF821B930B0895CF9209
:104A1000DF92EF92FF922FB7F894C0900503D090E9
:104A20000603E0900703F09008032FBFA70196014B
:104A3000261B370B480B590BCA01B901FF90EF90A9
:104A4000DF90CF90089578941F920F920FB60F9237
:104A500011248F939F93AF93BF93809105039091FF
:104A60000603A0910703B09108030196A11DB11D93
:104A70008093050390930603A0930703B093080364
:104A8000BF91AF919F918F910F900FBE0F901F908C
:104A9000189587E797E790930108809300089AE0BC
:104AA00088E10FB6F894A895809360000FBE9093AC
:104AB0006000FFCF8091BC0208950895CF93DF93EB
:104AC00021E02093E9002FEF3091E800215035FDDF
:104AD00006C035ED3A95F1F700002111F5CF209190
:104AE000E80025FF14C0EC0140E050E068E070E011
:104AF0000E946A278091E8008E778093E80088E022
:104B0000FE01A4EBB2E001900D928A95E1F7DF91EE
:104B1000CF9108958093B1027093B3026093B20273
:104B200080910D03843001F582E08093E9008FEFDE
:104B30009091E800815095FD06C095ED9A95F1F7AA
:104B400000008111F5CF8091E80085FF0DC040E0A5
:104B500050E063E070E081EB92E00E946A27809170
:104B6000E8008E778093E8000895BC0184E00C94FF
:104B70008A25BC0183E00C948A25089580910C035A
:104B8000811109C00E94FB280E9458298091E200EF
:104B900084608093E200089510920C0308950C94B1
:104BA0005D246091090381E0611101C080E00C94F3
:104BB000482490910D0381E0943009F080E06091E9
:104BC00009030C944D2442E061EC81E00E947428BA
:104BD00042E261EC82E00E94742890910D0381E032
:104BE000943009F080E0609109030C945624809180
:104BF0000F03833009F461C030F4813071F08230EA
:104C000009F49AC008958A3009F486C08B3009F4FB
:104C10006CC0893009F0A8C020C080910E03813A91
:104C200009F0A2C08091E800877F8093E80080911E
:104C3000120390911303892B21F468E084EB92E036
:104C400003C060E080E090E070E00E94B5278091B2
:104C5000E8008B778093E800089580910E038132FD
:104C600009F082C08091120390911303029708F01B
:104C70007BC08091E800877F8093E8008091E80006
:104C800082FD05C080910D038111F8CF6DC0209188
:104C9000F3008091F20090E0922B029731F4809122
:104CA000F100813011F0863021F48091F100809381
:104CB000BC028091E8008B7753C080910E03813A4B
:104CC00009F052C08091120390911303892B09F0CF
:104CD0004BC08091E800877F8093E8008091E800D6
:104CE00080FFFCCF8091440136C080910E03813259
:104CF000D9F58091120390911303892BA9F5809126
:104D0000E800877F8093E8000E94A9288091100323
:104D1000809344010C94DD0780910E03813221F5CC
:104D20008091E800877F8093E8000E94A928809105
:104D300011038093BD02089580910E03813AA1F47E
:104D40008091E800877F8093E8008091E80080FFF1
:104D5000FCCF8091BD028093F1008091E8008E77B6
:104D60008093E8000C94A928089584B7877F84BFB6
:104D70000FB6F894A89580916000886180936000D8
:104D8000109260000FBE90E080E80FB6F894809318
:104D90006100909361000FBE0C9458240E94FB2880
:104DA0000E945829E2EEF0E080818460808378944C
:104DB0000C94ED2B88E391E00C94A92380910D03D2
:104DC0008530A9F480910D03853079F40E94A824E0
:104DD00080910B038823B1F30E946A24882391F306
:104DE0000E9454270E94DD07EDCF0C94D324089530
:104DF00008950C94FB26292F332723303105C9F061
:104E000060F42130310581F02230310509F044C0D1
:104E10008BE390E025ED34E043C021323105E1F031
:104E20002232310549F138C082E190E020E135E0DD
:104E300037C099278130910549F028F0029761F534
:104E4000EFEAF4E005C0E1EDF4E002C0E1ECF4E0EB
:104E5000849190E09F0124C06115710541F061309B
:104E60007105D1F489E090E020E035E019C089E0D7
:104E700090E027EE34E014C06115710541F0613017
:104E8000710551F482E390E022E235E009C080E44C
:104E900090E024E535E004C080E090E020E030E0E0
:104EA000FA0131832083089580E189BD82E189BDC3
:104EB00009B400FEFDCF8091D8008F7D8093D8008B
:104EC0008091E00082608093E0008091E00081FDAD
:104ED000FCCF0895CF92DF92EF92FF920F931F9332
:104EE000CF93DF93EC018B017A010E94C8288111D6
:104EF00033C0E114F10439F0F70180819181081B7E
:104F0000190BC80FD91FC12CD12C0115110519F18E
:104F10008091E80085FD16C08091E8008E7780932F
:104F2000E800E114F10449F0F70180819181C80E95
:104F3000D91ED182C08285E00FC00E94C828882374
:104F400021F30AC089918093F10001501109FFEF0C
:104F5000CF1ADF0ADACF80E0DF91CF911F910F9156
:104F6000FF90EF90DF90CF9008952091140330913F
:104F700015032617370748F06115710539F420919C
:104F8000E8002E772093E80001C0B901FC0120E081
:104F90006115710579F180910D038823F1F1853058
:104FA000F1F18091E80083FD3CC08091E80082FD32
:104FB0002EC08091E80080FFEBCF2091F30080911C
:104FC000F20090E0922B6115710551F08830910547
:104FD00038F421912093F100615071090196F3CFCB
:104FE00021E0089709F020E08091E8008E77809317
:104FF000E800CECF2111CFCF0AC080910D038823C6
:1050000061F0853061F08091E80083FD0AC08091F5
:10501000E80082FFF2CF80E0089582E0089583E007
:10502000089581E008952091140330911503261707
:10503000370748F06115710539F42091E8002E77A3
:105040002093E80001C0B901FC0120E06115710561
:1050500091F180910D03882309F440C0853009F453
:105060003FC08091E80083FD3DC08091E80082FD53
:105070002FC08091E80080FFE9CF2091F30080915C
:10508000F20090E0922B6115710559F0883091057E
:1050900040F424912093F1003196615071090196FA
:1050A000F2CF21E0089709F020E08091E8008E77A8
:1050B0008093E800CBCF2111CCCF0AC080910D03A3
:1050C000882361F0853061F08091E80083FD0AC09B
:1050D0008091E80082FFF2CF80E0089582E0089599
:1050E00083E0089581E00895982F973068F59093B4
:1050F000E900981739F07091EC002091ED00509183
:10510000F00003C0242F762F50E021FD02C09F5FE6
:10511000ECCF3091EB003E7F3093EB003091ED000F
:105120003D7F3093ED003091EB0031603093EB0028
:105130007093EC002093ED005093F0002091EE006E
:1051400027FDE5CF80E008958F708093E90081E02E
:10515000089580910E0387FF11C08091E80082FDC1
:1051600005C080910D038111F8CF11C08091E80036
:105170008B770BC080910D03882349F08091E80064
:1051800080FFF8CF8091E8008E778093E800089543
:105190002091E4003091E50095E64091EC00842FE9
:1051A000817040FF23C08091E80080FD1DC0809188
:1051B0000D03882399F0853099F08091EB0085FDEF
:1051C00011C04091E4005091E5002417350729F300
:1051D000915011F09A01E1CF84E0089582E00895A2
:1051E00083E0089581E0089580E008954091E8000B
:1051F00042FFDDCF08950E9469290E947129E0EEE7
:10520000F0E0808181608083E8EDF0E080818F773D
:10521000808319BCA7EDB0E08C918E7F8C93808148
:105220008F7E808310920C0308950F931F93CF936A
:10523000DF930E9469290E947129C8EDD0E088811E
:105240008F77888388818068888388818F7D888331
:1052500019BC10920D031092090310920B031092C7
:105260000A0300EE10E0F80180818B7F8083888143
:105270008160888342E060E080E00E947428E1EE73
:10528000F0E080818E7F8083E2EEF0E080818160BB
:105290008083808188608083F80180818E7F808315
:1052A000888180618883DF91CF911F910F9108954C
:1052B000E8EDF0E080818F7E8083E7EDF0E0808193
:1052C0008160808384E082BF81E080930C030C9432
:1052D0001529E8EDF0E080818E7F80831092E20056
:1052E00008951092DA001092E10008951F920F9233
:1052F0000FB60F9211242F933F934F935F936F93A9
:105300007F938F939F93AF93BF93EF93FF9380917E
:10531000E10082FF0BC08091E20082FF07C0809114
:10532000E1008B7F8093E1000E94EC2B8091DA00FA
:1053300080FF1FC08091D80080FF1BC08091DA00E1
:105340008E7F8093DA008091D90080FF0DC080E1CC
:1053500089BD82E189BD09B400FEFDCF81E0809363
:105360000D030E94BE2505C019BC10920D030E94BA
:10537000CC258091E10080FF19C08091E20080FF80
:1053800015C08091E2008E7F8093E2008091E20060
:1053900080618093E2008091D80080628093D80081
:1053A00019BC85E080930D030E94D1258091E10016
:1053B00084FF30C08091E20084FF2CC080E189BD71
:1053C00082E189BD09B400FEFDCF8091D8008F7DB8
:1053D0008093D8008091E1008F7E8093E1008091DE
:1053E000E2008F7E8093E2008091E20081608093F2
:1053F000E20080910903882311F084E007C08091C6
:10540000E30087FD02C081E001C083E080930D03CB
:105410000E94D9258091E10083FF29C08091E2009C
:1054200083FF25C08091E100877F8093E10082E0C7
:1054300080930D03109209038091E1008E7F809389
:10544000E1008091E2008E7F8093E2008091E20093
:1054500080618093E20042E060E080E00E94742876
:105460008091F00088608093F0000E94CF25FF912A
:10547000EF91BF91AF919F918F917F916F915F91CC
:105480004F913F912F910F900FBE0F901F90189545
:105490001F920F920FB60F9211242F933F934F93A9
:1054A0005F936F937F938F939F93AF93BF93CF93AC
:1054B000DF93EF93FF93C091E900CF708091EC00F0
:1054C000D82FD17080FDD0E81092E9008091F000D3
:1054D000877F8093F00078940E948C2A1092E900D4
:1054E0008091F00088608093F000CD2BCF70C09346
:1054F000E900FF91EF91DF91CF91BF91AF919F9123
:105500008F917F916F915F914F913F912F910F906C
:105510000FBE0F901F9018951F93CF93DF93CDB7B9
:10552000DEB7AA970FB6F894DEBF0FBECDBFEEE090
:10553000F3E08091F100819323E0E631F207C9F7AF
:105540000E94F7258091E80083FF2EC180910E0311
:1055500090910F03492F50E04A30510508F024C1C3
:10556000FA01EE59FF4F0C94722C803821F08238EA
:1055700009F01AC108C080910A0390910B03992386
:1055800089F082600FC0809112038F70873008F01D
:105590000BC18093E9008091EB0085FB882780F99F
:1055A0001092E9009091E800977F9093E800809333
:1055B000F1001092F100D1C0282F2D7F09F0F4C026
:1055C000882319F0823061F0EFC0809110038130A0
:1055D00009F0EAC0933009F080E080930B032EC0FD
:1055E0008091100381112AC0809112038F702FEFD8
:1055F000280F263008F0D8C08093E9002091EB00F6
:1056000020FF1CC0933021F48091EB00806214C015
:105610009091EB0090619093EB0021E030E0A901C4
:1056200002C0440F551F8A95E2F74093EA0010929A
:10563000EA008091EB0088608093EB001092E90013
:105640008091E800877F8093E8000E94A928ACC081
:105650008111AAC0109110031F778091E300807818
:10566000812B8093E3008091E800877F8093E8009E
:105670000E94A9288091E80080FFFCCF8091E30080
:1056800080688093E300111102C082E001C083E0D2
:1056900080930D0389C08058823008F085C08091C6
:1056A0001003909111038C3D53E0950779F583E049
:1056B0008A838AE289834FB7F894DE01139620E04B
:1056C0003EE051E2E32FF0E050935700E49120FFD9
:1056D00003C0E295EF703F5FEF708E2F90E0EA30ED
:1056E00010F0C79601C0C0968D939D932F5F243113
:1056F00049F74FBF8091E800877F8093E8006AE216
:1057000070E0CE0101960E94B52716C06091120389
:1057100070911303AE014F5F5F4F0E94F926BC01E9
:10572000892B09F441C09091E800977F9093E8009D
:1057300089819A810E9413288091E8008B77809359
:10574000E80032C0803881F58091E800877F80933F
:10575000E800809109038093F1008091E8008E7742
:1057600072CF811121C0809110039091110399276C
:105770000297D4F48091E800877F8093E8008091BD
:105780001003809309030E94A928809109038111C5
:1057900006C08091E30087FD02C081E001C084E083
:1057A00080930D030E94E3258091E80083FF0AC0E7
:1057B0008091E800877F8093E8008091EB00806211
:1057C0008093EB00AA960FB6F894DEBF0FBECDBF54
:1057D000DF91CF911F9108950895CF9380910D038C
:1057E0008823A1F0C091E900CF709091EC00892F3F
:1057F000817090FD80E8C82B1092E9008091E8004C
:1058000083FD0E948C2ACF70C093E900CF91089548
:105810000E94FB2810920D030895E8EDF0E08081CE
:10582000806180838AE18A95F1F700C08091D90078
:105830008170089587FB082E062687FD819567FDF8
:1058400061950E94A92C0EF4919507FC819508950D
:10585000AA1BBB1B51E107C0AA1FBB1FA617B70796
:1058600010F0A61BB70B881F991F5A95A9F78095B2
:105870009095BC01CD01089597FB072E16F4009476
:1058800007D077FD09D00E94282C07FC05D03EF4F4
:10589000909581959F4F0895709561957F4F0895DC
:1058A000A1E21A2EAA1BBB1BFD010DC0AA1FBB1F24
:1058B000EE1FFF1FA217B307E407F50720F0A21B96
:1058C000B30BE40BF50B661F771F881F991F1A9403
:1058D00069F760957095809590959B01AC01BD012D
:1058E000CF010895EE0FFF1F0590F491E02D09946C
:1058F0000E94802C332312F48A1B9B0B0C94912C56
:10590000A29FB001B39FC001A39F700D811D112400
:10591000911DB29F700D811D1124911D08950E944B
:10592000802CB7FF0895821B930B08950E94802C52
:10593000A59F900DB49F900DA49F800D911D1124E3
:105940000895B7FF0C94962C0E94962C821B930B03
:105950000895991B79E004C0991F961708F0961BCB
:10596000881F7A95C9F780950895FC0141505040F1
:1059700030F001900616D1F73197CF0108958827AE
:1059800099270895FB01DC0104C08D9101908019D5
:1059900021F441505040C8F7881B990B0895FB0132
:1059A000DC0102C001900D9241505040D8F708959B
:1059B000F999FECF92BD81BDF89A992780B50895D7
:1059C000A6E1B0E044E050E00C94122DA8E1B0E074
:1059D00042E050E00C94122D262FF999FECF92BD93
:1059E00081BDF89A019700B4021639F01FBA20BDA4
:1059F0000FB6F894FA9AF99A0FBE08950396272FD6
:105A00000E94ED2C0E94EC2C252F0E94ED2C242FBF
:105A10000C94ED2C0196272F0E94ED2C0C94EC2C6D
:105A2000DC01CB01FC01F999FECF06C0F2BDE1BD5E
:105A3000F89A319600B40D9241505040B8F708954D
:045A4000F894FFCF08
:105A4400C8004B020100000001000000000000003B
:105A54000401000000040500000000000008090023
:105A64000000000000010102000E000E0E01191AD0
:105A74001B1C1D1E1F2021225A255E25BD25B9256C
:105A8400B5255D2501E200E900EA00B500B600B7DE
:105A940000CD008301CC008A0192019401210223EC
:105AA4000224022502260227022A02B300B4006F50
:105AB400007000818283E200E900EA00B500B600CC
:105AC400B700CD008301CC008A0192019401210228
:105AD400230224022502260227022A02B300B4006C
