:100000000C94DC020C9461230C9423030C942303C2
:100010000C9423030C9423030C9423030C942303C8
:100020000C9423030C9423030C94AA2A0C947C2B89
:100030000C94E2250C9423030C9423030C942303C7
:100040000C9423030C9423030C9423030C94230398
:100050000C9423030C9457260C9423030C94230331
:100060000C9423030C9423030C9423030C94230378
:100070000C9423030C9423030C9423030C94230368
:100080000C9423030C9423030C9423030C94230358
:100090000C9423030C9423030C9423030C94230348
:1000A0000C9423030C9423030C942303C105C10572
:1000B000ED05ED0555068D078D078D0773060807BD
:1000C000190719077D078D078D0786072D082D084D
:1000D0003F083F0836083F083F083F082D082D0815
:1000E0003B083F083F083B08E92B102C082D102C3B
:1000F000082D5C2C7F2C082DD62CE52C2900140013
:100100001A0008001500170000002A00040016005D
:10011000070009000A0000002B001D001B0006005C
:10012000190005000000E200E300E000E1000158D2
:10013000000000001C0018000C0012001300330027
:100140002D000B000D000E000F00340000002800F1
:1001500011000000100036003700380001512C4219
:10016000000000005000520051004F0035001E00FA
:100170001F002000210022000000000000000000FD
:100180000000000000000000E1000000000000008E
:1001900000002F0200005000520051004F000100EB
:1001A00000000000230024002500260027002D0069
:1001B0002E000000000000000000330000003100AD
:1001C0003002000000002F003000000001002A0073
:1001D000000000000000E6000100000035021E02E1
:1001E0001F02200221022202000001000100010082
:1001F00049004B004A0000000100010001004C00D2
:100200004E004D000000010001000100010001004E
:1002100000000000230224022502260227022D02EC
:100220002E02010001000100010033020000010064
:1002300001000000010001000100010001000100B7
:1002400000000000010001000100210B00003A0045
:100250003B003C003D003E000000000000000000AC
:10026000000000000000000000000000000000008E
:10027000000000000000010000000000000000007D
:10028000000000003F0040004100420043004400E5
:100290004500000000000000000000000000000019
:1002A000000000000000000000000000000000004E
:1002B00000000000000000000000000000047F3F7C
:1002C0001F643214643214783C1E1E140A05222363
:1002D000252628292A2C2D2F3032333536383A3B23
:1002E0003D3E4042434547494A4C4E505153555775
:1002F000595A5C5E6062646668696B6D6F71737594
:1003000077797B7D7F81838587898A8C8E90929493
:1003100096989A9C9E9FA1A3A5A7A8AAACAEAFB1A0
:10032000B3B4B6B8B9BBBCBEBFC1C2C3C5C6C7C9EA
:10033000CACBCCCDCED0D1D2D2D3D4D5D6D7D7D8A4
:10034000D9D9DADADBDBDBDCDCDCDCDCDDDDDDDDF6
:10035000DCDCDCDCDCDBDBDBDADAD9D9D8D7D7D6FE
:10036000D5D4D3D2D2D1D0CECDCCCBCAC9C7C6C5B5
:10037000C3C2C1BFBEBCBBB9B8B6B4B3B1AFAEACFB
:10038000AAA8A7A5A3A19F9E9C9A98969492908EA6
:100390008C8A89878583817F7D7B79777573716F7F
:1003A0006D6B6968666462605E5C5A59575553515B
:1003B000504E4C4A4947454342403E3D3B3A383611
:1003C000353332302F2D2C2A292826252322FFAA27
:1003D0007F554000010101010101010101020202FA
:1003E00002020202020203030303030303030404E1
:1003F00004040404040505050505060606060607AB
:100400000707070708080808090909090A0A0A0B63
:100410000B0B0C0C0C0D0D0D0E0E0E0F0F0F101004
:10042000111111121213131414151516161717188B
:100430001819191A1A1B1B1C1D1D1E1E1F202021F6
:100440002222232424252626272829292A2B2C2D3D
:100450002D2E2F30313232333435363738393A3B5E
:100460003C3D3E3F404142434445464748494A4C53
:100470004D4E4F50515354555658595A5B5D5E5F1F
:10048000616264656668696B6C6D6F7072737577B5
:10049000787A7B7D7E8082838587888A8C8E8F9117
:1004A000939596989A9C9EA0A2A3A5A7A9ABADAF41
:1004B000B1B3B5B7BABCBEC0C2C4C6C9CBCDCFD12B
:1004C000D4D6D8DBDDDFE2E4E7E9EBEEF0F3F5F8D4
:1004D000FAFDFF100346006F0075007200690065A9
:1004E00000720000000E034B0065006500620069A9
:1004F000006F0000000403090409023B0002010030
:10050000A0FA090400000103010100092111010002
:10051000012240000705810308000A0904010001C7
:1005200003000000092111010001223200070582A9
:100530000320000A120100020000000810CB47123D
:1005400000010102000105010980A10185031901D3
:100550002AB700150126B700950175108100C00566
:100560000C0901A101850419012AA002150126A088
:1005700002950175108100C005010906A10105075A
:1005800019E029E7150025019508750181029501FB
:10059000750881010507190029FF150026FF009540
:1005A0000675088100050819012905950575019151
:1005B00002950175039101C011241FBECFEFDAE04F
:1005C000DEBFCDBF04B603FE27C080911C0390910F
:1005D0001D03A0911E03B0911F038730904BA740CD
:1005E000B04BD1F410921C0310921D0310921E0305
:1005F00010921F0314BE84B7877F84BF0FB6F89490
:10060000A8958091600088618093600010926000DE
:100610000FBEE0E0F8E3099511E0A0E0B1E0ECEAFC
:10062000FCE502C005900D92A63EB107D9F723E084
:10063000A6EEB1E001C01D92AC31B207E1F70E9415
:1006400065170C94542E0C94000081E0089581E00D
:1006500008950C94270308950C942B031F93CF93B4
:10066000DF9300D000D01F92CDB7DEB749835A8305
:100670006B833091E80189819A81311114C066231E
:1006800059F0222349F00E94D109182F682F89813F
:100690009A810E947A0903C00E94A509182F6981D6
:1006A0007A81812F04C00E94D10969817A810F90DB
:1006B0000F900F900F900F90DF91CF911F910C949E
:1006C0006B10FC01262F40815181628173818481EE
:1006D0000C942E0381E00895CF93DF93EC0160E04A
:1006E0000E946103BE01DF91CF910C942C030E9404
:1006F000C4120E94FC030C94FE120C94FA1280E0C7
:100700000C94FD0308950C9482030E941B080E9420
:1007100083032FEF84E39CE0215080409040E1F779
:1007200000C000000C947D260F931F93CF93DF939E
:100730008C0161E00E946103EC01B8010E94290371
:10074000882309F444C0B801CE010E946E22882398
:10075000F1F1B801CE010E94B01F8823C1F1B801A8
:10076000CE010E94CA21882391F1B801CE010E94D6
:100770009E1E882361F1F8018281882309F1CB351F
:100780008DE5D807C1F050F4C115FCE5DF0781F015
:10079000CF3DDC45A9F40E947F0F19C0CC35EDE5B3
:1007A000DE0761F0CD35DD4559F40E94C80E08C062
:1007B0000E9485030CC00E94D10E02C00E94D40E7C
:1007C000C801DF91CF911F910F910C94250380E018
:1007D000DF91CF911F910F9108950C9482030E9495
:1007E000EA240E94FD030C94ED0308950C94F50394
:1007F00081E008950C94F8030895CF93C82F0E94C8
:10080000F6038C2F0E94FA03CF910895CF93DF93C4
:10081000CDB7DEB72B970FB6F894DEBF0FBECDBFB6
:100820004F83588769877A878B8761110E94140EDE
:100830009E012F5F3F4F86E0F90111928A95E9F7FB
:1008400085E0FE013796D90101900D928A95E1F776
:1008500089819A814C815D81452B31F09F3F31F434
:1008600091E08F3F19F403C091E001C090E090FF48
:1008700009C049815A816B817C818D819E810E9452
:10088000350D05C0C9010E946A038111F2CF2B9674
:100890000FB6F894DEBF0FBECDBFDF91CF910895A4
:1008A000FC01808191810E94130A0895CF938823CF
:1008B00009F4A1C0C82F8238C1F40E94EA2481FD46
:1008C0009AC069E380910201909103010E9476250C
:1008D0000E94460E2FEF81EE94E021508040904020
:1008E000E1F700C0000069E319C0833801F50E94F8
:1008F000EA2480FD80C063E58091020190910301AC
:100900000E9476250E94460E2FEF81EE94E0215042
:1009100080409040E1F700C0000063E58091020153
:10092000909103010E947825CF910C94460E843853
:10093000C1F40E94EA2482FD5EC067E48091020156
:10094000909103010E9476250E94460E2FEF81EEC2
:1009500094E0215080409040E1F700C0000067E43F
:10096000DDCF8CEF8C0F813AF8F48C2F0E948E2112
:10097000811141C06C2F80910201909103010E946E
:100980004025882349F06C2F80910201909103014A
:100990000E9478250E94460E6C2F80910201909152
:1009A00003010E947625C0CF80E28C0F883048F486
:1009B000C77081E001C0880FCA95EAF70E94F70D61
:1009C000B3CFEBE5EC0FE33040F4F0E0E558FE4F39
:1009D000808190E0CF910C940825C85AC73158F413
:1009E000EC2FF0E0EE0FFF1FE35BFE4F8081918163
:1009F000CF910C941E25CF910895882309F45BC0F4
:100A0000682F823879F40E94EA2481FF54C069E398
:100A100080910201909103010E9476250E94460E6A
:100A200069E310C08338B1F40E94EA2480FF43C018
:100A300063E580910201909103010E9476250E9456
:100A4000460E63E580910201909103010E94782592
:100A50000C94460E843879F40E94EA2482FF2BC05D
:100A600067E480910201909103010E9476250E9423
:100A7000460E67E4E7CF8CEF860F813A18F380E2E9
:100A8000860F883048F4677081E001C0880F6A954E
:100A9000EAF70E94FD0DDCCF8BE5860F833020F452
:100AA00080E090E00C940825685A673120F480E0DB
:100AB00090E00C941E2508951F93CF93DF93182F79
:100AC000EB010E945604209741F08FE99FE00197C7
:100AD000F1F700C000002197F6CF812FDF91CF9171
:100AE0001F910C94FD04893319F060E070E002C09E
:100AF00060E570E00C945C05882321F00E94F70DFE
:100B00000C94460E0895882321F00E94FD0D0C944C
:100B1000460E0895CF92DF92EF92FF920F931F93AC
:100B2000CF93DF937C01162FC72FFC01D281058163
:100B300002950F700E94ED0D8823B9F0DD23A9F016
:100B40008C2F807F803421F080E2810F883068F024
:100B50008091C80282FD09C082E00E94960E0E9428
:100B6000ED0D91E0D82ED92601C0D12CCC2EC29407
:100B70008FE0C8228C2D90E0FC01EA5AFF4F0C94C4
:100B8000A62D8C2F807FCF70882311F0C295C07F57
:100B9000DD2399F0CC2309F49BC180E2810F8830DA
:100BA00010F0111104C08C2F0E94F70D03C08C2F80
:100BB0000E94070E0E94460E8BC1812F0E94FD04E9
:100BC000CC2309F4AAC180E2810F883038F11123C7
:100BD00029F18C2F0E940D0E24C08C2F807FCF70A6
:100BE000803211F0C295C07F112319F01130A1F1AC
:100BF0003DC08091C80282FF17C0DD2349F0CC239D
:100C000029F08C2F0E94F70D0E94460E80E061C1F2
:100C100080E00E94FD04CC2309F47FC18C2F0E9448
:100C2000FD0D0E94460E79C1DD2371F0002341F0D5
:100C3000013031F40E94270E8C2B0E942F0E6DC1C3
:100C40000E94270E8C2B1DC0002319F0013009F4DF
:100C500064C10E943C0E25C0DD2321F0063008F05F
:100C60005CC10EC0053008F058C11BC0DD2361F027
:100C7000002331F0F701858180FF2AC18F708583C1
:100C80008C2F0E947C0549C1002359F0193309F0CB
:100C900030C1FFEF27EE83E0F15020408040E1F7C4
:100CA00026C18C2F0E94830538C18C2F869586958E
:100CB000837019F0813061F030C1DD2321F0812F84
:100CC0009C2F937002C080E090E00E9408252DC107
:100CD000DD2321F0812F9C2F937002C080E090E0F3
:100CE0000E941E2522C18C2F837009F045C0D111AE
:100CF00018C1412F429546954770440F440F612F0C
:100D00006F70862F90E0A0E0B0E0042E04C0880F42
:100D1000991FAA1FBB1F0A94D2F714FF10C00FE03F
:100D200010E020E030E004C0000F111F221F331F2D
:100D30004A95D2F7009510952095309503C000E0B4
:100D400010E09801C695C695C370BC01CD01602B1B
:100D5000712B822B932BC23049F058F4C13019F01B
:100D60000E949008DEC00E947E08DBC00E94A2089C
:100D7000D8C00E947C08D5C0DD2319F08C2F81706B
:100D800001C08695882309F4CCC0412F4295469531
:100D90004770440F440F612F6F70862F90E0A0E0E2
:100DA000B0E0042E04C0880F991FAA1FBB1F0A942D
:100DB000D2F714FF10C00FE010E020E030E004C0D4
:100DC000000F111F221F331F4A95D2F7009510956F
:100DD0002095309503C000E010E09801C695C695B7
:100DE000C370BC01CD01602B712B822B932BC230C1
:100DF00049F058F4C13019F00E94550992C00E9480
:100E000043098FC00E9467098CC00E94B60889C040
:100E1000CF70DD2339F08C2F0E94DC08812F0E94D7
:100E20007C057FC0812F0E9483058C2F0E94FD08C6
:100E300078C0123F21F128F4103F41F0113FC1F07A
:100E400043C0133F19F1143F79F03EC0DD2341F058
:100E5000053008F062C08C2F8F710E9422095DC09E
:100E6000063008F05AC0F7CF8091C80282FF18C040
:100E7000DD2339F08C2F8F710E94DC084EC0DD23FA
:100E8000C9F38C2F8F710E94FD0847C0DD2329F024
:100E90008C2F8F710E94C70840C00E94C2083DC0BD
:100EA000DD2349F0CF718C2F0E94DC0863E08C2F8A
:100EB0000E947B0E32C081E00E94960E023068F1E3
:100EC00082E00E94960E29C0DD2331F0002391F2CA
:100ED000812F0E94560421C0002399F2193349F44E
:100EE0009FEFE7EEF3E09150E040F040E1F700C003
:100EF0000000812F0E94FD0410C04C2F4F70612F05
:100F0000C7010E9467100E94410A0FC04C2F4F700A
:100F1000612FC7010E946A1008C088EF8C0D8430D1
:100F200020F40E94EA240E94FD03DD20C9F00E9403
:100F3000E90D80FD15C0F70112820E94E30D0E94A9
:100F4000DC08C7010E94D1070E94E30DDF91CF9119
:100F50001F910F91FF90EF90DF90CF900C94FD08C0
:100F6000DF91CF911F910F91FF90EF90DF90CF9085
:100F700008950F931F93CF93DF93EC0168817981DC
:100F80008A810E941E0A8C010E9479090E946A08C7
:100F9000B801CE010E948A05DF91CF911F910F9178
:100FA0000895CF93DF93EC01988189812B813C8157
:100FB000232B31F08F3F31F481E09F3F19F403C0C0
:100FC00081E001C080E080FD1DC0CE010E9494033D
:100FD000811110C00E94ED0D8823A1F08A81882321
:100FE00089F08091C80282FD0DC082E0DF91CF912F
:100FF0000C94960ECE010E94B907CE01DF91CF91DD
:101000000C946C03DF91CF91089580E090E00E94F2
:10101000082580E090E00E941E250E94140E0E9488
:10102000240E0C94460E80910201909103010E94BF
:101030007A250C9405080E94040E0C941308E92FDD
:10104000E295EF704E2F50E0FA013297EE30F10545
:10105000B0F4EA59FF4F0C94A62D803F91F018F49C
:10106000883E68F40EC0843F51F40BC0883E48F0BF
:10107000813F29F406C093FB882780F9089580E01A
:10108000089581E00895FC01808191810E94130AF6
:101090000E941F080895CF93DF9300D000D01F92C5
:1010A000CDB7DEB70F900F900F900F900F90DF919C
:1010B000CF910895CF93DF9300D000D000D0CDB76B
:1010C000DEB726960FB6F894DEBF0FBECDBFDF9118
:1010D000CF910895089508950C946B080C946C08B2
:1010E0000E946E08609310027093110280931202A6
:1010F000909313020C9405080C9470080F931F939F
:1011000000911002109111022091120230911302ED
:10111000602B712B822B932B1F910F910C947008D5
:101120000F931F930091100210911102209112024F
:101130003091130260237123822393231F910F9117
:101140000C9470080F931F930091100210911102DC
:101150002091120230911302602771278227932772
:101160001F910F910C9470080C946B080E94B408A6
:1011700060930C0270930D0280930E0290930F0205
:101180000C94050860E070E0CB010C94B6080F9356
:101190001F9341E050E060E070E08A019B0104C0D1
:1011A000000F111F221F331F8A95D2F7C901B80102
:1011B0001F910F910C94B6080F931F9341E050E0DC
:1011C00060E070E004C0440F551F661F771F8A95CA
:1011D000D2F780910C0290910D02A0910E02B09175
:1011E0000F028A019B01082B192B2A2B3B2BC901CB
:1011F000B8011F910F910C94B6080F931F9341E013
:1012000050E060E070E004C0440F551F661F771F78
:101210008A95D2F7409550956095709580910C0213
:1012200090910D02A0910E02B0910F028A019B01D4
:10123000082319232A233B23C901B8011F910F91C9
:101240000C94B6080F931F9341E050E060E070E00B
:1012500004C0440F551F661F771F8A95D2F78091EF
:101260000C0290910D02A0910E02B0910F028A0122
:101270009B01082719272A273B27C901B8011F917D
:101280000F910C94B6080F931F9300910C021091CC
:101290000D0220910E0230910F02602B712B822BD8
:1012A000932B1F910F910C94B6080F931F930091ED
:1012B0000C0210910D0220910E0230910F0260235A
:1012C0007123822393231F910F910C94B6080F93DF
:1012D0001F9300910C0210910D0220910E0230918B
:1012E0000F0260277127822793271F910F910C947B
:1012F000B608089527E0929F800D1124E82FE69507
:10130000E695E695877051E001C0550F8A95EAF79A
:1013100085E0E89FF0011124E751FE4F20E030E026
:1013200070E04081CB01022E02C0969587950A9409
:10133000E2F78170819584278523842781932F5F2D
:101340003F4F2530310569F7089527E0929F800DC2
:101350001124682F669566956695982F977085E09D
:10136000689FB001112440E050E080E0FB01E40FF1
:10137000F51FE751FE4F208130E0092E02C036955F
:1013800027950A94E2F721703327042E01C0220F1B
:101390000A94EAF7822B4F5F5F4F4530510531F7D2
:1013A0000895BF92CF92DF92EF92FF920F931F9317
:1013B000CF93DF938C01C0900C02D0900D02E0908F
:1013C0000E02F0900F028091100290911102A091F4
:1013D0001202B0911302C82AD92AEA2AFB2ACFE1C5
:1013E000D0E0D701C6010C2E04C0B695A7959795FD
:1013F00087950A94D2F780FD04C0219790F7B12C0D
:1014000007C0BC2EB8018C2F0E949B110197A9F335
:101410008B2DDF91CF911F910F91FF90EF90DF9077
:10142000CF90BF900895CF93DF93EC010E94D10934
:10143000BE010E949B11DF91CF9108951F93CF931E
:10144000DF93EB019091E801992321F0CB010E94F9
:10145000130A13C0882349F0CB010E94D109182F29
:10146000682FCE010E947A0904C0CB010E94A50911
:10147000182FBE01812F0E949B11DF91CF911F91E8
:101480000895EF92FF920F931F93CF93DF938C01F8
:10149000892B09F46CC0F12CEE24E394E801219629
:1014A000F8018491843740F4843008F051C08130D1
:1014B00081F0823019F15BC0853709F444C0A8F18E
:1014C0009CE7980F903708F052C08F770E94FD0478
:1014D00041C00E5F1F4FFE01849190E2980F98303B
:1014E00050F48770FE2D01C0FF0F8A95EAF78F2F09
:1014F0000E94170E14C00E9456042DC00E5F1F4F8D
:10150000FE01849190E2980F983060F48770FE2D70
:1015100001C0FF0F8A95EAF78F2F0E941D0E0E94CF
:10152000460E19C00E94FD0416C00E5F1F4FFE013B
:10153000C491CC2381F08FE99FE00197F1F700C0BF
:101540000000C150F6CF0E5F1F4FFE01F49003C0A4
:101550000E9456048E018F2D882309F49FCFEFE956
:10156000FFE03197F1F700C000008150F5CFDF9127
:10157000CF911F910F91FF90EF9008951F93CF93FC
:10158000DF93C091140216E080911502C81799F0FC
:10159000D0E01C9FF0011D9FF00D1124EA5EFD4F6D
:1015A0004081518162817381848195810E945A08B2
:1015B0002196C770E9CFDF91CF911F910895409197
:1015C0004602509147026091480270914902809111
:1015D0004A0290914B020C945A08EF92FF920F939B
:1015E0001F93CF93DF9380914B0282958F7009F008
:1015F00065C080914802882309F460C0809114027C
:10160000F090150210914602009147026091490244
:1016100070914A0291E01F3F09F090E0C0910001F3
:10162000D0910101292F96E0E92E8F1509F446C0CB
:101630006115710521F00F3F21F030E003C031E06A
:1016400001C0322F90E030FD36C0E89EF001E99EE7
:10165000F00D1124DF01AA5EBD4F11963C91119748
:10166000301329C03C91311326C012963C91129739
:10167000311121C013964D915C911497461B570B65
:101680004C175D07C0F480914B028F70806180938E
:101690004B02E55EFD4F80818F708061808386E420
:1016A00092E00E94D107DF91CF911F910F91FF909F
:1016B000EF900C94BE0A01968770B7CFDF91CF915F
:1016C0001F910F91FF90EF9008959F92AF92BF925C
:1016D000CF92DF92EF92FF920F931F93CF93DF93FE
:1016E000CDB7DEB761970FB6F894DEBF0FBECDBFA2
:1016F0008C0185E0F801DE011D9601900D928A951E
:10170000E1F7D8011296EC9090914602E0914702E1
:101710002091490230914A022115310531F0EF3F05
:1017200031F481E09F3F19F403C081E001C080E003
:10173000B82FB1709B2E80FD47C1D8014C911196F6
:101740005C9111971396AD90BC90149786E4C82EC7
:1017500082E0D82EF0904802B501621B730B2091F5
:10176000000130910101FF2009F4D9C080914B02A2
:101770006217730708F095C0282F207F09F052C028
:101780005E1313C0491311C0FE2CE1100EC08F7000
:10179000806180934B020E94DF0AC6010E94D1073C
:1017A00080914B02F80185834DC1AB2831F05F3F3A
:1017B00031F481E04F3F19F403C081E001C080E0C3
:1017C00080FD03C081E08E2502C080E090E0F82F0C
:1017D000F170FF2E80FF1CC0809114022091150231
:1017E00036E0821709F40BC190E0389FF001399F71
:1017F000F00D1124EA5EFD4F6181561306C0608131
:10180000461303C06281E61203C001968770E9CFD8
:10181000FE2CEE2009F416C180914B02816080936A
:101820004B0254C05E1306C0491304C0E11002C04D
:10183000F80199C0C8010E944308882361F1EE2095
:1018400051F120914B02822F82958F7090E0029788
:1018500074F0809146029091470298878F83198691
:10186000BB86AA862C87CE0107960E94D10786E008
:10187000F801A6E4B2E001900D928A95E1F70E948A
:10188000ED0A0E94DF0A0AC05E1711F1C8010E942A
:10189000430881112CC0C8010E94D107FF24F39492
:1018A000D1C0282F207F81F77A2DB98AA88A6E2D82
:1018B00089890E944B0886E492E00E94D10786E065
:1018C000D6011D928A95E9F70E94DF0AF12CBAC071
:1018D0004913DCCFE110DACFF8018583C8010E94FB
:1018E000D10786E0D6011D928A95E9F7ABC0EE20BC
:1018F00091F220914B02822F82958F7090E0029797
:101900000CF4B5CF80914602909147029A83898367
:101910001B82BD82AC822E83CE010196A6CF6217B8
:10192000730708F044C0FE2CEE2009F4B4CF5E1318
:1019300030C049132EC020914B0220FD21C0822FC0
:1019400082958F70482F50E041155105C9F0F8017C
:1019500025834F30510541F08F5F982F9295907FEE
:10196000822F8F70892B8583C8010E94D10786E062
:10197000F801A6E4B2E001900D928A95E1F73CC02F
:1019800086E0F801A6E4B2E001900D928A95E1F7B5
:1019900059C0C8010E944308811169CF80914B0250
:1019A000816080934B02C8010E94D1074BC07A2D01
:1019B000B98AA88A6E2D89890E944B0886E0D601D3
:1019C0001D928A95E9F718C0EE2009F464CFC8018A
:1019D0000E944308F82E882309F45DCF86E0F801C1
:1019E000A6E4B2E001900D928A95E1F786E492E0D8
:1019F0000E9450040E94ED0A0E94DF0A23C04D8716
:101A00005E878D859E850E94130A292F22952F704F
:101A1000223028F49F7039F0811105C00BC02430AA
:101A200028F49F7049F4805E883020F0C8010E943D
:101A3000D1079F2CF92C06C0D80115969C91907F58
:101A400091F7F8CF8F2D61960FB6F894DEBF0FBED9
:101A5000CDBFDF91CF911F910F91FF90EF90DF905D
:101A6000CF90BF90AF909F9008951F93CF93DF9337
:101A7000CDB7DEB72C970FB6F894DEBF0FBECDBF43
:101A80004F83588769877A878B879C87CE01079613
:101A90000E94650B8823D1F09F8188852A853B852C
:101AA000232B31F08F3F31F481E09F3F19F403C0C5
:101AB00081E001C080E080FD47C04F815885698585
:101AC0007A858B859C850E945A083EC086E0FE017F
:101AD0003796DE01119601900D928A95E1F7FF810C
:101AE000E8856A857B856115710531F0EF3F31F43A
:101AF00081E0FF3F19F403C081E001C080E080FD78
:101B000023C02091150230E0C90101968770992702
:101B10004091140250E084179507F1F1F983EA83AC
:101B20007D836C8396E0929FD001939FB00D11242A
:101B3000AA5EBD4FFE01319601900D929A95E1F794
:101B4000809315020E94BE0A16E0809114029091C3
:101B50001502891771F1189FC00111248A5E9D4FEB
:101B60000E94650B882329F1E09114021E9FF00169
:101B70001124EA5EFD4F408151816281738184812D
:101B800095810E945A088091140290E00196877016
:101B9000992780931402D9CF0E941B081092150236
:101BA00010921402E6E4F2E086E0DF011D928A95CD
:101BB000E9F72C960FB6F894DEBF0FBECDBFDF91CC
:101BC000CF911F91089580914C02859585958595BB
:101BD000089580914C028770089590914C029770FF
:101BE00081E009F480E00895809158020895909171
:101BF0005802892B8093580208958095909158023D
:101C00008923809358020895109258020895909164
:101C10005702892B8093570208958095909157021F
:101C20008923809357020895109257020895909146
:101C30005602892B80935602089580959091560202
:101C40008923809356020895109256020895809138
:101C50004D02089508950C942A0E0C942B0E909129
:101C6000C80292FD08C090914D02981721F0809310
:101C70004D020C942D0E089580914D02882329F079
:101C800010924D0280E00C942D0E0895E091020117
:101C9000F0910301809158028083E0910201F0915C
:101CA0000301908180915702892B8083E09102018A
:101CB000F0910301908180915602892B808380915D
:101CC0004D02882381F0E0910201F091030190819F
:101CD000892B808380910201909103010E94342519
:101CE00081110E943C0E80910201909103010C949D
:101CF000FD240C942A0E9091C80292FD10C098E029
:101D0000899F90011124262B20934C020E94DC080D
:101D100080914C028595859585950C94790E0C944F
:101D2000DC0810924C0280E00C94790E20914C0259
:101D30008095822380934C02982F977099F430E01D
:101D4000482F082E000C550B2417350759F0909199
:101D5000C80292FD07C08595859585950E94FD086E
:101D60000C94910E08959091C80292FB222720F9BD
:101D7000281769F080FB92F99093C8028091C702FE
:101D80009091C8020E94FB0E82E00C94960E08957A
:101D90008091C80282FB882780F991E089270C9402
:101DA000B30E81E00C94B30E80E00C94B30E80E08F
:101DB00090E00E941A2E21E0893E9E4F09F020E01B
:101DC000822F089582E090E00C940C2E83E090E046
:101DD0000C940C2ECF9384E090E00E940C2EC82F20
:101DE00082E290E00E940C2E2C2F30E0A901582BAB
:101DF000CA01CF910895CF93C92F682F84E090E056
:101E00000E94202E6C2F82E290E0CF910C94202E25
:101E1000AB01BC018FE090E00C94322EAB01BC0111
:101E200083E190E00C94322E60E070E0CB010C94E2
:101E30000E0F60E070E0CB010E94080F0C94140FAD
:101E400069EE7EEF80E090E00E943E2E60E082E04E
:101E500090E00E94202E60E083E090E00E94202E1F
:101E6000109210021092110210921202109213029C
:101E700060E084E090E00E94202E60E082E290E04A
:101E80000E94202E60E085E090E00E94202E60E01D
:101E900086E090E00E94202E6FEF87E090E00E94A5
:101EA000202E40E050E0BA0188E090E00E94322EFF
:101EB00060E08DE090E00E94202E40E050E0BA010A
:101EC00088E190E00E94322E60E087E190E00E947D
:101ED000202E40E050E0BA018CE190E00E94322ECA
:101EE00060E070E080E290E00E943E2E40E050E032
:101EF000BA0188E190E00E94322E0C94190F0C94E4
:101F0000200F682F8EE090E00C94202E0E94202657
:101F100060936602709367028093680290936902EF
:101F200060936202709363028093640290936502EF
:101F3000089585B7806885BF85B7806885BF089597
:101F40000C94BA1408950C94A20F0C94A20F0C9444
:101F5000A50F0C94A20F0C94A90F0C94A20F0E9431
:101F6000990F81EC92E10E94E0240E94AD0F0C9445
:101F7000AB0F0E94A30F0C94A20F0E940B260E948D
:101F800077120E949E130E94981F0E948E1D0C942F
:101F9000A70F9F92AF92BF92CF92DF92EF92FF92E4
:101FA0000F931F93CF93DF93CDB7DEB72A970FB66A
:101FB000F894DEBF0FBECDBF0E94281481110E948D
:101FC000860F8AE5A82E82E0B82E00E010E0902E61
:101FD000802F0E94E812D82EF501C1905F01C8261B
:101FE000B1F40F5F1F4F0830110589F78FEF898318
:101FF0008A831B820E9414268160782F9D838C83A4
:1020000049815A816B818D810E9406042FC0809185
:102010006A0281FD0E94EE12E12CFF24F3948C2DC4
:102020008F21F1F00E94A00F882399F0EE829F8209
:10203000DF2081E009F480E088870E941426816017
:10204000782F9A8789874E815F8168858A850E946B
:102050000604F801E65AFD4F8081F826F08206C09A
:10206000E394FF0CF7E0EF12DACFBBCF0E94C61D5E
:102070000E94EA24909159028917B9F00E94EA243B
:10208000809359022A960FB6F894DEBF0FBECDBFDB
:10209000DF91CF911F910F91FF90EF90DF90CF9044
:1020A000BF90AF909F900C94FD032A960FB6F894C2
:1020B000DEBF0FBECDBFDF91CF911F910F91FF907B
:1020C000EF90DF90CF90BF90AF909F90089580E009
:1020D00090E00895089528E3829FC0011124FC0137
:1020E00027E0729FE00DF11D1124E60FF11DEE0FA8
:1020F000FF1FE450FF4F859194910895880F991F19
:10210000FC01E454FD4F859194910895CF93DF93A2
:102110000E94A011EC01811520E5920708F041C052
:10212000811540E4940708F0CBC0803E910520F56E
:10213000803C910508F0B8C0883A910570F4853A62
:10214000910508F0A8C08130910509F4A1C008F4F8
:10215000EBC0049708F0EBC0E7C08F3B910508F097
:10216000E3C0885AC82FD0E0CC0FDD1FC258DE4F25
:10217000888199819464DCC0811550E2950750F400
:10218000C11581E0D80708F0D2C0C83ED10508F4D7
:10219000CEC0CAC0811520E3920708F08AC09F70A4
:1021A00085C0811545E5940708F046C0811554E5C2
:1021B000950708F09DC0C11582E5D80718F5C1152F
:1021C00021E5D20708F07FC0CE01F4E0969587950F
:1021D000FA95E1F7282F23703C2F337081E090E0CF
:1021E00002C0880F991F3A95E2F79C68922B2C2F1A
:1021F0002F702695269540E2249F90011124822B72
:10220000932B96C09E01237033279C2F969596950D
:10221000C115D34508F05CC041E050E002C0440F56
:10222000551F2A95E2F780E2989F90011124CA0178
:10223000822B932B9C687CC0811559E5950798F4F7
:10224000C11588E5D80708F058C0C11526E5D207A2
:1022500008F06AC08C2F0E9434128F7190E0982F82
:102260008827906265C081154AE5940708F44AC042
:1022700090568115904208F057C08D2F8F710E94A3
:1022800034129E01332730628F71A901582B4AC046
:1022900081E090E04DC0855AC82FD0E0C455DE4F94
:1022A000888190E0906444C0805C91090E947E1017
:1022B0003FC09927D3FF02C0986C3AC0906C38C0D9
:1022C0009F70906A35C09C2F8827816F906A30C0BC
:1022D00041E050E002C0440F551F2A95E2F780E22A
:1022E000989F90011124CA01822B932B9A6820C0D9
:1022F000982F8827846F906A1BC09C2F8827806F37
:10230000906A16C08F700E9434129E0194E0369538
:1023100027959A95E1F72F7030E0322F2227306908
:10232000A901482BCA0104C080E090E001C0CE01A1
:10233000DF91CF9108950E946B100E94861008953E
:102340008238910569F1B0F48133910509F46DC0CB
:1023500048F48932910509F463C08A32910509F481
:1023600069C008958533910509F455C089339105F5
:10237000B9F00895833E910569F138F4803E9105E6
:10238000B1F0823E910509F10895863E9105A9F1CB
:10239000873E9105B9F1843E910509F064C023C0E0
:1023A0002091C70220FD4FC021FD4DC008958091AE
:1023B000C70280FD44C08091C80280FF44C0809164
:1023C000C70284FD42C083EE4DC08091C70282FFE8
:1023D00038C0F5CF8091C70282FD33C08091C8021A
:1023E00080FD31C0ECCF8091C80281FF32C0809166
:1023F000C70284FD2AC087EE35C08091C70283FFE3
:1024000026C0F5CF8091C70283FD21C08091C8020C
:1024100081FD1FC0ECCF8091C70285FD1CC01DC08F
:102420008091C70285FD19C016C08091C70286FD44
:1024300016C017C08091C70286FD13C010C089E383
:1024400011C082EE0FC080EE0DC080E00BC086EEA2
:1024500009C084EE07C089E205C085E303C08AE2B3
:1024600001C081E390E008959091C70292FF0DC0F2
:10247000282F2871283019F4877F846006C0282F00
:102480002471243011F48B7F886093FF0DC0282FB6
:102490002871283119F4877E846106C0282F2471A1
:1024A000243111F48B7E88612091C80220FF0DC079
:1024B000382F3871383019F4877F816006C0382F83
:1024C0003171313011F48E7F886021FF0DC0282FCB
:1024D0002871283119F4877E816106C0282F217167
:1024E000213111F48E7E886194FD877E08951092CB
:1024F000C3021092C4021092C5021092C60208953F
:10250000CF92DF92EF92FF926B017C010E94BA148E
:1025100081110EC00E942026C61AD70AE80AF90ABD
:10252000C092C302D092C402E092C502F092C602E9
:10253000FF90EF90DF90CF9008950F931F930E942C
:10254000BA14882321F01F910F910C9420260E9429
:1025500020260091C3021091C4022091C50230913F
:10256000C602600F711F821F931F1F910F91089564
:102570000E94BA1481110C9414260E949D12CB0162
:10258000089580E0089508950E94D70E811102C039
:102590000E947F0F0E94E20E80936A020E94EA0E60
:1025A0009093C8028093C7020E94C3120E94E60E55
:1025B000682F70E080E090E00E947C0860910C023F
:1025C00070910D0280910E0290910F020C94B4084C
:1025D000E82FF0E0EF52FD4F80810895089580EAE2
:1025E0008A95F1F7089500C008950C94EF120895AC
:1025F0000C94F7120C94F8120C94F7120C94FC1231
:10260000F894E82FE295EF70F0E031A1282F2F70B9
:1026100081E090E001C0880F2A95EAF7982F909505
:10262000932391A392A1892B82A37894089508956E
:102630000C9417130F931F93CF93DF93C6EBD1E046
:1026400089918F3F11F00E94001381E0CA3BD807A7
:10265000B9F7CFEAD1E006EB11E089918F3F11F095
:102660000E9400130C171D07C1F7DF91CF911F9136
:102670000F910895CF92DF92EF92FF920F931F93E5
:10268000CF93DF938C01C62FD0E0CE018A549E4FAA
:102690007C01FC0190819F3F09F447C0D62EF8943D
:1026A000E92FE295EF70F0E081A19F7021E030E02A
:1026B00001C0220F9A95EAF7822B81A382A120956F
:1026C000282322A378940E94F312EFEAF1E046EB6C
:1026D00051E031E0C12C21912F3F89F0A22FA2952A
:1026E000AF70B0E090968C9190E02F7002C09595FD
:1026F00087952A95E2F780FD02C0832F01C080E014
:10270000C82A330F4E175F0731F7F70180818F3FDB
:1027100011F00E94001361E0C11001C060E08D2D36
:102720000E94F512C00FD11FC882DF91CF911F9177
:102730000F91FF90EF90DF90CF9008950E94D214F8
:102740008091040180910401811102C094E001C0D4
:1027500090E09093DA0284E0891B8093D9020E9472
:102760001A1388E0E1EDF2E0DF01982F1D929A95AF
:10277000E9F7E9ECF2E0DF011D928A95E9F784E0E0
:102780000E947C140E9477030C94E6140F931F930D
:10279000CF93DF9300D000D0CDB7DEB70E94BA143C
:1027A0006091DA028823E9F119821A821B821C8265
:1027B000862F90E08E010F5F1F4FB8018F529D4F03
:1027C0000E94F414882389F08091D90290E044E0BB
:1027D00050E0B8018F529D4F0E94F62D21E02093CA
:1027E0006B02892B69F410E019C080916B02882379
:1027F000D1F384E0F80111928A95E9F710926B0207
:10280000E091D902F0E0EF52FD4F89819A81AB81CE
:10281000BC8180839183A283B38311E00E947D03F6
:102820000DC070E06F527D4F8091D90290E08F52C1
:102830009D4F0E9484150E94181310E0812F0F9065
:102840000F900F900F90DF91CF911F910F910895EE
:10285000EF92FF920F931F93CF93DF93CDB7DEB725
:1028600028970FB6F894DEBF0FBECDBF8E010F5F65
:102870001F4F88E0F80111928A95E9F7F12C6F2D2E
:10288000C8010E943A13F394F4E0FF12F8CF48E035
:1028900050E0B80189EC92E00E94F62D7C0121E025
:1028A000892B09F420E0E114F10441F088E0F801FB
:1028B000A9ECB2E001900D928A95E1F76091DA02FD
:1028C00070E06F527D4F44E089EC92E00E947D14ED
:1028D000EF2819F40E94C61302C081E090E0289608
:1028E0000FB6F894DEBF0FBECDBFDF91CF911F9121
:1028F0000F91FF90EF9008950895FF920F931F930B
:10290000CF93DF938C01F62ED72FC42F222349F0CB
:1029100081E080936E020E94142690936D02809352
:102920006C0280916E028823C1F080916C029091BC
:102930006D020E942C26059780F0EF2DFD2FD80107
:102940004C2F50E0CD01801B910B841795071CF490
:102950008D918193F7CF10926E02DF91CF911F91ED
:102960000F91FF90089552985A9889B182FB882759
:1029700080F908958091710281110DC00E94412D4E
:10298000811102C082E001C081E080937102823037
:1029900011F40E943C2D81E090917102913009F078
:1029A00080E008950E94B314809304018091040193
:1029B00067E0882311F080E001C087E00E940718DB
:1029C0000E94BA1481110C942C1508950E94BA1417
:1029D000811102C00C942E15089581E0909172022D
:1029E0009A3008F080E008950F931F93CF93DF9300
:1029F000EC018B01809172028A3038F4B801CE016B
:102A00000E94821581111DC00AC080916F029091B1
:102A100070020E942C26843F914080F715C080915F
:102A200072028F3F19F08F5F809372028091720261
:102A30008A3060F00E9414269093700280936F0297
:102A400003C01092720202C080E001C081E0DF91F9
:102A5000CF911F910F9108950C941B230C941E236A
:102A6000EF92FF920F931F93CF93DF937901C82FBB
:102A7000880FDD0B41155105A9F08AE08C9FF0010C
:102A80008D9FF00D1124EB5FFE4F838194818D5853
:102A90009D4F228130E04217530708F49A01A901A3
:102AA0000E94032ECE010E942824892B09F50115CE
:102AB000110501F18AE08C9FF0018D9FF00D11242A
:102AC000EB5FFE4F458150E00417150708F4A8019D
:102AD0008AE08C9FF0018D9FF00D1124EB5FFE4F7B
:102AE000668177816D587D4FC7010E94032E02C019
:102AF00080E001C081E0DF91CF911F910F91FF90A5
:102B0000EF9008950C94F0160C9414170F931F93E4
:102B1000CF93DF9300D000D0CDB7DEB760919002A5
:102B20007091910280919202909193020E943B26B3
:102B3000643671058105910528F10E949D12DC0122
:102B4000CB010296A11DB11D89839A83AB83BC83FF
:102B500000E010E020E030E044E050E0BE016F5FB4
:102B60007F4F82E00E943015182F882361F00E9469
:102B7000202660939002709391028093920290932A
:102B8000930201C011E0812F0F900F900F900F90D2
:102B9000DF91CF911F910F910895AF92BF92CF9285
:102BA000DF92EF92FF920F931F93CF93DF937C01FD
:102BB0005B016A010E94ED14811103C001E010E085
:102BC00002C00AE010E0C1E0D0E0F894B501C7010E
:102BD000F60109957894811115C021960C171D07EF
:102BE00094F0CC9F9001CD9F300D300D112480E0EA
:102BF00090E045E34A95F1F70000019682179307AC
:102C0000C1F7E3CF81E0DF91CF911F910F91FF904A
:102C1000EF90DF90CF90BF90AF9008950F931F93E8
:102C2000CF93DF93CDB7DEB728970FB6F894DEBF0A
:102C30000FBECDBFCE0101960E94811C1885609108
:102C400094027091950280919602909197020E9451
:102C50003B26643671058105910510F41123D9F0E6
:102C600000E010E020E030E048E050E0BE016F5F9F
:102C70007F4F83E00E943015882359F00E94202660
:102C800060939402709395028093960290939702BA
:102C900002C080E003C00E947E1C81E028960FB62F
:102CA000F894DEBF0FBECDBFDF91CF911F910F9182
:102CB0000895AF92BF92CF92DF92EF92FF920F935F
:102CC0001F93CF93DF9300D000D01F92CDB7DEB714
:102CD0005B01E090BE01F090BF0101E010E09E01B9
:102CE0002B5F3F4F40E050E060E070E080E00E94EA
:102CF0003015182F882309F43EC067018FEFC81ADA
:102D0000D80A60918C0270918D0280918E02909110
:102D10008F020E943B26643671058105910518F1EA
:102D200004E010E09E012F5F3F4F40E050E060E084
:102D300070E081E00E943015182F64E070E0C60159
:102D40000E94991F91E02D81281390E0192351F1E1
:102D50000E94202660938C0270938D0280938E02D5
:102D600090938F0211C064E070E0C6010E94991F29
:102D70009D818913D5CFF70181819281A381B4818F
:102D800089839A83AB83BC83112361F089819A8103
:102D9000AB81BC818093880290938902A0938A02C0
:102DA000B0938B028091880290918902A0918A024F
:102DB000B0918B02F50180839183A283B383812F2D
:102DC0000F900F900F900F900F90DF91CF911F9168
:102DD0000F91FF90EF90DF90CF90BF90AF9008954C
:102DE0000F931F93CF93DF93EC018B0149E556E1DD
:102DF0000E94CD15882391F046E855E1B801CE0137
:102E00000E94CD15882351F04EE056E1B801CE0165
:102E1000DF91CF911F910F910C94CD1580E0DF9140
:102E2000CF911F910F9108950F931F93CF93DF932D
:102E3000F894C091BE01D091BF01CE01019624E06B
:102E4000FB01DC0101900D922A95E1F764E070E04E
:102E50000E94991F88837894F8946D817E818F8178
:102E6000988500918402109185022091860230910C
:102E70008702601771078207930751F060938402FD
:102E80007093850280938602909387020E9480123D
:102E90007894F8948889882331F060E0CE0109960F
:102EA0000E94591D188A7894DF91CF911F910F913C
:102EB00008950E9402280E94BD0F0C940E280E94C3
:102EC00012280E94C90F0C942C280E949B250E9456
:102ED000E9270E94AF0F0E9459170E945F170E94B6
:102EE000B90FFBCFEF92FF920F931F93CF93DF9316
:102EF0008B01682F11110AC0442329F0E82FF0E05C
:102F0000ED52FC4F6491762F862F75C0212F30E053
:102F1000E82FF0E0442321F0ED52FC4FE491F0E083
:102F200046E0049FC0011124CFEFD0E0BE010E9413
:102F30005C2D4BEA4603C001479F900D1124800F82
:102F4000911D800F911D982F990F890FAE01421B83
:102F5000530B4E9FD0014F9FB00D5E9FB00D1124BB
:102F60009B2F189FA0011124452F55278E01041B6C
:102F7000150B0E9FA0010F9F500D1E9F500D112489
:102F80007E01E81AF108E29E8001E39E100DF29E98
:102F9000100D1124212F3327C21BD30BCE9F90017C
:102FA000CF9F300DDE9F300D112462307105A9F0E6
:102FB00048F46115710569F061307105C9F48B2F12
:102FC000752F0DC06430710581F058F066307105C1
:102FD00079F47E2F8B2F932F0DC0832F7B2F9E2F65
:102FE00009C08E2F7B2F952F05C08E2F732F02C007
:102FF0007E2F852F692FDF91CF911F910F91FF9029
:10300000EF90089541E00E94721708950895E0E35B
:10301000F1E08083618308950E9402180895CF93A0
:10302000DF93762FE901682F842F0E940C18798393
:1030300068838A83DF91CF9108958091DC02282FE5
:10304000269530E02115310519F48170826005C0A4
:103050002532310524F0817088648093DC02089564
:1030600088E090E00C94142ECF92DF92EF92FF92C2
:103070006B017C010E941D18B701A60188E090E059
:10308000FF90EF90DF90CF900C94322EECEDF2E0B9
:1030900083E0808311828FEF828383831482A5EA89
:1030A000B2E012968C911297836012968C93608195
:1030B0007181828193810C9434188091DC0280FFAD
:1030C00002C08695089580E008959091E0029330C3
:1030D00018F49F5F9093E002882351F06091DC0226
:1030E0007091DD028091DE029091DF020C94341821
:1030F000089581E00C9465189091E002992319F0ED
:1031000091509093E002882351F06091DC0270911D
:10311000DD028091DE029091DF020C943418089554
:1031200081E00C947C1870E00C946D1F609131016B
:103130008091DC0280FF0AC08091300123E0829FF1
:10314000C00111248F519D4F0C949318809132012E
:1031500090913301891780F7E82FF0E09F01220F4B
:10316000331FE20FF31FEF51FD4F118210821282C5
:103170008F5FF0CF9091DC0290FF16C090913201EA
:1031800020913301921770F4E92FF0E0DF01AA0FCC
:10319000BB1FEA0FFB1FEF51FD4F8183608342830A
:1031A0009F5FF0CF0C9496180895CF93DF9300D0D3
:1031B0001F92CDB7DEB79091DC0290FF0AC09E014E
:1031C0002F5F3F4F0E940F184B8169818A810E94B7
:1031D000BA180F900F900F90DF91CF910895CF9371
:1031E000DF93EC01EC81F0E0E253FD4F4491ECED14
:1031F000F2E0628181810E94D5188C818F5F8C837F
:10320000DF91CF910895CF93DF93EC01ECEDF2E0E5
:10321000438162818C810E94D5188C818F5F8C8361
:10322000DF91CF9108950F931F93CF93DF9300D039
:103230001F92CDB7DEB78C018091980281110AC030
:103240009E012F5F3F4F4FEF6FEF0E940F188A8153
:1032500080939802F8018481813051F028F0823007
:1032600061F4409198020AC08091980240E007C042
:103270006091980240E080E003C040E080E060E0C0
:103280000E94BA18F801848190E0019663E070E032
:103290000E94702D84830F900F900F90DF91CF913B
:1032A0001F910F910895AF92BF92CF92DF92EF924C
:1032B000FF920F931F93CF93DF9300D01F92CDB750
:1032C000DEB7182FF62E042FE22E9091DC0290FF2D
:1032D0007EC0E92FE695AE2FB0E0A054BE4F8C9192
:1032E0008093A5029E7F923061F49E012F5F3F4F35
:1032F000812F0E940F184B8169818A810E94BA1820
:1033000043C0823019F40091DF023EC0863019F4C8
:103310001091DD0239C08930D9F38931A9F5E9511D
:103320008E2F8170D82EE695F0E0E253FC4FA590E9
:10333000B490C12CBB2460913401C61618F52C2D15
:1033400030E0A29EC001A39E900DB29E900D11246C
:1033500070E00E945C2D812FD11002C0860F01C049
:10336000861B90913201290F311DA901440F551F71
:10337000240F351F2F513D4F402F6F2D0E940F18E6
:10338000C394D9CF0E9496188091DD02181308C00B
:103390008091DE02F81204C08091DF02081729F044
:1033A0008091A70282608093A7021093DD02F092C1
:1033B000DE020093DF02EE2051F06091DC0270919A
:1033C000DD028091DE029091DF020E9434180F909E
:1033D0000F900F90DF91CF911F910F91FF90EF9081
:1033E000DF90CF90BF90AF900895ECEDF2E0918127
:1033F000282F4381628188E0890F0C94531981E062
:103400000C94F519ECEDF2E09181282F4381628153
:1034100088EF890F0C94531981E00C94021AECED9B
:10342000F2E0628121E1620F08F46FEF282F4381FF
:1034300081810C94531981E00C940F1AECEDF2E0A9
:10344000628121E1621B08F460E0282F43818181C1
:103450000C94531981E00C941E1AECEDF2E04381B8
:1034600021E1420F08F44FEF282F628181810C94F3
:10347000531981E00C942D1AECEDF2E0438121E127
:10348000421B08F440E0282F628181810C9453197B
:1034900081E00C943C1A20E00C945319FF920F9396
:1034A0001F93CF93DF93EC01F12C0FEF10E06091AD
:1034B0003401F616F0F4809132012F2D30E0280F00
:1034C000311DC901880F991F280F391F2F513D4FFA
:1034D00070E0C8010E94702D962F8C814091DF0210
:1034E0006091DE02F99E800D11240E940F18F39462
:1034F000DECF0E9496189A818C8190FF02C08F5F68
:1035000001C081508C83DF91CF911F910F91FF906B
:1035100008958F929F92AF92BF92CF92DF92EF92D7
:10352000FF920F931F93CF93DF93EC018A8180FF6B
:1035300003C0BB24BA9402C0BB24B3948C81811114
:103540000DC081E0B81206C0809134018150809393
:103550009A0202C010929A0281E08C83A12C4EE064
:10356000942E80913401A81608F044C08091320155
:10357000CA2CD12C8601080F111DC801880F991F74
:10358000080F191F0F511D4FF8011182108212826E
:1035900034E0E32EF12C812C80919A02880D8F303B
:1035A0002CF0692D0E944E2D892F05C087FF03C086
:1035B00090913401890F082E000C990BC816D9067A
:1035C00091F48091DF028E9DA0018F9D500D1124FA
:1035D000559547955595479598016091DE028091E4
:1035E000DD020E940F188B0CF1E0EF1AF108A1F632
:1035F000A394B7CF0E94961880919A0291E0B912D5
:103600000EC0811107C080913401815080939A02CD
:103610001C820FC0815080939A02BC820AC090E045
:1036200001966091340170E00E94702D80939A029F
:103630008C83DF91CF911F910F91FF90EF90DF90DE
:10364000CF90BF90AF909F908F9008951F93CF938E
:10365000DF93EC018C81811109C081E08C83109291
:10366000990292E090932F0180932E018091320174
:1036700090913301891770F4E82FF0E09F01220F39
:10368000331FE20FF31FEF51FD4F118210821282A0
:103690008F5FF0CF10E0609134011617C0F5E12F75
:1036A000F0E070E0CF010E94702D20913201820F76
:1036B00020919902022E000C330B90E0E217F307E1
:1036C000CCF020912F01022E000C330B2E173F0758
:1036D0008CF09C01220F331F820F931F9C012F51EE
:1036E0003D4F4091DF026091DE028091DD020E9439
:1036F0000F180BC0FC01EE0FFF1F8E0F9F1FFC0168
:10370000EF51FD4F1182108212821F5FC4CF0E94C1
:10371000961880912E0120919902280F20939902EA
:1037200090912F01980F90932F0119165CF4022E9F
:10373000000C330B4091340150E0415051092417E3
:10374000350734F0819580932E01813009F41C8275
:10375000DF91CF911F9108958F929F92AF92BF9268
:10376000CF92DF92EF92FF920F931F93CF93DF934D
:103770008C01FC014481C42FD0E09E01DE010E9437
:10378000B42D9B01AC010E94CA2D6B017C01E0E2CB
:10379000F0E0EC1BFD0BA5E5B0E09B01AC010E9445
:1037A000CA2D4B015C019F01DF010E94AC2D9B01E2
:1037B000AC010E94D52D9B01AC012C0D3D1D4E1D71
:1037C0005F1DC501B4010E94842DC22FD22F2A3261
:1037D00028F4F3E02F9F900111240DC025E530E07F
:1037E0002C1B3109C901880F991F280F391F37FF7A
:1037F00002C02F5F3F4F35952795C22FC095F12C02
:1038000085E5E82EED1A80913401F816C8F4F1FC34
:1038100002C08E2D01C08D2F909132012F2D30E0EE
:10382000290F311DA901440F551F240F351F2F519A
:103830003D4F4C2F6091DE020E940F18F394E3CFAE
:103840000E949618F8018481811102C091E003C0A2
:10385000803219F49FEF90932D0190912D01890FE3
:10386000F8018483DF91CF911F910F91FF90EF902A
:10387000DF90CF90BF90AF909F908F9008950F935F
:103880001F93CF93DF93EC0100E010E080913401AF
:10389000282F30E00217130724F590913201980188
:1038A000290F311DA901440F551F240F351F2F511A
:1038B0003D4F869590E04C81081719071CF444236E
:1038C00031F002C0411103C04091DF0201C040E06D
:1038D0006091DE028091DD020E940F180F5F1F4F82
:1038E000D5CF0E9496188C8190E00196817099271F
:1038F0008C83DF91CF911F910F9108951092A702B1
:10390000089525E0ECEDF2E0DC0101900D922A959E
:10391000E1F72091A5023091A6024091A702FC0197
:1039200025833683478308956091DC02669570E0B5
:103930004BE050E085E391E00E94E92D892B19F4DA
:1039400081E08093A6020E94B81290939F02809318
:103950009E028091A70284608093A7020895E5EA01
:10396000F2E0118282818460828308959091DC026A
:1039700090FF3AC09170811102C0926006C08532FA
:1039800010F0986402C0880F982B9093DC0280910D
:10399000A70281608093A702662351F06091DC0248
:1039A0007091DD028091DE029091DF020E94341856
:1039B0006091DC02669570E04BE050E085E391E0B9
:1039C0000E94E92D892B19F00E94AF1C02C00E94B1
:1039D000941C81E08093A1024091DF026091DE029D
:1039E0008091DD020C944B1A0895682F9091DC02AF
:1039F000969581E0890F853208F081E00C94B61C21
:103A000081E00C94F51C682F9091DC0296958FEF65
:103A1000890F09F484E20C94B61C81E00C94031D18
:103A200061E00C94B61CECEDF2E080818160808353
:103A300086950C94101D60E00C94B61CECEDF2E041
:103A400080818E7F808360817181828193810E94D9
:103A500034180E94AF1CE5EAF2E082818160828323
:103A60002FEF80E792E0215080409040E1F700C0C6
:103A700000000C9496188091DC0280FD0C941E1DB1
:103A80000C94131DECEDF2E080818E7F80830E9408
:103A9000AF1CE5EAF2E08281816082832FEF80E74C
:103AA00092E0215080409040E1F700C000000C946B
:103AB00096181F93CF93DF93EC01162F8F8180FF11
:103AC0000FC0888180FF0AC08091DC0281608093F2
:103AD000DC02888186950E94B61C02C00E94421DAD
:103AE0008F8181FF06C0212F4B816A8189810E94CD
:103AF00053198F8182FF08C08E81882319F00E949C
:103B0000941C02C00E94AF1C8F8183FF03C081E020
:103B10008093A102DF91CF911F9108958091A4021B
:103B2000811133C00E94D70E811104C00E947F0F03
:103B30000E9446180E9430186093DC027093DD02E8
:103B40008093DE029093DF028091A70283608093CE
:103B5000A7026E7F61F40E9446180E94301860939D
:103B6000DC027093DD028093DE029093DF020E94FC
:103B70001D180E94AF1C8091DC0280FF03C0869557
:103B80000E941B1D81E08093A4020895EF92FF9292
:103B90000F931F93CF93DF938091A602882309F49C
:103BA000ABC08091A502E091DC02E695E81BE093B2
:103BB000A002823049F4F0E0E653FD4FE491CE2FAD
:103BC000D0E00FEE18E149C0863049F4F0E0E95347
:103BD000FD4FE491CE2FD0E003E019E13EC08930E3
:103BE00051F4E695F0E0EC53FD4FE491CE2FD0E098
:103BF0000EE41AE132C08F3051F4E695F0E0EF5355
:103C0000FD4FE491CE2FD0E009E81AE126C08531BE
:103C100049F4F0E0E254FD4FE491CE2FD0E006E20B
:103C20001BE11BC0883181F0833239F4ECEBF2E008
:103C3000C591D49103E119E110C0843251F4C4EF6D
:103C4000D1E00FE31CE109C0C8E2D0E00CEA1BE1BF
:103C500004C0C0EDD7E006E018E18091A1028823FE
:103C600061F01092A1020E94B81290939F0280937B
:103C70009E021092A3021092A2020E94B812E0913A
:103C80009E02F0919F029C012E1B3F0B2F3F3F474E
:103C900098F520919D022223B1F010929D0220916F
:103CA0009B0230919C02821B930B8F3F9F4758F4DD
:103CB000205D3A4830939C0220939B028091A7029A
:103CC00088608093A702E090A202F090A302EC0F1C
:103CD000FD1FF0939F02E0939E028EE992E0F801AF
:103CE00009958091A2029091A302892B29F4EF28D3
:103CF00019F081E080939D02DF91CF911F910F9188
:103D0000FF90EF900895882311F0FA0101C0FB01A4
:103D10000994CF93DF93C82FD62F0E945D188C177C
:103D200040F00E945D188D1720F4DF91CF910C9424
:103D3000001D8C2FDF91CF910C94101D1F93CF93FA
:103D4000DF93FB0112811111C3C0EC010E94F40D3D
:103D50008272CD3CFCE5DF0709F49AC0A8F5C73CA8
:103D6000ECE5DE0709F476C0A8F4C43C9CE5D9076D
:103D700009F45FC028F4C33CDC4509F457C054C0C3
:103D8000C53C9CE5D90709F459C0C63CDC4509F49B
:103D90005CC04AC0CA3CFCE5DF0709F46AC050F4C5
:103DA000C83CECE5DE0709F45AC0C93CDC4509F41F
:103DB0005BC03AC0CB3C9CE5D90709F45FC0CC3C62
:103DC000DC4509F460C030C0C23DFCE5DF0709F402
:103DD0006FC088F4CF3C9CE5D90709F460C008F4B3
:103DE0005CC0C03DFCE5DF0709F45CC0C13DDC45BB
:103DF00009F45BC019C0C53D9CE5D90709F460C052
:103E000050F4C33DFCE5DF0709F455C0C43DDC4573
:103E100009F454C009C0C63D9CE5D90709F455C052
:103E2000CE35DD4509F454C011E052C00E943B1D5F
:103E30004FC04DE05DE160E07DE104C040E05DE148
:103E40006DE07DE10E94831E43C04CE05AE16FEFBC
:103E500079E1F8CF4FEF59E16CE07AE1F3CF4AE234
:103E60005AE16BE17AE1EECF4BE15AE16AE27AE1A5
:103E7000E9CF48E45AE169E37AE1E4CF49E35AE162
:103E800068E47AE1DFCF40E958E169E778E1DACF29
:103E900049E758E160E978E1D5CF81E017C065E0F6
:103EA00082E010C068E086E00DC06EE089E00AC0E4
:103EB00064E18FE007C067E185E104C088E106C0E6
:103EC00062E289E10E94891E03C083E20E94101D04
:103ED000812FDF91CF911F910895539A2BB1277FA6
:103EE0003BB138604FB7F894FC01CB01880F991FA4
:103EF000680F791F6E0F7F1FE617F70789F0819112
:103F000098E03BB9000000C087FF2BB9880F000084
:103F100000C000C000C02BB900C09A9591F7ECCF4B
:103F20004FBF8FE594E00197F1F700C000000895BE
:103F30000895FC01680F791F8FEF91E3E617F707EB
:103F400071F02191822728E030E087FF03C0880FBD
:103F5000892701C0880F21503109B9F7EFCF0895A3
:103F6000CF93DF93EC01FB018281882309F426C102
:103F7000C430FDE5DF0760F4CB3F9CE5D90768F46A
:103F80009E0122503C452431310508F018C105C07E
:103F9000C236EDE5DE0709F012C10E94EA0E9093E9
:103FA000C8028093C702C031FCE5DF0709F4CAC02C
:103FB00008F041C0C8309CE5D90709F4A4C0F0F46A
:103FC000C430FCE5DF0709F48CC068F4C2309CE51E
:103FD000D90709F482C0C330DC4509F0E5C08091FF
:103FE000C7028260DFC0C630FCE5DF0709F483C08A
:103FF00008F085C08091C7028860D4C0CC309CE5B1
:10400000D90709F490C068F4CA30FCE5DF0709F469
:104010007EC008F084C00E941B088091C70280689F
:10402000C1C0CE309CE5D90709F481C008F086C034
:104030008091C70294C0CD3FFCE5DF0709F47BC047
:1040400038F5C4319CE5D90709F49AC058F4C23157
:10405000FCE5DF0709F47AC008F07EC08091C70252
:104060008F7BA0C0CB3F9CE5D907F1F108F03FC0A2
:10407000C531DC4509F098C08091C70282FB222738
:1040800020F991E0922790FB82F990FB83F98AC096
:10409000C1308DE5D80709F467C050F48091C8029B
:1040A000CF3FECE5DE07C1F108F05BC08D7F65C056
:1040B000C3308DE5D80709F471C008F46DC0C2366D
:1040C000DD4509F071C08091C70284FB222720F9E9
:1040D00091E0922790FB84F965C08091C7028160CE
:1040E00061C08091C70216C08091C80216C080913D
:1040F000C802826042C08091C702806153C0809133
:10410000C70280624FC08091C70280644BC080911B
:10411000C7028860846046C0826081602EC0809142
:10412000C7028E7F3FC08091C7028D7F3BC08091C8
:10413000C702877F37C08091C80214C08091C70230
:104140008F7E30C08091C7028F7D2CC00E941B08DB
:104150008091C7028F7726C08091C702877F8B7FAF
:1041600021C08D7F8E7F09C08091C802982F9095C5
:1041700091708E7F892B90FB81F98093C80214C0C7
:104180000E941B088091C70287FB222720F991E03B
:10419000922790FB87F906C081E001C080E00E9471
:1041A000810F02C08093C7028091C7029091C8021C
:1041B0000E94FB0E0E941B0880E001C081E0DF919D
:1041C000CF9108950F931F9341E050E060E070E0BD
:1041D0008A019B0104C0000F111F221F331F8A9503
:1041E000D2F7C901B8010E947C081F910F910C946D
:1041F0001B088B3109F468C058F58B3009F486C070
:1042000078F4863009F445C020F4853009F44BC0B9
:104210007FC0873009F44AC0883009F477C078C07D
:10422000803109F464C068F48E3009F071C0809167
:104230006A0282FB222720F991E0922790FB82F903
:104240004CC0863109F462C0893109F45FC060C096
:104250008A32E1F060F4873209F455C028F48E31D7
:1042600008F456C08D5150C08932E9F051C08334F2
:1042700050F48A3308F045C0853309F444C08833CC
:1042800009F444C045C08334F1F142C00E947F0F5D
:104290003DC080916A02817F8E7F80936A0281E0B7
:1042A0008093A80208950E94850330C080916A021D
:1042B000982F9095917090FB80F980936A029111EC
:1042C00025C0897F877F10C080916A0281FB2227E9
:1042D00020F991E0922790FB81F980936A0299235B
:1042E000A9F080916A02816080936A020FC0809178
:1042F0006A0283FB222720F991E0922790FB83F941
:10430000ECCF895301C080E00E94E22081E0089553
:1043100080E0089580E008950C948A21CF93C82FFF
:104320008091A802882319F0813031F02BC00E94BF
:10433000F40D823249F504C00E94F40D823261F41A
:104340008C2F0E948C21811104C08C2F0E94F92097
:1043500017C081E090E014C08C2F0E948A21811147
:104360000EC0C43149F018F4CB3049F00FC0C93247
:1043700019F0C83321F00AC01092A80207C081E0EA
:10438000817006C01092A80280E002C080E0F8CFE1
:10439000CF910895CF93DF9386319C4541F5EB0192
:1043A0000E94F40D982F8A8120910201309103011F
:1043B000882379F09A7A81E009F480E08093A90259
:1043C000911102C069E201C065E3C9010E9476252E
:1043D0000AC08091A902811102C069E201C065E3AF
:1043E000C9010E9478250E94460E80E001C081E04C
:1043F000DF91CF9108950F931F93CF93DF93C42F35
:10440000D22FFC0182818823C9F04093AC020E9424
:1044100014269093AB028093AA0280E28C0F88301E
:1044200008F057C0C77081E001C0880FCA95EAF74D
:10443000DF91CF911F910F910C947C058091AC027C
:10444000481330C08091AA029091AB020E942C26A2
:10445000883C910538F510E21D0FCD17B9F080E2C8
:104460008C0F883040F4C77081E001C0880FCA9576
:10447000EAF70E948305183028F581E09D2F977098
:1044800001C0880F9A95EAF70E947C05802F0E9450
:1044900073051830F0F4D77081E001C0880FDA9509
:1044A000EAF70AC080E28C0F883098F4C77081E088
:1044B00001C0880FCA95EAF7DF91CF911F910F9144
:1044C0000C948305802FDF91CF911F910F910C9455
:1044D0007305DF91CF911F910F9108950F939C0168
:1044E000CB01243F4CE5340731F188F4293DFCE54C
:1044F0003F07D9F02A3D4CE5340779F1283D3C458A
:10450000A9F506E221EE41EE68ED7CE52BC0263FE1
:10451000FCE53F07E1F0A8F0273F3C4539F507E20D
:1045200025EE46EE67EF7CE51DC007E225EE45EE81
:1045300069ED7CE517C006E221EE40EE64EF7CE514
:1045400011C007E225EE44EE65EF7CE50BC006E204
:1045500021EE42EE66EF7CE505C008E221E045EE83
:104560006AED7CE50E94FB2180E008C0FC018281AD
:10457000882319F01092AC0201C081E00F910895D8
:104580008EE1489B02C08150E1F7489BFECF089521
:10459000589880E28A95F1F7589A0895FC012AE02C
:1045A0002A95F1F728E090E080E031E040E14A957B
:1045B000F1F7880F489B02C08160932700C000007C
:1045C00040E14A95F1F7215089F720E12A95F1F76A
:1045D00029B100C0000030E13A95F1F7217092272F
:1045E0002081920F90830895EF92FF920F931F9373
:1045F000CF93DF931F92CDB7DEB719828C017C0178
:10460000E60EF11C0E151F0551F00E94C022CE01CE
:1046100001960E94CE22F80181938F01F3CF81E0B1
:104620009981911180E00F90DF91CF911F910F91AF
:10463000FF90EF900895509A589A08955098589A7C
:10464000E89AE9E6F0E080818C7F808308956150EC
:1046500091E001C0990F6A95EAF720E031E09923D3
:1046600061F0492F482319F0589A232701C0589820
:1046700040E24A95F1F79695F2CF222311F0589A2D
:1046800001C0589880E28A95F1F758980895FF92F2
:104690000F931F93CF93DF93EC018C01060F111D35
:1046A000C017D10741F0F9900E94C82268E08F2D11
:1046B0000E942723F5CFDF91CF911F910F91FF909B
:1046C00008951F920F920FB60F921124EF92FF924E
:1046D0000F931F932F933F934F935F936F937F930A
:1046E0008F939F93AF93BF93EF93FF93CF93DF93FA
:1046F0001F92CDB7DEB719820E94C022CE0101966B
:104700000E94CE22A82FA695A695A6959A2F96959B
:1047100095702A2F2570920F292F237096959695C4
:10472000920F877089137CC08981811179C0A5306F
:1047300008F076C080E18A95F1F7589A509AB2E075
:10474000BA95F1F700C05898EA2EF12CEAE0AE9F36
:10475000D0011124AB5FBE4F1896ED91FC911997D3
:104760003097B1F06091BE017091BF0116962D9106
:104770003C911797260F371F13968D919C91149794
:10478000680F791F15964C91159712968C91099583
:104790008AE08E9DF0018F9DF00D1124EB5FFE4F9E
:1047A0006581662351F08091BE019091BF01268101
:1047B0003781820F931F0E9447230E94C822F0E195
:1047C000FA95F1F758985098589A80E18A95F1F740
:1047D0008AE08E9D80018F9D100D11240B5F1E4F6E
:1047E000D80112966C911297662399F08091BE01C0
:1047F0009091BF0113962D913C911497820F931FB6
:104800000E94F422D801ED91FC91811105C082E053
:1048100004C0D801ED91FC9188E080830E94C02201
:104820000F90DF91CF91FF91EF91BF91AF919F9149
:104830008F917F916F915F914F913F912F911F9138
:104840000F91FF90EF900F900FBE0F901F90189553
:104850000F931F93CF93DF93853091050CF0A9C080
:104860002AE0289FF001299FF00D1124EB5FFE4FF5
:1048700020813181232B09F49CC0EC01F894509ADB
:10488000589885E08A95F1F700008C2F8695857001
:104890009C2F9570890F982F9370869586958E0121
:1048A00023E0000F111F2A95E1F7890F082B0E94C2
:1048B000C822A4E0AA95F1F700C068E0802F0E940A
:1048C0002723B0E1BA95F1F75098589A489902C059
:1048D00000C0FCCF87E090E0489B17C0019799F497
:1048E000509A589A8AE08C9FF0018D9FF00D112408
:1048F000EB5FFE4F0190F081E02D81E080837894A2
:1049000081E090E058C000C0E7CF8AE08C9F800132
:104910008D9F100D11240B5F1E4FF80165816623DA
:10492000B9F08091BE019091BF0126813781820F3D
:10493000931F0E94F42281110BC0509A589AD801FB
:10494000ED91FC9182E08083789482E090E033C026
:104950000E94C022B0E2BA95F1F75898509AE0E16F
:10496000EA95F1F78AE08C9FF0018D9FF00D1124FC
:10497000EB5FFE4F6281662351F08091BE01909102
:10498000BF0123813481820F931F0E9447230E941D
:10499000C8228AE08C9FF0018D9FF00D1124EB5FFF
:1049A000FE4F0190F081E02D1082789480E090E03D
:1049B00002C084E090E0DF91CF911F910F910895A4
:1049C0009093E7018093E60108959093B30280935A
:1049D000B20208950E94BA14811103C08091AD0201
:1049E0000895E091B202F091B302309721F0019066
:1049F000F081E02D099480E00895E091B202F091F9
:104A0000B302309721F00280F381E02D09940895DC
:104A10002091B0023091B1022817390771F09093BC
:104A2000B1028093B002E091B202F091B3023097EC
:104A300021F00680F781E02D099408952091AE02BF
:104A40003091AF022817390771F09093AF0280932D
:104A5000AE02E091B202F091B302309721F00084EF
:104A6000F185E02D09940895FC01329697E080E0ED
:104A7000915029F021912223D9F38F5FF9CF089526
:104A8000662349F0FC01329608962191621729F0BD
:104A9000E817F907D1F780E0089581E008959C01B7
:104AA000FC0132969FEF80E04191461789F09F3FCD
:104AB00019F4411101C0982F8F5F8630A9F79F3FED
:104AC00039F0F901E90FF11D97FDFA956283089518
:104AD00008959C012A5F3F4FFC014281461301C0AB
:104AE0001282019682179307B9F708950C944F2507
:104AF0000C946925029626E0FC0111922A95E9F7AB
:104B0000089508950C94812583E08093B4020C9459
:104B10008225811102C081E001C082E08093B4024D
:104B20000C9482250C94892581E08093B4020C9426
:104B300082250C949425089580911303843031F1DB
:104B40000E947F031092B50220E488E190E00FB646
:104B5000F894A895809360000FBE2093600083B7FF
:104B6000817F846083BF83B7816083BF7894889599
:104B700083B78E7F83BF0FB6F894A89580916000AD
:104B8000886180936000109260000FBE08950895C0
:104B90000C94C725CF930E94C8250E9428140E9418
:104BA000C725C0E08C2F0E94E812811104C0CF5F9E
:104BB000C830C1F701C081E0CF9108950E941B0861
:104BC0000C94EF031F920F920FB60F9211248F9344
:104BD0009F93AF93BF938091B502811113C08091D1
:104BE0000B0390910C03A0910D03B0910E0341961D
:104BF000A11DB11D80930B0390930C03A0930D0393
:104C0000B0930E03BF91AF919F918F910F900FBE04
:104C10000F901F90189582E084BD93E095BD9AEFA8
:104C200097BD80936E0008952FB7F89480910B0381
:104C300090910C03A0910D03B0910E032FBF089526
:104C40002FB7F89460910B0370910C0380910D03C2
:104C500090910E032FBF08959C014FB7F894809157
:104C60000B0390910C03A0910D03B0910E034FBF65
:104C7000821B930B0895CF92DF92EF92FF922FB792
:104C8000F894C0900B03D0900C03E0900D03F090CB
:104C90000E032FBFA7019601261B370B480B590B9C
:104CA000CA01B901FF90EF90DF90CF9008957894FA
:104CB0001F920F920FB60F9211248F939F93AF9371
:104CC000BF9380910B0390910C03A0910D03B091C1
:104CD0000E030196A11DB11D80930B0390930C034D
:104CE000A0930D03B0930E03BF91AF919F918F914D
:104CF0000F900FBE0F901F90189587E797E790933E
:104D00000108809300089AE088E10FB6F894A8950E
:104D1000809360000FBE90936000FFCF8091C1022E
:104D200008950895CF93DF9321E02093E9002FEFBA
:104D30003091E800215035FD06C035ED3A95F1F788
:104D400000002111F5CF2091E80025FF14C0EC01EF
:104D500040E050E068E070E00E949E288091E8000A
:104D60008E778093E80088E0FE01A9EBB2E0019025
:104D70000D928A95E1F7DF91CF9108958093B60265
:104D80007093B8026093B70280911303843001F5E9
:104D900082E08093E9008FEF9091E800815095FDCB
:104DA00006C095ED9A95F1F700008111F5CF80913D
:104DB000E80085FF0DC040E050E063E070E086EB66
:104DC00092E00E949E288091E8008E778093E80010
:104DD0000895BC0184E00C94BE26BC0183E00C94D1
:104DE000BE26089580911203811109C00E942F2AC6
:104DF0000E948C2A8091E20084608093E2000895F2
:104E00001092120308950C94992560910F0381E08C
:104E1000611101C080E00C9484259091130381E01E
:104E2000943009F080E060910F030C94892542E0F2
:104E300061EC81E00E94A82942E261EC82E00E94DC
:104E4000A8299091130381E0943009F080E06091EB
:104E50000F030C94922580911503833009F461C0EF
:104E600030F4813071F0823009F49AC008958A30AC
:104E700009F486C08B3009F46CC0893009F0A8C0F1
:104E800020C080911403813A09F0A2C08091E8000B
:104E9000877F8093E8008091180390911903892BF4
:104EA00021F468E089EB92E003C060E080E090E0EC
:104EB00070E00E94E9288091E8008B778093E800F9
:104EC000089580911403813209F082C08091180303
:104ED00090911903029708F07BC08091E800877FCA
:104EE0008093E8008091E80082FD05C08091130363
:104EF0008111F8CF6DC02091F3008091F20090E015
:104F0000922B029731F48091F100813011F08630BC
:104F100021F48091F1008093C1028091E8008B77A9
:104F200053C080911403813A09F052C08091180354
:104F300090911903892B09F04BC08091E800877F7D
:104F40008093E8008091E80080FFFCCF80914C01C5
:104F500036C0809114038132D9F580911803909165
:104F60001903892BA9F58091E800877F8093E800D9
:104F70000E94DD298091160380934C010C941B083C
:104F800080911403813221F58091E800877F80931E
:104F9000E8000E94DD29809117038093C2020895E2
:104FA00080911403813AA1F48091E800877F809377
:104FB000E8008091E80080FFFCCF8091C2028093DE
:104FC000F1008091E8008E778093E8000C94DD2951
:104FD000089584B7877F84BF0FB6F894A895809111
:104FE0006000886180936000109260000FBE90E0C6
:104FF00080E80FB6F89480936100909361000FBE33
:105000000C9494250E942F2A0E948C2AE2EEF0E054
:1050100080818460808378940C94212D80E491E0D9
:105020000C94E524809113038530A9F48091130337
:10503000853079F40E949C25809111038823B1F377
:105040000E94CA25882391F30E9488280E941B0889
:10505000EDCF0C94DE25089508950C942F28292F68
:10506000332723303105C9F060F42130310581F058
:105070002230310509F044C08BE390E029EF34E0A1
:1050800043C021323105E1F02232310549F138C007
:1050900082E190E024E335E037C099278130910523
:1050A00049F028F0029761F5E3EDF4E005C0E5EF83
:1050B000F4E002C0E5EEF4E0849190E09F0124C0AA
:1050C0006115710541F061307105D1F489E090E01E
:1050D00024E235E019C089E090E02BE035E014C00F
:1050E0006115710541F06130710551F482E390E082
:1050F00026E435E009C080E490E028E735E004C00C
:1051000080E090E020E030E0FA01318320830895D0
:1051100080E189BD82E189BD09B400FEFDCF8091A7
:10512000D8008F7D8093D8008091E00082608093CA
:10513000E0008091E00081FDFCCF0895CF92DF92E6
:10514000EF92FF920F931F93CF93DF93EC018B01AC
:105150007A010E94FC29811133C0E114F10439F075
:10516000F70180819181081B190BC80FD91FC12C31
:10517000D12C0115110519F18091E80085FD16C0AB
:105180008091E8008E778093E800E114F10449F003
:10519000F70180819181C80ED91ED182C08285E03D
:1051A0000FC00E94FC29882321F30AC089918093B3
:1051B000F10001501109FFEFCF1ADF0ADACF80E0CA
:1051C000DF91CF911F910F91FF90EF90DF90CF90E3
:1051D000089520911A0330911B032617370748F0D2
:1051E0006115710539F42091E8002E772093E800CD
:1051F00001C0B901FC0120E06115710579F18091D0
:1052000013038823F1F18530F1F18091E80083FDEB
:105210003CC08091E80082FD2EC08091E80080FFB4
:10522000EBCF2091F3008091F20090E0922B61157A
:10523000710551F08830910538F421912093F100E7
:10524000615071090196F3CF21E0089709F020E041
:105250008091E8008E778093E800CECF2111CFCFE8
:105260000AC080911303882361F0853061F080913A
:10527000E80083FD0AC08091E80082FFF2CF80E061
:10528000089582E0089583E0089581E008952091D3
:105290001A0330911B032617370748F06115710573
:1052A00039F42091E8002E772093E80001C0B9017D
:1052B000FC0120E06115710591F1809113038823B1
:1052C00009F440C0853009F43FC08091E80083FDB7
:1052D0003DC08091E80082FD2FC08091E80080FFF2
:1052E000E9CF2091F3008091F20090E0922B6115BC
:1052F000710559F08830910540F424912093F10014
:105300003196615071090196F2CF21E0089709F0BA
:1053100020E08091E8008E778093E800CBCF2111C8
:10532000CCCF0AC080911303882361F0853061F0EF
:105330008091E80083FD0AC08091E80082FFF2CFEF
:1053400080E0089582E0089583E0089581E0089563
:10535000982F973068F59093E900981739F070917D
:10536000EC002091ED005091F00003C0242F762F27
:1053700050E021FD02C09F5FECCF3091EB003E7FFB
:105380003093EB003091ED003D7F3093ED00309194
:10539000EB0031603093EB007093EC002093ED0054
:1053A0005093F0002091EE0027FDE5CF80E00895B6
:1053B0008F708093E90081E008958091140387FF46
:1053C00011C08091E80082FD05C080911303811116
:1053D000F8CF11C08091E8008B770BC08091130348
:1053E000882349F08091E80080FFF8CF8091E800A1
:1053F0008E778093E80008952091E4003091E500D5
:1054000095E64091EC00842F817040FF23C080918D
:10541000E80080FD1DC080911303882399F085303A
:1054200099F08091EB0085FD11C04091E40050910E
:10543000E5002417350729F3915011F09A01E1CFC7
:1054400084E0089582E0089583E0089581E008955E
:1054500080E008954091E80042FFDDCF08950E946A
:105460009D2A0E94A52AE0EEF0E080818160808381
:10547000E8EDF0E080818F77808319BCA7EDB0E084
:105480008C918E7F8C9380818F7E8083109212030B
:1054900008950F931F93CF93DF930E949D2A0E943C
:1054A000A52AC8EDD0E088818F77888388818068BD
:1054B000888388818F7D888319BC10921303109292
:1054C0000F03109211031092100300EE10E0F80188
:1054D00080818B7F808388818160888342E060E067
:1054E00080E00E94A829E1EEF0E080818E7F808339
:1054F000E2EEF0E08081816080838081886080833B
:10550000F80180818E7F8083888180618883DF912C
:10551000CF911F910F910895E8EDF0E080818F7E8B
:105520008083E7EDF0E080818160808384E082BF4A
:1055300081E0809312030C94492AE8EDF0E0808129
:105540008E7F80831092E20008951092DA0010920C
:10555000E10008951F920F920FB60F9211242F931E
:105560003F934F935F936F937F938F939F93AF93EB
:10557000BF93EF93FF938091E10082FF0BC0809176
:10558000E20082FF07C08091E1008B7F8093E10001
:105590000E94202D8091DA0080FF1FC08091D800EA
:1055A00080FF1BC08091DA008E7F8093DA008091AB
:1055B000D90080FF0DC080E189BD82E189BD09B4B9
:1055C00000FEFDCF81E0809313030E94F22605C008
:1055D00019BC109213030E9400278091E10080FF04
:1055E00019C08091E20080FF15C08091E2008E7F9B
:1055F0008093E2008091E20080618093E2008091DC
:10560000D80080628093D80019BC85E08093130392
:105610000E9405278091E10084FF30C08091E20064
:1056200084FF2CC080E189BD82E189BD09B400FE00
:10563000FDCF8091D8008F7D8093D8008091E100CC
:105640008F7E8093E1008091E2008F7E8093E20064
:105650008091E20081608093E20080910F038823B3
:1056600011F084E007C08091E30087FD02C081E073
:1056700001C083E0809313030E940D278091E10015
:1056800083FF29C08091E20083FF25C08091E10063
:10569000877F8093E10082E08093130310920F03D1
:1056A0008091E1008E7F8093E1008091E2008E7F07
:1056B0008093E2008091E20080618093E20042E00A
:1056C00060E080E00E94A8298091F00088608093CB
:1056D000F0000E940327FF91EF91BF91AF919F913E
:1056E0008F917F916F915F914F913F912F910F908B
:1056F0000FBE0F901F9018951F920F920FB60F922A
:1057000011242F933F934F935F936F937F938F93C6
:105710009F93AF93BF93CF93DF93EF93FF93C0918A
:10572000E900CF708091EC00D82FD17080FDD0E8D7
:105730001092E9008091F000877F8093F0007894C8
:105740000E94C02B1092E9008091F0008860809345
:10575000F000CD2BCF70C093E900FF91EF91DF9166
:10576000CF91BF91AF919F918F917F916F915F91F9
:105770004F913F912F910F900FBE0F901F90189552
:105780001F93CF93DF93CDB7DEB7AA970FB6F894E8
:10579000DEBF0FBECDBFE4E1F3E08091F100819365
:1057A00023E0EC31F207C9F70E942B278091E80033
:1057B00083FF2EC18091140390911503492F50E06F
:1057C0004A30510508F024C1FA01EC58FF4F0C94FF
:1057D000A62D803821F0823809F01AC108C08091C6
:1057E000100390911103992389F082600FC080917A
:1057F00018038F70873008F00BC18093E900809107
:10580000EB0085FB882780F91092E9009091E80071
:10581000977F9093E8008093F1001092F100D1C03F
:10582000282F2D7F09F0F4C0882319F0823061F011
:10583000EFC080911603813009F0EAC0933009F07F
:1058400080E0809311032EC08091160381112AC03D
:10585000809118038F702FEF280F263008F0D8C0E2
:105860008093E9002091EB0020FF1CC0933021F4CD
:105870008091EB00806214C09091EB009061909356
:10588000EB0021E030E0A90102C0440F551F8A95CA
:10589000E2F74093EA001092EA008091EB00886002
:1058A0008093EB001092E9008091E800877F80935D
:1058B000E8000E94DD29ACC08111AAC01091160336
:1058C0001F778091E3008078812B8093E3008091A3
:1058D000E800877F8093E8000E94DD298091E8003E
:1058E00080FFFCCF8091E30080688093E30011117A
:1058F00002C082E001C083E08093130389C0805816
:10590000823008F085C080911603909117038C3D7A
:1059100053E0950779F583E08A838AE289834FB75C
:10592000F894DE01139620E03EE051E2E32FF0E030
:1059300050935700E49120FF03C0E295EF703F5F62
:10594000EF708E2F90E0EA3010F0C79601C0C0963D
:105950008D939D932F5F243149F74FBF8091E800CD
:10596000877F8093E8006AE270E0CE0101960E9492
:10597000E92816C06091180370911903AE014F5FBA
:105980005F4F0E942D28BC01892B09F441C09091E2
:10599000E800977F9093E80089819A810E944729C7
:1059A0008091E8008B778093E80032C0803881F5E1
:1059B0008091E800877F8093E80080910F038093B7
:1059C000F1008091E8008E7772CF811121C0809123
:1059D00016039091170399270297D4F48091E80059
:1059E000877F8093E8008091160380930F030E94C5
:1059F000DD2980910F03811106C08091E30087FDAE
:105A000002C081E001C084E0809313030E94172745
:105A10008091E80083FF0AC08091E800877F80932F
:105A2000E8008091EB0080628093EB00AA960FB6AD
:105A3000F894DEBF0FBECDBFDF91CF911F910895C7
:105A40000895CF93809113038823A1F0C091E900BA
:105A5000CF709091EC00892F817090FD80E8C82B69
:105A60001092E9008091E80083FD0E94C02BCF7066
:105A7000C093E900CF9108950E942F2A109213033A
:105A80000895E8EDF0E08081806180838AE18A9565
:105A9000F1F700C08091D9008170089587FB082E2E
:105AA000062687FD819567FD61950E94DD2D0EF428
:105AB000919507FC81950895AA1BBB1B51E107C076
:105AC000AA1FBB1FA617B70710F0A61BB70B881F8E
:105AD000991F5A95A9F780959095BC01CD0108951D
